{
  "contractName": "depotCashin",
  "abi": [
    {
      "constant": true,
      "inputs": [],
      "name": "ERC20Interface",
      "outputs": [
        {
          "name": "",
          "type": "address"
        }
      ],
      "payable": false,
      "stateMutability": "view",
      "type": "function"
    },
    {
      "constant": true,
      "inputs": [],
      "name": "ERC20BasicInterface",
      "outputs": [
        {
          "name": "",
          "type": "address"
        }
      ],
      "payable": false,
      "stateMutability": "view",
      "type": "function"
    },
    {
      "constant": true,
      "inputs": [
        {
          "name": "",
          "type": "address"
        },
        {
          "name": "",
          "type": "uint256"
        }
      ],
      "name": "ListeOp",
      "outputs": [
        {
          "name": "idOp",
          "type": "string"
        },
        {
          "name": "sender",
          "type": "address"
        },
        {
          "name": "receiver",
          "type": "address"
        },
        {
          "name": "typeOp",
          "type": "uint256"
        },
        {
          "name": "OperationDate",
          "type": "uint256"
        },
        {
          "name": "amount",
          "type": "uint256"
        },
        {
          "name": "transactionHash",
          "type": "bytes32"
        },
        {
          "name": "name",
          "type": "string"
        }
      ],
      "payable": false,
      "stateMutability": "view",
      "type": "function"
    },
    {
      "constant": true,
      "inputs": [],
      "name": "owner",
      "outputs": [
        {
          "name": "",
          "type": "address"
        }
      ],
      "payable": false,
      "stateMutability": "view",
      "type": "function"
    },
    {
      "constant": true,
      "inputs": [
        {
          "name": "",
          "type": "bytes32"
        }
      ],
      "name": "tokens",
      "outputs": [
        {
          "name": "",
          "type": "address"
        }
      ],
      "payable": false,
      "stateMutability": "view",
      "type": "function"
    },
    {
      "constant": true,
      "inputs": [
        {
          "name": "",
          "type": "address"
        }
      ],
      "name": "NombreOp",
      "outputs": [
        {
          "name": "",
          "type": "uint256"
        }
      ],
      "payable": false,
      "stateMutability": "view",
      "type": "function"
    },
    {
      "inputs": [],
      "payable": false,
      "stateMutability": "nonpayable",
      "type": "constructor"
    },
    {
      "constant": false,
      "inputs": [
        {
          "name": "address_",
          "type": "address"
        }
      ],
      "name": "addNewToken",
      "outputs": [
        {
          "name": "",
          "type": "bool"
        }
      ],
      "payable": false,
      "stateMutability": "nonpayable",
      "type": "function"
    },
    {
      "constant": true,
      "inputs": [],
      "name": "tokenSymbole",
      "outputs": [
        {
          "name": "result",
          "type": "bytes32"
        }
      ],
      "payable": false,
      "stateMutability": "pure",
      "type": "function"
    },
    {
      "constant": false,
      "inputs": [
        {
          "name": "sender",
          "type": "address"
        },
        {
          "name": "receiver",
          "type": "address"
        },
        {
          "name": "OperationDate",
          "type": "uint256"
        },
        {
          "name": "amount",
          "type": "uint256"
        },
        {
          "name": "typeOperation",
          "type": "uint256"
        },
        {
          "name": "name",
          "type": "string"
        }
      ],
      "name": "newOperation",
      "outputs": [],
      "payable": false,
      "stateMutability": "nonpayable",
      "type": "function"
    },
    {
      "constant": true,
      "inputs": [
        {
          "name": "sender",
          "type": "address"
        }
      ],
      "name": "getOperationLengthByBorrower",
      "outputs": [
        {
          "name": "",
          "type": "uint256"
        }
      ],
      "payable": false,
      "stateMutability": "view",
      "type": "function"
    },
    {
      "constant": true,
      "inputs": [
        {
          "name": "sender",
          "type": "address"
        },
        {
          "name": "receiver",
          "type": "address"
        }
      ],
      "name": "getOperationLength",
      "outputs": [
        {
          "name": "",
          "type": "uint256"
        }
      ],
      "payable": false,
      "stateMutability": "view",
      "type": "function"
    },
    {
      "constant": true,
      "inputs": [
        {
          "name": "index",
          "type": "uint256"
        },
        {
          "name": "sender",
          "type": "address"
        },
        {
          "name": "receiver",
          "type": "address"
        }
      ],
      "name": "getOperationInfoByIndexAway",
      "outputs": [
        {
          "name": "",
          "type": "string"
        },
        {
          "name": "",
          "type": "uint256"
        },
        {
          "name": "",
          "type": "uint256"
        },
        {
          "name": "",
          "type": "bytes32"
        },
        {
          "name": "",
          "type": "string"
        }
      ],
      "payable": false,
      "stateMutability": "view",
      "type": "function"
    },
    {
      "constant": true,
      "inputs": [
        {
          "name": "index",
          "type": "uint256"
        },
        {
          "name": "sender",
          "type": "address"
        }
      ],
      "name": "getOperationInfoByIndex",
      "outputs": [
        {
          "name": "",
          "type": "string"
        },
        {
          "name": "",
          "type": "address"
        },
        {
          "name": "",
          "type": "uint256"
        },
        {
          "name": "",
          "type": "uint256"
        },
        {
          "name": "",
          "type": "bytes32"
        },
        {
          "name": "",
          "type": "string"
        }
      ],
      "payable": false,
      "stateMutability": "view",
      "type": "function"
    },
    {
      "constant": false,
      "inputs": [
        {
          "name": "hash",
          "type": "bytes32"
        },
        {
          "name": "sender",
          "type": "address"
        },
        {
          "name": "_timetocompate",
          "type": "uint256"
        }
      ],
      "name": "setOperationHash",
      "outputs": [],
      "payable": false,
      "stateMutability": "nonpayable",
      "type": "function"
    }
  ],
  "bytecode": "0x60806040526000805534801561001457600080fd5b5033600160006101000a81548173ffffffffffffffffffffffffffffffffffffffff021916908373ffffffffffffffffffffffffffffffffffffffff1602179055506128d7806100656000396000f3006080604052600436106100d0576000357c0100000000000000000000000000000000000000000000000000000000900463ffffffff1680631bbc4b83146100d557806321dcafdb1461012c578063509d5bfb1461018357806364db444a1461033f57806382accc911461039a5780638da5cb5b146103f55780638ef5c5251461044c578063904194a3146105ce578063a18ec19b1461063f578063a567679414610696578063c2d3cb331461075d578063d5aaa07f146108cc578063d7e4613b14610923578063ff10561714610956575b600080fd5b3480156100e157600080fd5b506100ea6109cd565b604051808273ffffffffffffffffffffffffffffffffffffffff1673ffffffffffffffffffffffffffffffffffffffff16815260200191505060405180910390f35b34801561013857600080fd5b506101416109f3565b604051808273ffffffffffffffffffffffffffffffffffffffff1673ffffffffffffffffffffffffffffffffffffffff16815260200191505060405180910390f35b34801561018f57600080fd5b506101ce600480360381019080803573ffffffffffffffffffffffffffffffffffffffff16906020019092919080359060200190929190505050610a19565b60405180806020018973ffffffffffffffffffffffffffffffffffffffff1673ffffffffffffffffffffffffffffffffffffffff1681526020018873ffffffffffffffffffffffffffffffffffffffff1673ffffffffffffffffffffffffffffffffffffffff16815260200187815260200186815260200185815260200184600019166000191681526020018060200183810383528b818151815260200191508051906020019080838360005b8381101561029657808201518184015260208101905061027b565b50505050905090810190601f1680156102c35780820380516001836020036101000a031916815260200191505b50838103825284818151815260200191508051906020019080838360005b838110156102fc5780820151818401526020810190506102e1565b50505050905090810190601f1680156103295780820380516001836020036101000a031916815260200191505b509a505050505050505050505060405180910390f35b34801561034b57600080fd5b50610380600480360381019080803573ffffffffffffffffffffffffffffffffffffffff169060200190929190505050610bde565b604051808215151515815260200191505060405180910390f35b3480156103a657600080fd5b506103f36004803603810190808035600019169060200190929190803573ffffffffffffffffffffffffffffffffffffffff16906020019092919080359060200190929190505050610c4f565b005b34801561040157600080fd5b5061040a610d67565b604051808273ffffffffffffffffffffffffffffffffffffffff1673ffffffffffffffffffffffffffffffffffffffff16815260200191505060405180910390f35b34801561045857600080fd5b5061049760048036038101908080359060200190929190803573ffffffffffffffffffffffffffffffffffffffff169060200190929190505050610d8d565b60405180806020018773ffffffffffffffffffffffffffffffffffffffff1673ffffffffffffffffffffffffffffffffffffffff168152602001868152602001858152602001846000191660001916815260200180602001838103835289818151815260200191508051906020019080838360005b8381101561052757808201518184015260208101905061050c565b50505050905090810190601f1680156105545780820380516001836020036101000a031916815260200191505b50838103825284818151815260200191508051906020019080838360005b8381101561058d578082015181840152602081019050610572565b50505050905090810190601f1680156105ba5780820380516001836020036101000a031916815260200191505b509850505050505050505060405180910390f35b3480156105da57600080fd5b506105fd60048036038101908080356000191690602001909291905050506110fb565b604051808273ffffffffffffffffffffffffffffffffffffffff1673ffffffffffffffffffffffffffffffffffffffff16815260200191505060405180910390f35b34801561064b57600080fd5b50610680600480360381019080803573ffffffffffffffffffffffffffffffffffffffff16906020019092919050505061112e565b6040518082815260200191505060405180910390f35b3480156106a257600080fd5b5061075b600480360381019080803573ffffffffffffffffffffffffffffffffffffffff169060200190929190803573ffffffffffffffffffffffffffffffffffffffff169060200190929190803590602001909291908035906020019092919080359060200190929190803590602001908201803590602001908080601f0160208091040260200160405190810160405280939291908181526020018383808284378201915050505050509192919290505050611146565b005b34801561076957600080fd5b506107c860048036038101908080359060200190929190803573ffffffffffffffffffffffffffffffffffffffff169060200190929190803573ffffffffffffffffffffffffffffffffffffffff169060200190929190505050611ece565b6040518080602001868152602001858152602001846000191660001916815260200180602001838103835288818151815260200191508051906020019080838360005b8381101561082657808201518184015260208101905061080b565b50505050905090810190601f1680156108535780820380516001836020036101000a031916815260200191505b50838103825284818151815260200191508051906020019080838360005b8381101561088c578082015181840152602081019050610871565b50505050905090810190601f1680156108b95780820380516001836020036101000a031916815260200191505b5097505050505050505060405180910390f35b3480156108d857600080fd5b5061090d600480360381019080803573ffffffffffffffffffffffffffffffffffffffff1690602001909291905050506122e4565b6040518082815260200191505060405180910390f35b34801561092f57600080fd5b5061093861232d565b60405180826000191660001916815260200191505060405180910390f35b34801561096257600080fd5b506109b7600480360381019080803573ffffffffffffffffffffffffffffffffffffffff169060200190929190803573ffffffffffffffffffffffffffffffffffffffff169060200190929190505050612374565b6040518082815260200191505060405180910390f35b600560009054906101000a900473ffffffffffffffffffffffffffffffffffffffff1681565b600660009054906101000a900473ffffffffffffffffffffffffffffffffffffffff1681565b600260205281600052604060002060205280600052604060002060009150915050806000018054600181600116156101000203166002900480601f016020809104026020016040519081016040528092919081815260200182805460018160011615610100020316600290048015610ad25780601f10610aa757610100808354040283529160200191610ad2565b820191906000526020600020905b815481529060010190602001808311610ab557829003601f168201915b5050505050908060010160009054906101000a900473ffffffffffffffffffffffffffffffffffffffff16908060020160009054906101000a900473ffffffffffffffffffffffffffffffffffffffff1690806003015490806004015490806005015490806006015490806007018054600181600116156101000203166002900480601f016020809104026020016040519081016040528092919081815260200182805460018160011615610100020316600290048015610bd45780601f10610ba957610100808354040283529160200191610bd4565b820191906000526020600020905b815481529060010190602001808311610bb757829003601f168201915b5050505050905088565b600080610be961248e565b90508260076000836000191660001916815260200190815260200160002060006101000a81548173ffffffffffffffffffffffffffffffffffffffff021916908373ffffffffffffffffffffffffffffffffffffffff1602179055506001915050919050565b60008090505b600460008473ffffffffffffffffffffffffffffffffffffffff1673ffffffffffffffffffffffffffffffffffffffff16815260200190815260200160002054811015610d615781600260008573ffffffffffffffffffffffffffffffffffffffff1673ffffffffffffffffffffffffffffffffffffffff1681526020019081526020016000206000838152602001908152602001600020600401541415610d545783600260008573ffffffffffffffffffffffffffffffffffffffff1673ffffffffffffffffffffffffffffffffffffffff168152602001908152602001600020600083815260200190815260200160002060060181600019169055505b8080600101915050610c55565b50505050565b600160009054906101000a900473ffffffffffffffffffffffffffffffffffffffff1681565b60606000806000806060600260008873ffffffffffffffffffffffffffffffffffffffff1673ffffffffffffffffffffffffffffffffffffffff1681526020019081526020016000206000898152602001908152602001600020600001600260008973ffffffffffffffffffffffffffffffffffffffff1673ffffffffffffffffffffffffffffffffffffffff16815260200190815260200160002060008a815260200190815260200160002060020160009054906101000a900473ffffffffffffffffffffffffffffffffffffffff16600260008a73ffffffffffffffffffffffffffffffffffffffff1673ffffffffffffffffffffffffffffffffffffffff16815260200190815260200160002060008b815260200190815260200160002060040154600260008b73ffffffffffffffffffffffffffffffffffffffff1673ffffffffffffffffffffffffffffffffffffffff16815260200190815260200160002060008c815260200190815260200160002060050154600260008c73ffffffffffffffffffffffffffffffffffffffff1673ffffffffffffffffffffffffffffffffffffffff16815260200190815260200160002060008d815260200190815260200160002060060154600260008d73ffffffffffffffffffffffffffffffffffffffff1673ffffffffffffffffffffffffffffffffffffffff16815260200190815260200160002060008e8152602001908152602001600020600701858054600181600116156101000203166002900480601f0160208091040260200160405190810160405280929190818152602001828054600181600116156101000203166002900480156110425780601f1061101757610100808354040283529160200191611042565b820191906000526020600020905b81548152906001019060200180831161102557829003601f168201915b50505050509550808054600181600116156101000203166002900480601f0160208091040260200160405190810160405280929190818152602001828054600181600116156101000203166002900480156110de5780601f106110b3576101008083540402835291602001916110de565b820191906000526020600020905b8154815290600101906020018083116110c157829003601f168201915b505050505090509550955095509550955095509295509295509295565b60076020528060005260406000206000915054906101000a900473ffffffffffffffffffffffffffffffffffffffff1681565b60046020528060005260406000206000915090505481565b6000606060006007600061115861232d565b6000191660001916815260200190815260200160002060009054906101000a900473ffffffffffffffffffffffffffffffffffffffff16925082600660006101000a81548173ffffffffffffffffffffffffffffffffffffffff021916908373ffffffffffffffffffffffffffffffffffffffff16021790555082600560006101000a81548173ffffffffffffffffffffffffffffffffffffffff021916908373ffffffffffffffffffffffffffffffffffffffff160217905550600a861015151561122357600080fd5b6103e8861115151561123457600080fd5b6107d0600660009054906101000a900473ffffffffffffffffffffffffffffffffffffffff1673ffffffffffffffffffffffffffffffffffffffff166370a082318a6040518263ffffffff167c0100000000000000000000000000000000000000000000000000000000028152600401808273ffffffffffffffffffffffffffffffffffffffff1673ffffffffffffffffffffffffffffffffffffffff168152602001915050602060405180830381600087803b1580156112f457600080fd5b505af1158015611308573d6000803e3d6000fd5b505050506040513d602081101561131e57600080fd5b81019080805190602001909291905050501115151561133c57600080fd5b6107d086600660009054906101000a900473ffffffffffffffffffffffffffffffffffffffff1673ffffffffffffffffffffffffffffffffffffffff166370a082318b6040518263ffffffff167c0100000000000000000000000000000000000000000000000000000000028152600401808273ffffffffffffffffffffffffffffffffffffffff1673ffffffffffffffffffffffffffffffffffffffff168152602001915050602060405180830381600087803b1580156113fd57600080fd5b505af1158015611411573d6000803e3d6000fd5b505050506040513d602081101561142757600080fd5b8101908080519060200190929190505050011115151561144657600080fd5b600085141561149f576114986040805190810160405280600181526020017f41000000000000000000000000000000000000000000000000000000000000008152506114936000546124d5565b61262c565b915061159f565b60018514156114f8576114f16040805190810160405280600181526020017f49000000000000000000000000000000000000000000000000000000000000008152506114ec6000546124d5565b61262c565b915061159e565b60028514156115515761154a6040805190810160405280600181526020017f54000000000000000000000000000000000000000000000000000000000000008152506115456000546124d5565b61262c565b915061159d565b61159a6040805190810160405280600181526020017f4f000000000000000000000000000000000000000000000000000000000000008152506115956000546124d5565b61262c565b91505b5b5b81600260008b73ffffffffffffffffffffffffffffffffffffffff1673ffffffffffffffffffffffffffffffffffffffff1681526020019081526020016000206000600460008d73ffffffffffffffffffffffffffffffffffffffff1673ffffffffffffffffffffffffffffffffffffffff1681526020019081526020016000205481526020019081526020016000206000019080519060200190611645929190612806565b5088600260008b73ffffffffffffffffffffffffffffffffffffffff1673ffffffffffffffffffffffffffffffffffffffff1681526020019081526020016000206000600460008d73ffffffffffffffffffffffffffffffffffffffff1673ffffffffffffffffffffffffffffffffffffffff16815260200190815260200160002054815260200190815260200160002060010160006101000a81548173ffffffffffffffffffffffffffffffffffffffff021916908373ffffffffffffffffffffffffffffffffffffffff16021790555087600260008b73ffffffffffffffffffffffffffffffffffffffff1673ffffffffffffffffffffffffffffffffffffffff1681526020019081526020016000206000600460008d73ffffffffffffffffffffffffffffffffffffffff1673ffffffffffffffffffffffffffffffffffffffff16815260200190815260200160002054815260200190815260200160002060020160006101000a81548173ffffffffffffffffffffffffffffffffffffffff021916908373ffffffffffffffffffffffffffffffffffffffff16021790555084600260008b73ffffffffffffffffffffffffffffffffffffffff1673ffffffffffffffffffffffffffffffffffffffff1681526020019081526020016000206000600460008d73ffffffffffffffffffffffffffffffffffffffff1673ffffffffffffffffffffffffffffffffffffffff1681526020019081526020016000205481526020019081526020016000206003018190555086600260008b73ffffffffffffffffffffffffffffffffffffffff1673ffffffffffffffffffffffffffffffffffffffff1681526020019081526020016000206000600460008d73ffffffffffffffffffffffffffffffffffffffff1673ffffffffffffffffffffffffffffffffffffffff1681526020019081526020016000205481526020019081526020016000206004018190555085600260008b73ffffffffffffffffffffffffffffffffffffffff1673ffffffffffffffffffffffffffffffffffffffff1681526020019081526020016000206000600460008d73ffffffffffffffffffffffffffffffffffffffff1673ffffffffffffffffffffffffffffffffffffffff168152602001908152602001600020548152602001908152602001600020600501819055506000600102600260008b73ffffffffffffffffffffffffffffffffffffffff1673ffffffffffffffffffffffffffffffffffffffff1681526020019081526020016000206000600460008d73ffffffffffffffffffffffffffffffffffffffff1673ffffffffffffffffffffffffffffffffffffffff168152602001908152602001600020548152602001908152602001600020600601816000191690555083600260008b73ffffffffffffffffffffffffffffffffffffffff1673ffffffffffffffffffffffffffffffffffffffff1681526020019081526020016000206000600460008d73ffffffffffffffffffffffffffffffffffffffff1673ffffffffffffffffffffffffffffffffffffffff1681526020019081526020016000205481526020019081526020016000206007019080519060200190611af2929190612806565b506001600460008b73ffffffffffffffffffffffffffffffffffffffff1673ffffffffffffffffffffffffffffffffffffffff1681526020019081526020016000205401600460008b73ffffffffffffffffffffffffffffffffffffffff1673ffffffffffffffffffffffffffffffffffffffff168152602001908152602001600020819055506000808154809291906001019190505550600090505b600380549050811015611c7e578873ffffffffffffffffffffffffffffffffffffffff16600382815481101515611bc257fe5b9060005260206000200160009054906101000a900473ffffffffffffffffffffffffffffffffffffffff1673ffffffffffffffffffffffffffffffffffffffff16141515611c715760038990806001815401808255809150509060018203906000526020600020016000909192909190916101000a81548173ffffffffffffffffffffffffffffffffffffffff021916908373ffffffffffffffffffffffffffffffffffffffff160217905550505b8080600101915050611b8f565b6001851415611d8d57600560009054906101000a900473ffffffffffffffffffffffffffffffffffffffff1673ffffffffffffffffffffffffffffffffffffffff1663188b537289886040518363ffffffff167c0100000000000000000000000000000000000000000000000000000000028152600401808373ffffffffffffffffffffffffffffffffffffffff1673ffffffffffffffffffffffffffffffffffffffff16815260200182815260200192505050602060405180830381600087803b158015611d4c57600080fd5b505af1158015611d60573d6000803e3d6000fd5b505050506040513d6020811015611d7657600080fd5b810190808051906020019092919050505050611ec3565b600560009054906101000a900473ffffffffffffffffffffffffffffffffffffffff1673ffffffffffffffffffffffffffffffffffffffff1663fd3e6a0a8a8a896040518463ffffffff167c0100000000000000000000000000000000000000000000000000000000028152600401808473ffffffffffffffffffffffffffffffffffffffff1673ffffffffffffffffffffffffffffffffffffffff1681526020018373ffffffffffffffffffffffffffffffffffffffff1673ffffffffffffffffffffffffffffffffffffffff1681526020018281526020019350505050602060405180830381600087803b158015611e8657600080fd5b505af1158015611e9a573d6000803e3d6000fd5b505050506040513d6020811015611eb057600080fd5b8101908080519060200190929190505050505b505050505050505050565b60606000806000606060008060009150600090505b600460008a73ffffffffffffffffffffffffffffffffffffffff1673ffffffffffffffffffffffffffffffffffffffff168152602001908152602001600020548110156122d6578773ffffffffffffffffffffffffffffffffffffffff16600260008b73ffffffffffffffffffffffffffffffffffffffff1673ffffffffffffffffffffffffffffffffffffffff168152602001908152602001600020600083815260200190815260200160002060020160009054906101000a900473ffffffffffffffffffffffffffffffffffffffff1673ffffffffffffffffffffffffffffffffffffffff1614156122c957898214156122c257600260008a73ffffffffffffffffffffffffffffffffffffffff1673ffffffffffffffffffffffffffffffffffffffff1681526020019081526020016000206000828152602001908152602001600020600001600260008b73ffffffffffffffffffffffffffffffffffffffff1673ffffffffffffffffffffffffffffffffffffffff168152602001908152602001600020600083815260200190815260200160002060040154600260008c73ffffffffffffffffffffffffffffffffffffffff1673ffffffffffffffffffffffffffffffffffffffff168152602001908152602001600020600084815260200190815260200160002060050154600260008d73ffffffffffffffffffffffffffffffffffffffff1673ffffffffffffffffffffffffffffffffffffffff168152602001908152602001600020600085815260200190815260200160002060060154600260008e73ffffffffffffffffffffffffffffffffffffffff1673ffffffffffffffffffffffffffffffffffffffff1681526020019081526020016000206000868152602001908152602001600020600701848054600181600116156101000203166002900480601f0160208091040260200160405190810160405280929190818152602001828054600181600116156101000203166002900480156122105780601f106121e557610100808354040283529160200191612210565b820191906000526020600020905b8154815290600101906020018083116121f357829003601f168201915b50505050509450808054600181600116156101000203166002900480601f0160208091040260200160405190810160405280929190818152602001828054600181600116156101000203166002900480156122ac5780601f10612281576101008083540402835291602001916122ac565b820191906000526020600020905b81548152906001019060200180831161228f57829003601f168201915b50505050509050965096509650965096506122d7565b6001820191505b8080600101915050611ee3565b5b5050939792965093509350565b6000600460008373ffffffffffffffffffffffffffffffffffffffff1673ffffffffffffffffffffffffffffffffffffffff168152602001908152602001600020549050919050565b600060606040805190810160405280600481526020017f494d4654000000000000000000000000000000000000000000000000000000008152509050602081015191505090565b6000806000809150600090505b600460008673ffffffffffffffffffffffffffffffffffffffff1673ffffffffffffffffffffffffffffffffffffffff16815260200190815260200160002054811015612483578373ffffffffffffffffffffffffffffffffffffffff16600260008773ffffffffffffffffffffffffffffffffffffffff1673ffffffffffffffffffffffffffffffffffffffff168152602001908152602001600020600083815260200190815260200160002060020160009054906101000a900473ffffffffffffffffffffffffffffffffffffffff1673ffffffffffffffffffffffffffffffffffffffff161415612476576001820191505b8080600101915050612381565b819250505092915050565b600060606040805190810160405280600481526020017f494d4654000000000000000000000000000000000000000000000000000000008152509050602081015191505090565b60606000806060600080861415612523576040805190810160405280600181526020017f30000000000000000000000000000000000000000000000000000000000000008152509450612623565b8593505b60008414151561254d578280600101935050600a8481151561254557fe5b049350612527565b826040519080825280601f01601f1916602001820160405280156125805781602001602082028038833980820191505090505b5091506001830390505b60008614151561261f57600a868115156125a057fe5b066030017f0100000000000000000000000000000000000000000000000000000000000000028282806001900393508151811015156125db57fe5b9060200101907effffffffffffffffffffffffffffffffffffffffffffffffffffffffffffff1916908160001a905350600a8681151561261757fe5b04955061258a565b8194505b50505050919050565b60608060608060606000808895508794506000855111151561264a57fe5b84518651016040519080825280601f01601f1916602001820160405280156126815781602001602082028038833980820191505090505b509350839250600091505b855182101561273f5785828151811015156126a357fe5b9060200101517f010000000000000000000000000000000000000000000000000000000000000090047f010000000000000000000000000000000000000000000000000000000000000002838280600101935081518110151561270257fe5b9060200101907effffffffffffffffffffffffffffffffffffffffffffffffffffffffffffff1916908160001a905350818060010192505061268c565b600091505b84518210156127f757848281518110151561275b57fe5b9060200101517f010000000000000000000000000000000000000000000000000000000000000090047f01000000000000000000000000000000000000000000000000000000000000000283828060010193508151811015156127ba57fe5b9060200101907effffffffffffffffffffffffffffffffffffffffffffffffffffffffffffff1916908160001a9053508180600101925050612744565b82965050505050505092915050565b828054600181600116156101000203166002900490600052602060002090601f016020900481019282601f1061284757805160ff1916838001178555612875565b82800160010185558215612875579182015b82811115612874578251825591602001919060010190612859565b5b5090506128829190612886565b5090565b6128a891905b808211156128a457600081600090555060010161288c565b5090565b905600a165627a7a7230582008481e661f276087178062e0859948af10f7b98f914ab3f651c7a24f19c658800029",
  "source": "pragma solidity ^0.4.22;\n\n/**\n * @title ERC20Basic\n * @dev Simpler version of ERC20 interface\n * @dev see https://github.com/ethereum/EIPs/issues/179\n */\ncontract ERC20Basic {\n    function totalSupply() public view returns (uint256);\n\n    function balanceOf(address who) public view returns (uint256);\n\n    function transfer(address to, uint256 value) public returns (bool);\n\n    event Transfer(address indexed from, address indexed to, uint256 value);\n}\n\n/**\n * @title ERC20 interface\n * @dev see https://github.com/ethereum/EIPs/issues/20\n */\ncontract ERC20 is ERC20Basic {\n    function approve(address spender, uint256 value) public returns (bool);\n\n    function transfers(\n        address from_,\n        address _to,\n        uint256 _value\n    ) public returns (bool);\n\n    event Approval(\n        address indexed owner,\n        address indexed spender,\n        uint256 value\n    );\n\n    function generateToken(address _to, uint256 _value) public returns (bool);\n}\n\ncontract depotCashin {\n    uint256 idOpGlobale = 0;\n    address public owner;\n\n    // Structure de donne de la preuve de transfert\n    struct operation {\n        string idOp;\n        address sender;\n        address receiver;\n        // typeOp=0 ==> cashin par agent, typeOp=1 ==> cashin par lui meme, typeOp=2 ==> transfert\n        uint256 typeOp;\n        uint256 OperationDate;\n        uint256 amount;\n        bytes32 transactionHash;\n        string name;\n    }\n\n    mapping(address => mapping(uint256 => operation)) public ListeOp;\n    address[] addressSender;\n\n    mapping(address => uint256) public NombreOp;\n\n    ERC20 public ERC20Interface;\n    ERC20Basic public ERC20BasicInterface;\n\n    //constructeur\n    constructor() public {\n        owner = msg.sender;\n    }\n\n    /**\n     * @dev list of all supported tokens for transfer * @param string token symbol * @param address contract address of token */\n    mapping(bytes32 => address) public tokens;\n\n    /**\n     * @dev add address of token to list of supported tokens using * token symbol as identifier in mapping */\n    function addNewToken(address address_) public returns (bool) {\n        bytes32 symbol_ = convertttt();\n        tokens[symbol_] = address_;\n\n        return true;\n    }\n\n    function convertttt() internal pure returns (bytes32 result) {\n        string memory testFoo = \"IMFT\";\n\n        assembly {\n            result := mload(add(testFoo, 32))\n        }\n    }\n\n    //return the symbol of the IMFT\n    function tokenSymbole() public pure returns (bytes32 result) {\n        string memory testFoo = \"IMFT\";\n        assembly {\n            result := mload(add(testFoo, 32))\n        }\n    }\n\n    function newOperation(\n        address sender,\n        address receiver,\n        uint256 OperationDate,\n        uint256 amount,\n        uint256 typeOperation,\n        string name\n    ) public {\n        address contract_ = tokens[tokenSymbole()];\n        ERC20BasicInterface = ERC20Basic(contract_);\n        ERC20Interface = ERC20(contract_);\n\n        require(amount >= 10);\n        require(amount <= 1000);\n        require(ERC20BasicInterface.balanceOf(receiver) <= 2000);\n        require((ERC20BasicInterface.balanceOf(receiver) + amount) <= 2000);\n\n        string memory idOp;\n\n        if (typeOperation == 0 ) {\n            idOp = concat(\"A\", uint2str(idOpGlobale));\n        }else if(typeOperation == 1) {\n            idOp = concat(\"I\", uint2str(idOpGlobale));\n        }\n        else if(typeOperation == 2) {\n            idOp = concat(\"T\", uint2str(idOpGlobale));\n        }else {\n            idOp = concat(\"O\", uint2str(idOpGlobale));\n        }\n\n        ListeOp[sender][NombreOp[sender]].idOp = idOp;\n\n        ListeOp[sender][NombreOp[sender]].sender = sender;\n\n        ListeOp[sender][NombreOp[sender]].receiver = receiver;\n\n        ListeOp[sender][NombreOp[sender]].typeOp = typeOperation;\n\n        ListeOp[sender][NombreOp[sender]].OperationDate = OperationDate;\n\n        ListeOp[sender][NombreOp[sender]].amount = amount;\n\n        ListeOp[sender][NombreOp[sender]].transactionHash = 0x0;\n        \n        ListeOp[sender][NombreOp[sender]].name = name;\n\n        NombreOp[sender] = NombreOp[sender] + 1;\n\n        idOpGlobale++;\n        for (uint256 i = 0; i < addressSender.length; i++) {\n            if (addressSender[i] != sender) {\n                addressSender.push(sender);\n            }\n        }\n\n        if (typeOperation == 1) {\n             ERC20Interface.generateToken(receiver, amount);\n           \n        } else {\n            ERC20Interface.transfers(sender, receiver, amount);\n        }\n    }\n\n    function getOperationLengthByBorrower(address sender)\n        public\n        view\n        returns (uint256)\n    {\n        return (NombreOp[sender]);\n    }\n\n    function getOperationLength(address sender, address receiver)\n        public\n        view\n        returns (uint256)\n    {\n        uint256 j = 0;\n        for (uint256 i = 0; i < NombreOp[sender]; i++) {\n            if (ListeOp[sender][i].receiver == receiver) {\n                j += 1;\n            }\n        }\n        return (j);\n    }\n\n    function getOperationInfoByIndexAway(\n        uint256 index,\n        address sender,\n        address receiver\n    )\n        public\n        view\n        returns (\n            string memory,\n          //  uint256,\n            uint256,\n            uint256,\n            bytes32,\n            string\n        )\n    {\n        uint256 j = 0;\n        for (uint256 i = 0; i < NombreOp[sender]; i++) {\n            if (ListeOp[sender][i].receiver == receiver) {\n                if (j == index) {\n                    return (\n                        ListeOp[sender][i].idOp,\n                       // ListeOp[sender][i].typeOp,\n                        ListeOp[sender][i].OperationDate,\n                        ListeOp[sender][i].amount,\n                        ListeOp[sender][i].transactionHash,\n                        ListeOp[sender][i].name\n                    );\n                }\n                j += 1;\n            }\n        }\n    }\n\n    function getOperationInfoByIndex(uint256 index, address sender)\n        public\n        view\n        returns (\n            string memory,\n            address,\n           // uint256,\n            uint256,\n            uint256,\n            bytes32,\n            string memory\n        )\n    {\n        return (\n            ListeOp[sender][index].idOp,\n            ListeOp[sender][index].receiver,\n          //  ListeOp[sender][index].typeOp,\n            ListeOp[sender][index].OperationDate,\n            ListeOp[sender][index].amount,\n            ListeOp[sender][index].transactionHash,\n            ListeOp[sender][index].name\n        );\n    }\n\n    function setOperationHash(\n        bytes32 hash,\n        address sender,\n        uint256 _timetocompate\n    ) public {\n        for (uint256 i = 0; i < NombreOp[sender]; i++) {\n            if (ListeOp[sender][i].OperationDate == _timetocompate) {\n                ListeOp[sender][i].transactionHash = hash;\n            }\n        }\n    }\n\n    function uint2str(uint256 i) internal pure returns (string) {\n        if (i == 0) return \"0\";\n        uint256 j = i;\n        uint256 length;\n        while (j != 0) {\n            length++;\n            j /= 10;\n        }\n        bytes memory bstr = new bytes(length);\n        uint256 k = length - 1;\n        while (i != 0) {\n            bstr[k--] = bytes1(48 + (i % 10));\n            i /= 10;\n        }\n        return string(bstr);\n    }\n\n    /** @dev function to concatenat 2 string and return 1 string\n     */\n\n    function concat(string memory _base, string memory _value)\n        internal\n        pure\n        returns (string memory)\n    {\n        bytes memory _baseBytes = bytes(_base);\n        bytes memory _valueBytes = bytes(_value);\n\n        assert(_valueBytes.length > 0);\n\n        string memory _tmpValue = new string(\n            _baseBytes.length + _valueBytes.length\n        );\n        bytes memory _newValue = bytes(_tmpValue);\n\n        uint256 i;\n        uint256 j;\n\n        for (i = 0; i < _baseBytes.length; i++) {\n            _newValue[j++] = _baseBytes[i];\n        }\n\n        for (i = 0; i < _valueBytes.length; i++) {\n            _newValue[j++] = _valueBytes[i];\n        }\n\n        return string(_newValue);\n    }\n}\n\n",
  "sourcePath": "/home/ubuntu/az/paylis/Cashin/contracts/depot.sol",
  "compiler": {
    "name": "solc",
    "version": "0.4.22+commit.4cb486ee.Emscripten.clang"
  },
  "schemaVersion": "3.0.19",
  "updatedAt": "2020-09-23T08:59:49.659Z",
  "networkType": "ethereum",
  "devdoc": {
    "methods": {
      "addNewToken(address)": {
        "details": "add address of token to list of supported tokens using * token symbol as identifier in mapping "
      }
    }
  },
  "userdoc": {
    "methods": {}
  }
}