{
  "contractName": "depot",
  "abi": [
    {
      "constant": true,
      "inputs": [],
      "name": "ERC20Interface",
      "outputs": [
        {
          "name": "",
          "type": "address"
        }
      ],
      "payable": false,
      "stateMutability": "view",
      "type": "function"
    },
    {
      "constant": true,
      "inputs": [],
      "name": "ERC20BasicInterface",
      "outputs": [
        {
          "name": "",
          "type": "address"
        }
      ],
      "payable": false,
      "stateMutability": "view",
      "type": "function"
    },
    {
      "constant": true,
      "inputs": [],
      "name": "operationNum",
      "outputs": [
        {
          "name": "",
          "type": "uint256"
        }
      ],
      "payable": false,
      "stateMutability": "view",
      "type": "function"
    },
    {
      "constant": true,
      "inputs": [
        {
          "name": "",
          "type": "address"
        },
        {
          "name": "",
          "type": "uint256"
        }
      ],
      "name": "usercashins",
      "outputs": [
        {
          "name": "",
          "type": "uint256"
        }
      ],
      "payable": false,
      "stateMutability": "view",
      "type": "function"
    },
    {
      "constant": true,
      "inputs": [],
      "name": "paused",
      "outputs": [
        {
          "name": "",
          "type": "bool"
        }
      ],
      "payable": false,
      "stateMutability": "view",
      "type": "function"
    },
    {
      "constant": true,
      "inputs": [
        {
          "name": "",
          "type": "address"
        },
        {
          "name": "",
          "type": "uint256"
        }
      ],
      "name": "userTransfers",
      "outputs": [
        {
          "name": "",
          "type": "uint256"
        }
      ],
      "payable": false,
      "stateMutability": "view",
      "type": "function"
    },
    {
      "constant": true,
      "inputs": [],
      "name": "owner",
      "outputs": [
        {
          "name": "",
          "type": "address"
        }
      ],
      "payable": false,
      "stateMutability": "view",
      "type": "function"
    },
    {
      "constant": true,
      "inputs": [
        {
          "name": "",
          "type": "bytes32"
        }
      ],
      "name": "tokens",
      "outputs": [
        {
          "name": "",
          "type": "address"
        }
      ],
      "payable": false,
      "stateMutability": "view",
      "type": "function"
    },
    {
      "constant": false,
      "inputs": [
        {
          "name": "newOwner",
          "type": "address"
        }
      ],
      "name": "transferOwnership",
      "outputs": [],
      "payable": false,
      "stateMutability": "nonpayable",
      "type": "function"
    },
    {
      "inputs": [],
      "payable": false,
      "stateMutability": "nonpayable",
      "type": "constructor"
    },
    {
      "anonymous": false,
      "inputs": [],
      "name": "Pause",
      "type": "event"
    },
    {
      "anonymous": false,
      "inputs": [],
      "name": "Unpause",
      "type": "event"
    },
    {
      "anonymous": false,
      "inputs": [
        {
          "indexed": true,
          "name": "previousOwner",
          "type": "address"
        },
        {
          "indexed": true,
          "name": "newOwner",
          "type": "address"
        }
      ],
      "name": "OwnershipTransferred",
      "type": "event"
    },
    {
      "constant": true,
      "inputs": [
        {
          "name": "_amountFiat",
          "type": "uint256"
        },
        {
          "name": "_conversionRate",
          "type": "uint256"
        }
      ],
      "name": "convertFIATtoTOKEN",
      "outputs": [
        {
          "name": "",
          "type": "uint256"
        }
      ],
      "payable": false,
      "stateMutability": "pure",
      "type": "function"
    },
    {
      "constant": true,
      "inputs": [
        {
          "name": "amountToken",
          "type": "uint256"
        }
      ],
      "name": "conditionsVerifToken",
      "outputs": [],
      "payable": false,
      "stateMutability": "pure",
      "type": "function"
    },
    {
      "constant": true,
      "inputs": [
        {
          "name": "amountFiat",
          "type": "uint256"
        }
      ],
      "name": "conditionsVerifFiat",
      "outputs": [],
      "payable": false,
      "stateMutability": "pure",
      "type": "function"
    },
    {
      "constant": false,
      "inputs": [
        {
          "name": "ID_OP",
          "type": "string"
        },
        {
          "name": "_reciver",
          "type": "address"
        },
        {
          "name": "nom_reciver",
          "type": "string"
        },
        {
          "name": "prenom_reciver",
          "type": "string"
        },
        {
          "name": "id_reciver",
          "type": "uint256"
        },
        {
          "name": "_sender",
          "type": "address"
        },
        {
          "name": "_lnamesender",
          "type": "string"
        },
        {
          "name": "_fnamesender",
          "type": "string"
        },
        {
          "name": "_unqIdsender",
          "type": "uint256"
        },
        {
          "name": "_amountFiat",
          "type": "uint256"
        }
      ],
      "name": "PushCashin",
      "outputs": [],
      "payable": false,
      "stateMutability": "nonpayable",
      "type": "function"
    },
    {
      "constant": true,
      "inputs": [
        {
          "name": "reciver",
          "type": "address"
        },
        {
          "name": "NewAmount",
          "type": "uint256"
        }
      ],
      "name": "validRecharge",
      "outputs": [],
      "payable": false,
      "stateMutability": "view",
      "type": "function"
    },
    {
      "constant": false,
      "inputs": [
        {
          "name": "_symbol",
          "type": "bytes32"
        },
        {
          "name": "_reciver",
          "type": "address"
        },
        {
          "name": "nom_reciver",
          "type": "string"
        },
        {
          "name": "prenom_reciver",
          "type": "string"
        },
        {
          "name": "id_reciver",
          "type": "uint256"
        },
        {
          "name": "_sender",
          "type": "address"
        },
        {
          "name": "_lnamesender",
          "type": "string"
        },
        {
          "name": "_fnamesender",
          "type": "string"
        },
        {
          "name": "_unqIdsender",
          "type": "uint256"
        },
        {
          "name": "_amountFiat",
          "type": "uint256"
        }
      ],
      "name": "newCashin",
      "outputs": [],
      "payable": false,
      "stateMutability": "nonpayable",
      "type": "function"
    },
    {
      "constant": false,
      "inputs": [
        {
          "name": "_symbol",
          "type": "bytes32"
        },
        {
          "name": "_reciver",
          "type": "address"
        },
        {
          "name": "nom_reciver",
          "type": "string"
        },
        {
          "name": "prenom_reciver",
          "type": "string"
        },
        {
          "name": "id_reciver",
          "type": "uint256"
        },
        {
          "name": "_amountFiat",
          "type": "uint256"
        }
      ],
      "name": "newCashinAdherent",
      "outputs": [],
      "payable": false,
      "stateMutability": "nonpayable",
      "type": "function"
    },
    {
      "constant": false,
      "inputs": [
        {
          "name": "_symbol",
          "type": "bytes32"
        },
        {
          "name": "_reciver",
          "type": "address"
        },
        {
          "name": "_amount",
          "type": "uint256"
        },
        {
          "name": "_lnamesender",
          "type": "string"
        },
        {
          "name": "_fnamesender",
          "type": "string"
        },
        {
          "name": "id_sender",
          "type": "uint256"
        },
        {
          "name": "namereciver",
          "type": "string"
        },
        {
          "name": "id_reciver",
          "type": "uint256"
        }
      ],
      "name": "newTransfer",
      "outputs": [],
      "payable": false,
      "stateMutability": "nonpayable",
      "type": "function"
    },
    {
      "constant": false,
      "inputs": [
        {
          "name": "hash",
          "type": "bytes32"
        }
      ],
      "name": "setCashinHash",
      "outputs": [],
      "payable": false,
      "stateMutability": "nonpayable",
      "type": "function"
    },
    {
      "constant": false,
      "inputs": [
        {
          "name": "hash",
          "type": "bytes32"
        }
      ],
      "name": "setTransfertHash",
      "outputs": [],
      "payable": false,
      "stateMutability": "nonpayable",
      "type": "function"
    },
    {
      "constant": true,
      "inputs": [
        {
          "name": "_id",
          "type": "uint256"
        }
      ],
      "name": "getTransferInfo",
      "outputs": [
        {
          "name": "_idOp",
          "type": "string"
        },
        {
          "name": "_sender",
          "type": "address"
        },
        {
          "name": "_fnamesender",
          "type": "string"
        },
        {
          "name": "_namesender",
          "type": "string"
        },
        {
          "name": "_unqIdsender",
          "type": "uint256"
        },
        {
          "name": "_reciver",
          "type": "address"
        },
        {
          "name": "_unqIdreciver",
          "type": "uint256"
        },
        {
          "name": "_TransferDate",
          "type": "uint256"
        },
        {
          "name": "_amount",
          "type": "uint256"
        },
        {
          "name": "_transaction_hash",
          "type": "bytes32"
        }
      ],
      "payable": false,
      "stateMutability": "view",
      "type": "function"
    },
    {
      "constant": true,
      "inputs": [
        {
          "name": "_id",
          "type": "uint256"
        }
      ],
      "name": "getcashInInfo",
      "outputs": [
        {
          "name": "_idOp",
          "type": "string"
        },
        {
          "name": "_reciver",
          "type": "address"
        },
        {
          "name": "_sender",
          "type": "address"
        },
        {
          "name": "_TransferDate",
          "type": "uint256"
        },
        {
          "name": "_amountFiat",
          "type": "uint256"
        },
        {
          "name": "_amountToken",
          "type": "uint256"
        },
        {
          "name": "_transaction_hash",
          "type": "bytes32"
        }
      ],
      "payable": false,
      "stateMutability": "view",
      "type": "function"
    },
    {
      "constant": true,
      "inputs": [
        {
          "name": "sender",
          "type": "address"
        },
        {
          "name": "i",
          "type": "uint256"
        }
      ],
      "name": "getTransferIndex",
      "outputs": [
        {
          "name": "",
          "type": "uint256"
        }
      ],
      "payable": false,
      "stateMutability": "view",
      "type": "function"
    },
    {
      "constant": true,
      "inputs": [
        {
          "name": "reciver",
          "type": "address"
        },
        {
          "name": "i",
          "type": "uint256"
        }
      ],
      "name": "getCashInIndex",
      "outputs": [
        {
          "name": "",
          "type": "uint256"
        }
      ],
      "payable": false,
      "stateMutability": "view",
      "type": "function"
    },
    {
      "constant": true,
      "inputs": [
        {
          "name": "sender",
          "type": "address"
        }
      ],
      "name": "getUserTransferLength",
      "outputs": [
        {
          "name": "",
          "type": "uint256"
        }
      ],
      "payable": false,
      "stateMutability": "view",
      "type": "function"
    },
    {
      "constant": true,
      "inputs": [
        {
          "name": "reciver",
          "type": "address"
        }
      ],
      "name": "getUserCashInLength",
      "outputs": [
        {
          "name": "",
          "type": "uint256"
        }
      ],
      "payable": false,
      "stateMutability": "view",
      "type": "function"
    },
    {
      "constant": true,
      "inputs": [
        {
          "name": "reciver",
          "type": "address"
        }
      ],
      "name": "getTotal",
      "outputs": [
        {
          "name": "",
          "type": "uint256"
        }
      ],
      "payable": false,
      "stateMutability": "view",
      "type": "function"
    },
    {
      "constant": false,
      "inputs": [
        {
          "name": "symbol_",
          "type": "bytes32"
        },
        {
          "name": "address_",
          "type": "address"
        }
      ],
      "name": "addNewToken",
      "outputs": [
        {
          "name": "",
          "type": "bool"
        }
      ],
      "payable": false,
      "stateMutability": "nonpayable",
      "type": "function"
    },
    {
      "constant": true,
      "inputs": [],
      "name": "getUserTransfers",
      "outputs": [
        {
          "name": "transfers",
          "type": "uint256[]"
        }
      ],
      "payable": false,
      "stateMutability": "view",
      "type": "function"
    },
    {
      "constant": true,
      "inputs": [],
      "name": "getTransferLength",
      "outputs": [
        {
          "name": "",
          "type": "uint256"
        }
      ],
      "payable": false,
      "stateMutability": "view",
      "type": "function"
    },
    {
      "constant": true,
      "inputs": [],
      "name": "getCashinLength",
      "outputs": [
        {
          "name": "",
          "type": "uint256"
        }
      ],
      "payable": false,
      "stateMutability": "view",
      "type": "function"
    },
    {
      "constant": true,
      "inputs": [],
      "name": "getLengthOfParticularTransfer",
      "outputs": [
        {
          "name": "",
          "type": "uint256"
        }
      ],
      "payable": false,
      "stateMutability": "view",
      "type": "function"
    },
    {
      "constant": true,
      "inputs": [],
      "name": "tokenSymbole",
      "outputs": [
        {
          "name": "result",
          "type": "bytes32"
        }
      ],
      "payable": false,
      "stateMutability": "pure",
      "type": "function"
    }
  ],
  "bytecode": "0x608060405260006001556000600260006101000a81548160ff0219169083151502179055506200002e62000121565b604051809103906000f0801580156200004b573d6000803e3d6000fd5b50600260016101000a81548173ffffffffffffffffffffffffffffffffffffffff021916908373ffffffffffffffffffffffffffffffffffffffff1602179055503480156200009957600080fd5b50336000806101000a81548173ffffffffffffffffffffffffffffffffffffffff021916908373ffffffffffffffffffffffffffffffffffffffff16021790555033600360006101000a81548173ffffffffffffffffffffffffffffffffffffffff021916908373ffffffffffffffffffffffffffffffffffffffff16021790555062000132565b604051610dba8062004d7883390190565b614c3680620001426000396000f300608060405260043610610196576000357c0100000000000000000000000000000000000000000000000000000000900463ffffffff1680630162ea811461019b578063040417dd146101e85780631587d819146102135780631bbc4b83146102405780631dbabee91461029757806321dcafdb146102c85780633010a6bc1461031f57806336f3f96f146104fe57806342381851146105295780635130a8631461055a578063526880a3146105855780635c975abb146105e65780635f18bb251461061557806361d7194b1461082457806368acb5b31461088557806376eb2279146108b25780637b07eecf1461091e5780637e8d95ba14610ac55780638da5cb5b14610bf55780638db8a60a14610c4c578063904194a314610d8d5780639ea1f52114610dfe578063a43c7ab614610e49578063b082443b14610ea0578063c0997b4214610f09578063c30bfe2914610f60578063d30edb2814610f8b578063d7e4613b14610fec578063ebb6dad81461101f578063f18bc97914611076578063f2fde38b14611167578063fc1ddd32146111aa575b600080fd5b3480156101a757600080fd5b506101e6600480360381019080803573ffffffffffffffffffffffffffffffffffffffff1690602001909291908035906020019092919050505061120b565b005b3480156101f457600080fd5b506101fd611abf565b6040518082815260200191505060405180910390f35b34801561021f57600080fd5b5061023e60048036038101908080359060200190929190505050611b09565b005b34801561024c57600080fd5b50610255611b2d565b604051808273ffffffffffffffffffffffffffffffffffffffff1673ffffffffffffffffffffffffffffffffffffffff16815260200191505060405180910390f35b3480156102a357600080fd5b506102c66004803603810190808035600019169060200190929190505050611b53565b005b3480156102d457600080fd5b506102dd611b8d565b604051808273ffffffffffffffffffffffffffffffffffffffff1673ffffffffffffffffffffffffffffffffffffffff16815260200191505060405180910390f35b34801561032b57600080fd5b506104fc600480360381019080803590602001908201803590602001908080601f0160208091040260200160405190810160405280939291908181526020018383808284378201915050505050509192919290803573ffffffffffffffffffffffffffffffffffffffff169060200190929190803590602001908201803590602001908080601f0160208091040260200160405190810160405280939291908181526020018383808284378201915050505050509192919290803590602001908201803590602001908080601f016020809104026020016040519081016040528093929190818152602001838380828437820191505050505050919291929080359060200190929190803573ffffffffffffffffffffffffffffffffffffffff169060200190929190803590602001908201803590602001908080601f0160208091040260200160405190810160405280939291908181526020018383808284378201915050505050509192919290803590602001908201803590602001908080601f01602080910402602001604051908101604052809392919081815260200183838082843782019150505050505091929192908035906020019092919080359060200190929190505050611bb3565b005b34801561050a57600080fd5b50610513611e6c565b6040518082815260200191505060405180910390f35b34801561053557600080fd5b506105586004803603810190808035600019169060200190929190505050611e79565b005b34801561056657600080fd5b5061056f611eb3565b6040518082815260200191505060405180910390f35b34801561059157600080fd5b506105d0600480360381019080803573ffffffffffffffffffffffffffffffffffffffff16906020019092919080359060200190929190505050611eb9565b6040518082815260200191505060405180910390f35b3480156105f257600080fd5b506105fb611ee9565b604051808215151515815260200191505060405180910390f35b34801561062157600080fd5b5061064060048036038101908080359060200190929190505050611efc565b60405180806020018b73ffffffffffffffffffffffffffffffffffffffff1673ffffffffffffffffffffffffffffffffffffffff16815260200180602001806020018a81526020018973ffffffffffffffffffffffffffffffffffffffff1673ffffffffffffffffffffffffffffffffffffffff168152602001888152602001878152602001868152602001856000191660001916815260200184810384528e818151815260200191508051906020019080838360005b838110156107125780820151818401526020810190506106f7565b50505050905090810190601f16801561073f5780820380516001836020036101000a031916815260200191505b5084810383528c818151815260200191508051906020019080838360005b8381101561077857808201518184015260208101905061075d565b50505050905090810190601f1680156107a55780820380516001836020036101000a031916815260200191505b5084810382528b818151815260200191508051906020019080838360005b838110156107de5780820151818401526020810190506107c3565b50505050905090810190601f16801561080b5780820380516001836020036101000a031916815260200191505b509d505050505050505050505050505060405180910390f35b34801561083057600080fd5b5061086f600480360381019080803573ffffffffffffffffffffffffffffffffffffffff1690602001909291908035906020019092919050505061230e565b6040518082815260200191505060405180910390f35b34801561089157600080fd5b506108b06004803603810190808035906020019092919050505061233e565b005b3480156108be57600080fd5b506108c7612434565b6040518080602001828103825283818151815260200191508051906020019060200280838360005b8381101561090a5780820151818401526020810190506108ef565b505050509050019250505060405180910390f35b34801561092a57600080fd5b50610ac36004803603810190808035600019169060200190929190803573ffffffffffffffffffffffffffffffffffffffff169060200190929190803590602001908201803590602001908080601f0160208091040260200160405190810160405280939291908181526020018383808284378201915050505050509192919290803590602001908201803590602001908080601f016020809104026020016040519081016040528093929190818152602001838380828437820191505050505050919291929080359060200190929190803573ffffffffffffffffffffffffffffffffffffffff169060200190929190803590602001908201803590602001908080601f0160208091040260200160405190810160405280939291908181526020018383808284378201915050505050509192919290803590602001908201803590602001908080601f016020809104026020016040519081016040528093929190818152602001838380828437820191505050505050919291929080359060200190929190803590602001909291905050506124c9565b005b348015610ad157600080fd5b50610af0600480360381019080803590602001909291905050506129ce565b60405180806020018873ffffffffffffffffffffffffffffffffffffffff1673ffffffffffffffffffffffffffffffffffffffff1681526020018773ffffffffffffffffffffffffffffffffffffffff1673ffffffffffffffffffffffffffffffffffffffff1681526020018681526020018581526020018481526020018360001916600019168152602001828103825289818151815260200191508051906020019080838360005b83811015610bb4578082015181840152602081019050610b99565b50505050905090810190601f168015610be15780820380516001836020036101000a031916815260200191505b509850505050505050505060405180910390f35b348015610c0157600080fd5b50610c0a612e6b565b604051808273ffffffffffffffffffffffffffffffffffffffff1673ffffffffffffffffffffffffffffffffffffffff16815260200191505060405180910390f35b348015610c5857600080fd5b50610d8b6004803603810190808035600019169060200190929190803573ffffffffffffffffffffffffffffffffffffffff16906020019092919080359060200190929190803590602001908201803590602001908080601f0160208091040260200160405190810160405280939291908181526020018383808284378201915050505050509192919290803590602001908201803590602001908080601f016020809104026020016040519081016040528093929190818152602001838380828437820191505050505050919291929080359060200190929190803590602001908201803590602001908080601f016020809104026020016040519081016040528093929190818152602001838380828437820191505050505050919291929080359060200190929190505050612e91565b005b348015610d9957600080fd5b50610dbc60048036038101908080356000191690602001909291905050506135e6565b604051808273ffffffffffffffffffffffffffffffffffffffff1673ffffffffffffffffffffffffffffffffffffffff16815260200191505060405180910390f35b348015610e0a57600080fd5b50610e336004803603810190808035906020019092919080359060200190929190505050613619565b6040518082815260200191505060405180910390f35b348015610e5557600080fd5b50610e8a600480360381019080803573ffffffffffffffffffffffffffffffffffffffff16906020019092919050505061362b565b6040518082815260200191505060405180910390f35b348015610eac57600080fd5b50610eef6004803603810190808035600019169060200190929190803573ffffffffffffffffffffffffffffffffffffffff169060200190929190505050613677565b604051808215151515815260200191505060405180910390f35b348015610f1557600080fd5b50610f4a600480360381019080803573ffffffffffffffffffffffffffffffffffffffff1690602001909291905050506136dd565b6040518082815260200191505060405180910390f35b348015610f6c57600080fd5b50610f75613729565b6040518082815260200191505060405180910390f35b348015610f9757600080fd5b50610fd6600480360381019080803573ffffffffffffffffffffffffffffffffffffffff16906020019092919080359060200190929190505050613736565b6040518082815260200191505060405180910390f35b348015610ff857600080fd5b5061100161379c565b60405180826000191660001916815260200191505060405180910390f35b34801561102b57600080fd5b50611060600480360381019080803573ffffffffffffffffffffffffffffffffffffffff1690602001909291905050506137e3565b6040518082815260200191505060405180910390f35b34801561108257600080fd5b506111656004803603810190808035600019169060200190929190803573ffffffffffffffffffffffffffffffffffffffff169060200190929190803590602001908201803590602001908080601f0160208091040260200160405190810160405280939291908181526020018383808284378201915050505050509192919290803590602001908201803590602001908080601f0160208091040260200160405190810160405280939291908181526020018383808284378201915050505050509192919290803590602001909291908035906020019092919050505061408a565b005b34801561117357600080fd5b506111a8600480360381019080803573ffffffffffffffffffffffffffffffffffffffff169060200190929190505050614557565b005b3480156111b657600080fd5b506111f5600480360381019080803573ffffffffffffffffffffffffffffffffffffffff169060200190929190803590602001909291905050506146ac565b6040518082815260200191505060405180910390f35b6000806000809250600091505b60068054905082101561165c578473ffffffffffffffffffffffffffffffffffffffff1660068381548110151561124b57fe5b90600052602060002090600d020160010160009054906101000a900473ffffffffffffffffffffffffffffffffffffffff1673ffffffffffffffffffffffffffffffffffffffff1614801561145d5750600260019054906101000a900473ffffffffffffffffffffffffffffffffffffffff1673ffffffffffffffffffffffffffffffffffffffff166392d66313426040518263ffffffff167c010000000000000000000000000000000000000000000000000000000002815260040180828152602001915050602060405180830381600087803b15801561132c57600080fd5b505af1158015611340573d6000803e3d6000fd5b505050506040513d602081101561135657600080fd5b810190808051906020019092919050505061ffff16600260019054906101000a900473ffffffffffffffffffffffffffffffffffffffff1673ffffffffffffffffffffffffffffffffffffffff166392d663136006858154811015156113b857fe5b90600052602060002090600d0201600901546040518263ffffffff167c010000000000000000000000000000000000000000000000000000000002815260040180828152602001915050602060405180830381600087803b15801561141c57600080fd5b505af1158015611430573d6000803e3d6000fd5b505050506040513d602081101561144657600080fd5b810190808051906020019092919050505061ffff16145b80156116245750600260019054906101000a900473ffffffffffffffffffffffffffffffffffffffff1673ffffffffffffffffffffffffffffffffffffffff1663a324ad24426040518263ffffffff167c010000000000000000000000000000000000000000000000000000000002815260040180828152602001915050602060405180830381600087803b1580156114f557600080fd5b505af1158015611509573d6000803e3d6000fd5b505050506040513d602081101561151f57600080fd5b810190808051906020019092919050505060ff16600260019054906101000a900473ffffffffffffffffffffffffffffffffffffffff1673ffffffffffffffffffffffffffffffffffffffff1663a324ad2460068581548110151561158057fe5b90600052602060002090600d0201600901546040518263ffffffff167c010000000000000000000000000000000000000000000000000000000002815260040180828152602001915050602060405180830381600087803b1580156115e457600080fd5b505af11580156115f8573d6000803e3d6000fd5b505050506040513d602081101561160e57600080fd5b810190808051906020019092919050505060ff16145b1561164f5760068281548110151561163857fe5b90600052602060002090600d0201600a0154830192505b8180600101925050611218565b600090505b600480549050811015611aa5578473ffffffffffffffffffffffffffffffffffffffff1660048281548110151561169457fe5b90600052602060002090600b020160050160009054906101000a900473ffffffffffffffffffffffffffffffffffffffff1673ffffffffffffffffffffffffffffffffffffffff161480156118a65750600260019054906101000a900473ffffffffffffffffffffffffffffffffffffffff1673ffffffffffffffffffffffffffffffffffffffff166392d66313426040518263ffffffff167c010000000000000000000000000000000000000000000000000000000002815260040180828152602001915050602060405180830381600087803b15801561177557600080fd5b505af1158015611789573d6000803e3d6000fd5b505050506040513d602081101561179f57600080fd5b810190808051906020019092919050505061ffff16600260019054906101000a900473ffffffffffffffffffffffffffffffffffffffff1673ffffffffffffffffffffffffffffffffffffffff166392d6631360048481548110151561180157fe5b90600052602060002090600b0201600801546040518263ffffffff167c010000000000000000000000000000000000000000000000000000000002815260040180828152602001915050602060405180830381600087803b15801561186557600080fd5b505af1158015611879573d6000803e3d6000fd5b505050506040513d602081101561188f57600080fd5b810190808051906020019092919050505061ffff16145b8015611a6d5750600260019054906101000a900473ffffffffffffffffffffffffffffffffffffffff1673ffffffffffffffffffffffffffffffffffffffff1663a324ad24426040518263ffffffff167c010000000000000000000000000000000000000000000000000000000002815260040180828152602001915050602060405180830381600087803b15801561193e57600080fd5b505af1158015611952573d6000803e3d6000fd5b505050506040513d602081101561196857600080fd5b810190808051906020019092919050505060ff16600260019054906101000a900473ffffffffffffffffffffffffffffffffffffffff1673ffffffffffffffffffffffffffffffffffffffff1663a324ad246004848154811015156119c957fe5b90600052602060002090600b0201600801546040518263ffffffff167c010000000000000000000000000000000000000000000000000000000002815260040180828152602001915050602060405180830381600087803b158015611a2d57600080fd5b505af1158015611a41573d6000803e3d6000fd5b505050506040513d6020811015611a5757600080fd5b810190808051906020019092919050505060ff16145b15611a9857600481815481101515611a8157fe5b90600052602060002090600b020160090154830192505b8080600101915050611661565b61271084840111151515611ab857600080fd5b5050505050565b6000600560003373ffffffffffffffffffffffffffffffffffffffff1673ffffffffffffffffffffffffffffffffffffffff16815260200190815260200160002080549050905090565b600a8110151515611b1957600080fd5b6103e88111151515611b2a57600080fd5b50565b600860009054906101000a900473ffffffffffffffffffffffffffffffffffffffff1681565b6000600160068054905003905081600682815481101515611b7057fe5b90600052602060002090600d0201600c0181600019169055505050565b600960009054906101000a900473ffffffffffffffffffffffffffffffffffffffff1681565b6000611bbd614a43565b611bc8836001613619565b91506101a0604051908101604052808d81526020018c73ffffffffffffffffffffffffffffffffffffffff1681526020018b81526020018a81526020018981526020018873ffffffffffffffffffffffffffffffffffffffff1681526020018781526020018681526020018581526020014281526020018481526020018381526020016000600102600019168152509050600760008c73ffffffffffffffffffffffffffffffffffffffff1673ffffffffffffffffffffffffffffffffffffffff16815260200190815260200160002060068054905090806001815401808255809150509060018203906000526020600020016000909192909190915055506006819080600181540180825580915050906001820390600052602060002090600d0201600090919290919091506000820151816000019080519060200190611d11929190614adb565b5060208201518160010160006101000a81548173ffffffffffffffffffffffffffffffffffffffff021916908373ffffffffffffffffffffffffffffffffffffffff1602179055506040820151816002019080519060200190611d75929190614adb565b506060820151816003019080519060200190611d92929190614adb565b506080820151816004015560a08201518160050160006101000a81548173ffffffffffffffffffffffffffffffffffffffff021916908373ffffffffffffffffffffffffffffffffffffffff16021790555060c0820151816006019080519060200190611e00929190614adb565b5060e0820151816007019080519060200190611e1d929190614adb565b506101008201518160080155610120820151816009015561014082015181600a015561016082015181600b015561018082015181600c0190600019169055505050505050505050505050505050565b6000600480549050905090565b6000600160048054905003905081600482815481101515611e9657fe5b90600052602060002090600b0201600a0181600019169055505050565b60015481565b600760205281600052604060002081815481101515611ed457fe5b90600052602060002001600091509150505481565b600260009054906101000a900460ff1681565b60606000606080600080600080600080611f14614b5b565b60048c815481101515611f2357fe5b90600052602060002090600b02016101606040519081016040529081600082018054600181600116156101000203166002900480601f016020809104026020016040519081016040528092919081815260200182805460018160011615610100020316600290048015611fd75780601f10611fac57610100808354040283529160200191611fd7565b820191906000526020600020905b815481529060010190602001808311611fba57829003601f168201915b505050505081526020016001820160009054906101000a900473ffffffffffffffffffffffffffffffffffffffff1673ffffffffffffffffffffffffffffffffffffffff1673ffffffffffffffffffffffffffffffffffffffff168152602001600282018054600181600116156101000203166002900480601f0160208091040260200160405190810160405280929190818152602001828054600181600116156101000203166002900480156120cf5780601f106120a4576101008083540402835291602001916120cf565b820191906000526020600020905b8154815290600101906020018083116120b257829003601f168201915b50505050508152602001600382018054600181600116156101000203166002900480601f0160208091040260200160405190810160405280929190818152602001828054600181600116156101000203166002900480156121715780601f1061214657610100808354040283529160200191612171565b820191906000526020600020905b81548152906001019060200180831161215457829003601f168201915b50505050508152602001600482015481526020016005820160009054906101000a900473ffffffffffffffffffffffffffffffffffffffff1673ffffffffffffffffffffffffffffffffffffffff1673ffffffffffffffffffffffffffffffffffffffff168152602001600682018054600181600116156101000203166002900480601f0160208091040260200160405190810160405280929190818152602001828054600181600116156101000203166002900480156122735780601f1061224857610100808354040283529160200191612273565b820191906000526020600020905b81548152906001019060200180831161225657829003601f168201915b50505050508152602001600782015481526020016008820154815260200160098201548152602001600a8201546000191660001916815250509050806000015181602001518260400151836060015184608001518560a001518660e001518761010001518861012001518961014001518999508797508696509a509a509a509a509a509a509a509a509a509a50509193959799509193959799565b60056020528160005260406000208181548110151561232957fe5b90600052602060002001600091509150505481565b600a81101515156123b7576040517f08c379a000000000000000000000000000000000000000000000000000000000815260040180806020018281038252600e8152602001807f616d6f756e7420696e76616c696400000000000000000000000000000000000081525060200191505060405180910390fd5b6103e88111151515612431576040517f08c379a00000000000000000000000000000000000000000000000000000000081526004018080602001828103825260118152602001807f616d6f756e7420696e76616c696420322000000000000000000000000000000081525060200191505060405180910390fd5b50565b6060600560003373ffffffffffffffffffffffffffffffffffffffff1673ffffffffffffffffffffffffffffffffffffffff1681526020019081526020016000208054806020026020016040519081016040528092919081815260200182805480156124bf57602002820191906000526020600020905b8154815260200190600101908083116124ab575b5050505050905090565b6000806000600a60008e6000191660001916815260200190815260200160002060009054906101000a900473ffffffffffffffffffffffffffffffffffffffff1673ffffffffffffffffffffffffffffffffffffffff161415151561252d57600080fd5b6125368361233e565b612541836001613619565b9150600a60008d6000191660001916815260200190815260200160002060009054906101000a900473ffffffffffffffffffffffffffffffffffffffff16905080600960006101000a81548173ffffffffffffffffffffffffffffffffffffffff021916908373ffffffffffffffffffffffffffffffffffffffff1602179055506107d0600960009054906101000a900473ffffffffffffffffffffffffffffffffffffffff1673ffffffffffffffffffffffffffffffffffffffff166370a082318d6040518263ffffffff167c0100000000000000000000000000000000000000000000000000000000028152600401808273ffffffffffffffffffffffffffffffffffffffff1673ffffffffffffffffffffffffffffffffffffffff168152602001915050602060405180830381600087803b15801561268257600080fd5b505af1158015612696573d6000803e3d6000fd5b505050506040513d60208110156126ac57600080fd5b8101908080519060200190929190505050111515156126ca57600080fd5b6107d082600960009054906101000a900473ffffffffffffffffffffffffffffffffffffffff1673ffffffffffffffffffffffffffffffffffffffff166370a082318e6040518263ffffffff167c0100000000000000000000000000000000000000000000000000000000028152600401808273ffffffffffffffffffffffffffffffffffffffff1673ffffffffffffffffffffffffffffffffffffffff168152602001915050602060405180830381600087803b15801561278b57600080fd5b505af115801561279f573d6000803e3d6000fd5b505050506040513d60208110156127b557600080fd5b810190808051906020019092919050505001111515156127d457600080fd5b6127de8b8361120b565b61283861282a6040805190810160405280600181526020017f4900000000000000000000000000000000000000000000000000000000000000815250612825600154614712565b614869565b8c8c8c8c8c8c8c8c8c611bb3565b80600860006101000a81548173ffffffffffffffffffffffffffffffffffffffff021916908373ffffffffffffffffffffffffffffffffffffffff160217905550600860009054906101000a900473ffffffffffffffffffffffffffffffffffffffff1673ffffffffffffffffffffffffffffffffffffffff1663fd3e6a0a888d856040518463ffffffff167c0100000000000000000000000000000000000000000000000000000000028152600401808473ffffffffffffffffffffffffffffffffffffffff1673ffffffffffffffffffffffffffffffffffffffff1681526020018373ffffffffffffffffffffffffffffffffffffffff1673ffffffffffffffffffffffffffffffffffffffff1681526020018281526020019350505050602060405180830381600087803b15801561297257600080fd5b505af1158015612986573d6000803e3d6000fd5b505050506040513d602081101561299c57600080fd5b810190808051906020019092919050505050600160008154809291906001019190505550505050505050505050505050565b60606000806000806000806129e1614a43565b6006898154811015156129f057fe5b90600052602060002090600d02016101a06040519081016040529081600082018054600181600116156101000203166002900480601f016020809104026020016040519081016040528092919081815260200182805460018160011615610100020316600290048015612aa45780601f10612a7957610100808354040283529160200191612aa4565b820191906000526020600020905b815481529060010190602001808311612a8757829003601f168201915b505050505081526020016001820160009054906101000a900473ffffffffffffffffffffffffffffffffffffffff1673ffffffffffffffffffffffffffffffffffffffff1673ffffffffffffffffffffffffffffffffffffffff168152602001600282018054600181600116156101000203166002900480601f016020809104026020016040519081016040528092919081815260200182805460018160011615610100020316600290048015612b9c5780601f10612b7157610100808354040283529160200191612b9c565b820191906000526020600020905b815481529060010190602001808311612b7f57829003601f168201915b50505050508152602001600382018054600181600116156101000203166002900480601f016020809104026020016040519081016040528092919081815260200182805460018160011615610100020316600290048015612c3e5780601f10612c1357610100808354040283529160200191612c3e565b820191906000526020600020905b815481529060010190602001808311612c2157829003601f168201915b50505050508152602001600482015481526020016005820160009054906101000a900473ffffffffffffffffffffffffffffffffffffffff1673ffffffffffffffffffffffffffffffffffffffff1673ffffffffffffffffffffffffffffffffffffffff168152602001600682018054600181600116156101000203166002900480601f016020809104026020016040519081016040528092919081815260200182805460018160011615610100020316600290048015612d405780601f10612d1557610100808354040283529160200191612d40565b820191906000526020600020905b815481529060010190602001808311612d2357829003601f168201915b50505050508152602001600782018054600181600116156101000203166002900480601f016020809104026020016040519081016040528092919081815260200182805460018160011615610100020316600290048015612de25780601f10612db757610100808354040283529160200191612de2565b820191906000526020600020905b815481529060010190602001808311612dc557829003601f168201915b505050505081526020016008820154815260200160098201548152602001600a8201548152602001600b8201548152602001600c8201546000191660001916815250509050806000015181602001518260a00151836101200151846101400151856101600151866101800151869650975097509750975097509750975050919395979092949650565b600360009054906101000a900473ffffffffffffffffffffffffffffffffffffffff1681565b600080612e9c614b5b565b6000612ea78a611b09565b600a60008d6000191660001916815260200190815260200160002060009054906101000a900473ffffffffffffffffffffffffffffffffffffffff16935083600960006101000a81548173ffffffffffffffffffffffffffffffffffffffff021916908373ffffffffffffffffffffffffffffffffffffffff160217905550612f318a6001613619565b92506107d0600960009054906101000a900473ffffffffffffffffffffffffffffffffffffffff1673ffffffffffffffffffffffffffffffffffffffff166370a082318d6040518263ffffffff167c0100000000000000000000000000000000000000000000000000000000028152600401808273ffffffffffffffffffffffffffffffffffffffff1673ffffffffffffffffffffffffffffffffffffffff168152602001915050602060405180830381600087803b158015612ff357600080fd5b505af1158015613007573d6000803e3d6000fd5b505050506040513d602081101561301d57600080fd5b81019080805190602001909291905050501115151561303b57600080fd5b6107d083600960009054906101000a900473ffffffffffffffffffffffffffffffffffffffff1673ffffffffffffffffffffffffffffffffffffffff166370a082318e6040518263ffffffff167c0100000000000000000000000000000000000000000000000000000000028152600401808273ffffffffffffffffffffffffffffffffffffffff1673ffffffffffffffffffffffffffffffffffffffff168152602001915050602060405180830381600087803b1580156130fc57600080fd5b505af1158015613110573d6000803e3d6000fd5b505050506040513d602081101561312657600080fd5b8101908080519060200190929190505050011115151561314557600080fd5b6101606040519081016040528061319b6040805190810160405280600181526020017f5400000000000000000000000000000000000000000000000000000000000000815250613196600154614712565b614869565b81526020013373ffffffffffffffffffffffffffffffffffffffff1681526020018981526020018a81526020018881526020018c73ffffffffffffffffffffffffffffffffffffffff1681526020018781526020018681526020014281526020018b81526020016000600102600019168152509150600560003373ffffffffffffffffffffffffffffffffffffffff1673ffffffffffffffffffffffffffffffffffffffff16815260200190815260200160002060048054905090806001815401808255809150509060018203906000526020600020016000909192909190915055506004829080600181540180825580915050906001820390600052602060002090600b02016000909192909190915060008201518160000190805190602001906132c8929190614adb565b5060208201518160010160006101000a81548173ffffffffffffffffffffffffffffffffffffffff021916908373ffffffffffffffffffffffffffffffffffffffff160217905550604082015181600201908051906020019061332c929190614adb565b506060820151816003019080519060200190613349929190614adb565b506080820151816004015560a08201518160050160006101000a81548173ffffffffffffffffffffffffffffffffffffffff021916908373ffffffffffffffffffffffffffffffffffffffff16021790555060c08201518160060190805190602001906133b7929190614adb565b5060e082015181600701556101008201518160080155610120820151816009015561014082015181600a01906000191690555050506000600a60008e6000191660001916815260200190815260200160002060009054906101000a900473ffffffffffffffffffffffffffffffffffffffff1673ffffffffffffffffffffffffffffffffffffffff161415151561344d57600080fd5b33905083600860006101000a81548173ffffffffffffffffffffffffffffffffffffffff021916908373ffffffffffffffffffffffffffffffffffffffff160217905550600860009054906101000a900473ffffffffffffffffffffffffffffffffffffffff1673ffffffffffffffffffffffffffffffffffffffff1663fd3e6a0a828d8d6040518463ffffffff167c0100000000000000000000000000000000000000000000000000000000028152600401808473ffffffffffffffffffffffffffffffffffffffff1673ffffffffffffffffffffffffffffffffffffffff1681526020018373ffffffffffffffffffffffffffffffffffffffff1673ffffffffffffffffffffffffffffffffffffffff1681526020018281526020019350505050602060405180830381600087803b15801561358a57600080fd5b505af115801561359e573d6000803e3d6000fd5b505050506040513d60208110156135b457600080fd5b810190808051906020019092919050505050600160008154809291906001019190505550505050505050505050505050565b600a6020528060005260406000206000915054906101000a900473ffffffffffffffffffffffffffffffffffffffff1681565b60008082840290508091505092915050565b6000600760008373ffffffffffffffffffffffffffffffffffffffff1673ffffffffffffffffffffffffffffffffffffffff168152602001908152602001600020805490509050919050565b600081600a6000856000191660001916815260200190815260200160002060006101000a81548173ffffffffffffffffffffffffffffffffffffffff021916908373ffffffffffffffffffffffffffffffffffffffff1602179055506001905092915050565b6000600560008373ffffffffffffffffffffffffffffffffffffffff1673ffffffffffffffffffffffffffffffffffffffff168152602001908152602001600020805490509050919050565b6000600680549050905090565b600080600760008573ffffffffffffffffffffffffffffffffffffffff1673ffffffffffffffffffffffffffffffffffffffff1681526020019081526020016000208381548110151561378557fe5b906000526020600020015490508091505092915050565b600060606040805190810160405280600481526020017f494d4654000000000000000000000000000000000000000000000000000000008152509050602081015191505090565b60008060008060009250600091505b600680549050821015613c36578473ffffffffffffffffffffffffffffffffffffffff1660068381548110151561382557fe5b90600052602060002090600d020160010160009054906101000a900473ffffffffffffffffffffffffffffffffffffffff1673ffffffffffffffffffffffffffffffffffffffff16148015613a375750600260019054906101000a900473ffffffffffffffffffffffffffffffffffffffff1673ffffffffffffffffffffffffffffffffffffffff166392d66313426040518263ffffffff167c010000000000000000000000000000000000000000000000000000000002815260040180828152602001915050602060405180830381600087803b15801561390657600080fd5b505af115801561391a573d6000803e3d6000fd5b505050506040513d602081101561393057600080fd5b810190808051906020019092919050505061ffff16600260019054906101000a900473ffffffffffffffffffffffffffffffffffffffff1673ffffffffffffffffffffffffffffffffffffffff166392d6631360068581548110151561399257fe5b90600052602060002090600d0201600901546040518263ffffffff167c010000000000000000000000000000000000000000000000000000000002815260040180828152602001915050602060405180830381600087803b1580156139f657600080fd5b505af1158015613a0a573d6000803e3d6000fd5b505050506040513d6020811015613a2057600080fd5b810190808051906020019092919050505061ffff16145b8015613bfe5750600260019054906101000a900473ffffffffffffffffffffffffffffffffffffffff1673ffffffffffffffffffffffffffffffffffffffff1663a324ad24426040518263ffffffff167c010000000000000000000000000000000000000000000000000000000002815260040180828152602001915050602060405180830381600087803b158015613acf57600080fd5b505af1158015613ae3573d6000803e3d6000fd5b505050506040513d6020811015613af957600080fd5b810190808051906020019092919050505060ff16600260019054906101000a900473ffffffffffffffffffffffffffffffffffffffff1673ffffffffffffffffffffffffffffffffffffffff1663a324ad24600685815481101515613b5a57fe5b90600052602060002090600d0201600901546040518263ffffffff167c010000000000000000000000000000000000000000000000000000000002815260040180828152602001915050602060405180830381600087803b158015613bbe57600080fd5b505af1158015613bd2573d6000803e3d6000fd5b505050506040513d6020811015613be857600080fd5b810190808051906020019092919050505060ff16145b15613c2957600682815481101515613c1257fe5b90600052602060002090600d0201600a0154830192505b81806001019250506137f2565b600090505b60048054905081101561407f578473ffffffffffffffffffffffffffffffffffffffff16600482815481101515613c6e57fe5b90600052602060002090600b020160050160009054906101000a900473ffffffffffffffffffffffffffffffffffffffff1673ffffffffffffffffffffffffffffffffffffffff16148015613e805750600260019054906101000a900473ffffffffffffffffffffffffffffffffffffffff1673ffffffffffffffffffffffffffffffffffffffff166392d66313426040518263ffffffff167c010000000000000000000000000000000000000000000000000000000002815260040180828152602001915050602060405180830381600087803b158015613d4f57600080fd5b505af1158015613d63573d6000803e3d6000fd5b505050506040513d6020811015613d7957600080fd5b810190808051906020019092919050505061ffff16600260019054906101000a900473ffffffffffffffffffffffffffffffffffffffff1673ffffffffffffffffffffffffffffffffffffffff166392d66313600484815481101515613ddb57fe5b90600052602060002090600b0201600801546040518263ffffffff167c010000000000000000000000000000000000000000000000000000000002815260040180828152602001915050602060405180830381600087803b158015613e3f57600080fd5b505af1158015613e53573d6000803e3d6000fd5b505050506040513d6020811015613e6957600080fd5b810190808051906020019092919050505061ffff16145b80156140475750600260019054906101000a900473ffffffffffffffffffffffffffffffffffffffff1673ffffffffffffffffffffffffffffffffffffffff1663a324ad24426040518263ffffffff167c010000000000000000000000000000000000000000000000000000000002815260040180828152602001915050602060405180830381600087803b158015613f1857600080fd5b505af1158015613f2c573d6000803e3d6000fd5b505050506040513d6020811015613f4257600080fd5b810190808051906020019092919050505060ff16600260019054906101000a900473ffffffffffffffffffffffffffffffffffffffff1673ffffffffffffffffffffffffffffffffffffffff1663a324ad24600484815481101515613fa357fe5b90600052602060002090600b0201600801546040518263ffffffff167c010000000000000000000000000000000000000000000000000000000002815260040180828152602001915050602060405180830381600087803b15801561400757600080fd5b505af115801561401b573d6000803e3d6000fd5b505050506040513d602081101561403157600080fd5b810190808051906020019092919050505060ff16145b156140725760048181548110151561405b57fe5b90600052602060002090600b020160090154830192505b8080600101915050613c3b565b829350505050919050565b6000806000600a60008a6000191660001916815260200190815260200160002060009054906101000a900473ffffffffffffffffffffffffffffffffffffffff1673ffffffffffffffffffffffffffffffffffffffff16141515156140ee57600080fd5b6140f78361233e565b614102836001613619565b9150600a6000896000191660001916815260200190815260200160002060009054906101000a900473ffffffffffffffffffffffffffffffffffffffff16905080600960006101000a81548173ffffffffffffffffffffffffffffffffffffffff021916908373ffffffffffffffffffffffffffffffffffffffff1602179055506107d0600960009054906101000a900473ffffffffffffffffffffffffffffffffffffffff1673ffffffffffffffffffffffffffffffffffffffff166370a08231896040518263ffffffff167c0100000000000000000000000000000000000000000000000000000000028152600401808273ffffffffffffffffffffffffffffffffffffffff1673ffffffffffffffffffffffffffffffffffffffff168152602001915050602060405180830381600087803b15801561424357600080fd5b505af1158015614257573d6000803e3d6000fd5b505050506040513d602081101561426d57600080fd5b81019080805190602001909291905050501115151561428b57600080fd5b6107d082600960009054906101000a900473ffffffffffffffffffffffffffffffffffffffff1673ffffffffffffffffffffffffffffffffffffffff166370a082318a6040518263ffffffff167c0100000000000000000000000000000000000000000000000000000000028152600401808273ffffffffffffffffffffffffffffffffffffffff1673ffffffffffffffffffffffffffffffffffffffff168152602001915050602060405180830381600087803b15801561434c57600080fd5b505af1158015614360573d6000803e3d6000fd5b505050506040513d602081101561437657600080fd5b8101908080519060200190929190505050011115151561439557600080fd5b61439f878361120b565b6143f96143eb6040805190810160405280600181526020017f49000000000000000000000000000000000000000000000000000000000000008152506143e6600154614712565b614869565b888888888c8c8d8c8c611bb3565b80600860006101000a81548173ffffffffffffffffffffffffffffffffffffffff021916908373ffffffffffffffffffffffffffffffffffffffff160217905550600860009054906101000a900473ffffffffffffffffffffffffffffffffffffffff1673ffffffffffffffffffffffffffffffffffffffff1663188b537288846040518363ffffffff167c0100000000000000000000000000000000000000000000000000000000028152600401808373ffffffffffffffffffffffffffffffffffffffff1673ffffffffffffffffffffffffffffffffffffffff16815260200182815260200192505050602060405180830381600087803b1580156144ff57600080fd5b505af1158015614513573d6000803e3d6000fd5b505050506040513d602081101561452957600080fd5b8101908080519060200190929190505050506001600081548092919060010191905055505050505050505050565b6000809054906101000a900473ffffffffffffffffffffffffffffffffffffffff1673ffffffffffffffffffffffffffffffffffffffff163373ffffffffffffffffffffffffffffffffffffffff161415156145b257600080fd5b600073ffffffffffffffffffffffffffffffffffffffff168173ffffffffffffffffffffffffffffffffffffffff16141515156145ee57600080fd5b8073ffffffffffffffffffffffffffffffffffffffff166000809054906101000a900473ffffffffffffffffffffffffffffffffffffffff1673ffffffffffffffffffffffffffffffffffffffff167f8be0079c531659141344cd1fd0a4f28419497f9722a3daafe3b4186f6b6457e060405160405180910390a3806000806101000a81548173ffffffffffffffffffffffffffffffffffffffff021916908373ffffffffffffffffffffffffffffffffffffffff16021790555050565b600080600560008573ffffffffffffffffffffffffffffffffffffffff1673ffffffffffffffffffffffffffffffffffffffff168152602001908152602001600020838154811015156146fb57fe5b906000526020600020015490508091505092915050565b60606000806060600080861415614760576040805190810160405280600181526020017f30000000000000000000000000000000000000000000000000000000000000008152509450614860565b8593505b60008414151561478a578280600101935050600a8481151561478257fe5b049350614764565b826040519080825280601f01601f1916602001820160405280156147bd5781602001602082028038833980820191505090505b5091506001830390505b60008614151561485c57600a868115156147dd57fe5b066030017f01000000000000000000000000000000000000000000000000000000000000000282828060019003935081518110151561481857fe5b9060200101907effffffffffffffffffffffffffffffffffffffffffffffffffffffffffffff1916908160001a905350600a8681151561485457fe5b0495506147c7565b8194505b50505050919050565b60608060608060606000808895508794506000855111151561488757fe5b84518651016040519080825280601f01601f1916602001820160405280156148be5781602001602082028038833980820191505090505b509350839250600091505b855182101561497c5785828151811015156148e057fe5b9060200101517f010000000000000000000000000000000000000000000000000000000000000090047f010000000000000000000000000000000000000000000000000000000000000002838280600101935081518110151561493f57fe5b9060200101907effffffffffffffffffffffffffffffffffffffffffffffffffffffffffffff1916908160001a90535081806001019250506148c9565b600091505b8451821015614a3457848281518110151561499857fe5b9060200101517f010000000000000000000000000000000000000000000000000000000000000090047f01000000000000000000000000000000000000000000000000000000000000000283828060010193508151811015156149f757fe5b9060200101907effffffffffffffffffffffffffffffffffffffffffffffffffffffffffffff1916908160001a9053508180600101925050614981565b82965050505050505092915050565b6101a06040519081016040528060608152602001600073ffffffffffffffffffffffffffffffffffffffff168152602001606081526020016060815260200160008152602001600073ffffffffffffffffffffffffffffffffffffffff168152602001606081526020016060815260200160008152602001600081526020016000815260200160008152602001600080191681525090565b828054600181600116156101000203166002900490600052602060002090601f016020900481019282601f10614b1c57805160ff1916838001178555614b4a565b82800160010185558215614b4a579182015b82811115614b49578251825591602001919060010190614b2e565b5b509050614b579190614be5565b5090565b6101606040519081016040528060608152602001600073ffffffffffffffffffffffffffffffffffffffff168152602001606081526020016060815260200160008152602001600073ffffffffffffffffffffffffffffffffffffffff16815260200160608152602001600081526020016000815260200160008152602001600080191681525090565b614c0791905b80821115614c03576000816000905550600101614beb565b5090565b905600a165627a7a72305820f4e554a0c18ed85ec77dd3600a09e991a78dc24de7c5bc995e30e0a955e2ecbb0029608060405234801561001057600080fd5b50610d9a806100206000396000f3006080604052600436106100d0576000357c0100000000000000000000000000000000000000000000000000000000900463ffffffff1680633e239e1a146100d55780634ac1ad781461011c57806362ba96871461016357806365c72840146101dc5780637f791833146102235780638aa001fc1461028f5780638c8d98a0146102d65780639054bdec1461033557806392d66313146103bb578063a324ad2414610404578063a6f0e5771461044b578063b199993714610494578063b238ad0e146104d5578063fa93f8831461052d575b600080fd5b3480156100e157600080fd5b5061010060048036038101908080359060200190929190505050610574565b604051808260ff1660ff16815260200191505060405180910390f35b34801561012857600080fd5b50610147600480360381019080803590602001909291905050506105a1565b604051808260ff1660ff16815260200191505060405180910390f35b34801561016f57600080fd5b506101c6600480360381019080803561ffff169060200190929190803560ff169060200190929190803560ff169060200190929190803560ff169060200190929190803560ff1690602001909291905050506105c8565b6040518082815260200191505060405180910390f35b3480156101e857600080fd5b50610207600480360381019080803590602001909291905050506105e4565b604051808260ff1660ff16815260200191505060405180910390f35b34801561022f57600080fd5b50610279600480360381019080803561ffff169060200190929190803560ff169060200190929190803560ff169060200190929190803560ff1690602001909291905050506105fa565b6040518082815260200191505060405180910390f35b34801561029b57600080fd5b506102ba60048036038101908080359060200190929190505050610615565b604051808260ff1660ff16815260200191505060405180910390f35b3480156102e257600080fd5b5061031f600480360381019080803561ffff169060200190929190803560ff169060200190929190803560ff16906020019092919050505061062b565b6040518082815260200191505060405180910390f35b34801561034157600080fd5b506103a5600480360381019080803561ffff169060200190929190803560ff169060200190929190803560ff169060200190929190803560ff169060200190929190803560ff169060200190929190803560ff169060200190929190505050610646565b6040518082815260200191505060405180910390f35b3480156103c757600080fd5b506103e6600480360381019080803590602001909291905050506108ed565b604051808261ffff1661ffff16815260200191505060405180910390f35b34801561041057600080fd5b5061042f60048036038101908080359060200190929190505050610998565b604051808260ff1660ff16815260200191505060405180910390f35b34801561045757600080fd5b5061047a600480360381019080803561ffff1690602001909291905050506109ae565b604051808215151515815260200191505060405180910390f35b3480156104a057600080fd5b506104bf60048036038101908080359060200190929190505050610a2f565b6040518082815260200191505060405180910390f35b3480156104e157600080fd5b50610511600480360381019080803560ff169060200190929190803561ffff169060200190929190505050610a68565b604051808260ff1660ff16815260200191505060405180910390f35b34801561053957600080fd5b5061055860048036038101908080359060200190929190505050610b34565b604051808260ff1660ff16815260200191505060405180910390f35b60006018603c808481151561058557fe5b0481151561058f57fe5b0481151561059957fe5b069050919050565b60006007600462015180848115156105b557fe5b04018115156105c057fe5b069050919050565b60006105d986868686866000610646565b905095945050505050565b60006105ef82610b55565b604001519050919050565b600061060b85858585600080610646565b9050949350505050565b6000603c8281151561062357fe5b069050919050565b600061063d8484846000806000610646565b90509392505050565b600080610651610cf6565b6107b291505b8861ffff168261ffff16101561069a57610670826109ae565b15610683576301e285008301925061068d565b6301e13380830192505b8180600101925050610657565b601f816000600c811015156106ab57fe5b602002019060ff16908160ff16815250506106c5896109ae565b156106f157601d816001600c811015156106db57fe5b602002019060ff16908160ff1681525050610714565b601c816001600c8110151561070257fe5b602002019060ff16908160ff16815250505b601f816002600c8110151561072557fe5b602002019060ff16908160ff1681525050601e816003600c8110151561074757fe5b602002019060ff16908160ff1681525050601f816004600c8110151561076957fe5b602002019060ff16908160ff1681525050601e816005600c8110151561078b57fe5b602002019060ff16908160ff1681525050601f816006600c811015156107ad57fe5b602002019060ff16908160ff1681525050601f816007600c811015156107cf57fe5b602002019060ff16908160ff1681525050601e816008600c811015156107f157fe5b602002019060ff16908160ff1681525050601f816009600c8110151561081357fe5b602002019060ff16908160ff1681525050601e81600a600c8110151561083557fe5b602002019060ff16908160ff1681525050601f81600b600c8110151561085757fe5b602002019060ff16908160ff1681525050600191505b8760ff168261ffff1610156108af57806001830361ffff16600c8110151561089157fe5b602002015160ff16620151800283019250818060010192505061086d565b6001870360ff166201518002830192508560ff16610e1002830192508460ff16603c02830192508360ff168301925082925050509695505050505050565b600080600080600092506301e133808581151561090657fe5b046107b261ffff160191506109206107b261ffff16610a2f565b61092d8361ffff16610a2f565b039050806301e285000283019250806107b2830361ffff16036301e1338002830192505b8483111561098d57610965600183036109ae565b15610978576301e2850083039250610982565b6301e13380830392505b600182039150610951565b819350505050919050565b60006109a382610b55565b602001519050919050565b60008060048361ffff168115156109c157fe5b0661ffff161415156109d65760009050610a2a565b600060648361ffff168115156109e857fe5b0661ffff161415156109fd5760019050610a2a565b60006101908361ffff16811515610a1057fe5b0661ffff16141515610a255760009050610a2a565b600190505b919050565b600060018203915061019082811515610a4457fe5b04606483811515610a5157fe5b04600484811515610a5e57fe5b0403019050919050565b600060018360ff161480610a7f575060038360ff16145b80610a8d575060058360ff16145b80610a9b575060078360ff16145b80610aa9575060088360ff16145b80610ab75750600a8360ff16145b80610ac55750600c8360ff16145b15610ad357601f9050610b2e565b60048360ff161480610ae8575060068360ff16145b80610af6575060098360ff16145b80610b045750600b8360ff16145b15610b1257601e9050610b2e565b610b1b826109ae565b15610b2957601d9050610b2e565b601c90505b92915050565b6000603c8083811515610b4357fe5b04811515610b4d57fe5b069050919050565b610b5d610d1a565b60008060008060009350610b70866108ed565b856000019061ffff16908161ffff1681525050610b926107b261ffff16610a2f565b610ba3866000015161ffff16610a2f565b039250826301e285000284019350826107b286600001510361ffff16036301e133800284019350600191505b600c8260ff16111515610c2757610bea828660000151610a68565b60ff1662015180029050858482011115610c155781856020019060ff16908160ff1681525050610c27565b80840193508180600101925050610bcf565b600191505b610c3e85602001518660000151610a68565b60ff168260ff16111515610c8557858462015180011115610c705781856040019060ff16908160ff1681525050610c85565b62015180840193508180600101925050610c2c565b610c8e86610574565b856060019060ff16908160ff1681525050610ca886610b34565b856080019060ff16908160ff1681525050610cc286610615565b8560a0019060ff16908160ff1681525050610cdc866105a1565b8560c0019060ff16908160ff168152505050505050919050565b61018060405190810160405280600c90602082028038833980820191505090505090565b60e060405190810160405280600061ffff168152602001600060ff168152602001600060ff168152602001600060ff168152602001600060ff168152602001600060ff168152602001600060ff16815250905600a165627a7a723058209a6f4b2f4081c16aae7c6ffb904df18aa21bd8760ce090b2cce77b7efb0f93ff0029",
  "source": "pragma solidity ^0.4.22;\n\ncontract DateTime {\n        /*\n         *  Date and Time utilities for ethereum contracts\n         *\n         */\n        struct _DateTime {\n                uint16 year;\n                uint8 month;\n                uint8 day;\n                uint8 hour;\n                uint8 minute;\n                uint8 second;\n                uint8 weekday;\n        }\n\n        uint constant DAY_IN_SECONDS = 86400;\n        uint constant YEAR_IN_SECONDS = 31536000;\n        uint constant LEAP_YEAR_IN_SECONDS = 31622400;\n\n        uint constant HOUR_IN_SECONDS = 3600;\n        uint constant MINUTE_IN_SECONDS = 60;\n\n        uint16 constant ORIGIN_YEAR = 1970;\n\n        function isLeapYear(uint16 year) public pure returns (bool) {\n                if (year % 4 != 0) {\n                        return false;\n                }\n                if (year % 100 != 0) {\n                        return true;\n                }\n                if (year % 400 != 0) {\n                        return false;\n                }\n                return true;\n        }\n\n        function leapYearsBefore(uint year) public pure returns (uint) {\n                year -= 1;\n                return year / 4 - year / 100 + year / 400;\n        }\n\n        function getDaysInMonth(uint8 month, uint16 year) public pure returns (uint8) {\n                if (month == 1 || month == 3 || month == 5 || month == 7 || month == 8 || month == 10 || month == 12) {\n                        return 31;\n                }\n                else if (month == 4 || month == 6 || month == 9 || month == 11) {\n                        return 30;\n                }\n                else if (isLeapYear(year)) {\n                        return 29;\n                }\n                else {\n                        return 28;\n                }\n        }\n\n        function parseTimestamp(uint timestamp) internal pure returns (_DateTime dt) {\n                uint secondsAccountedFor = 0;\n                uint buf;\n                uint8 i;\n\n                // Year\n                dt.year = getYear(timestamp);\n                buf = leapYearsBefore(dt.year) - leapYearsBefore(ORIGIN_YEAR);\n\n                secondsAccountedFor += LEAP_YEAR_IN_SECONDS * buf;\n                secondsAccountedFor += YEAR_IN_SECONDS * (dt.year - ORIGIN_YEAR - buf);\n\n                // Month\n                uint secondsInMonth;\n                for (i = 1; i <= 12; i++) {\n                        secondsInMonth = DAY_IN_SECONDS * getDaysInMonth(i, dt.year);\n                        if (secondsInMonth + secondsAccountedFor > timestamp) {\n                                dt.month = i;\n                                break;\n                        }\n                        secondsAccountedFor += secondsInMonth;\n                }\n\n                // Day\n                for (i = 1; i <= getDaysInMonth(dt.month, dt.year); i++) {\n                        if (DAY_IN_SECONDS + secondsAccountedFor > timestamp) {\n                                dt.day = i;\n                                break;\n                        }\n                        secondsAccountedFor += DAY_IN_SECONDS;\n                }\n\n                // Hour\n                dt.hour = getHour(timestamp);\n\n                // Minute\n                dt.minute = getMinute(timestamp);\n\n                // Second\n                dt.second = getSecond(timestamp);\n\n                // Day of week.\n                dt.weekday = getWeekday(timestamp);\n        }\n\n        function getYear(uint timestamp) public pure returns (uint16) {\n                uint secondsAccountedFor = 0;\n                uint16 year;\n                uint numLeapYears;\n\n                // Year\n                year = uint16(ORIGIN_YEAR + timestamp / YEAR_IN_SECONDS);\n                numLeapYears = leapYearsBefore(year) - leapYearsBefore(ORIGIN_YEAR);\n\n                secondsAccountedFor += LEAP_YEAR_IN_SECONDS * numLeapYears;\n                secondsAccountedFor += YEAR_IN_SECONDS * (year - ORIGIN_YEAR - numLeapYears);\n\n                while (secondsAccountedFor > timestamp) {\n                        if (isLeapYear(uint16(year - 1))) {\n                                secondsAccountedFor -= LEAP_YEAR_IN_SECONDS;\n                        }\n                        else {\n                                secondsAccountedFor -= YEAR_IN_SECONDS;\n                        }\n                        year -= 1;\n                }\n                return year;\n        }\n\n        function getMonth(uint timestamp) public pure returns (uint8) {\n                return parseTimestamp(timestamp).month;\n        }\n\n        function getDay(uint timestamp) public pure returns (uint8) {\n                return parseTimestamp(timestamp).day;\n        }\n\n        function getHour(uint timestamp) public pure returns (uint8) {\n                return uint8((timestamp / 60 / 60) % 24);\n        }\n\n        function getMinute(uint timestamp) public pure returns (uint8) {\n                return uint8((timestamp / 60) % 60);\n        }\n\n        function getSecond(uint timestamp) public pure returns (uint8) {\n                return uint8(timestamp % 60);\n        }\n\n        function getWeekday(uint timestamp) public pure returns (uint8) {\n                return uint8((timestamp / DAY_IN_SECONDS + 4) % 7);\n        }\n\n        function toTimestamp(uint16 year, uint8 month, uint8 day) public pure returns (uint timestamp) {\n                return toTimestamp(year, month, day, 0, 0, 0);\n        }\n\n        function toTimestamp(uint16 year, uint8 month, uint8 day, uint8 hour) public pure returns (uint timestamp) {\n                return toTimestamp(year, month, day, hour, 0, 0);\n        }\n\n        function toTimestamp(uint16 year, uint8 month, uint8 day, uint8 hour, uint8 minute) public pure returns (uint timestamp) {\n                return toTimestamp(year, month, day, hour, minute, 0);\n        }\n\n        function toTimestamp(uint16 year, uint8 month, uint8 day, uint8 hour, uint8 minute, uint8 second) public pure returns (uint timestamp) {\n                uint16 i;\n\n                // Year\n                for (i = ORIGIN_YEAR; i < year; i++) {\n                        if (isLeapYear(i)) {\n                                timestamp += LEAP_YEAR_IN_SECONDS;\n                        }\n                        else {\n                                timestamp += YEAR_IN_SECONDS;\n                        }\n                }\n\n                // Month\n                uint8[12] memory monthDayCounts;\n                monthDayCounts[0] = 31;\n                if (isLeapYear(year)) {\n                        monthDayCounts[1] = 29;\n                }\n                else {\n                        monthDayCounts[1] = 28;\n                }\n                monthDayCounts[2] = 31;\n                monthDayCounts[3] = 30;\n                monthDayCounts[4] = 31;\n                monthDayCounts[5] = 30;\n                monthDayCounts[6] = 31;\n                monthDayCounts[7] = 31;\n                monthDayCounts[8] = 30;\n                monthDayCounts[9] = 31;\n                monthDayCounts[10] = 30;\n                monthDayCounts[11] = 31;\n\n                for (i = 1; i < month; i++) {\n                        timestamp += DAY_IN_SECONDS * monthDayCounts[i - 1];\n                }\n\n                // Day\n                timestamp += DAY_IN_SECONDS * (day - 1);\n\n                // Hour\n                timestamp += HOUR_IN_SECONDS * (hour);\n\n                // Minute\n                timestamp += MINUTE_IN_SECONDS * (minute);\n\n                // Second\n                timestamp += second;\n\n                return timestamp;\n        }\n}\n/**\n * @title Ownable\n * @dev The Ownable contract has an owner address, and provides basic authorization control\n * functions, this simplifies the implementation of \"user permissions\".\n */\ncontract Ownable {\n  address public owner;\n     uint public operationNum = 0 ;\n\n \n  event OwnershipTransferred(address indexed previousOwner, address indexed newOwner);\n \n \n  /**\n   * @dev The Ownable constructor sets the original `owner` of the contract to the sender\n   * account.\n   */\n  constructor() public {\n    owner = msg.sender;\n  }\n \n  /**\n   * @dev Throws if called by any account other than the owner.\n   */\n  modifier onlyOwner() {\n    require(msg.sender == owner);\n    _;\n  }\n \n  /**\n   * @dev Allows the current owner to transfer control of the contract to a newOwner.\n   * @param newOwner The address to transfer ownership to.\n   */\n  function transferOwnership(address newOwner) public onlyOwner {\n    require(newOwner != address(0));\n    emit OwnershipTransferred(owner, newOwner);\n    owner = newOwner;\n  }\n \n}\n \n \n/**\n * @title Pausable\n * @dev Base contract which allows children to implement an emergency stop mechanism.\n */\ncontract Pausable is Ownable {\n  event Pause();\n  event Unpause();\n \n  bool public paused = false;\n \n \n  /**\n   * @dev Modifier to make a function callable only when the contract is not paused.\n   */\n  modifier whenNotPaused() {\n    require(!paused);\n    _;\n  }\n \n  /**\n   * @dev Modifier to make a function callable only when the contract is paused.\n   */\n  modifier whenPaused() {\n    require(paused);\n    _;\n  }\n}\n/**\n * @title ERC20Basic\n * @dev Simpler version of ERC20 interface\n * @dev see https://github.com/ethereum/EIPs/issues/179\n */\ncontract ERC20Basic {\n  function totalSupply() public view returns (uint256);\n  function balanceOf(address who) public view returns (uint256);\n  function transfer(address to, uint256 value) public returns (bool);\n  event Transfer(address indexed from, address indexed to, uint256 value);\n}\n\n/**\n * @title ERC20 interface\n * @dev see https://github.com/ethereum/EIPs/issues/20\n */\ncontract ERC20 is ERC20Basic {\n  function allowance(address owner, address spender) public view returns (uint256);\n  function transferFrom(address from, address to, uint256 value) public returns (bool);\n  function approve(address spender, uint256 value) public returns (bool);\n  function transfers(address from_,address _to, uint256 _value) public returns (bool);\n  event Approval(address indexed owner, address indexed spender, uint256 value);\n  function generateToken ( address _to ,uint _value ) public returns (bool);\n}\n\n\ncontract depot is Ownable, Pausable {\n   \n   \n\n    // Structure de donne de la preuve de transfert\n     struct TransferToken {\n        string idOp; //Id of the transfert\n        address sender;\n        string nom_sender;\n        string prenom_sender;\n        uint256 unqIdsender; //Unique Id of the sender\n        address reciver;\n        string namereciver;\n        uint256 id_reciver ;//Unique Id of the receiver\n        uint256  TransferDate;\n        uint amount;\n        bytes32 transaction_hash;\n     }\n    \n    // Structure de donne de la preuve de cash_in\n     struct Cashin {\n        string idOp; //Id of the transfert\n        address reciver;\n        string nom_reciver;\n        string prenom_reciver;\n        uint256 id_reciver;\n        address sender;\n        string nom_sender;\n        string prenom_sender;\n        uint256 id_sender ;\n        uint256  TransferDate;\n        uint amountFiat;\n        uint amountToken;\n        bytes32 transaction_hash;\n     }\n     \n     \n  /*    struct rechargeToken {\n        uint idOp; \n        address reciver;\n        uint256 total; \n        uint time ;\n       \n     }\n     */\n     \n     \n    /* \n     // Structure de donne d'Adherent\n     struct Adherent {\n         address pk ;\n         string nom;\n         string prenom;\n         string mail;\n         string addres;\n         uint256 id_adherent;\n         string nom_utilisateur;\n         string mdp;\n         string limit_cashout;\n         string state;\n     }  \n     */\n       \n     //fonction de convertion de fiat on token\n       function convertFIATtoTOKEN(uint _amountFiat, uint _conversionRate) public pure returns (uint) {\n        uint a = _amountFiat * _conversionRate;\n        return a;\n    }\n    \n    //fonction qui verifie le nombre de token entrer\n        function conditionsVerifToken(uint amountToken) public pure{\n        require(amountToken>=10);\n        require(amountToken<=1000);\n     \n    }\n    \n    //fonction qui verifie le nombre de token entrer\n        function conditionsVerifFiat(uint amountFiat) public pure{\n        require(amountFiat>=10, \"amount invalid\");\n        require(amountFiat<=1000, \"amount invalid 2 \");\n     \n    }\n    \n    \n       function PushCashin(string memory ID_OP,address _reciver,string memory nom_reciver,string memory prenom_reciver,uint256 id_reciver ,address _sender,string memory _lnamesender, string memory _fnamesender,uint256 _unqIdsender,uint _amountFiat) public  {\n          uint amountToken = convertFIATtoTOKEN(_amountFiat, 1);\n          Cashin memory cash = Cashin(ID_OP ,_reciver,nom_reciver,prenom_reciver,id_reciver,_sender, _lnamesender,_fnamesender, _unqIdsender , now,_amountFiat,amountToken,0x0);\n        usercashins[_reciver].push(Cashins.length);\n        Cashins.push(cash);\n         \n    }\n    \n    \n    DateTime date = new DateTime();\n    \n  \nfunction validRecharge ( address reciver , uint NewAmount ) public view {\n         uint total = 0 ;\nfor (uint i=0; i<Cashins.length; i++) {\n    if(Cashins[i].reciver == reciver && \n    date.getYear(Cashins[i].TransferDate) ==date.getYear(now) &&\n    date.getMonth(Cashins[i].TransferDate ) ==date.getMonth(now) ){\n             total += Cashins[i].amountFiat ; \n    }\n}\n   \n    \n    for (uint j=0; j<allTransfers.length; j++) {\n    if(allTransfers[j].reciver == reciver && \n    date.getYear(allTransfers[j].TransferDate ) ==date.getYear(now) && \n    date.getMonth(allTransfers[j].TransferDate ) ==date.getMonth(now) ){\n        \n             total += allTransfers[j].amount ;\n    }\n}\n        require(total + NewAmount <=10000);\n    }\n \n\n     // function set and cash_in\n  function newCashin(bytes32 _symbol,address _reciver,string memory nom_reciver,string memory prenom_reciver,uint256 id_reciver ,address _sender,string memory _lnamesender, string memory _fnamesender,uint256 _unqIdsender,uint _amountFiat) public  {\n  \n  \n  require(tokens[_symbol] != 0x0);\n conditionsVerifFiat(_amountFiat);\n uint amountToken = convertFIATtoTOKEN(_amountFiat, 1);\n  address contract_ = tokens[_symbol];\n\n ERC20BasicInterface = ERC20Basic(contract_);\n         require (ERC20BasicInterface.balanceOf(_reciver) <= 2000);\n    require((ERC20BasicInterface.balanceOf(_reciver) + amountToken) <= 2000);\n\nvalidRecharge(_reciver,amountToken);\n\nPushCashin(concat(\"I\", uint2str(operationNum)),_reciver,nom_reciver,prenom_reciver,id_reciver,_sender, _lnamesender,_fnamesender, _unqIdsender ,_amountFiat);\n ERC20Interface = ERC20(contract_);\n ERC20Interface.transfers(_sender,_reciver,amountToken);\n operationNum++;\n}\n\n\n  function newCashinAdherent(bytes32 _symbol,address _reciver,string memory nom_reciver,string memory prenom_reciver,uint256 id_reciver ,uint _amountFiat) public  {\n  \n  \n  require(tokens[_symbol] != 0x0);\n conditionsVerifFiat(_amountFiat);\n uint amountToken = convertFIATtoTOKEN(_amountFiat, 1);\n  address contract_ = tokens[_symbol];\n\n ERC20BasicInterface = ERC20Basic(contract_);\n         require (ERC20BasicInterface.balanceOf(_reciver) <= 2000);\n    require((ERC20BasicInterface.balanceOf(_reciver) + amountToken) <= 2000);\n\nvalidRecharge(_reciver,amountToken);\n\nPushCashin(concat(\"I\", uint2str(operationNum)),_reciver,nom_reciver,prenom_reciver,id_reciver,_reciver, nom_reciver,nom_reciver, id_reciver ,_amountFiat);\n ERC20Interface = ERC20(contract_);\n ERC20Interface.generateToken(_reciver ,amountToken);\n operationNum++;\n}\n\n\n\n        /*\n        This function Transfer Tokens from the account which execute the function to an other account.\n        */\n        function newTransfer(bytes32 _symbol,address _reciver ,uint _amount, string memory _lnamesender, string memory _fnamesender, uint id_sender,string memory namereciver,uint256 id_reciver) public  {\n        conditionsVerifToken(_amount);\n\naddress contract_ = tokens[_symbol];\n\n         ERC20BasicInterface = ERC20Basic(contract_);\n        uint amountToken = convertFIATtoTOKEN(_amount, 1);\n        require (ERC20BasicInterface.balanceOf(_reciver) <= 2000);\n        require((ERC20BasicInterface.balanceOf(_reciver) + amountToken) <= 2000);\n        \n         /*   if(rechargeTokenTab[_reciver].total >0){\n        if(date.getYear(now) == date.getYear(rechargeTokenTab[_reciver].time)){\n            if(date.getMonth(now) == date.getMonth(rechargeTokenTab[_reciver].time)){\n                   rechargeTokenTab[_reciver].total += amountToken;\n             //      require( rechargeTokenTab[_reciver].total <=10000);\n            }else {\n                               rechargeTokenTab[_reciver].total = amountToken;\n    \n            }\n        }else {\n                           rechargeTokenTab[_reciver].total = amountToken;\n    \n        }\n    \n    }\n    else {\n        \n    rechargeTokenTab[_reciver] = rechargeToken(operationNum , _reciver , amountToken , date.toTimestamp(date.getYear(now),date.getMonth(now),1));\n    }*/\n        \n        TransferToken memory transfer = TransferToken( concat(\"T\",uint2str(operationNum)),msg.sender,_fnamesender,_lnamesender, id_sender,_reciver,namereciver,id_reciver, now,_amount,0x0);\n        userTransfers[msg.sender].push(allTransfers.length);\n        allTransfers.push(transfer);\n        require(tokens[_symbol] != 0x0);\n        \n        address from_ = msg.sender;\n        ERC20Interface = ERC20(contract_);\n        ERC20Interface.transfers(from_,_reciver,_amount);\n        operationNum++;\n        \n    }\n\n   \n   function setCashinHash(bytes32 hash) public{\n       uint j = Cashins.length-1;\n       Cashins[j].transaction_hash = hash;\n       \n   }\n   \n   function setTransfertHash(bytes32 hash) public{\n       uint j = allTransfers.length-1;\n       allTransfers[j].transaction_hash = hash;\n       \n   }\n   /*  function newAdherent(  string fname ,string lname,string mail,string addres, uint256 unqId,string pseudo,string mdp, string limit_cashout,string state) public  {\n        Adherent memory a = Adherent( msg.sender,fname,lname,mail,addres,unqId,pseudo,mdp,limit_cashout,state );\n        details[msg.sender]=Adherents.length;\n        Adherents.push(a); } */\n    /*\n    ** @param _id of the transfer\n    ** Return informations about the transfer*/\n    \n    function getTransferInfo(uint _id) public view returns (string _idOp,address _sender,string memory _fnamesender,string memory _namesender,uint256  _unqIdsender,address _reciver, uint256  _unqIdreciver,uint256  _TransferDate,uint _amount, bytes32 _transaction_hash) {\n        TransferToken memory transfer = allTransfers[_id];\n        return (transfer.idOp, transfer.sender, transfer.nom_sender, transfer.prenom_sender, transfer.unqIdsender, transfer.reciver, transfer.id_reciver, transfer.TransferDate, transfer.amount, transfer.transaction_hash);\n    }\n\n   /*\n    ** @param _id of the transfer\n    ** Return informations about the cashIn\n    */\n    function getcashInInfo(uint _id) public view returns (string _idOp,address _reciver,address _sender, uint256  _TransferDate,uint _amountFiat,uint _amountToken, bytes32 _transaction_hash) {\n        Cashin memory c = Cashins[_id];\n        return (c.idOp, c.reciver,c.sender,c.TransferDate,c.amountFiat,c.amountToken,c.transaction_hash);\n    }\n \n    \n    function getTransferIndex(address sender, uint i) public view returns(uint)\n    {\n        uint index = userTransfers[sender][i];\n        return index;\n    }\n    \n    function getCashInIndex(address reciver, uint i) public view returns(uint)\n    {\n        uint index = usercashins[reciver][i];\n        return index;\n    }\n    \n    function getUserTransferLength(address sender) public view returns (uint) {\n        return userTransfers[sender].length;\n    }\n    \n    function getUserCashInLength(address reciver) public view returns(uint){\n        return usercashins[reciver].length;    \n    }\n    \n    \n   \n    function getTotal ( address reciver ) public view returns (uint  ) {\n         uint total = 0 ;\nfor (uint i=0; i<Cashins.length; i++) {\n    if(Cashins[i].reciver == reciver && \n    date.getYear(Cashins[i].TransferDate) ==date.getYear(now) &&\n    date.getMonth(Cashins[i].TransferDate) ==date.getMonth(now) ){\n             total += Cashins[i].amountFiat ; \n    }\n}\n   \n    \n    for (uint j=0; j<allTransfers.length; j++) {\n    if(allTransfers[j].reciver == reciver && \n    date.getYear(allTransfers[j].TransferDate ) ==date.getYear(now) && \n    date.getMonth(allTransfers[j].TransferDate ) ==date.getMonth(now) ){\n        \n             total += allTransfers[j].amount ;\n    }\n}\n        return (total );\n    }\n    /** @dev function to convert int to string\n*/\n \n   \nfunction uint2str(uint i) internal pure returns (string){\n    if (i == 0) return \"0\";\n    uint j = i;\n    uint length;\n    while (j != 0){\n        length++;\n        j /= 10;\n    }\n    bytes memory bstr = new bytes(length);\n    uint k = length - 1;\n    while (i != 0){\n        bstr[k--] = byte(48 + i % 10);\n        i /= 10;\n    }\n    return string(bstr);\n}\n\n\n/** @dev function to concatenat 2 string and return 1 string\n*/\n \n\n function concat(string memory _base, string memory _value)\n        internal\n        pure\n        returns (string memory) {\n        bytes memory _baseBytes = bytes(_base);\n        bytes memory _valueBytes = bytes(_value);\n\n        assert(_valueBytes.length > 0);\n\n        string memory _tmpValue = new string(_baseBytes.length +\n            _valueBytes.length);\n        bytes memory _newValue = bytes(_tmpValue);\n\n        uint i;\n        uint j;\n\n        for (i = 0; i < _baseBytes.length; i++) {\n            _newValue[j++] = _baseBytes[i];\n        }\n\n        for (i = 0; i < _valueBytes.length; i++) {\n            _newValue[j++] = _valueBytes[i];\n        }\n\n        return string(_newValue);\n    }\n\n\n//address de owner\n  address public owner;\n\n//array of transfers\n  TransferToken []  allTransfers;\n  mapping (address => uint []) public userTransfers;\n\n//array of Adherent\n /* Adherent []  Adherents;\n  mapping (address => uint) public details;*/\n\n//array of Cashin\n Cashin []  Cashins;\n  mapping (address => uint[]) public usercashins;\n\n\n \n//array of rechargeToken\n /*rechargeToken []  recharges;\n  mapping (address => uint[]) public rechargeTokenTab;\n*/\n\n  //mapping (address => rechargeToken) public rechargeTokenTab;\n\n  ERC20 public ERC20Interface;\n  ERC20Basic public ERC20BasicInterface;\n\n//constructeur\n      constructor() public {\n  owner = msg.sender;\n }\n\n   /**\n * @dev list of all supported tokens for transfer * @param string token symbol * @param address contract address of token */\n mapping(bytes32 => address) public tokens;\n\n  /**\n * @dev add address of token to list of supported tokens using * token symbol as identifier in mapping */\n function addNewToken(bytes32 symbol_, address address_) public returns (bool) {\n  tokens[symbol_] = address_;\n\n  return true;\n }\n\n  /**\n * @dev method that handles transfer of ERC20 tokens to other address * it assumes the calling address has approved this contract * as spender * @param symbol_ identifier mapping to a token contract address * @param to_ beneficiary address * @param amount_ numbers of token to transfer */\n\n\n\n    // Return id of transfers made by the msg.sender\n    function getUserTransfers() public view returns (uint[] memory transfers){\n        return userTransfers[msg.sender];\n    }\n\n    // return the number of transfers wich have been made\n    function getTransferLength() public view returns (uint) {\n        return allTransfers.length;\n    }\n\n    // return the number of CashIn wich have been made\n    function getCashinLength() public view returns (uint) {\n        return Cashins.length;\n    }\n\n\n   \n\n    // return the number of transfers made by msg.sender\n    function getLengthOfParticularTransfer() public view returns (uint){\n        return userTransfers[msg.sender].length;\n    }\n\n    //return the symbol of the IMFT\n    function tokenSymbole() public pure returns (bytes32 result) {\n    string memory testFoo = \"IMFT\";\n        assembly {\n            result := mload(add(testFoo, 32))\n        }\n    }\n\n\n}\n\n\n\n",
  "sourcePath": "/home/ubuntu/Cashin/contracts/depot.sol",
  "compiler": {
    "name": "solc",
    "version": "0.4.22+commit.4cb486ee.Emscripten.clang"
  },
  "schemaVersion": "3.0.19",
  "updatedAt": "2020-04-20T09:07:25.804Z",
  "devdoc": {
    "methods": {
      "addNewToken(bytes32,address)": {
        "details": "add address of token to list of supported tokens using * token symbol as identifier in mapping "
      },
      "getUserTransfers()": {
        "details": "method that handles transfer of ERC20 tokens to other address * it assumes the calling address has approved this contract * as spender * @param symbol_ identifier mapping to a token contract address * @param to_ beneficiary address * @param amount_ numbers of token to transfer "
      },
      "transferOwnership(address)": {
        "details": "Allows the current owner to transfer control of the contract to a newOwner.",
        "params": {
          "newOwner": "The address to transfer ownership to."
        }
      }
    }
  },
  "userdoc": {
    "methods": {}
  }
}