{
  "contractName": "Pausable",
  "abi": [
    {
      "constant": true,
      "inputs": [],
      "name": "operationNum",
      "outputs": [
        {
          "name": "",
          "type": "uint256"
        }
      ],
      "payable": false,
      "stateMutability": "view",
      "type": "function"
    },
    {
      "constant": true,
      "inputs": [],
      "name": "paused",
      "outputs": [
        {
          "name": "",
          "type": "bool"
        }
      ],
      "payable": false,
      "stateMutability": "view",
      "type": "function"
    },
    {
      "constant": true,
      "inputs": [],
      "name": "owner",
      "outputs": [
        {
          "name": "",
          "type": "address"
        }
      ],
      "payable": false,
      "stateMutability": "view",
      "type": "function"
    },
    {
      "constant": false,
      "inputs": [
        {
          "name": "newOwner",
          "type": "address"
        }
      ],
      "name": "transferOwnership",
      "outputs": [],
      "payable": false,
      "stateMutability": "nonpayable",
      "type": "function"
    },
    {
      "anonymous": false,
      "inputs": [],
      "name": "Pause",
      "type": "event"
    },
    {
      "anonymous": false,
      "inputs": [],
      "name": "Unpause",
      "type": "event"
    },
    {
      "anonymous": false,
      "inputs": [
        {
          "indexed": true,
          "name": "previousOwner",
          "type": "address"
        },
        {
          "indexed": true,
          "name": "newOwner",
          "type": "address"
        }
      ],
      "name": "OwnershipTransferred",
      "type": "event"
    }
  ],
  "bytecode": "0x608060405260006001556000600260006101000a81548160ff021916908315150217905550336000806101000a81548173ffffffffffffffffffffffffffffffffffffffff021916908373ffffffffffffffffffffffffffffffffffffffff16021790555061031a806100736000396000f300608060405260043610610062576000357c0100000000000000000000000000000000000000000000000000000000900463ffffffff1680635130a863146100675780635c975abb146100925780638da5cb5b146100c1578063f2fde38b14610118575b600080fd5b34801561007357600080fd5b5061007c61015b565b6040518082815260200191505060405180910390f35b34801561009e57600080fd5b506100a7610161565b604051808215151515815260200191505060405180910390f35b3480156100cd57600080fd5b506100d6610174565b604051808273ffffffffffffffffffffffffffffffffffffffff1673ffffffffffffffffffffffffffffffffffffffff16815260200191505060405180910390f35b34801561012457600080fd5b50610159600480360381019080803573ffffffffffffffffffffffffffffffffffffffff169060200190929190505050610199565b005b60015481565b600260009054906101000a900460ff1681565b6000809054906101000a900473ffffffffffffffffffffffffffffffffffffffff1681565b6000809054906101000a900473ffffffffffffffffffffffffffffffffffffffff1673ffffffffffffffffffffffffffffffffffffffff163373ffffffffffffffffffffffffffffffffffffffff161415156101f457600080fd5b600073ffffffffffffffffffffffffffffffffffffffff168173ffffffffffffffffffffffffffffffffffffffff161415151561023057600080fd5b8073ffffffffffffffffffffffffffffffffffffffff166000809054906101000a900473ffffffffffffffffffffffffffffffffffffffff1673ffffffffffffffffffffffffffffffffffffffff167f8be0079c531659141344cd1fd0a4f28419497f9722a3daafe3b4186f6b6457e060405160405180910390a3806000806101000a81548173ffffffffffffffffffffffffffffffffffffffff021916908373ffffffffffffffffffffffffffffffffffffffff160217905550505600a165627a7a723058205289829c3e9fb749dab1a43ea2455b79a859700cbdef5848c8c2198c7831da5b0029",
  "source": "\n    pragma solidity ^0.4.22;\n    \n    contract DateTime {\n            /*\n             *  Date and Time utilities for ethereum contracts\n             *\n             */\n            struct _DateTime {\n                    uint16 year;\n                    uint8 month;\n                    uint8 day;\n                    uint8 hour;\n                    uint8 minute;\n                    uint8 second;\n                    uint8 weekday;\n            }\n    \n            uint constant DAY_IN_SECONDS = 86400;\n            uint constant YEAR_IN_SECONDS = 31536000;\n            uint constant LEAP_YEAR_IN_SECONDS = 31622400;\n    \n            uint constant HOUR_IN_SECONDS = 3600;\n            uint constant MINUTE_IN_SECONDS = 60;\n    \n            uint16 constant ORIGIN_YEAR = 1970;\n    \n            function isLeapYear(uint16 year) public pure returns (bool) {\n                    if (year % 4 != 0) {\n                            return false;\n                    }\n                    if (year % 100 != 0) {\n                            return true;\n                    }\n                    if (year % 400 != 0) {\n                            return false;\n                    }\n                    return true;\n            }\n    \n            function leapYearsBefore(uint year) public pure returns (uint) {\n                    year -= 1;\n                    return year / 4 - year / 100 + year / 400;\n            }\n    \n            function getDaysInMonth(uint8 month, uint16 year) public pure returns (uint8) {\n                    if (month == 1 || month == 3 || month == 5 || month == 7 || month == 8 || month == 10 || month == 12) {\n                            return 31;\n                    }\n                    else if (month == 4 || month == 6 || month == 9 || month == 11) {\n                            return 30;\n                    }\n                    else if (isLeapYear(year)) {\n                            return 29;\n                    }\n                    else {\n                            return 28;\n                    }\n            }\n    \n            function parseTimestamp(uint timestamp) internal pure returns (_DateTime dt) {\n                    uint secondsAccountedFor = 0;\n                    uint buf;\n                    uint8 i;\n    \n                    // Year\n                    dt.year = getYear(timestamp);\n                    buf = leapYearsBefore(dt.year) - leapYearsBefore(ORIGIN_YEAR);\n    \n                    secondsAccountedFor += LEAP_YEAR_IN_SECONDS * buf;\n                    secondsAccountedFor += YEAR_IN_SECONDS * (dt.year - ORIGIN_YEAR - buf);\n    \n                    // Month\n                    uint secondsInMonth;\n                    for (i = 1; i <= 12; i++) {\n                            secondsInMonth = DAY_IN_SECONDS * getDaysInMonth(i, dt.year);\n                            if (secondsInMonth + secondsAccountedFor > timestamp) {\n                                    dt.month = i;\n                                    break;\n                            }\n                            secondsAccountedFor += secondsInMonth;\n                    }\n    \n                    // Day\n                    for (i = 1; i <= getDaysInMonth(dt.month, dt.year); i++) {\n                            if (DAY_IN_SECONDS + secondsAccountedFor > timestamp) {\n                                    dt.day = i;\n                                    break;\n                            }\n                            secondsAccountedFor += DAY_IN_SECONDS;\n                    }\n    \n                    // Hour\n                    dt.hour = getHour(timestamp);\n    \n                    // Minute\n                    dt.minute = getMinute(timestamp);\n    \n                    // Second\n                    dt.second = getSecond(timestamp);\n    \n                    // Day of week.\n                    dt.weekday = getWeekday(timestamp);\n            }\n    \n            function getYear(uint timestamp) public pure returns (uint16) {\n                    uint secondsAccountedFor = 0;\n                    uint16 year;\n                    uint numLeapYears;\n    \n                    // Year\n                    year = uint16(ORIGIN_YEAR + timestamp / YEAR_IN_SECONDS);\n                    numLeapYears = leapYearsBefore(year) - leapYearsBefore(ORIGIN_YEAR);\n    \n                    secondsAccountedFor += LEAP_YEAR_IN_SECONDS * numLeapYears;\n                    secondsAccountedFor += YEAR_IN_SECONDS * (year - ORIGIN_YEAR - numLeapYears);\n    \n                    while (secondsAccountedFor > timestamp) {\n                            if (isLeapYear(uint16(year - 1))) {\n                                    secondsAccountedFor -= LEAP_YEAR_IN_SECONDS;\n                            }\n                            else {\n                                    secondsAccountedFor -= YEAR_IN_SECONDS;\n                            }\n                            year -= 1;\n                    }\n                    return year;\n            }\n    \n            function getMonth(uint timestamp) public pure returns (uint8) {\n                    return parseTimestamp(timestamp).month;\n            }\n    \n            function getDay(uint timestamp) public pure returns (uint8) {\n                    return parseTimestamp(timestamp).day;\n            }\n    \n            function getHour(uint timestamp) public pure returns (uint8) {\n                    return uint8((timestamp / 60 / 60) % 24);\n            }\n    \n            function getMinute(uint timestamp) public pure returns (uint8) {\n                    return uint8((timestamp / 60) % 60);\n            }\n    \n            function getSecond(uint timestamp) public pure returns (uint8) {\n                    return uint8(timestamp % 60);\n            }\n    \n            function getWeekday(uint timestamp) public pure returns (uint8) {\n                    return uint8((timestamp / DAY_IN_SECONDS + 4) % 7);\n            }\n    \n            function toTimestamp(uint16 year, uint8 month, uint8 day) public pure returns (uint timestamp) {\n                    return toTimestamp(year, month, day, 0, 0, 0);\n            }\n    \n            function toTimestamp(uint16 year, uint8 month, uint8 day, uint8 hour) public pure returns (uint timestamp) {\n                    return toTimestamp(year, month, day, hour, 0, 0);\n            }\n    \n            function toTimestamp(uint16 year, uint8 month, uint8 day, uint8 hour, uint8 minute) public pure returns (uint timestamp) {\n                    return toTimestamp(year, month, day, hour, minute, 0);\n            }\n    \n            function toTimestamp(uint16 year, uint8 month, uint8 day, uint8 hour, uint8 minute, uint8 second) public pure returns (uint timestamp) {\n                    uint16 i;\n    \n                    // Year\n                    for (i = ORIGIN_YEAR; i < year; i++) {\n                            if (isLeapYear(i)) {\n                                    timestamp += LEAP_YEAR_IN_SECONDS;\n                            }\n                            else {\n                                    timestamp += YEAR_IN_SECONDS;\n                            }\n                    }\n    \n                    // Month\n                    uint8[12] memory monthDayCounts;\n                    monthDayCounts[0] = 31;\n                    if (isLeapYear(year)) {\n                            monthDayCounts[1] = 29;\n                    }\n                    else {\n                            monthDayCounts[1] = 28;\n                    }\n                    monthDayCounts[2] = 31;\n                    monthDayCounts[3] = 30;\n                    monthDayCounts[4] = 31;\n                    monthDayCounts[5] = 30;\n                    monthDayCounts[6] = 31;\n                    monthDayCounts[7] = 31;\n                    monthDayCounts[8] = 30;\n                    monthDayCounts[9] = 31;\n                    monthDayCounts[10] = 30;\n                    monthDayCounts[11] = 31;\n    \n                    for (i = 1; i < month; i++) {\n                            timestamp += DAY_IN_SECONDS * monthDayCounts[i - 1];\n                    }\n    \n                    // Day\n                    timestamp += DAY_IN_SECONDS * (day - 1);\n    \n                    // Hour\n                    timestamp += HOUR_IN_SECONDS * (hour);\n    \n                    // Minute\n                    timestamp += MINUTE_IN_SECONDS * (minute);\n    \n                    // Second\n                    timestamp += second;\n    \n                    return timestamp;\n            }\n    }\n    /**\n     * @title Ownable\n     * @dev The Ownable contract has an owner address, and provides basic authorization control\n     * functions, this simplifies the implementation of \"user permissions\".\n     */\n    contract Ownable {\n      address public owner;\n         uint public operationNum = 0 ;\n    \n     \n      event OwnershipTransferred(address indexed previousOwner, address indexed newOwner);\n     \n     \n      /**\n       * @dev The Ownable constructor sets the original `owner` of the contract to the sender\n       * account.\n       */\n      constructor() public {\n        owner = msg.sender;\n      }\n     \n      /**\n       * @dev Throws if called by any account other than the owner.\n       */\n      modifier onlyOwner() {\n        require(msg.sender == owner);\n        _;\n      }\n     \n      /**\n       * @dev Allows the current owner to transfer control of the contract to a newOwner.\n       * @param newOwner The address to transfer ownership to.\n       */\n      function transferOwnership(address newOwner) public onlyOwner {\n        require(newOwner != address(0));\n        emit OwnershipTransferred(owner, newOwner);\n        owner = newOwner;\n      }\n     \n    }\n     \n     \n    /**\n     * @title Pausable\n     * @dev Base contract which allows children to implement an emergency stop mechanism.\n     */\n    contract Pausable is Ownable {\n      event Pause();\n      event Unpause();\n     \n      bool public paused = false;\n     \n     \n      /**\n       * @dev Modifier to make a function callable only when the contract is not paused.\n       */\n      modifier whenNotPaused() {\n        require(!paused);\n        _;\n      }\n     \n      /**\n       * @dev Modifier to make a function callable only when the contract is paused.\n       */\n      modifier whenPaused() {\n        require(paused);\n        _;\n      }\n    }\n    /**\n     * @title ERC20Basic\n     * @dev Simpler version of ERC20 interface\n     * @dev see https://github.com/ethereum/EIPs/issues/179\n     */\n    contract ERC20Basic {\n      function totalSupply() public view returns (uint256);\n      function balanceOf(address who) public view returns (uint256);\n      function transfer(address to, uint256 value) public returns (bool);\n      event Transfer(address indexed from, address indexed to, uint256 value);\n    }\n    \n    /**\n     * @title ERC20 interface\n     * @dev see https://github.com/ethereum/EIPs/issues/20\n     */\n    contract ERC20 is ERC20Basic {\n      function allowance(address owner, address spender) public view returns (uint256);\n      function transferFrom(address from, address to, uint256 value) public returns (bool);\n      function approve(address spender, uint256 value) public returns (bool);\n      function transfers(address from_,address _to, uint256 _value) public returns (bool);\n      event Approval(address indexed owner, address indexed spender, uint256 value);\n      function generateToken ( address _to ,uint _value ) public returns (bool);\n\n    }\n    \n    \n    contract depotCashin2 is Ownable, Pausable {\n       \n       \n    \n        // Structure de donnée de la preuve de transfert\n         struct TransferToken {\n            string idOp; //Id of the transfert\n            address sender;\n            string nom_sender;\n            string prenom_sender;\n            uint256 unqIdsender; //Unique Id of the sender\n            address reciver;\n            string namereciver;\n            uint256 id_reciver ;//Unique Id of the receiver\n            uint256  TransferDate;\n            uint amount;\n            bytes32 transaction_hash;\n         }\n        \n        // Structure de donnée de la preuve de cash_in\n         struct Cashin {\n            string idOp; //Id of the transfert\n            address reciver;\n            string nom_reciver;\n            string prenom_reciver;\n            uint256 id_reciver;\n            address sender;\n            string nom_sender;\n            string prenom_sender;\n            uint256 id_sender ;\n            uint256  TransferDate;\n            uint amountFiat;\n            uint amountToken;\n            bytes32 transaction_hash;\n         }\n         \n         \n      /*    struct rechargeToken {\n            uint idOp; \n            address reciver;\n            uint256 total; \n            uint time ;\n           \n         }\n         */\n         \n         \n        /* \n         // Structure de donnée d'Adherent\n         struct Adherent {\n             address pk ;\n             string nom;\n             string prenom;\n             string mail;\n             string addres;\n             uint256 id_adherent;\n             string nom_utilisateur;\n             string mdp;\n             string limit_cashout;\n             string state;\n         }  \n         */\n           \n         //fonction de convertion de fiat on token\n           function convertFIATtoTOKEN(uint _amountFiat, uint _conversionRate) public pure returns (uint) {\n            uint a = _amountFiat * _conversionRate;\n            return a;\n        }\n        \n        //fonction qui verifie le nombre de token entrer\n            function conditionsVerifToken(uint amountToken) public pure{\n            require(amountToken>=10);\n            require(amountToken<=1000);\n         \n        }\n        \n        //fonction qui verifie le nombre de token entrer\n            function conditionsVerifFiat(uint amountFiat) public pure{\n            require(amountFiat>=10, \"amount invalid\");\n            require(amountFiat<=1000, \"amount invalid 2 \");\n         \n        }\n        \n        \n        function PushCashin(string memory ID_OP,address _reciver,string memory nom_reciver,string memory prenom_reciver,uint256 id_reciver ,address _sender,string memory _lnamesender, string memory _fnamesender,uint256 _unqIdsender,uint _amountFiat, uint256 _timetocomparecashin) public  {\n          uint amountToken = convertFIATtoTOKEN(_amountFiat, 1);\n          Cashin memory cash = Cashin(ID_OP ,_reciver,nom_reciver,prenom_reciver,id_reciver,_sender, _lnamesender,_fnamesender, _unqIdsender , _timetocomparecashin,_amountFiat,amountToken,0x0);\n        usercashins[_sender].push(Cashins.length);\n        Cashins.push(cash);\n        \n    }\n        \n        DateTime date = new DateTime();\n        \n      \n    function validRecharge ( address reciver , uint NewAmount ) public view {\n             uint total = 0 ;\n    for (uint i=0; i<Cashins.length; i++) {\n        if(Cashins[i].reciver == reciver && \n        date.getYear(Cashins[i].TransferDate) ==date.getYear(now) &&\n        date.getMonth(Cashins[i].TransferDate ) ==date.getMonth(now) ){\n                 total += Cashins[i].amountFiat ; \n        }\n    }\n       \n        \n        for (uint j=0; j<allTransfers.length; j++) {\n        if(allTransfers[j].reciver == reciver && \n        date.getYear(allTransfers[j].TransferDate ) ==date.getYear(now) && \n        date.getMonth(allTransfers[j].TransferDate ) ==date.getMonth(now) ){\n            \n                 total += allTransfers[j].amount ;\n        }\n    }\n            require(total + NewAmount <=10000);\n        }\n     \n    \n         // function set and cash_in\n    function newCashin(address _reciver,string memory nom_reciver,string memory prenom_reciver,uint256 id_reciver ,address _sender,string memory _lnamesender, string memory _fnamesender,uint256 _unqIdsender,uint _amountFiat, uint256 _timetocomparecashin) public  {\n  \n  \n conditionsVerifFiat(_amountFiat);\n uint amountToken = convertFIATtoTOKEN(_amountFiat, 1);\n  address contract_ = tokens[tokenSymbole()];\n\n \n\n ERC20BasicInterface = ERC20Basic(contract_);\n         require (ERC20BasicInterface.balanceOf(_reciver) <= 2000);\n    require((ERC20BasicInterface.balanceOf(_reciver) + amountToken) <= 2000);\n\n \n\nvalidRecharge(_reciver,amountToken);\n\n \n\nPushCashin(concat(\"I\", uint2str(operationNum)),_reciver,nom_reciver,prenom_reciver,id_reciver,_sender, _lnamesender,_fnamesender, _unqIdsender ,_amountFiat, _timetocomparecashin);\n ERC20Interface = ERC20(contract_);\n ERC20Interface.transfers(_sender,_reciver,amountToken);\n operationNum++;\n}\n           \n           function newCashinAdherent(address _reciver,string memory nom_reciver,string memory prenom_reciver,uint256 id_reciver ,uint _amountFiat, uint256 _timetocomparecashin) public  {\n  \n  \n conditionsVerifFiat(_amountFiat);\n uint amountToken = convertFIATtoTOKEN(_amountFiat, 1);\n  address contract_ = tokens[tokenSymbole()];\n\n ERC20BasicInterface = ERC20Basic(contract_);\n         require (ERC20BasicInterface.balanceOf(_reciver) <= 2000);\n    require((ERC20BasicInterface.balanceOf(_reciver) + amountToken) <= 2000);\n\nvalidRecharge(_reciver,amountToken);\n\nPushCashin(concat(\"I\", uint2str(operationNum)),_reciver,nom_reciver,prenom_reciver,id_reciver,_reciver, nom_reciver,nom_reciver, id_reciver ,_amountFiat, _timetocomparecashin);\n ERC20Interface = ERC20(contract_);\n ERC20Interface.generateToken(_reciver ,amountToken);\n operationNum++;\n}\n\n\n           \n            /*\n            This function Transfer Tokens from the account which execute the function to an other account.\n            */\n            function newTransfer(uint dateAct,address _reciver ,uint _amount, string memory _lnamesender, string memory _fnamesender, uint id_sender,string memory namereciver,uint256 id_reciver) public  {\n            conditionsVerifToken(_amount);\n    \n            address contract_ = tokens[tokenSymbole()];\n    \n             ERC20BasicInterface = ERC20Basic(contract_);\n            uint amountToken = convertFIATtoTOKEN(_amount, 1);\n            require (ERC20BasicInterface.balanceOf(_reciver) <= 2000);\n            require((ERC20BasicInterface.balanceOf(_reciver) + amountToken) <= 2000);\n            \n             /*   if(rechargeTokenTab[_reciver].total >0){\n            if(date.getYear(now) == date.getYear(rechargeTokenTab[_reciver].time)){\n                if(date.getMonth(now) == date.getMonth(rechargeTokenTab[_reciver].time)){\n                       rechargeTokenTab[_reciver].total += amountToken;\n                 //      require( rechargeTokenTab[_reciver].total <=10000);\n                }else {\n                                   rechargeTokenTab[_reciver].total = amountToken;\n        \n                }\n            }else {\n                               rechargeTokenTab[_reciver].total = amountToken;\n        \n            }\n        \n        }\n        else {\n            \n        rechargeTokenTab[_reciver] = rechargeToken(operationNum , _reciver , amountToken , date.toTimestamp(date.getYear(now),date.getMonth(now),1));\n        }*/\n            \n            TransferToken memory transfer = TransferToken( concat(\"T\",uint2str(operationNum)),msg.sender,_fnamesender,_lnamesender, id_sender,_reciver,namereciver,id_reciver, dateAct,_amount,0x0);\n            userTransfers[msg.sender].push(allTransfers.length);\n            allTransfers.push(transfer);\n            // require(tokens[_symbol] != 0x0);\n            \n            address from_ = msg.sender;\n            ERC20Interface = ERC20(contract_);\n            ERC20Interface.transfers(from_,_reciver,_amount);\n            operationNum++;\n            \n        }\n    \n       \n      \n    \n    \n       \n       function setCashinHash(bytes32 hash, uint256 _timetocompate) public{\n                    for (uint j=0; j<Cashins.length; j++) {\n    if(Cashins[j].TransferDate ==  _timetocompate)\n{\n      Cashins[j].transaction_hash = hash;\n}    \n       \n           \n       }}\n       \n           function setTransfertHash(bytes32 hash, uint256 _timetocompate) public{\n          for (uint j=0; j<allTransfers.length; j++) {\n    if(allTransfers[j].TransferDate ==  _timetocompate)\n    {\n      allTransfers[j].transaction_hash = hash;\n    }    \n        }\n   }\n       /*  function newAdherent(  string fname ,string lname,string mail,string addres, uint256 unqId,string pseudo,string mdp, string limit_cashout,string state) public  {\n            Adherent memory a = Adherent( msg.sender,fname,lname,mail,addres,unqId,pseudo,mdp,limit_cashout,state );\n            details[msg.sender]=Adherents.length;\n            Adherents.push(a); } */\n        /*\n        ** @param _id of the transfer\n        ** Return informations about the transfer*/\n        \n        function getTransferInfo(uint _id) public view returns (string _idOp,address _sender,string memory _fnamesender,string memory _namesender,uint256  _unqIdsender,address _reciver, uint256  _unqIdreciver,uint256  _TransferDate,uint _amount, bytes32 _transaction_hash) {\n            TransferToken memory transfer = allTransfers[_id];\n            return (transfer.idOp, transfer.sender, transfer.nom_sender, transfer.prenom_sender, transfer.unqIdsender, transfer.reciver, transfer.id_reciver, transfer.TransferDate, transfer.amount, transfer.transaction_hash);\n        }\n    \n       /*\n        ** @param _id of the transfer\n        ** Return informations about the cashIn\n        */\n        function getcashInInfo(uint _id) public view returns (string _idOp,address _reciver,address _sender, uint256  _TransferDate,uint _amountFiat,uint _amountToken, bytes32 _transaction_hash) {\n            Cashin memory c = Cashins[_id];\n            return (c.idOp, c.reciver,c.sender,c.TransferDate,c.amountFiat,c.amountToken,c.transaction_hash);\n        }\n     \n        \n        function getTransferIndex(address sender, uint i) public view returns(uint)\n        {\n            uint index = userTransfers[sender][i];\n            return index;\n        }\n        \n        function getCashInIndex(address _sender, uint i) public view returns(uint)\n        {\n            uint index = usercashins[_sender][i];\n            return index;\n        }\n        \n        function getUserTransferLength(address sender) public view returns (uint) {\n            return userTransfers[sender].length;\n        }\n        \n        function getUserCashInLength(address _sender) public view returns(uint){\n            return usercashins[_sender].length;    \n        }\n        \n        \n       \n        function getTotal ( address reciver ) public view returns (uint  ) {\n             uint total = 0 ;\n    for (uint i=0; i<Cashins.length; i++) {\n        if(Cashins[i].reciver == reciver && \n        date.getYear(Cashins[i].TransferDate) ==date.getYear(now) &&\n        date.getMonth(Cashins[i].TransferDate ) ==date.getMonth(now) ){\n                 total += Cashins[i].amountFiat ; \n        }\n    }\n       \n        \n        for (uint j=0; j<allTransfers.length; j++) {\n        if(allTransfers[j].reciver == reciver && \n        date.getYear(allTransfers[j].TransferDate ) ==date.getYear(now) && \n        date.getMonth(allTransfers[j].TransferDate ) ==date.getMonth(now) ){\n            \n                 total += allTransfers[j].amount ;\n        }\n    }\n            return (total );\n        }\n        /** @dev function to convert int to string\n    */\n     \n       \n    function uint2str(uint i) internal pure returns (string){\n        if (i == 0) return \"0\";\n        uint j = i;\n        uint length;\n        while (j != 0){\n            length++;\n            j /= 10;\n        }\n        bytes memory bstr = new bytes(length);\n        uint k = length - 1;\n        while (i != 0){\n            bstr[k--] = byte(48 + i % 10);\n            i /= 10;\n        }\n        return string(bstr);\n    }\n    \n    \n    /** @dev function to concatenat 2 string and return 1 string\n    */\n     \n    \n     function concat(string memory _base, string memory _value)\n            internal\n            pure\n            returns (string memory) {\n            bytes memory _baseBytes = bytes(_base);\n            bytes memory _valueBytes = bytes(_value);\n    \n            assert(_valueBytes.length > 0);\n    \n            string memory _tmpValue = new string(_baseBytes.length +\n                _valueBytes.length);\n            bytes memory _newValue = bytes(_tmpValue);\n    \n            uint i;\n            uint j;\n    \n            for (i = 0; i < _baseBytes.length; i++) {\n                _newValue[j++] = _baseBytes[i];\n            }\n    \n            for (i = 0; i < _valueBytes.length; i++) {\n                _newValue[j++] = _valueBytes[i];\n            }\n    \n            return string(_newValue);\n        }\n    \n    \n    //address de owner\n      address public owner;\n    \n    //array of transfers\n      TransferToken []  allTransfers;\n      mapping (address => uint []) public userTransfers;\n    \n    //array of Adherent\n     /* Adherent []  Adherents;\n      mapping (address => uint) public details;*/\n    \n    //array of Cashin\n     Cashin []  Cashins;\n      mapping (address => uint[]) public usercashins;\n    \n    \n     \n    //array of rechargeToken\n     /*rechargeToken []  recharges;\n      mapping (address => uint[]) public rechargeTokenTab;\n    */\n    \n      //mapping (address => rechargeToken) public rechargeTokenTab;\n    \n      ERC20 public ERC20Interface;\n      ERC20Basic public ERC20BasicInterface;\n    \n    //constructeur\n          constructor() public {\n      owner = msg.sender;\n     }\n    \n       /**\n     * @dev list of all supported tokens for transfer * @param string token symbol * @param address contract address of token */\n     mapping(bytes32 => address) public tokens;\n    \n      /**\n     * @dev add address of token to list of supported tokens using * token symbol as identifier in mapping */\n     function addNewToken(bytes32 symbol_, address address_) public returns (bool) {\n      tokens[symbol_] = address_;\n    \n      return true;\n     }\n    \n      /**\n     * @dev method that handles transfer of ERC20 tokens to other address * it assumes the calling address has approved this contract * as spender * @param symbol_ identifier mapping to a token contract address * @param to_ beneficiary address * @param amount_ numbers of token to transfer */\n    \n    \n    \n        // Return id of transfers made by the msg.sender\n     \n       function getUserTransfers() public view returns (uint[] memory transfers){\n            return userTransfers[msg.sender];\n        }\n    \n        // return the number of transfers wich have been made\n        function getTransferLength() public view returns (uint) {\n            return allTransfers.length;\n        }\n    \n        // return the number of CashIn wich have been made\n        function getCashinLength() public view returns (uint) {\n            return Cashins.length;\n        }\n    \n    \n       \n    \n        // return the number of transfers made by msg.sender\n        function getLengthOfParticularTransfer() public view returns (uint){\n            return userTransfers[msg.sender].length;\n        }\n    \n        //return the symbol of the IMFT\n        function tokenSymbole() public pure returns (bytes32 result) {\n        string memory testFoo = \"IMFT\";\n            assembly {\n                result := mload(add(testFoo, 32))\n            }\n        }\n    \n    \n    }\n    \n\n",
  "sourcePath": "/home/ubuntu/az/paylis/Cashin/contracts/depot.sol",
  "compiler": {
    "name": "solc",
    "version": "0.4.22+commit.4cb486ee.Emscripten.clang"
  },
  "schemaVersion": "3.0.19",
  "updatedAt": "2020-09-21T13:41:08.293Z",
  "devdoc": {
    "methods": {
      "transferOwnership(address)": {
        "details": "Allows the current owner to transfer control of the contract to a newOwner.",
        "params": {
          "newOwner": "The address to transfer ownership to."
        }
      }
    },
    "title": "Pausable"
  },
  "userdoc": {
    "methods": {}
  }
}