{
  "contractName": "testCashin",
  "abi": [
    {
      "constant": true,
      "inputs": [],
      "name": "ERC20Interface",
      "outputs": [
        {
          "name": "",
          "type": "address"
        }
      ],
      "payable": false,
      "stateMutability": "view",
      "type": "function"
    },
    {
      "constant": true,
      "inputs": [],
      "name": "ERC20BasicInterface",
      "outputs": [
        {
          "name": "",
          "type": "address"
        }
      ],
      "payable": false,
      "stateMutability": "view",
      "type": "function"
    },
    {
      "constant": true,
      "inputs": [],
      "name": "operationNum",
      "outputs": [
        {
          "name": "",
          "type": "uint256"
        }
      ],
      "payable": false,
      "stateMutability": "view",
      "type": "function"
    },
    {
      "constant": true,
      "inputs": [],
      "name": "paused",
      "outputs": [
        {
          "name": "",
          "type": "bool"
        }
      ],
      "payable": false,
      "stateMutability": "view",
      "type": "function"
    },
    {
      "constant": true,
      "inputs": [],
      "name": "owner",
      "outputs": [
        {
          "name": "",
          "type": "address"
        }
      ],
      "payable": false,
      "stateMutability": "view",
      "type": "function"
    },
    {
      "constant": true,
      "inputs": [
        {
          "name": "",
          "type": "bytes32"
        }
      ],
      "name": "tokens",
      "outputs": [
        {
          "name": "",
          "type": "address"
        }
      ],
      "payable": false,
      "stateMutability": "view",
      "type": "function"
    },
    {
      "constant": false,
      "inputs": [
        {
          "name": "newOwner",
          "type": "address"
        }
      ],
      "name": "transferOwnership",
      "outputs": [],
      "payable": false,
      "stateMutability": "nonpayable",
      "type": "function"
    },
    {
      "anonymous": false,
      "inputs": [],
      "name": "Pause",
      "type": "event"
    },
    {
      "anonymous": false,
      "inputs": [],
      "name": "Unpause",
      "type": "event"
    },
    {
      "anonymous": false,
      "inputs": [
        {
          "indexed": true,
          "name": "previousOwner",
          "type": "address"
        },
        {
          "indexed": true,
          "name": "newOwner",
          "type": "address"
        }
      ],
      "name": "OwnershipTransferred",
      "type": "event"
    },
    {
      "constant": false,
      "inputs": [
        {
          "name": "_symbol",
          "type": "bytes32"
        },
        {
          "name": "_sender",
          "type": "address"
        },
        {
          "name": "_reciver",
          "type": "address"
        },
        {
          "name": "amount",
          "type": "uint256"
        }
      ],
      "name": "transferTest",
      "outputs": [],
      "payable": false,
      "stateMutability": "nonpayable",
      "type": "function"
    }
  ],
  "bytecode": "0x608060405260006001556000600260006101000a81548160ff021916908315150217905550336000806101000a81548173ffffffffffffffffffffffffffffffffffffffff021916908373ffffffffffffffffffffffffffffffffffffffff16021790555061071c806100736000396000f30060806040526004361061008e576000357c0100000000000000000000000000000000000000000000000000000000900463ffffffff1680631bbc4b831461009357806321dcafdb146100ea57806338faeceb146101415780635130a863146101bc5780635c975abb146101e75780638da5cb5b14610216578063904194a31461026d578063f2fde38b146102de575b600080fd5b34801561009f57600080fd5b506100a8610321565b604051808273ffffffffffffffffffffffffffffffffffffffff1673ffffffffffffffffffffffffffffffffffffffff16815260200191505060405180910390f35b3480156100f657600080fd5b506100ff610347565b604051808273ffffffffffffffffffffffffffffffffffffffff1673ffffffffffffffffffffffffffffffffffffffff16815260200191505060405180910390f35b34801561014d57600080fd5b506101ba6004803603810190808035600019169060200190929190803573ffffffffffffffffffffffffffffffffffffffff169060200190929190803573ffffffffffffffffffffffffffffffffffffffff1690602001909291908035906020019092919050505061036d565b005b3480156101c857600080fd5b506101d161052a565b6040518082815260200191505060405180910390f35b3480156101f357600080fd5b506101fc610530565b604051808215151515815260200191505060405180910390f35b34801561022257600080fd5b5061022b610543565b604051808273ffffffffffffffffffffffffffffffffffffffff1673ffffffffffffffffffffffffffffffffffffffff16815260200191505060405180910390f35b34801561027957600080fd5b5061029c6004803603810190808035600019169060200190929190505050610568565b604051808273ffffffffffffffffffffffffffffffffffffffff1673ffffffffffffffffffffffffffffffffffffffff16815260200191505060405180910390f35b3480156102ea57600080fd5b5061031f600480360381019080803573ffffffffffffffffffffffffffffffffffffffff16906020019092919050505061059b565b005b600260019054906101000a900473ffffffffffffffffffffffffffffffffffffffff1681565b600360009054906101000a900473ffffffffffffffffffffffffffffffffffffffff1681565b600060046000866000191660001916815260200190815260200160002060009054906101000a900473ffffffffffffffffffffffffffffffffffffffff16905080600260016101000a81548173ffffffffffffffffffffffffffffffffffffffff021916908373ffffffffffffffffffffffffffffffffffffffff160217905550600260019054906101000a900473ffffffffffffffffffffffffffffffffffffffff1673ffffffffffffffffffffffffffffffffffffffff1663fd3e6a0a8585856040518463ffffffff167c0100000000000000000000000000000000000000000000000000000000028152600401808473ffffffffffffffffffffffffffffffffffffffff1673ffffffffffffffffffffffffffffffffffffffff1681526020018373ffffffffffffffffffffffffffffffffffffffff1673ffffffffffffffffffffffffffffffffffffffff1681526020018281526020019350505050602060405180830381600087803b1580156104e757600080fd5b505af11580156104fb573d6000803e3d6000fd5b505050506040513d602081101561051157600080fd5b8101908080519060200190929190505050505050505050565b60015481565b600260009054906101000a900460ff1681565b6000809054906101000a900473ffffffffffffffffffffffffffffffffffffffff1681565b60046020528060005260406000206000915054906101000a900473ffffffffffffffffffffffffffffffffffffffff1681565b6000809054906101000a900473ffffffffffffffffffffffffffffffffffffffff1673ffffffffffffffffffffffffffffffffffffffff163373ffffffffffffffffffffffffffffffffffffffff161415156105f657600080fd5b600073ffffffffffffffffffffffffffffffffffffffff168173ffffffffffffffffffffffffffffffffffffffff161415151561063257600080fd5b8073ffffffffffffffffffffffffffffffffffffffff166000809054906101000a900473ffffffffffffffffffffffffffffffffffffffff1673ffffffffffffffffffffffffffffffffffffffff167f8be0079c531659141344cd1fd0a4f28419497f9722a3daafe3b4186f6b6457e060405160405180910390a3806000806101000a81548173ffffffffffffffffffffffffffffffffffffffff021916908373ffffffffffffffffffffffffffffffffffffffff160217905550505600a165627a7a72305820e63f170b18ca46628059df0edf9e1ea9982b1761b6883b469d2c12dc457d47ba0029",
  "source": "    pragma solidity ^0.4.22;\n    \n    \n    contract Ownable {\n      address public owner;\n         uint public operationNum = 0 ;\n    \n     \n      event OwnershipTransferred(address indexed previousOwner, address indexed newOwner);\n     \n     \n      /**\n       * @dev The Ownable constructor sets the original `owner` of the contract to the sender\n       * account.\n       */\n      constructor() public {\n        owner = msg.sender;\n      }\n     \n      /**\n       * @dev Throws if called by any account other than the owner.\n       */\n      modifier onlyOwner() {\n        require(msg.sender == owner);\n        _;\n      }\n     \n      /**\n       * @dev Allows the current owner to transfer control of the contract to a newOwner.\n       * @param newOwner The address to transfer ownership to.\n       */\n      function transferOwnership(address newOwner) public onlyOwner {\n        require(newOwner != address(0));\n        emit OwnershipTransferred(owner, newOwner);\n        owner = newOwner;\n      }\n     \n    }\n     \n     \n    /**\n     * @title Pausable\n     * @dev Base contract which allows children to implement an emergency stop mechanism.\n     */\n    contract Pausable is Ownable {\n      event Pause();\n      event Unpause();\n     \n      bool public paused = false;\n     \n     \n      /**\n       * @dev Modifier to make a function callable only when the contract is not paused.\n       */\n      modifier whenNotPaused() {\n        require(!paused);\n        _;\n      }\n     \n      /**\n       * @dev Modifier to make a function callable only when the contract is paused.\n       */\n      modifier whenPaused() {\n        require(paused);\n        _;\n      }\n    }\n    /**\n     * @title ERC20Basic\n     * @dev Simpler version of ERC20 interface\n     * @dev see https://github.com/ethereum/EIPs/issues/179\n     */\n    contract ERC20Basic {\n      function totalSupply() public view returns (uint256);\n      function balanceOf(address who) public view returns (uint256);\n      function transfer(address to, uint256 value) public returns (bool);\n      event Transfer(address indexed from, address indexed to, uint256 value);\n    }\n    \n    /**\n     * @title ERC20 interface\n     * @dev see https://github.com/ethereum/EIPs/issues/20\n     */\n    contract ERC20 is ERC20Basic {\n      function allowance(address owner, address spender) public view returns (uint256);\n      function transferFrom(address from, address to, uint256 value) public returns (bool);\n      function approve(address spender, uint256 value) public returns (bool);\n      function transfers(address from_,address _to, uint256 _value) public returns (bool);\n      event Approval(address indexed owner, address indexed spender, uint256 value);\n    }\n    \n    \n    contract testCashin is Ownable, Pausable {\n       \n       \n    \n        // Structure de donnée de la preuve de transfert\n         struct TransferToken {\n            string idOp; //Id of the transfert\n            address sender;\n            string nom_sender;\n            string prenom_sender;\n            uint256 unqIdsender; //Unique Id of the sender\n            address reciver;\n            string namereciver;\n            uint256 id_reciver ;//Unique Id of the receiver\n            uint256  TransferDate;\n            uint amount;\n            bytes32 transaction_hash;\n         }\n        \n        // Structure de donnée de la preuve de cash_in\n         struct Cashin {\n            string idOp; //Id of the transfert\n            address reciver;\n            string nom_reciver;\n            string prenom_reciver;\n            uint256 id_reciver;\n            address sender;\n            string nom_sender;\n            string prenom_sender;\n            uint256 id_sender ;\n            uint256  TransferDate;\n            uint amountFiat;\n            uint amountToken;\n            bytes32 transaction_hash;\n         }\n         \n         \n      /*    struct rechargeToken {\n            uint idOp; \n            address reciver;\n            uint256 total; \n            uint time ;\n           \n         }\n         */\n         \n         \n        /* \n         // Structure de donnée d'Adherent\n         struct Adherent {\n             address pk ;\n             string nom;\n             string prenom;\n             string mail;\n             string addres;\n             uint256 id_adherent;\n             string nom_utilisateur;\n             string mdp;\n             string limit_cashout;\n             string state;\n         }  \n         */\n             ERC20 public ERC20Interface;\n      ERC20Basic public ERC20BasicInterface;\n     \n            /*\n            This function Transfer Tokens from the account which execute the function to an other account.\n            */\n             mapping(bytes32 => address) public tokens;\n           \n        function transferTest(bytes32 _symbol,address _sender ,address _reciver , uint amount) public {\n            address contract_ = tokens[_symbol];\n            ERC20Interface = ERC20(contract_);\n            ERC20Interface.transfers(_sender,_reciver,amount);\n        }\n    \n    \n    }\n    \n    \n\n",
  "sourcePath": "/home/ubuntu/Cashin/contracts/dample.sol",
  "compiler": {
    "name": "solc",
    "version": "0.4.22+commit.4cb486ee.Emscripten.clang"
  },
  "schemaVersion": "3.0.19",
  "updatedAt": "2019-11-21T14:21:17.016Z",
  "networkType": "ethereum",
  "devdoc": {
    "methods": {
      "transferOwnership(address)": {
        "details": "Allows the current owner to transfer control of the contract to a newOwner.",
        "params": {
          "newOwner": "The address to transfer ownership to."
        }
      }
    }
  },
  "userdoc": {
    "methods": {}
  }
}