{
  "contractName": "tontine_Cercle",
  "abi": [
    {
      "constant": true,
      "inputs": [
        {
          "internalType": "string",
          "name": "",
          "type": "string"
        }
      ],
      "name": "tontineCercle",
      "outputs": [
        {
          "internalType": "string",
          "name": "ID_T",
          "type": "string"
        },
        {
          "internalType": "uint256",
          "name": "Date_Creation",
          "type": "uint256"
        },
        {
          "internalType": "uint256",
          "name": "montant",
          "type": "uint256"
        },
        {
          "internalType": "address",
          "name": "createur",
          "type": "address"
        },
        {
          "internalType": "uint256",
          "name": "totalParticipant",
          "type": "uint256"
        },
        {
          "internalType": "bool",
          "name": "active",
          "type": "bool"
        }
      ],
      "payable": false,
      "stateMutability": "view",
      "type": "function"
    },
    {
      "constant": true,
      "inputs": [],
      "name": "ERC20Interface",
      "outputs": [
        {
          "internalType": "contract ERC20",
          "name": "",
          "type": "address"
        }
      ],
      "payable": false,
      "stateMutability": "view",
      "type": "function"
    },
    {
      "constant": true,
      "inputs": [
        {
          "internalType": "uint256",
          "name": "",
          "type": "uint256"
        }
      ],
      "name": "tontineList",
      "outputs": [
        {
          "internalType": "string",
          "name": "",
          "type": "string"
        }
      ],
      "payable": false,
      "stateMutability": "view",
      "type": "function"
    },
    {
      "constant": true,
      "inputs": [
        {
          "internalType": "bytes32",
          "name": "",
          "type": "bytes32"
        }
      ],
      "name": "tokens",
      "outputs": [
        {
          "internalType": "address",
          "name": "",
          "type": "address"
        }
      ],
      "payable": false,
      "stateMutability": "view",
      "type": "function"
    },
    {
      "inputs": [],
      "payable": false,
      "stateMutability": "nonpayable",
      "type": "constructor"
    },
    {
      "constant": false,
      "inputs": [
        {
          "internalType": "address",
          "name": "sender",
          "type": "address"
        },
        {
          "internalType": "address",
          "name": "reciver",
          "type": "address"
        },
        {
          "internalType": "uint256",
          "name": "montant",
          "type": "uint256"
        }
      ],
      "name": "transaction",
      "outputs": [],
      "payable": false,
      "stateMutability": "nonpayable",
      "type": "function"
    },
    {
      "constant": false,
      "inputs": [
        {
          "internalType": "string",
          "name": "ID_T",
          "type": "string"
        },
        {
          "internalType": "uint256",
          "name": "totalParticipant",
          "type": "uint256"
        },
        {
          "internalType": "uint256",
          "name": "montant",
          "type": "uint256"
        },
        {
          "internalType": "string",
          "name": "tontineKey",
          "type": "string"
        }
      ],
      "name": "creation_tontine",
      "outputs": [],
      "payable": false,
      "stateMutability": "nonpayable",
      "type": "function"
    },
    {
      "constant": true,
      "inputs": [
        {
          "internalType": "string",
          "name": "tontineKey",
          "type": "string"
        }
      ],
      "name": "get_tontine",
      "outputs": [
        {
          "internalType": "string",
          "name": "",
          "type": "string"
        },
        {
          "internalType": "uint256",
          "name": "",
          "type": "uint256"
        },
        {
          "internalType": "uint256",
          "name": "",
          "type": "uint256"
        },
        {
          "internalType": "bool",
          "name": "",
          "type": "bool"
        },
        {
          "internalType": "address",
          "name": "",
          "type": "address"
        },
        {
          "internalType": "uint256",
          "name": "",
          "type": "uint256"
        }
      ],
      "payable": false,
      "stateMutability": "view",
      "type": "function"
    },
    {
      "constant": false,
      "inputs": [
        {
          "internalType": "string",
          "name": "tontineKey",
          "type": "string"
        },
        {
          "internalType": "uint256",
          "name": "ordre",
          "type": "uint256"
        }
      ],
      "name": "addUser",
      "outputs": [],
      "payable": false,
      "stateMutability": "nonpayable",
      "type": "function"
    },
    {
      "constant": true,
      "inputs": [
        {
          "internalType": "string",
          "name": "tontineKey",
          "type": "string"
        }
      ],
      "name": "getUser",
      "outputs": [
        {
          "internalType": "uint256",
          "name": "",
          "type": "uint256"
        },
        {
          "internalType": "address",
          "name": "",
          "type": "address"
        }
      ],
      "payable": false,
      "stateMutability": "view",
      "type": "function"
    },
    {
      "constant": true,
      "inputs": [
        {
          "internalType": "string",
          "name": "tontineKey",
          "type": "string"
        }
      ],
      "name": "getUsersNumber",
      "outputs": [
        {
          "internalType": "uint256",
          "name": "",
          "type": "uint256"
        }
      ],
      "payable": false,
      "stateMutability": "view",
      "type": "function"
    },
    {
      "constant": true,
      "inputs": [],
      "name": "convertttt",
      "outputs": [
        {
          "internalType": "bytes32",
          "name": "result",
          "type": "bytes32"
        }
      ],
      "payable": false,
      "stateMutability": "pure",
      "type": "function"
    },
    {
      "constant": false,
      "inputs": [
        {
          "internalType": "address",
          "name": "address_",
          "type": "address"
        }
      ],
      "name": "addNewToken",
      "outputs": [
        {
          "internalType": "bool",
          "name": "",
          "type": "bool"
        }
      ],
      "payable": false,
      "stateMutability": "nonpayable",
      "type": "function"
    },
    {
      "constant": false,
      "inputs": [
        {
          "internalType": "string",
          "name": "tontineKey",
          "type": "string"
        }
      ],
      "name": "validTontine",
      "outputs": [
        {
          "internalType": "bool",
          "name": "",
          "type": "bool"
        }
      ],
      "payable": false,
      "stateMutability": "nonpayable",
      "type": "function"
    },
    {
      "constant": false,
      "inputs": [
        {
          "internalType": "string",
          "name": "tontineKey",
          "type": "string"
        },
        {
          "internalType": "address",
          "name": "reciver",
          "type": "address"
        }
      ],
      "name": "virement",
      "outputs": [],
      "payable": false,
      "stateMutability": "nonpayable",
      "type": "function"
    },
    {
      "constant": false,
      "inputs": [
        {
          "internalType": "string",
          "name": "tontineKey",
          "type": "string"
        },
        {
          "internalType": "address",
          "name": "sender",
          "type": "address"
        }
      ],
      "name": "retrait",
      "outputs": [],
      "payable": false,
      "stateMutability": "nonpayable",
      "type": "function"
    }
  ],
  "bytecode": "0x608060405234801561001057600080fd5b50612313806100206000396000f3fe608060405234801561001057600080fd5b50600436106100f55760003560e01c806364db444a11610097578063b5a151ba11610066578063b5a151ba14610a07578063d99a64c914610a75578063e2a10ff614610a93578063eea2ffe214610bf9576100f5565b806364db444a146106e35780638d61ca401461073f578063904194a3146108c6578063a1c60c8b14610934576100f5565b806331feb671116100d357806331feb67114610390578063381a9348146104925780633c98903414610561578063426a6c9b14610608576100f5565b8063062829dd146100fa5780631bbc4b83146102815780631c5220c2146102cb575b600080fd5b6101b36004803603602081101561011057600080fd5b810190808035906020019064010000000081111561012d57600080fd5b82018360208201111561013f57600080fd5b8035906020019184600183028401116401000000008311171561016157600080fd5b91908080601f016020809104026020016040519081016040528093929190818152602001838380828437600081840152601f19601f820116905080830192505050505050509192919290505050610cd4565b60405180806020018781526020018681526020018573ffffffffffffffffffffffffffffffffffffffff1673ffffffffffffffffffffffffffffffffffffffff16815260200184815260200183151515158152602001828103825288818151815260200191508051906020019080838360005b83811015610241578082015181840152602081019050610226565b50505050905090810190601f16801561026e5780820380516001836020036101000a031916815260200191505b5097505050505050505060405180910390f35b610289610deb565b604051808273ffffffffffffffffffffffffffffffffffffffff1673ffffffffffffffffffffffffffffffffffffffff16815260200191505060405180910390f35b61038e600480360360408110156102e157600080fd5b81019080803590602001906401000000008111156102fe57600080fd5b82018360208201111561031057600080fd5b8035906020019184600183028401116401000000008311171561033257600080fd5b91908080601f016020809104026020016040519081016040528093929190818152602001838380828437600081840152601f19601f82011690508083019250505050505050919291929080359060200190929190505050610e11565b005b610449600480360360208110156103a657600080fd5b81019080803590602001906401000000008111156103c357600080fd5b8201836020820111156103d557600080fd5b803590602001918460018302840111640100000000831117156103f757600080fd5b91908080601f016020809104026020016040519081016040528093929190818152602001838380828437600081840152601f19601f820116905080830192505050505050509192919290505050611344565b604051808381526020018273ffffffffffffffffffffffffffffffffffffffff1673ffffffffffffffffffffffffffffffffffffffff1681526020019250505060405180910390f35b61054b600480360360208110156104a857600080fd5b81019080803590602001906401000000008111156104c557600080fd5b8201836020820111156104d757600080fd5b803590602001918460018302840111640100000000831117156104f957600080fd5b91908080601f016020809104026020016040519081016040528093929190818152602001838380828437600081840152601f19601f8201169050808301925050505050505091929192905050506114ca565b6040518082815260200191505060405180910390f35b61058d6004803603602081101561057757600080fd5b8101908080359060200190929190505050611542565b6040518080602001828103825283818151815260200191508051906020019080838360005b838110156105cd5780820151818401526020810190506105b2565b50505050905090810190601f1680156105fa5780820380516001836020036101000a031916815260200191505b509250505060405180910390f35b6106e16004803603604081101561061e57600080fd5b810190808035906020019064010000000081111561063b57600080fd5b82018360208201111561064d57600080fd5b8035906020019184600183028401116401000000008311171561066f57600080fd5b91908080601f016020809104026020016040519081016040528093929190818152602001838380828437600081840152601f19601f820116905080830192505050505050509192919290803573ffffffffffffffffffffffffffffffffffffffff1690602001909291905050506115fb565b005b610725600480360360208110156106f957600080fd5b81019080803573ffffffffffffffffffffffffffffffffffffffff1690602001909291905050506116e7565b604051808215151515815260200191505060405180910390f35b6107f86004803603602081101561075557600080fd5b810190808035906020019064010000000081111561077257600080fd5b82018360208201111561078457600080fd5b803590602001918460018302840111640100000000831117156107a657600080fd5b91908080601f016020809104026020016040519081016040528093929190818152602001838380828437600081840152601f19601f820116905080830192505050505050509192919290505050611750565b6040518080602001878152602001868152602001851515151581526020018473ffffffffffffffffffffffffffffffffffffffff1673ffffffffffffffffffffffffffffffffffffffff168152602001838152602001828103825288818151815260200191508051906020019080838360005b8381101561088657808201518184015260208101905061086b565b50505050905090810190601f1680156108b35780820380516001836020036101000a031916815260200191505b5097505050505050505060405180910390f35b6108f2600480360360208110156108dc57600080fd5b8101908080359060200190929190505050611b44565b604051808273ffffffffffffffffffffffffffffffffffffffff1673ffffffffffffffffffffffffffffffffffffffff16815260200191505060405180910390f35b6109ed6004803603602081101561094a57600080fd5b810190808035906020019064010000000081111561096757600080fd5b82018360208201111561097957600080fd5b8035906020019184600183028401116401000000008311171561099b57600080fd5b91908080601f016020809104026020016040519081016040528093929190818152602001838380828437600081840152601f19601f820116905080830192505050505050509192919290505050611b77565b604051808215151515815260200191505060405180910390f35b610a7360048036036060811015610a1d57600080fd5b81019080803573ffffffffffffffffffffffffffffffffffffffff169060200190929190803573ffffffffffffffffffffffffffffffffffffffff16906020019092919080359060200190929190505050611c7f565b005b610a7d611e24565b6040518082815260200191505060405180910390f35b610bf760048036036080811015610aa957600080fd5b8101908080359060200190640100000000811115610ac657600080fd5b820183602082011115610ad857600080fd5b80359060200191846001830284011164010000000083111715610afa57600080fd5b91908080601f016020809104026020016040519081016040528093929190818152602001838380828437600081840152601f19601f820116905080830192505050505050509192919290803590602001909291908035906020019092919080359060200190640100000000811115610b7157600080fd5b820183602082011115610b8357600080fd5b80359060200191846001830284011164010000000083111715610ba557600080fd5b91908080601f016020809104026020016040519081016040528093929190818152602001838380828437600081840152601f19601f820116905080830192505050505050509192919290505050611e6b565b005b610cd260048036036040811015610c0f57600080fd5b8101908080359060200190640100000000811115610c2c57600080fd5b820183602082011115610c3e57600080fd5b80359060200191846001830284011164010000000083111715610c6057600080fd5b91908080601f016020809104026020016040519081016040528093929190818152602001838380828437600081840152601f19601f820116905080830192505050505050509192919290803573ffffffffffffffffffffffffffffffffffffffff1690602001909291905050506121be565b005b600081805160208101820180518482526020830160208501208183528095505050505050600091509050806000018054600181600116156101000203166002900480601f016020809104026020016040519081016040528092919081815260200182805460018160011615610100020316600290048015610d965780601f10610d6b57610100808354040283529160200191610d96565b820191906000526020600020905b815481529060010190602001808311610d7957829003601f168201915b5050505050908060010154908060020154908060030160009054906101000a900473ffffffffffffffffffffffffffffffffffffffff16908060040154908060050160009054906101000a900460ff16905086565b600360009054906101000a900473ffffffffffffffffffffffffffffffffffffffff1681565b6000826040518082805190602001908083835b60208310610e475780518252602082019150602081019050602083039250610e24565b6001836020036101000a0380198251168184511680821785525050505050509050019150509081526020016040518091039020600601805490506000836040518082805190602001908083835b60208310610eb75780518252602082019150602081019050602083039250610e94565b6001836020036101000a03801982511681845116808217855250505050505090500191505090815260200160405180910390206004015411610ef857600080fd5b60008090505b6000836040518082805190602001908083835b60208310610f345780518252602082019150602081019050602083039250610f11565b6001836020036101000a03801982511681845116808217855250505050505090500191505090815260200160405180910390206006018054905081101561105c573373ffffffffffffffffffffffffffffffffffffffff166000846040518082805190602001908083835b60208310610fc25780518252602082019150602081019050602083039250610f9f565b6001836020036101000a0380198251168184511680821785525050505050509050019150509081526020016040518091039020600601828154811061100357fe5b9060005260206000200160009054906101000a900473ffffffffffffffffffffffffffffffffffffffff1673ffffffffffffffffffffffffffffffffffffffff16141561104f57600080fd5b8080600101915050610efe565b506000826040518082805190602001908083835b602083106110935780518252602082019150602081019050602083039250611070565b6001836020036101000a03801982511681845116808217855250505050505090500191505090815260200160405180910390206006013390806001815401808255809150509060018203906000526020600020016000909192909190916101000a81548173ffffffffffffffffffffffffffffffffffffffff021916908373ffffffffffffffffffffffffffffffffffffffff16021790555050806000836040518082805190602001908083835b602083106111645780518252602082019150602081019050602083039250611141565b6001836020036101000a038019825116818451168082178552505050505050905001915050908152602001604051809103902060070160003373ffffffffffffffffffffffffffffffffffffffff1673ffffffffffffffffffffffffffffffffffffffff16815260200190815260200160002060010181905550336000836040518082805190602001908083835b6020831061121557805182526020820191506020810190506020830392506111f2565b6001836020036101000a038019825116818451168082178552505050505050905001915050908152602001604051809103902060070160003373ffffffffffffffffffffffffffffffffffffffff1673ffffffffffffffffffffffffffffffffffffffff16815260200190815260200160002060000160006101000a81548173ffffffffffffffffffffffffffffffffffffffff021916908373ffffffffffffffffffffffffffffffffffffffff16021790555061134033306000856040518082805190602001908083835b6020831061130457805182526020820191506020810190506020830392506112e1565b6001836020036101000a038019825116818451168082178552505050505050905001915050908152602001604051809103902060020154611c7f565b5050565b6000806000836040518082805190602001908083835b6020831061137d578051825260208201915060208101905060208303925061135a565b6001836020036101000a038019825116818451168082178552505050505050905001915050908152602001604051809103902060070160003373ffffffffffffffffffffffffffffffffffffffff1673ffffffffffffffffffffffffffffffffffffffff168152602001908152602001600020600101546000846040518082805190602001908083835b6020831061142a5780518252602082019150602081019050602083039250611407565b6001836020036101000a038019825116818451168082178552505050505050905001915050908152602001604051809103902060070160003373ffffffffffffffffffffffffffffffffffffffff1673ffffffffffffffffffffffffffffffffffffffff16815260200190815260200160002060000160009054906101000a900473ffffffffffffffffffffffffffffffffffffffff1691509150915091565b600080826040518082805190602001908083835b6020831061150157805182526020820191506020810190506020830392506114de565b6001836020036101000a0380198251168184511680821785525050505050509050019150509081526020016040518091039020600601805490509050919050565b6001818154811061154f57fe5b906000526020600020016000915090508054600181600116156101000203166002900480601f0160208091040260200160405190810160405280929190818152602001828054600181600116156101000203166002900480156115f35780601f106115c8576101008083540402835291602001916115f3565b820191906000526020600020905b8154815290600101906020018083116115d657829003601f168201915b505050505081565b6116e330826000856040518082805190602001908083835b602083106116365780518252602082019150602081019050602083039250611613565b6001836020036101000a0380198251168184511680821785525050505050509050019150509081526020016040518091039020600601805490506000866040518082805190602001908083835b602083106116a65780518252602082019150602081019050602083039250611683565b6001836020036101000a03801982511681845116808217855250505050505090500191505090815260200160405180910390206002015402611c7f565b5050565b6000806116f2611e24565b9050826002600083815260200190815260200160002060006101000a81548173ffffffffffffffffffffffffffffffffffffffff021916908373ffffffffffffffffffffffffffffffffffffffff1602179055506001915050919050565b6060600080600080600080876040518082805190602001908083835b6020831061178f578051825260208201915060208101905060208303925061176c565b6001836020036101000a03801982511681845116808217855250505050505090500191505090815260200160405180910390206000016000886040518082805190602001908083835b602083106117fb57805182526020820191506020810190506020830392506117d8565b6001836020036101000a0380198251168184511680821785525050505050509050019150509081526020016040518091039020600101546000896040518082805190602001908083835b602083106118685780518252602082019150602081019050602083039250611845565b6001836020036101000a03801982511681845116808217855250505050505090500191505090815260200160405180910390206002015460008a6040518082805190602001908083835b602083106118d557805182526020820191506020810190506020830392506118b2565b6001836020036101000a038019825116818451168082178552505050505050905001915050908152602001604051809103902060050160009054906101000a900460ff1660008b6040518082805190602001908083835b6020831061194f578051825260208201915060208101905060208303925061192c565b6001836020036101000a038019825116818451168082178552505050505050905001915050908152602001604051809103902060070160003373ffffffffffffffffffffffffffffffffffffffff1673ffffffffffffffffffffffffffffffffffffffff16815260200190815260200160002060000160009054906101000a900473ffffffffffffffffffffffffffffffffffffffff1660008c6040518082805190602001908083835b60208310611a1c57805182526020820191506020810190506020830392506119f9565b6001836020036101000a038019825116818451168082178552505050505050905001915050908152602001604051809103902060070160003373ffffffffffffffffffffffffffffffffffffffff1673ffffffffffffffffffffffffffffffffffffffff16815260200190815260200160002060010154858054600181600116156101000203166002900480601f016020809104026020016040519081016040528092919081815260200182805460018160011615610100020316600290048015611b285780601f10611afd57610100808354040283529160200191611b28565b820191906000526020600020905b815481529060010190602001808311611b0b57829003601f168201915b5050505050955095509550955095509550955091939550919395565b60026020528060005260406000206000915054906101000a900473ffffffffffffffffffffffffffffffffffffffff1681565b600080611b83836114ca565b9050806000846040518082805190602001908083835b60208310611bbc5780518252602082019150602081019050602083039250611b99565b6001836020036101000a0380198251168184511680821785525050505050509050019150509081526020016040518091039020600401541415611c7457426000846040518082805190602001908083835b60208310611c305780518252602082019150602081019050602083039250611c0d565b6001836020036101000a0380198251168184511680821785525050505050509050019150509081526020016040518091039020600101819055506001915050611c7a565b60009150505b919050565b6000611c89611e24565b905060006002600083815260200190815260200160002060009054906101000a900473ffffffffffffffffffffffffffffffffffffffff16905080600360006101000a81548173ffffffffffffffffffffffffffffffffffffffff021916908373ffffffffffffffffffffffffffffffffffffffff160217905550600360009054906101000a900473ffffffffffffffffffffffffffffffffffffffff1673ffffffffffffffffffffffffffffffffffffffff1663fd3e6a0a8686866040518463ffffffff1660e01b8152600401808473ffffffffffffffffffffffffffffffffffffffff1673ffffffffffffffffffffffffffffffffffffffff1681526020018373ffffffffffffffffffffffffffffffffffffffff1673ffffffffffffffffffffffffffffffffffffffff1681526020018281526020019350505050602060405180830381600087803b158015611de157600080fd5b505af1158015611df5573d6000803e3d6000fd5b505050506040513d6020811015611e0b57600080fd5b8101908080519060200190929190505050505050505050565b600060606040518060400160405280600481526020017f494d4654000000000000000000000000000000000000000000000000000000008152509050602081015191505090565b836000826040518082805190602001908083835b60208310611ea25780518252602082019150602081019050602083039250611e7f565b6001836020036101000a03801982511681845116808217855250505050505090500191505090815260200160405180910390206000019080519060200190611eeb929190612239565b50336000826040518082805190602001908083835b60208310611f235780518252602082019150602081019050602083039250611f00565b6001836020036101000a038019825116818451168082178552505050505050905001915050908152602001604051809103902060030160006101000a81548173ffffffffffffffffffffffffffffffffffffffff021916908373ffffffffffffffffffffffffffffffffffffffff160217905550826000826040518082805190602001908083835b60208310611fce5780518252602082019150602081019050602083039250611fab565b6001836020036101000a038019825116818451168082178552505050505050905001915050908152602001604051809103902060040181905550426000826040518082805190602001908083835b6020831061203f578051825260208201915060208101905060208303925061201c565b6001836020036101000a038019825116818451168082178552505050505050905001915050908152602001604051809103902060010181905550816000826040518082805190602001908083835b602083106120b0578051825260208201915060208101905060208303925061208d565b6001836020036101000a038019825116818451168082178552505050505050905001915050908152602001604051809103902060020181905550600080826040518082805190602001908083835b6020831061212157805182526020820191506020810190506020830392506120fe565b6001836020036101000a038019825116818451168082178552505050505050905001915050908152602001604051809103902060050160006101000a81548160ff02191690831515021790555060018190806001815401808255809150509060018203906000526020600020016000909192909190915090805190602001906121ab929190612239565b50506121b8816001610e11565b50505050565b61223581306000856040518082805190602001908083835b602083106121f957805182526020820191506020810190506020830392506121d6565b6001836020036101000a038019825116818451168082178552505050505050905001915050908152602001604051809103902060020154611c7f565b5050565b828054600181600116156101000203166002900490600052602060002090601f016020900481019282601f1061227a57805160ff19168380011785556122a8565b828001600101855582156122a8579182015b828111156122a757825182559160200191906001019061228c565b5b5090506122b591906122b9565b5090565b6122db91905b808211156122d75760008160009055506001016122bf565b5090565b9056fea265627a7a72315820a8e8696d16c511b29bf2ddfbb8cedcbc45b4fd587c02b81404f15ee6e964c70264736f6c634300050b0032",
  "source": "pragma solidity 0.5.11;\n\n \n/**\n * @title ERC20Basic\n * @dev Simpler version of ERC20 interface\n * @dev see https://github.com/ethereum/EIPs/issues/179\n * \n * \n */\ncontract ERC20Basic {\n  function totalSupply() public view returns (uint256);\n  function balanceOf(address who) public view returns (uint256);\n  function transfer(address to, uint256 value) public returns (bool);\n  event Transfer(address indexed from, address indexed to, uint256 value);\n}\n \n/**\n * @title ERC20 interface\n * @dev see https://github.com/ethereum/EIPs/issues/20\n */\ncontract ERC20 is ERC20Basic {\n  function allowance(address owner, address spender) public view returns (uint256);\n  function transferFrom(address from, address to, uint256 value) public returns (bool);\n  function approve(address spender, uint256 value) public returns (bool);\n  function transfers(address from_,address _to, uint256 _value) public returns (bool);\n  event Approval(address indexed owner, address indexed spender, uint256 value);\n}\n \n \n\ncontract tontine_Cercle {\n    \n   // address  owner ;\n   // uint increment = 0 ;\n    struct User {\n        address participant ; \n        uint ordre ; \n    }\n    \n       struct tontine {\n        string ID_T;\n        uint Date_Creation;\n        uint montant;\n        address createur;\n        uint totalParticipant;\n        bool active;\n        address[]  participantList;\n        mapping (address => User) participant; \n        \n    }\n    \n\n mapping (string => tontine) public tontineCercle;\n    string [] public tontineList ;\n    \n      /**\n * @dev list of all supported tokens for transfer * @param string token symbol * @param address contract address of token */  \n mapping(bytes32 => address) public tokens;\n \n  ERC20 public ERC20Interface;\n  \n  \n    constructor() public {\n   //   require (owner == msg.sender);\n    }\n    \n    \n    function transaction(address sender , address reciver , uint montant)\n    public {\n        bytes32 symbol_ =  convertttt();\n        address contract_ = tokens[symbol_];\n        ERC20Interface = ERC20(contract_);\n        ERC20Interface.transfers(sender, reciver , montant);\n\n    }\n    \n    function creation_tontine( \n \n        string memory ID_T,\n        uint totalParticipant,\n       // uint Date_Creation,\n        uint montant,\n        string memory tontineKey\n        )\n        // onlyOwner\n        public\n     \n    {\n        // not checking for duplicates\n        tontineCercle[tontineKey].ID_T = ID_T;\n        tontineCercle[tontineKey].createur = msg.sender;\n        tontineCercle[tontineKey].totalParticipant = totalParticipant;\n        tontineCercle[tontineKey].Date_Creation = now;\n        tontineCercle[tontineKey].montant = montant;\n        tontineCercle[tontineKey].active = false;\n         tontineList.push(tontineKey);\n         addUser(tontineKey,1);\n       \n    }\n    \n    function get_tontine( \n    \n        string memory tontineKey\n        )\n        view\n        // onlyOwner\n        public\n        returns(string memory  ,uint ,uint ,bool,  address , uint  )\n    {\n        return  (tontineCercle[tontineKey].ID_T ,\n        tontineCercle[tontineKey].Date_Creation ,\n        tontineCercle[tontineKey].montant,\n        tontineCercle[tontineKey].active,\n        tontineCercle[tontineKey].participant[msg.sender].participant ,\n        tontineCercle[tontineKey].participant[msg.sender].ordre \n);\n    }\n     function addUser( string memory tontineKey,  uint  ordre )\n        // onlyOwner\n        public\n    {\n        require(   tontineCercle[tontineKey].totalParticipant    > tontineCercle[tontineKey].participantList.length);\n        for(uint i =0 ; i <  tontineCercle[tontineKey].participantList.length ; i++){\n            require(tontineCercle[tontineKey].participantList[i] != msg.sender);\n        }\n        \n        tontineCercle[tontineKey].participantList.push(msg.sender);\n        tontineCercle[tontineKey].participant[msg.sender].ordre = ordre;\n\n         tontineCercle[tontineKey].participant[msg.sender].participant = msg.sender;\n         transaction(msg.sender, address(this) , tontineCercle[tontineKey].montant);\n         /*\n            address contract_ = tokens[symbol_];\n            ERC20Interface = ERC20(contract_);\n            ERC20Interface.transfers(msg.sender, address_Contrat , tontineCercle[tontineKey].montant);*/\n        \n        // answer vote will init to 0 without our help\n    }\n      function getUser(string memory tontineKey)\n        // onlyOwner\n        public\n        view\n        returns ( uint , address)\n    {\n       return(tontineCercle[tontineKey].participant[msg.sender].ordre,\n        tontineCercle[tontineKey].participant[msg.sender].participant\n        ) ;\n        // answer vote will init to 0 without our help\n    }\n    \n      function getUsersNumber(string memory tontineKey)\n        // onlyOwner\n        public\n        view\n        returns ( uint )\n    {\n       return(tontineCercle[tontineKey].participantList.length) ;\n        // answer vote will init to 0 without our help\n    }\n      \n          function convertttt() public pure returns (bytes32 result) {\n    string memory testFoo = \"IMFT\";\n        assembly {\n            result := mload(add(testFoo, 32))\n        }\n    }\n    \n     function addNewToken(address address_) public returns (bool) {\n        bytes32 symbol_ = convertttt();\n        tokens[symbol_] = address_;\n \n  return true;\n }\n      \n      function validTontine(string memory tontineKey)\n      public returns(bool){\n           uint totalParticipant = getUsersNumber(tontineKey);\n           if(tontineCercle[tontineKey].totalParticipant == totalParticipant){\n               tontineCercle[tontineKey].Date_Creation = now;\n             return true ;\n           }else{\n             return false ;\n\n           }\n      }\n      \n      function virement( string memory tontineKey,  address reciver ) public {\n        \n        transaction(address(this) , reciver,  tontineCercle[tontineKey].montant *tontineCercle[tontineKey].participantList.length);\n      }\n      function retrait( string memory tontineKey, address sender ) public{\n          transaction(sender, address(this) , tontineCercle[tontineKey].montant );\n        \n      }\n      \n     \n      \n}\n",
  "sourcePath": "/home/ubuntu/Auth/contracts/tontine.sol",
  "compiler": {
    "name": "solc",
    "version": "0.5.11+commit.c082d0b4.Emscripten.clang"
  },
  "schemaVersion": "3.0.19",
  "updatedAt": "2019-11-19T09:56:05.085Z",
  "networkType": "ethereum",
  "devdoc": {
    "methods": {}
  },
  "userdoc": {
    "methods": {}
  }
}