{
  "contractName": "Retrait",
  "abi": [
    {
      "constant": true,
      "inputs": [],
      "name": "ERC20Interface",
      "outputs": [
        {
          "name": "",
          "type": "address"
        }
      ],
      "payable": false,
      "stateMutability": "view",
      "type": "function"
    },
    {
      "constant": false,
      "inputs": [],
      "name": "unpause",
      "outputs": [],
      "payable": false,
      "stateMutability": "nonpayable",
      "type": "function"
    },
    {
      "constant": true,
      "inputs": [],
      "name": "operationNum",
      "outputs": [
        {
          "name": "",
          "type": "uint256"
        }
      ],
      "payable": false,
      "stateMutability": "view",
      "type": "function"
    },
    {
      "constant": true,
      "inputs": [],
      "name": "paused",
      "outputs": [
        {
          "name": "",
          "type": "bool"
        }
      ],
      "payable": false,
      "stateMutability": "view",
      "type": "function"
    },
    {
      "constant": true,
      "inputs": [
        {
          "name": "",
          "type": "address"
        },
        {
          "name": "",
          "type": "uint256"
        }
      ],
      "name": "tsCashouts",
      "outputs": [
        {
          "name": "",
          "type": "uint256"
        }
      ],
      "payable": false,
      "stateMutability": "view",
      "type": "function"
    },
    {
      "constant": false,
      "inputs": [],
      "name": "pause",
      "outputs": [],
      "payable": false,
      "stateMutability": "nonpayable",
      "type": "function"
    },
    {
      "constant": true,
      "inputs": [],
      "name": "owner",
      "outputs": [
        {
          "name": "",
          "type": "address"
        }
      ],
      "payable": false,
      "stateMutability": "view",
      "type": "function"
    },
    {
      "constant": true,
      "inputs": [
        {
          "name": "",
          "type": "bytes32"
        }
      ],
      "name": "tokens",
      "outputs": [
        {
          "name": "",
          "type": "address"
        }
      ],
      "payable": false,
      "stateMutability": "view",
      "type": "function"
    },
    {
      "constant": true,
      "inputs": [
        {
          "name": "",
          "type": "address"
        },
        {
          "name": "",
          "type": "uint256"
        }
      ],
      "name": "userCashouts",
      "outputs": [
        {
          "name": "",
          "type": "uint256"
        }
      ],
      "payable": false,
      "stateMutability": "view",
      "type": "function"
    },
    {
      "constant": false,
      "inputs": [
        {
          "name": "newOwner",
          "type": "address"
        }
      ],
      "name": "transferOwnership",
      "outputs": [],
      "payable": false,
      "stateMutability": "nonpayable",
      "type": "function"
    },
    {
      "inputs": [],
      "payable": false,
      "stateMutability": "nonpayable",
      "type": "constructor"
    },
    {
      "anonymous": false,
      "inputs": [],
      "name": "Pause",
      "type": "event"
    },
    {
      "anonymous": false,
      "inputs": [],
      "name": "Unpause",
      "type": "event"
    },
    {
      "anonymous": false,
      "inputs": [
        {
          "indexed": true,
          "name": "previousOwner",
          "type": "address"
        },
        {
          "indexed": true,
          "name": "newOwner",
          "type": "address"
        }
      ],
      "name": "OwnershipTransferred",
      "type": "event"
    },
    {
      "constant": false,
      "inputs": [
        {
          "name": "symbol_",
          "type": "bytes32"
        },
        {
          "name": "address_",
          "type": "address"
        }
      ],
      "name": "addNewToken",
      "outputs": [
        {
          "name": "",
          "type": "bool"
        }
      ],
      "payable": false,
      "stateMutability": "nonpayable",
      "type": "function"
    },
    {
      "constant": false,
      "inputs": [
        {
          "name": "symbol_",
          "type": "bytes32"
        }
      ],
      "name": "removeToken",
      "outputs": [
        {
          "name": "",
          "type": "bool"
        }
      ],
      "payable": false,
      "stateMutability": "nonpayable",
      "type": "function"
    },
    {
      "constant": true,
      "inputs": [
        {
          "name": "Amount_Token",
          "type": "uint256"
        },
        {
          "name": "conversionRate",
          "type": "uint256"
        }
      ],
      "name": "convertTokenToFIAT",
      "outputs": [
        {
          "name": "",
          "type": "uint256"
        }
      ],
      "payable": false,
      "stateMutability": "pure",
      "type": "function"
    },
    {
      "constant": false,
      "inputs": [
        {
          "name": "ID_OP",
          "type": "string"
        },
        {
          "name": "Amount_Token",
          "type": "uint256"
        },
        {
          "name": "Amount_FIAT",
          "type": "uint256"
        },
        {
          "name": "ID_Sender",
          "type": "uint256"
        },
        {
          "name": "Nom_Sender",
          "type": "string"
        },
        {
          "name": "Prenom_Sender",
          "type": "string"
        },
        {
          "name": "wallet_Sender",
          "type": "address"
        },
        {
          "name": "wallet_Tokenreceiver",
          "type": "address"
        },
        {
          "name": "ID_FIATReceiver",
          "type": "uint256"
        },
        {
          "name": "Nom_FIATreceiver",
          "type": "string"
        },
        {
          "name": "Prenom_FIATreceiver",
          "type": "string"
        },
        {
          "name": "Cashout_Date",
          "type": "uint256"
        },
        {
          "name": "Transaction_Hash",
          "type": "bytes32"
        }
      ],
      "name": "pushCashout",
      "outputs": [],
      "payable": false,
      "stateMutability": "nonpayable",
      "type": "function"
    },
    {
      "constant": true,
      "inputs": [
        {
          "name": "Amount_Token",
          "type": "uint256"
        }
      ],
      "name": "conditionsVerif",
      "outputs": [],
      "payable": false,
      "stateMutability": "pure",
      "type": "function"
    },
    {
      "constant": false,
      "inputs": [
        {
          "name": "Amount_Token",
          "type": "uint256"
        },
        {
          "name": "ID_Sender",
          "type": "uint256"
        },
        {
          "name": "Nom_Sender",
          "type": "string"
        },
        {
          "name": "Prenom_Sender",
          "type": "string"
        },
        {
          "name": "wallet_Sender",
          "type": "address"
        },
        {
          "name": "wallet_Tokenreceiver",
          "type": "address"
        },
        {
          "name": "ID_FIATReceiver",
          "type": "uint256"
        },
        {
          "name": "Nom_FIATreceiver",
          "type": "string"
        },
        {
          "name": "Prenom_FIATreceiver",
          "type": "string"
        }
      ],
      "name": "newCashout",
      "outputs": [],
      "payable": false,
      "stateMutability": "nonpayable",
      "type": "function"
    },
    {
      "constant": true,
      "inputs": [
        {
          "name": "_id",
          "type": "uint256"
        }
      ],
      "name": "getCashoutInfo",
      "outputs": [
        {
          "name": "ID_OP",
          "type": "string"
        },
        {
          "name": "Amount_Token",
          "type": "uint256"
        },
        {
          "name": "Amount_FIAT",
          "type": "uint256"
        },
        {
          "name": "ID_Sender",
          "type": "uint256"
        },
        {
          "name": "wallet_Sender",
          "type": "address"
        },
        {
          "name": "wallet_Tokenreceiver",
          "type": "address"
        },
        {
          "name": "ID_FIATReceiver",
          "type": "uint256"
        },
        {
          "name": "Nom_FIATreceiver",
          "type": "string"
        },
        {
          "name": "Prenom_FIATreceiver",
          "type": "string"
        },
        {
          "name": "Cashout_Date",
          "type": "uint256"
        }
      ],
      "payable": false,
      "stateMutability": "view",
      "type": "function"
    },
    {
      "constant": true,
      "inputs": [],
      "name": "getCashoutLength",
      "outputs": [
        {
          "name": "",
          "type": "uint256"
        }
      ],
      "payable": false,
      "stateMutability": "view",
      "type": "function"
    },
    {
      "constant": true,
      "inputs": [
        {
          "name": "ts",
          "type": "address"
        }
      ],
      "name": "getCashoutLengthByTs",
      "outputs": [
        {
          "name": "",
          "type": "uint256"
        }
      ],
      "payable": false,
      "stateMutability": "view",
      "type": "function"
    },
    {
      "constant": true,
      "inputs": [
        {
          "name": "ts",
          "type": "address"
        },
        {
          "name": "i",
          "type": "uint256"
        }
      ],
      "name": "getCashoutInfoByTs",
      "outputs": [
        {
          "name": "ID_OP",
          "type": "string"
        },
        {
          "name": "Amount_Token",
          "type": "uint256"
        },
        {
          "name": "Amount_FIAT",
          "type": "uint256"
        },
        {
          "name": "wallet_Sender",
          "type": "address"
        },
        {
          "name": "wallet_Tokenreceiver",
          "type": "address"
        },
        {
          "name": "ID_FIATReceiver",
          "type": "uint256"
        },
        {
          "name": "Cashout_Date",
          "type": "uint256"
        }
      ],
      "payable": false,
      "stateMutability": "view",
      "type": "function"
    },
    {
      "constant": true,
      "inputs": [
        {
          "name": "ts",
          "type": "address"
        },
        {
          "name": "i",
          "type": "uint256"
        }
      ],
      "name": "getCashoutIndexByTs",
      "outputs": [
        {
          "name": "",
          "type": "uint256"
        }
      ],
      "payable": false,
      "stateMutability": "view",
      "type": "function"
    },
    {
      "constant": true,
      "inputs": [
        {
          "name": "ts",
          "type": "address"
        },
        {
          "name": "date",
          "type": "uint256"
        }
      ],
      "name": "getCashoutInfoByTsAndDate",
      "outputs": [
        {
          "name": "ID_OP",
          "type": "string"
        },
        {
          "name": "Amount_Token",
          "type": "uint256"
        },
        {
          "name": "Amount_FIAT",
          "type": "uint256"
        },
        {
          "name": "wallet_Sender",
          "type": "address"
        },
        {
          "name": "wallet_Tokenreceiver",
          "type": "address"
        },
        {
          "name": "ID_FIATReceiver",
          "type": "uint256"
        },
        {
          "name": "Cashout_Date",
          "type": "uint256"
        }
      ],
      "payable": false,
      "stateMutability": "view",
      "type": "function"
    },
    {
      "constant": true,
      "inputs": [
        {
          "name": "_id",
          "type": "uint256"
        }
      ],
      "name": "getAccountCashoutIndex",
      "outputs": [
        {
          "name": "",
          "type": "uint256"
        }
      ],
      "payable": false,
      "stateMutability": "view",
      "type": "function"
    },
    {
      "constant": true,
      "inputs": [],
      "name": "getLengthOfUserCashouts",
      "outputs": [
        {
          "name": "",
          "type": "uint256"
        }
      ],
      "payable": false,
      "stateMutability": "view",
      "type": "function"
    },
    {
      "constant": false,
      "inputs": [
        {
          "name": "trHash",
          "type": "bytes32"
        }
      ],
      "name": "setTransactionHash",
      "outputs": [],
      "payable": false,
      "stateMutability": "nonpayable",
      "type": "function"
    },
    {
      "constant": true,
      "inputs": [
        {
          "name": "id",
          "type": "uint256"
        }
      ],
      "name": "getCashoutProofById",
      "outputs": [
        {
          "name": "ID_OP",
          "type": "string"
        },
        {
          "name": "Amount_Token",
          "type": "uint256"
        },
        {
          "name": "Amount_FIAT",
          "type": "uint256"
        },
        {
          "name": "wallet_Sender",
          "type": "address"
        },
        {
          "name": "wallet_Tokenreceiver",
          "type": "address"
        },
        {
          "name": "Cashout_Date",
          "type": "uint256"
        },
        {
          "name": "Transaction_Hash",
          "type": "bytes32"
        }
      ],
      "payable": false,
      "stateMutability": "view",
      "type": "function"
    },
    {
      "constant": true,
      "inputs": [],
      "name": "convertttt",
      "outputs": [
        {
          "name": "result",
          "type": "bytes32"
        }
      ],
      "payable": false,
      "stateMutability": "pure",
      "type": "function"
    }
  ],
  "bytecode": "0x606060405260006001556000600260006101000a81548160ff021916908315150217905550341561002f57600080fd5b336000806101000a81548173ffffffffffffffffffffffffffffffffffffffff021916908373ffffffffffffffffffffffffffffffffffffffff16021790555033600260016101000a81548173ffffffffffffffffffffffffffffffffffffffff021916908373ffffffffffffffffffffffffffffffffffffffff1602179055506134c0806100bf6000396000f30060606040526004361061015f576000357c0100000000000000000000000000000000000000000000000000000000900463ffffffff1680631664e5ba146101645780631bbc4b83146102a1578063224e7462146102f657806334e6276e146103355780633511432b1461035e57806339cf97bc146103955780633a9b5822146103b85780633f4ba83a146103f85780635130a8631461040d5780635c975abb1461043657806363346c1c146104635780637a02205d146106445780638456cb591461069a5780638da5cb5b146106af578063904194a3146107045780639c5e99ae1461076b578063b082443b146107c1578063b1374fd21461081f578063b4459e7c14610848578063b86ec99b1461086f578063baa35369146109ee578063c70cf15914610beb578063d2e52ba014610c41578063d99a64c914610c8e578063f1712fed14610cbf578063f2fde38b14610dfc578063f7dd90f114610e35575b600080fd5b341561016f57600080fd5b6101a4600480803573ffffffffffffffffffffffffffffffffffffffff16906020019091908035906020019091905050610f5b565b60405180806020018881526020018781526020018673ffffffffffffffffffffffffffffffffffffffff1673ffffffffffffffffffffffffffffffffffffffff1681526020018573ffffffffffffffffffffffffffffffffffffffff1673ffffffffffffffffffffffffffffffffffffffff168152602001848152602001838152602001828103825289818151815260200191508051906020019080838360005b83811015610260578082015181840152602081019050610245565b50505050905090810190601f16801561028d5780820380516001836020036101000a031916815260200191505b509850505050505050505060405180910390f35b34156102ac57600080fd5b6102b4611454565b604051808273ffffffffffffffffffffffffffffffffffffffff1673ffffffffffffffffffffffffffffffffffffffff16815260200191505060405180910390f35b341561030157600080fd5b61031b60048080356000191690602001909190505061147a565b604051808215151515815260200191505060405180910390f35b341561034057600080fd5b61034861157f565b6040518082815260200191505060405180910390f35b341561036957600080fd5b61037f600480803590602001909190505061158c565b6040518082815260200191505060405180910390f35b34156103a057600080fd5b6103b660048080359060200190919050506115ed565b005b34156103c357600080fd5b6103e2600480803590602001909190803590602001909190505061160e565b6040518082815260200191505060405180910390f35b341561040357600080fd5b61040b611620565b005b341561041857600080fd5b6104206116df565b6040518082815260200191505060405180910390f35b341561044157600080fd5b6104496116e5565b604051808215151515815260200191505060405180910390f35b341561046e57600080fd5b610642600480803590602001908201803590602001908080601f0160208091040260200160405190810160405280939291908181526020018383808284378201915050505050509190803590602001909190803590602001909190803590602001909190803590602001908201803590602001908080601f0160208091040260200160405190810160405280939291908181526020018383808284378201915050505050509190803590602001908201803590602001908080601f0160208091040260200160405190810160405280939291908181526020018383808284378201915050505050509190803573ffffffffffffffffffffffffffffffffffffffff1690602001909190803573ffffffffffffffffffffffffffffffffffffffff1690602001909190803590602001909190803590602001908201803590602001908080601f0160208091040260200160405190810160405280939291908181526020018383808284378201915050505050509190803590602001908201803590602001908080601f01602080910402602001604051908101604052809392919081815260200183838082843782019150505050505091908035906020019091908035600019169060200190919050506116f8565b005b341561064f57600080fd5b610684600480803573ffffffffffffffffffffffffffffffffffffffff16906020019091908035906020019091905050611a04565b6040518082815260200191505060405180910390f35b34156106a557600080fd5b6106ad611a35565b005b34156106ba57600080fd5b6106c2611af5565b604051808273ffffffffffffffffffffffffffffffffffffffff1673ffffffffffffffffffffffffffffffffffffffff16815260200191505060405180910390f35b341561070f57600080fd5b610729600480803560001916906020019091905050611b1b565b604051808273ffffffffffffffffffffffffffffffffffffffff1673ffffffffffffffffffffffffffffffffffffffff16815260200191505060405180910390f35b341561077657600080fd5b6107ab600480803573ffffffffffffffffffffffffffffffffffffffff16906020019091908035906020019091905050611b4e565b6040518082815260200191505060405180910390f35b34156107cc57600080fd5b61080560048080356000191690602001909190803573ffffffffffffffffffffffffffffffffffffffff16906020019091905050611bb5565b604051808215151515815260200191505060405180910390f35b341561082a57600080fd5b610832611c1b565b6040518082815260200191505060405180910390f35b341561085357600080fd5b61086d600480803560001916906020019091905050611c65565b005b341561087a57600080fd5b6109ec600480803590602001909190803590602001909190803590602001908201803590602001908080601f0160208091040260200160405190810160405280939291908181526020018383808284378201915050505050509190803590602001908201803590602001908080601f0160208091040260200160405190810160405280939291908181526020018383808284378201915050505050509190803573ffffffffffffffffffffffffffffffffffffffff1690602001909190803573ffffffffffffffffffffffffffffffffffffffff1690602001909190803590602001909190803590602001908201803590602001908080601f0160208091040260200160405190810160405280939291908181526020018383808284378201915050505050509190803590602001908201803590602001908080601f01602080910402602001604051908101604052809392919081815260200183838082843782019150505050505091905050611c9b565b005b34156109f957600080fd5b610a0f6004808035906020019091905050611f7b565b60405180806020018b81526020018a81526020018981526020018873ffffffffffffffffffffffffffffffffffffffff1673ffffffffffffffffffffffffffffffffffffffff1681526020018773ffffffffffffffffffffffffffffffffffffffff1673ffffffffffffffffffffffffffffffffffffffff168152602001868152602001806020018060200185815260200184810384528e818151815260200191508051906020019080838360005b83811015610ad9578082015181840152602081019050610abe565b50505050905090810190601f168015610b065780820380516001836020036101000a031916815260200191505b50848103835287818151815260200191508051906020019080838360005b83811015610b3f578082015181840152602081019050610b24565b50505050905090810190601f168015610b6c5780820380516001836020036101000a031916815260200191505b50848103825286818151815260200191508051906020019080838360005b83811015610ba5578082015181840152602081019050610b8a565b50505050905090810190601f168015610bd25780820380516001836020036101000a031916815260200191505b509d505050505050505050505050505060405180910390f35b3415610bf657600080fd5b610c2b600480803573ffffffffffffffffffffffffffffffffffffffff1690602001909190803590602001909190505061244d565b6040518082815260200191505060405180910390f35b3415610c4c57600080fd5b610c78600480803573ffffffffffffffffffffffffffffffffffffffff1690602001909190505061247e565b6040518082815260200191505060405180910390f35b3415610c9957600080fd5b610ca16124ca565b60405180826000191660001916815260200191505060405180910390f35b3415610cca57600080fd5b610cff600480803573ffffffffffffffffffffffffffffffffffffffff16906020019091908035906020019091905050612517565b60405180806020018881526020018781526020018673ffffffffffffffffffffffffffffffffffffffff1673ffffffffffffffffffffffffffffffffffffffff1681526020018573ffffffffffffffffffffffffffffffffffffffff1673ffffffffffffffffffffffffffffffffffffffff168152602001848152602001838152602001828103825289818151815260200191508051906020019080838360005b83811015610dbb578082015181840152602081019050610da0565b50505050905090810190601f168015610de85780820380516001836020036101000a031916815260200191505b509850505050505050505060405180910390f35b3415610e0757600080fd5b610e33600480803573ffffffffffffffffffffffffffffffffffffffff16906020019091905050612aee565b005b3415610e4057600080fd5b610e566004808035906020019091905050612c43565b60405180806020018881526020018781526020018673ffffffffffffffffffffffffffffffffffffffff1673ffffffffffffffffffffffffffffffffffffffff1681526020018573ffffffffffffffffffffffffffffffffffffffff1673ffffffffffffffffffffffffffffffffffffffff1681526020018481526020018360001916600019168152602001828103825289818151815260200191508051906020019080838360005b83811015610f1a578082015181840152602081019050610eff565b50505050905090810190601f168015610f475780820380516001836020036101000a031916815260200191505b509850505050505050505060405180910390f35b610f6361316a565b600080600080600080610f7461317e565b6003600560008c73ffffffffffffffffffffffffffffffffffffffff1673ffffffffffffffffffffffffffffffffffffffff1681526020019081526020016000208a815481101515610fc257fe5b906000526020600020900154815481101515610fda57fe5b90600052602060002090600d02016101a06040519081016040529081600082018054600181600116156101000203166002900480601f01602080910402602001604051908101604052809291908181526020018280546001816001161561010002031660029004801561108e5780601f106110635761010080835404028352916020019161108e565b820191906000526020600020905b81548152906001019060200180831161107157829003601f168201915b50505050508152602001600182015481526020016002820154815260200160038201548152602001600482018054600181600116156101000203166002900480601f01602080910402602001604051908101604052809291908181526020018280546001816001161561010002031660029004801561114e5780601f106111235761010080835404028352916020019161114e565b820191906000526020600020905b81548152906001019060200180831161113157829003601f168201915b50505050508152602001600582018054600181600116156101000203166002900480601f0160208091040260200160405190810160405280929190818152602001828054600181600116156101000203166002900480156111f05780601f106111c5576101008083540402835291602001916111f0565b820191906000526020600020905b8154815290600101906020018083116111d357829003601f168201915b505050505081526020016006820160009054906101000a900473ffffffffffffffffffffffffffffffffffffffff1673ffffffffffffffffffffffffffffffffffffffff1673ffffffffffffffffffffffffffffffffffffffff1681526020016007820160009054906101000a900473ffffffffffffffffffffffffffffffffffffffff1673ffffffffffffffffffffffffffffffffffffffff1673ffffffffffffffffffffffffffffffffffffffff16815260200160088201548152602001600982018054600181600116156101000203166002900480601f0160208091040260200160405190810160405280929190818152602001828054600181600116156101000203166002900480156113485780601f1061131d57610100808354040283529160200191611348565b820191906000526020600020905b81548152906001019060200180831161132b57829003601f168201915b50505050508152602001600a82018054600181600116156101000203166002900480601f0160208091040260200160405190810160405280929190818152602001828054600181600116156101000203166002900480156113ea5780601f106113bf576101008083540402835291602001916113ea565b820191906000526020600020905b8154815290600101906020018083116113cd57829003601f168201915b50505050508152602001600b8201548152602001600c82015460001916600019168152505090508060000151816020015182604001518360c001518460e0015185610100015186610160015186965097509750975097509750975097505092959891949750929550565b600760009054906101000a900473ffffffffffffffffffffffffffffffffffffffff1681565b60008060009054906101000a900473ffffffffffffffffffffffffffffffffffffffff1673ffffffffffffffffffffffffffffffffffffffff163373ffffffffffffffffffffffffffffffffffffffff161415156114d757600080fd5b600060066000846000191660001916815260200190815260200160002060009054906101000a900473ffffffffffffffffffffffffffffffffffffffff1673ffffffffffffffffffffffffffffffffffffffff161415151561153857600080fd5b60066000836000191660001916815260200190815260200160002060006101000a81549073ffffffffffffffffffffffffffffffffffffffff021916905560019050919050565b6000600380549050905090565b6000600460003373ffffffffffffffffffffffffffffffffffffffff1673ffffffffffffffffffffffffffffffffffffffff168152602001908152602001600020828154811015156115da57fe5b9060005260206000209001549050919050565b600a811015801561160057506103e88111155b151561160b57600080fd5b50565b60008082840290508091505092915050565b6000809054906101000a900473ffffffffffffffffffffffffffffffffffffffff1673ffffffffffffffffffffffffffffffffffffffff163373ffffffffffffffffffffffffffffffffffffffff1614151561167b57600080fd5b600260009054906101000a900460ff16151561169657600080fd5b6000600260006101000a81548160ff0219169083151502179055507f7805862f689e2f13df9f062ff482ad3ad112aca9e0847911ed832e158c525b3360405160405180910390a1565b60015481565b600260009054906101000a900460ff1681565b61170061317e565b6101a0604051908101604052808f81526020018e81526020018d81526020018c81526020018b81526020018a81526020018973ffffffffffffffffffffffffffffffffffffffff1681526020018873ffffffffffffffffffffffffffffffffffffffff16815260200187815260200186815260200185815260200184815260200183600019168152509050600460008973ffffffffffffffffffffffffffffffffffffffff1673ffffffffffffffffffffffffffffffffffffffff16815260200190815260200160002080548060010182816117dc9190613234565b9160005260206000209001600060038054905090919091505550600560008973ffffffffffffffffffffffffffffffffffffffff1673ffffffffffffffffffffffffffffffffffffffff16815260200190815260200160002080548060010182816118479190613234565b9160005260206000209001600060038054905090919091505550600380548060010182816118759190613260565b91600052602060002090600d0201600083909190915060008201518160000190805190602001906118a7929190613292565b5060208201518160010155604082015181600201556060820151816003015560808201518160040190805190602001906118e2929190613292565b5060a08201518160050190805190602001906118ff929190613292565b5060c08201518160060160006101000a81548173ffffffffffffffffffffffffffffffffffffffff021916908373ffffffffffffffffffffffffffffffffffffffff16021790555060e08201518160070160006101000a81548173ffffffffffffffffffffffffffffffffffffffff021916908373ffffffffffffffffffffffffffffffffffffffff16021790555061010082015181600801556101208201518160090190805190602001906119b6929190613292565b5061014082015181600a0190805190602001906119d4929190613292565b5061016082015181600b015561018082015181600c01906000191690555050505050505050505050505050505050565b600560205281600052604060002081815481101515611a1f57fe5b9060005260206000209001600091509150505481565b6000809054906101000a900473ffffffffffffffffffffffffffffffffffffffff1673ffffffffffffffffffffffffffffffffffffffff163373ffffffffffffffffffffffffffffffffffffffff16141515611a9057600080fd5b600260009054906101000a900460ff16151515611aac57600080fd5b6001600260006101000a81548160ff0219169083151502179055507f6985a02210a168e66602d3235cb6db0e70f92b3ba4d376a33c0f3d9434bff62560405160405180910390a1565b600260019054906101000a900473ffffffffffffffffffffffffffffffffffffffff1681565b60066020528060005260406000206000915054906101000a900473ffffffffffffffffffffffffffffffffffffffff1681565b600080600560008573ffffffffffffffffffffffffffffffffffffffff1673ffffffffffffffffffffffffffffffffffffffff16815260200190815260200160002083815481101515611b9d57fe5b90600052602060002090015490508091505092915050565b60008160066000856000191660001916815260200190815260200160002060006101000a81548173ffffffffffffffffffffffffffffffffffffffff021916908373ffffffffffffffffffffffffffffffffffffffff1602179055506001905092915050565b6000600460003373ffffffffffffffffffffffffffffffffffffffff1673ffffffffffffffffffffffffffffffffffffffff16815260200190815260200160002080549050905090565b60006001805403905081600382815481101515611c7e57fe5b90600052602060002090600d0201600c0181600019169055505050565b600080611ca66124ca565b9150600060066000846000191660001916815260200190815260200160002060009054906101000a900473ffffffffffffffffffffffffffffffffffffffff1673ffffffffffffffffffffffffffffffffffffffff1614151515611d0957600080fd5b60008773ffffffffffffffffffffffffffffffffffffffff1614151515611d2f57600080fd5b60008673ffffffffffffffffffffffffffffffffffffffff1614151515611d5557600080fd5b60066000836000191660001916815260200190815260200160002060009054906101000a900473ffffffffffffffffffffffffffffffffffffffff16905080600760006101000a81548173ffffffffffffffffffffffffffffffffffffffff021916908373ffffffffffffffffffffffffffffffffffffffff160217905550600760009054906101000a900473ffffffffffffffffffffffffffffffffffffffff1673ffffffffffffffffffffffffffffffffffffffff1663fd3e6a0a88888e6000604051602001526040518463ffffffff167c0100000000000000000000000000000000000000000000000000000000028152600401808473ffffffffffffffffffffffffffffffffffffffff1673ffffffffffffffffffffffffffffffffffffffff1681526020018373ffffffffffffffffffffffffffffffffffffffff1673ffffffffffffffffffffffffffffffffffffffff1681526020018281526020019350505050602060405180830381600087803b1515611ed557600080fd5b6102c65a03f11515611ee657600080fd5b5050506040518051905050611f5c611f3d6040805190810160405280600181526020017f4f00000000000000000000000000000000000000000000000000000000000000815250611f38600154612e2f565b612f81565b8c611f498e600161160e565b8d8d8d8d8d8d8d8d4260006001026116f8565b6001600081548092919060010191905055505050505050505050505050565b611f8361316a565b600080600080600080611f9461316a565b611f9c61316a565b6000611fa661317e565b60038c815481101515611fb557fe5b90600052602060002090600d02016101a06040519081016040529081600082018054600181600116156101000203166002900480601f0160208091040260200160405190810160405280929190818152602001828054600181600116156101000203166002900480156120695780601f1061203e57610100808354040283529160200191612069565b820191906000526020600020905b81548152906001019060200180831161204c57829003601f168201915b50505050508152602001600182015481526020016002820154815260200160038201548152602001600482018054600181600116156101000203166002900480601f0160208091040260200160405190810160405280929190818152602001828054600181600116156101000203166002900480156121295780601f106120fe57610100808354040283529160200191612129565b820191906000526020600020905b81548152906001019060200180831161210c57829003601f168201915b50505050508152602001600582018054600181600116156101000203166002900480601f0160208091040260200160405190810160405280929190818152602001828054600181600116156101000203166002900480156121cb5780601f106121a0576101008083540402835291602001916121cb565b820191906000526020600020905b8154815290600101906020018083116121ae57829003601f168201915b505050505081526020016006820160009054906101000a900473ffffffffffffffffffffffffffffffffffffffff1673ffffffffffffffffffffffffffffffffffffffff1673ffffffffffffffffffffffffffffffffffffffff1681526020016007820160009054906101000a900473ffffffffffffffffffffffffffffffffffffffff1673ffffffffffffffffffffffffffffffffffffffff1673ffffffffffffffffffffffffffffffffffffffff16815260200160088201548152602001600982018054600181600116156101000203166002900480601f0160208091040260200160405190810160405280929190818152602001828054600181600116156101000203166002900480156123235780601f106122f857610100808354040283529160200191612323565b820191906000526020600020905b81548152906001019060200180831161230657829003601f168201915b50505050508152602001600a82018054600181600116156101000203166002900480601f0160208091040260200160405190810160405280929190818152602001828054600181600116156101000203166002900480156123c55780601f1061239a576101008083540402835291602001916123c5565b820191906000526020600020905b8154815290600101906020018083116123a857829003601f168201915b50505050508152602001600b8201548152602001600c820154600019166000191681525050905080600001518160200151826040015183606001518460c001518560e001518661010001518761012001518861014001518961016001518999508292508191509a509a509a509a509a509a509a509a509a509a50509193959799509193959799565b60046020528160005260406000208181548110151561246857fe5b9060005260206000209001600091509150505481565b6000600560008373ffffffffffffffffffffffffffffffffffffffff1673ffffffffffffffffffffffffffffffffffffffff168152602001908152602001600020805490509050919050565b60006124d461316a565b6040805190810160405280600481526020017f494d4654000000000000000000000000000000000000000000000000000000008152509050602081015191505090565b61251f61316a565b60008060008060008061253061317e565b60008090505b600560008c73ffffffffffffffffffffffffffffffffffffffff1673ffffffffffffffffffffffffffffffffffffffff16815260200190815260200160002080549050811015612aaa57896003600560008e73ffffffffffffffffffffffffffffffffffffffff1673ffffffffffffffffffffffffffffffffffffffff168152602001908152602001600020838154811015156125cf57fe5b9060005260206000209001548154811015156125e757fe5b90600052602060002090600d0201600b01541415612a9d576003600560008d73ffffffffffffffffffffffffffffffffffffffff1673ffffffffffffffffffffffffffffffffffffffff1681526020019081526020016000208281548110151561264d57fe5b90600052602060002090015481548110151561266557fe5b90600052602060002090600d02016101a06040519081016040529081600082018054600181600116156101000203166002900480601f0160208091040260200160405190810160405280929190818152602001828054600181600116156101000203166002900480156127195780601f106126ee57610100808354040283529160200191612719565b820191906000526020600020905b8154815290600101906020018083116126fc57829003601f168201915b50505050508152602001600182015481526020016002820154815260200160038201548152602001600482018054600181600116156101000203166002900480601f0160208091040260200160405190810160405280929190818152602001828054600181600116156101000203166002900480156127d95780601f106127ae576101008083540402835291602001916127d9565b820191906000526020600020905b8154815290600101906020018083116127bc57829003601f168201915b50505050508152602001600582018054600181600116156101000203166002900480601f01602080910402602001604051908101604052809291908181526020018280546001816001161561010002031660029004801561287b5780601f106128505761010080835404028352916020019161287b565b820191906000526020600020905b81548152906001019060200180831161285e57829003601f168201915b505050505081526020016006820160009054906101000a900473ffffffffffffffffffffffffffffffffffffffff1673ffffffffffffffffffffffffffffffffffffffff1673ffffffffffffffffffffffffffffffffffffffff1681526020016007820160009054906101000a900473ffffffffffffffffffffffffffffffffffffffff1673ffffffffffffffffffffffffffffffffffffffff1673ffffffffffffffffffffffffffffffffffffffff16815260200160088201548152602001600982018054600181600116156101000203166002900480601f0160208091040260200160405190810160405280929190818152602001828054600181600116156101000203166002900480156129d35780601f106129a8576101008083540402835291602001916129d3565b820191906000526020600020905b8154815290600101906020018083116129b657829003601f168201915b50505050508152602001600a82018054600181600116156101000203166002900480601f016020809104026020016040519081016040528092919081815260200182805460018160011615610100020316600290048015612a755780601f10612a4a57610100808354040283529160200191612a75565b820191906000526020600020905b815481529060010190602001808311612a5857829003601f168201915b50505050508152602001600b8201548152602001600c82015460001916600019168152505091505b8080600101915050612536565b8160000151826020015183604001518460c001518560e001518661010001518761016001518696509850985098509850985098509850505092959891949750929550565b6000809054906101000a900473ffffffffffffffffffffffffffffffffffffffff1673ffffffffffffffffffffffffffffffffffffffff163373ffffffffffffffffffffffffffffffffffffffff16141515612b4957600080fd5b600073ffffffffffffffffffffffffffffffffffffffff168173ffffffffffffffffffffffffffffffffffffffff1614151515612b8557600080fd5b8073ffffffffffffffffffffffffffffffffffffffff166000809054906101000a900473ffffffffffffffffffffffffffffffffffffffff1673ffffffffffffffffffffffffffffffffffffffff167f8be0079c531659141344cd1fd0a4f28419497f9722a3daafe3b4186f6b6457e060405160405180910390a3806000806101000a81548173ffffffffffffffffffffffffffffffffffffffff021916908373ffffffffffffffffffffffffffffffffffffffff16021790555050565b612c4b61316a565b600080600080600080600388815481101515612c6357fe5b90600052602060002090600d0201600001600389815481101515612c8357fe5b90600052602060002090600d02016001015460038a815481101515612ca457fe5b90600052602060002090600d02016002015460038b815481101515612cc557fe5b90600052602060002090600d020160060160009054906101000a900473ffffffffffffffffffffffffffffffffffffffff1660038c815481101515612d0657fe5b90600052602060002090600d020160070160009054906101000a900473ffffffffffffffffffffffffffffffffffffffff1660038d815481101515612d4757fe5b90600052602060002090600d0201600b015460038e815481101515612d6857fe5b90600052602060002090600d0201600c0154868054600181600116156101000203166002900480601f016020809104026020016040519081016040528092919081815260200182805460018160011615610100020316600290048015612e0f5780601f10612de457610100808354040283529160200191612e0f565b820191906000526020600020905b815481529060010190602001808311612df257829003601f168201915b505050505096509650965096509650965096509650919395979092949650565b612e3761316a565b600080612e42613312565b600080861415612e89576040805190810160405280600181526020017f30000000000000000000000000000000000000000000000000000000000000008152509450612f78565b8593505b600084141515612eb3578280600101935050600a84811515612eab57fe5b049350612e8d565b82604051805910612ec15750595b9080825280601f01601f191660200182016040525091506001830390505b600086141515612f7457600a86811515612ef557fe5b066030017f010000000000000000000000000000000000000000000000000000000000000002828280600190039350815181101515612f3057fe5b9060200101907effffffffffffffffffffffffffffffffffffffffffffffffffffffffffffff1916908160001a905350600a86811515612f6c57fe5b049550612edf565b8194505b50505050919050565b612f8961316a565b612f91613312565b612f99613312565b612fa161316a565b612fa9613312565b60008088955087945060008551111515612fbf57fe5b8451865101604051805910612fd15750595b9080825280601f01601f19166020018201604052509350839250600091505b85518210156130a357858281518110151561300757fe5b9060200101517f010000000000000000000000000000000000000000000000000000000000000090047f010000000000000000000000000000000000000000000000000000000000000002838280600101935081518110151561306657fe5b9060200101907effffffffffffffffffffffffffffffffffffffffffffffffffffffffffffff1916908160001a9053508180600101925050612ff0565b600091505b845182101561315b5784828151811015156130bf57fe5b9060200101517f010000000000000000000000000000000000000000000000000000000000000090047f010000000000000000000000000000000000000000000000000000000000000002838280600101935081518110151561311e57fe5b9060200101907effffffffffffffffffffffffffffffffffffffffffffffffffffffffffffff1916908160001a90535081806001019250506130a8565b82965050505050505092915050565b602060405190810160405280600081525090565b6101a060405190810160405280613193613326565b81526020016000815260200160008152602001600081526020016131b5613326565b81526020016131c2613326565b8152602001600073ffffffffffffffffffffffffffffffffffffffff168152602001600073ffffffffffffffffffffffffffffffffffffffff16815260200160008152602001613210613326565b815260200161321d613326565b815260200160008152602001600080191681525090565b81548183558181151161325b5781836000526020600020918201910161325a919061333a565b5b505050565b81548183558181151161328d57600d0281600d02836000526020600020918201910161328c919061335f565b5b505050565b828054600181600116156101000203166002900490600052602060002090601f016020900481019282601f106132d357805160ff1916838001178555613301565b82800160010185558215613301579182015b828111156133005782518255916020019190600101906132e5565b5b50905061330e919061333a565b5090565b602060405190810160405280600081525090565b602060405190810160405280600081525090565b61335c91905b80821115613358576000816000905550600101613340565b5090565b90565b61344991905b80821115613445576000808201600061337e919061344c565b6001820160009055600282016000905560038201600090556004820160006133a6919061344c565b6005820160006133b6919061344c565b6006820160006101000a81549073ffffffffffffffffffffffffffffffffffffffff02191690556007820160006101000a81549073ffffffffffffffffffffffffffffffffffffffff0219169055600882016000905560098201600061341c919061344c565b600a8201600061342c919061344c565b600b820160009055600c82016000905550600d01613365565b5090565b90565b50805460018160011615610100020316600290046000825580601f106134725750613491565b601f016020900490600052602060002090810190613490919061333a565b5b505600a165627a7a723058203932dfb2f43600ed8fc496df3db7b33ca46f9153d6da8a0f5cc9fe8395edec9b0029",
  "source": "pragma solidity ^0.4.19;\n \n \n\n/**\n * @title Ownable\n * @dev The Ownable contract has an owner address, and provides basic authorization control\n * functions, this simplifies the implementation of \"user permissions\".\n */\ncontract Ownable {\n  address public owner;\n  uint public operationNum = 0 ;\n \n \n  event OwnershipTransferred(address indexed previousOwner, address indexed newOwner);\n \n \n  /**\n   * @dev The Ownable constructor sets the original `owner` of the contract to the sender\n   * account.\n   */\n  function Ownable() public {\n    owner = msg.sender;\n  }\n \n  /**\n   * @dev Throws if called by any account other than the owner.\n   */\n  modifier onlyOwner() {\n    require(msg.sender == owner);\n    _;\n  }\n \n  /**\n   * @dev Allows the current owner to transfer control of the contract to a newOwner.\n   * @param newOwner The address to transfer ownership to.\n   */\n  function transferOwnership(address newOwner) public onlyOwner {\n    require(newOwner != address(0));\n    OwnershipTransferred(owner, newOwner);\n    owner = newOwner;\n  }\n \n}\n \n/**\n * @title Pausable\n * @dev Base contract which allows children to implement an emergency stop mechanism.\n */\ncontract Pausable is Ownable {\n  event Pause();\n  event Unpause();\n \n  bool public paused = false;\n \n \n  /**\n   * @dev Modifier to make a function callable only when the contract is not paused.\n   */\n  modifier whenNotPaused() {\n    require(!paused);\n    _;\n  }\n \n  /**\n   * @dev Modifier to make a function callable only when the contract is paused.\n   */\n  modifier whenPaused() {\n    require(paused);\n    _;\n  }\n \n  /**\n   * @dev called by the owner to pause, triggers stopped state\n   */\n  function pause() onlyOwner whenNotPaused public {\n    paused = true;\n    Pause();\n  }\n \n  /**\n   * @dev called by the owner to unpause, returns to normal state\n   */\n  function unpause() onlyOwner whenPaused public {\n    paused = false;\n    Unpause();\n  }\n}\n \n \n \n \n/**\n * @title ERC20Basic\n * @dev Simpler version of ERC20 interface\n * @dev see https://github.com/ethereum/EIPs/issues/179\n * \n * \n */\n \n\n  \ncontract ERC20Basic {\n  function totalSupply() public view returns (uint256);\n  function balanceOf(address who) public view returns (uint256);\n  function transfer(address to, uint256 value) public returns (bool);\n  event Transfer(address indexed from, address indexed to, uint256 value);\n}\n\n \n \n \n \n \n/**\n * @title ERC20 interface\n * @dev see https://github.com/ethereum/EIPs/issues/20\n */\ncontract ERC20 is ERC20Basic {\n  function allowance(address owner, address spender) public view returns (uint256);\n  function transferFrom(address from, address to, uint256 value) public returns (bool);\n  function approve(address spender, uint256 value) public returns (bool);\n  function transfers(address from_,address _to, uint256 _value) public returns (bool);\n  event Approval(address indexed owner, address indexed spender, uint256 value);\n}\n \n \n \n \n \n \n \n \ncontract Retrait is Ownable, Pausable {\n \n    /*enum cashoutState {\n        WAITING,\n        DONE\n    }*/\n    \n    struct Cashout {\n        string ID_OP;\n        uint Amount_Token;\n        uint Amount_FIAT;\n        uint ID_Sender;\n        string Nom_Sender;\n        string Prenom_Sender;\n        address wallet_Sender;\n        address wallet_Tokenreceiver;\n        uint ID_FIATReceiver;\n        string Nom_FIATreceiver;\n        string Prenom_FIATreceiver;\n        uint256  Cashout_Date;\n        bytes32 Transaction_Hash;\n    }\n\n \n  address public owner;\n \n \n\n \n   Cashout [] /*public*/ allCashouts;\n\n    mapping (address => uint []) public userCashouts;\n    mapping (address => uint []) public tsCashouts;\n    \n\n    /** @dev function to convert int to string\n*/\n \n   \nfunction uint2str(uint i) internal pure returns (string){\n    if (i == 0) return \"0\";\n    uint j = i;\n    uint length;\n    while (j != 0){\n        length++;\n        j /= 10;\n    }\n    bytes memory bstr = new bytes(length);\n    uint k = length - 1;\n    while (i != 0){\n        bstr[k--] = byte(48 + i % 10);\n        i /= 10;\n    }\n    return string(bstr);\n}\n\n\n/** @dev function to concatenat 2 string and return 1 string\n*/\n \n\n function concat(string memory _base, string memory _value)\n        internal\n        pure\n        returns (string memory) {\n        bytes memory _baseBytes = bytes(_base);\n        bytes memory _valueBytes = bytes(_value);\n\n        assert(_valueBytes.length > 0);\n\n        string memory _tmpValue = new string(_baseBytes.length +\n            _valueBytes.length);\n        bytes memory _newValue = bytes(_tmpValue);\n\n        uint i;\n        uint j;\n\n        for (i = 0; i < _baseBytes.length; i++) {\n            _newValue[j++] = _baseBytes[i];\n        }\n\n        for (i = 0; i < _valueBytes.length; i++) {\n            _newValue[j++] = _valueBytes[i];\n        }\n\n        return string(_newValue);\n    }\n\n    \n \n  /**\n * @dev list of all supported tokens for transfer * @param string token symbol * @param address contract address of token */  \n mapping(bytes32 => address) public tokens;\n \n  ERC20 public ERC20Interface;\n \n  function Retrait() public {\n     owner = msg.sender;\n  }\n \n  /**\n * @dev add address of token to list of supported tokens using * token symbol as identifier in mapping */  \n function addNewToken(bytes32 symbol_, address address_) public returns (bool) {\n  tokens[symbol_] = address_;\n \n  return true;\n }\n  /**\n * @dev remove address of token we no more support */ \n function removeToken(bytes32 symbol_) public onlyOwner returns (bool) {\n  require(tokens[symbol_] != 0x0);\n \n  delete(tokens[symbol_]);\n \n  return true;\n }\n\n \n    function convertTokenToFIAT(uint Amount_Token, uint conversionRate) public pure returns (uint) {\n        uint Amount_FIAT = Amount_Token * conversionRate;\n        return Amount_FIAT;\n    }\n    \n    function pushCashout(string memory ID_OP,  uint Amount_Token, uint Amount_FIAT, uint ID_Sender, string memory Nom_Sender, string memory Prenom_Sender, address wallet_Sender, address wallet_Tokenreceiver, uint ID_FIATReceiver,  string memory Nom_FIATreceiver, string memory Prenom_FIATreceiver, uint256 Cashout_Date, bytes32 Transaction_Hash) public {\n         Cashout memory c = Cashout(ID_OP , Amount_Token, Amount_FIAT,  ID_Sender, Nom_Sender, Prenom_Sender, wallet_Sender, wallet_Tokenreceiver, ID_FIATReceiver, Nom_FIATreceiver, Prenom_FIATreceiver, Cashout_Date, Transaction_Hash);\n         userCashouts[wallet_Sender].push(allCashouts.length);\n         tsCashouts[wallet_Sender].push(allCashouts.length);\n         allCashouts.push(c);\n         \n    }\n    \n    function conditionsVerif(uint Amount_Token) public pure{\n         require(Amount_Token>=10 && Amount_Token<=1000);\n    }\n    \n    \n \n    \n    function newCashout(uint Amount_Token, uint ID_Sender, string memory Nom_Sender, string memory Prenom_Sender, address wallet_Sender, address wallet_Tokenreceiver, uint ID_FIATReceiver, string memory Nom_FIATreceiver, string memory Prenom_FIATreceiver) public  {\n        bytes32 symbol_ = convertttt();\n        require(tokens[symbol_] != 0x0);\n        require(wallet_Sender != 0x0);\n        require(wallet_Tokenreceiver != 0x0);\n        address contract_ = tokens[symbol_];\n        ERC20Interface = ERC20(contract_);\n        ERC20Interface.transfers(wallet_Sender, wallet_Tokenreceiver, Amount_Token);\n        pushCashout(concat(\"O\", uint2str(operationNum)) , Amount_Token, convertTokenToFIAT(Amount_Token, 1),  ID_Sender, Nom_Sender, Prenom_Sender, wallet_Sender, wallet_Tokenreceiver, ID_FIATReceiver, Nom_FIATreceiver, Prenom_FIATreceiver, now, 0x0);\n        operationNum++;\n         \n    }\n    \n    \n    //fonction qui sert  avoir les dtails d'un cashout  partir de son id\n    \n    function getCashoutInfo(uint _id) public view returns (string ID_OP, uint Amount_Token, uint Amount_FIAT,uint ID_Sender, address wallet_Sender, address wallet_Tokenreceiver, uint ID_FIATReceiver, string Nom_FIATreceiver, string Prenom_FIATreceiver, uint256 Cashout_Date) {\n        Cashout memory c = allCashouts[_id];\n        return (c.ID_OP , c.Amount_Token, c.Amount_FIAT,c.ID_Sender, c.wallet_Sender, c.wallet_Tokenreceiver, c.ID_FIATReceiver,c.Nom_FIATreceiver, c.Prenom_FIATreceiver, c.Cashout_Date);\n    }\n   \n    \n    //fonction qui sert  avoir le nombre de cashouts en totalit\n    \n    function getCashoutLength() public view returns (uint) {\n        return allCashouts.length;\n    }\n    \n    //fonction qui permet de retourner les cashouts par TokenReceiver\n    \n    function getCashoutLengthByTs(address ts) public view returns (uint) {\n        return tsCashouts[ts].length;\n    }\n    \n   function getCashoutInfoByTs(address ts, uint i) public view returns (string ID_OP, uint Amount_Token, uint Amount_FIAT, address wallet_Sender, address wallet_Tokenreceiver, uint ID_FIATReceiver, uint256 Cashout_Date) {\n        Cashout memory c = allCashouts[tsCashouts[ts][i]];\n        return (c.ID_OP , c.Amount_Token, c.Amount_FIAT, c.wallet_Sender, c.wallet_Tokenreceiver, c.ID_FIATReceiver, c.Cashout_Date);\n    }\n    \n    function getCashoutIndexByTs(address ts, uint i) public view returns (uint) {\n        uint index = tsCashouts[ts][i];\n        return index;\n    }\n    \n    //fonction qui permet de retourner les cashouts par TokenReceiver et TransferDate\n    \n    function getCashoutInfoByTsAndDate(address ts, uint256 date) public view returns (string ID_OP, uint Amount_Token, uint Amount_FIAT, address wallet_Sender, address wallet_Tokenreceiver, uint ID_FIATReceiver, uint256 Cashout_Date) {\n        Cashout memory c;\n        for(uint i=0; i<tsCashouts[ts].length; i++) {\n            if(allCashouts[tsCashouts[ts][i]].Cashout_Date == date) {\n                c = allCashouts[tsCashouts[ts][i]];\n            }\n        }\n            \n        return (c.ID_OP , c.Amount_Token, c.Amount_FIAT, c.wallet_Sender, c.wallet_Tokenreceiver, c.ID_FIATReceiver, c.Cashout_Date);\n    }\n    \n \n    /*function confirmCashout(bytes32 symbol_,  uint amountToken) public  {\n          \n    }*/\n    \n    \n    //Avoir les informations d'un cashout pour un utilisateur  travers son index\n    function getAccountCashoutIndex(uint _id) public view returns (uint) {\n        return userCashouts[msg.sender][_id];\n    }\n    \n    //Avoir le nombre de cashouts pour un utilisateur donn\n    function getLengthOfUserCashouts() public view returns (uint){\n        return userCashouts[msg.sender].length;\n    }\n    \n    //Modifier le hash de la transaction d'un cashout\n    function setTransactionHash(bytes32 trHash) public {\n        uint current_op = operationNum - 1;\n        allCashouts[current_op].Transaction_Hash = trHash;\n    }\n    \n    //Avoir la preuve d'un cashout  partir de son id\n       function getCashoutProofById(uint id) public view returns(string memory ID_OP, uint Amount_Token, uint Amount_FIAT, address wallet_Sender, address wallet_Tokenreceiver ,uint256 Cashout_Date, bytes32 Transaction_Hash) {\n        return(allCashouts[id].ID_OP,allCashouts[id].Amount_Token, allCashouts[id].Amount_FIAT, allCashouts[id].wallet_Sender, allCashouts[id].wallet_Tokenreceiver,  allCashouts[id].Cashout_Date, allCashouts[id].Transaction_Hash);\n    }\n\n    //retourner le premier symbole du token en bytes32\n    function convertttt() public pure returns (bytes32 result) {\n    string memory testFoo = \"IMFT\";\n        assembly {\n            result := mload(add(testFoo, 32))\n        }\n    }\n    \n    //Avoir l'tat d'un cashout\n    /*function getCashoutState(uint id)  public view returns(cashoutState){\n        Cashout memory c = allCashouts[id]; \n        return (c.state);\n        \n    }*/\n    \n    \n\n    \n    \n    \n    \n}\n",
  "sourcePath": "/home/ubuntu/az/paylis/Cashout/contracts/Retrait.sol",
  "compiler": {
    "name": "solc",
    "version": "0.4.19+commit.c4cbbb05.Emscripten.clang"
  },
  "schemaVersion": "3.0.19",
  "updatedAt": "2021-02-03T09:25:13.454Z",
  "networkType": "ethereum",
  "devdoc": {
    "methods": {
      "addNewToken(bytes32,address)": {
        "details": "add address of token to list of supported tokens using * token symbol as identifier in mapping "
      },
      "pause()": {
        "details": "called by the owner to pause, triggers stopped state"
      },
      "removeToken(bytes32)": {
        "details": "remove address of token we no more support "
      },
      "transferOwnership(address)": {
        "details": "Allows the current owner to transfer control of the contract to a newOwner.",
        "params": {
          "newOwner": "The address to transfer ownership to."
        }
      },
      "unpause()": {
        "details": "called by the owner to unpause, returns to normal state"
      }
    }
  },
  "userdoc": {
    "methods": {}
  }
}