{
  "contractName": "participant_contract",
  "abi": [
    {
      "constant": true,
      "inputs": [
        {
          "internalType": "string",
          "name": "",
          "type": "string"
        },
        {
          "internalType": "address",
          "name": "",
          "type": "address"
        }
      ],
      "name": "Liste",
      "outputs": [
        {
          "internalType": "address",
          "name": "Adherent_Address",
          "type": "address"
        },
        {
          "internalType": "uint256",
          "name": "Ordre",
          "type": "uint256"
        },
        {
          "internalType": "bool",
          "name": "Inscrit",
          "type": "bool"
        }
      ],
      "payable": false,
      "stateMutability": "view",
      "type": "function"
    },
    {
      "constant": true,
      "inputs": [],
      "name": "ERC20Interface",
      "outputs": [
        {
          "internalType": "contract ERC20",
          "name": "",
          "type": "address"
        }
      ],
      "payable": false,
      "stateMutability": "view",
      "type": "function"
    },
    {
      "constant": true,
      "inputs": [],
      "name": "numDistribution",
      "outputs": [
        {
          "internalType": "uint256",
          "name": "",
          "type": "uint256"
        }
      ],
      "payable": false,
      "stateMutability": "view",
      "type": "function"
    },
    {
      "constant": true,
      "inputs": [],
      "name": "numGarantie",
      "outputs": [
        {
          "internalType": "uint256",
          "name": "",
          "type": "uint256"
        }
      ],
      "payable": false,
      "stateMutability": "view",
      "type": "function"
    },
    {
      "constant": true,
      "inputs": [],
      "name": "numCotisation",
      "outputs": [
        {
          "internalType": "uint256",
          "name": "",
          "type": "uint256"
        }
      ],
      "payable": false,
      "stateMutability": "view",
      "type": "function"
    },
    {
      "constant": true,
      "inputs": [
        {
          "internalType": "string",
          "name": "",
          "type": "string"
        },
        {
          "internalType": "uint256",
          "name": "",
          "type": "uint256"
        }
      ],
      "name": "participantsAddress",
      "outputs": [
        {
          "internalType": "address",
          "name": "",
          "type": "address"
        }
      ],
      "payable": false,
      "stateMutability": "view",
      "type": "function"
    },
    {
      "inputs": [],
      "payable": false,
      "stateMutability": "nonpayable",
      "type": "constructor"
    },
    {
      "payable": true,
      "stateMutability": "payable",
      "type": "fallback"
    },
    {
      "constant": false,
      "inputs": [
        {
          "internalType": "address",
          "name": "Address_Sender",
          "type": "address"
        },
        {
          "internalType": "address",
          "name": "Address_Receiver",
          "type": "address"
        },
        {
          "internalType": "uint256",
          "name": "Montant",
          "type": "uint256"
        },
        {
          "internalType": "address",
          "name": "contract_",
          "type": "address"
        }
      ],
      "name": "transaction",
      "outputs": [],
      "payable": false,
      "stateMutability": "nonpayable",
      "type": "function"
    },
    {
      "constant": false,
      "inputs": [
        {
          "internalType": "string",
          "name": "ID_Tontine",
          "type": "string"
        },
        {
          "internalType": "address",
          "name": "Adherent_Address",
          "type": "address"
        },
        {
          "internalType": "uint256",
          "name": "Ordre",
          "type": "uint256"
        }
      ],
      "name": "addUser",
      "outputs": [],
      "payable": false,
      "stateMutability": "nonpayable",
      "type": "function"
    },
    {
      "constant": true,
      "inputs": [
        {
          "internalType": "string",
          "name": "ID_Tontine",
          "type": "string"
        },
        {
          "internalType": "address",
          "name": "addPart",
          "type": "address"
        }
      ],
      "name": "get",
      "outputs": [
        {
          "internalType": "uint256",
          "name": "",
          "type": "uint256"
        },
        {
          "internalType": "bool",
          "name": "",
          "type": "bool"
        }
      ],
      "payable": false,
      "stateMutability": "view",
      "type": "function"
    },
    {
      "constant": false,
      "inputs": [
        {
          "internalType": "string",
          "name": "ID_Tontine",
          "type": "string"
        },
        {
          "internalType": "address",
          "name": "Adherent_Address",
          "type": "address"
        },
        {
          "internalType": "uint256",
          "name": "Cycle_enCours",
          "type": "uint256"
        },
        {
          "internalType": "uint256",
          "name": "Iteration_enCours",
          "type": "uint256"
        },
        {
          "internalType": "uint256",
          "name": "Montant",
          "type": "uint256"
        },
        {
          "internalType": "address",
          "name": "addTontine",
          "type": "address"
        },
        {
          "internalType": "bool",
          "name": "Type",
          "type": "bool"
        },
        {
          "internalType": "address",
          "name": "contract_",
          "type": "address"
        }
      ],
      "name": "addTxGarantie",
      "outputs": [],
      "payable": false,
      "stateMutability": "nonpayable",
      "type": "function"
    },
    {
      "constant": true,
      "inputs": [
        {
          "internalType": "string",
          "name": "ID_Tontine",
          "type": "string"
        },
        {
          "internalType": "address",
          "name": "Adherent_Address",
          "type": "address"
        }
      ],
      "name": "getGarNbr",
      "outputs": [
        {
          "internalType": "uint256",
          "name": "",
          "type": "uint256"
        }
      ],
      "payable": false,
      "stateMutability": "view",
      "type": "function"
    },
    {
      "constant": true,
      "inputs": [
        {
          "internalType": "string",
          "name": "ID_Tontine",
          "type": "string"
        },
        {
          "internalType": "address",
          "name": "Adherent_Address",
          "type": "address"
        }
      ],
      "name": "getCotNbr",
      "outputs": [
        {
          "internalType": "uint256",
          "name": "",
          "type": "uint256"
        }
      ],
      "payable": false,
      "stateMutability": "view",
      "type": "function"
    },
    {
      "constant": true,
      "inputs": [
        {
          "internalType": "string",
          "name": "ID_Tontine",
          "type": "string"
        },
        {
          "internalType": "address",
          "name": "Adherent_Address",
          "type": "address"
        }
      ],
      "name": "getDisNbr",
      "outputs": [
        {
          "internalType": "uint256",
          "name": "",
          "type": "uint256"
        }
      ],
      "payable": false,
      "stateMutability": "view",
      "type": "function"
    },
    {
      "constant": false,
      "inputs": [
        {
          "internalType": "string",
          "name": "ID_Tontine",
          "type": "string"
        },
        {
          "internalType": "address",
          "name": "Adherent_Address",
          "type": "address"
        },
        {
          "internalType": "uint256",
          "name": "Cycle_enCours",
          "type": "uint256"
        },
        {
          "internalType": "uint256",
          "name": "Iteration_enCours",
          "type": "uint256"
        },
        {
          "internalType": "uint256",
          "name": "Montant",
          "type": "uint256"
        }
      ],
      "name": "verifgarantie",
      "outputs": [],
      "payable": false,
      "stateMutability": "nonpayable",
      "type": "function"
    },
    {
      "constant": false,
      "inputs": [
        {
          "internalType": "string",
          "name": "ID_Tontine",
          "type": "string"
        },
        {
          "internalType": "address",
          "name": "Adherent_Address",
          "type": "address"
        },
        {
          "internalType": "uint256",
          "name": "Cycle_enCours",
          "type": "uint256"
        },
        {
          "internalType": "uint256",
          "name": "Iteration_enCours",
          "type": "uint256"
        },
        {
          "internalType": "uint256",
          "name": "Montant",
          "type": "uint256"
        }
      ],
      "name": "addTxCotisation",
      "outputs": [],
      "payable": false,
      "stateMutability": "nonpayable",
      "type": "function"
    },
    {
      "constant": false,
      "inputs": [
        {
          "internalType": "string",
          "name": "ID_Tontine",
          "type": "string"
        },
        {
          "internalType": "address",
          "name": "Adherent_Address",
          "type": "address"
        },
        {
          "internalType": "uint256",
          "name": "Cycle_enCours",
          "type": "uint256"
        },
        {
          "internalType": "uint256",
          "name": "Iteration_enCours",
          "type": "uint256"
        },
        {
          "internalType": "uint256",
          "name": "Montant",
          "type": "uint256"
        },
        {
          "internalType": "uint256",
          "name": "Nbr_participants",
          "type": "uint256"
        }
      ],
      "name": "addTxDistribution",
      "outputs": [],
      "payable": false,
      "stateMutability": "nonpayable",
      "type": "function"
    },
    {
      "constant": true,
      "inputs": [
        {
          "internalType": "string",
          "name": "ID_Tontine",
          "type": "string"
        },
        {
          "internalType": "address",
          "name": "Address_Receiver",
          "type": "address"
        }
      ],
      "name": "getLastCumule",
      "outputs": [
        {
          "internalType": "uint256",
          "name": "",
          "type": "uint256"
        }
      ],
      "payable": false,
      "stateMutability": "view",
      "type": "function"
    },
    {
      "constant": true,
      "inputs": [
        {
          "internalType": "string",
          "name": "ID_Tontine",
          "type": "string"
        },
        {
          "internalType": "address",
          "name": "Adherent_Address",
          "type": "address"
        },
        {
          "internalType": "uint256",
          "name": "Cycle_enCours",
          "type": "uint256"
        },
        {
          "internalType": "uint256",
          "name": "Iteration_enCours",
          "type": "uint256"
        }
      ],
      "name": "getLastCotisation",
      "outputs": [
        {
          "internalType": "bool",
          "name": "",
          "type": "bool"
        }
      ],
      "payable": false,
      "stateMutability": "view",
      "type": "function"
    },
    {
      "constant": false,
      "inputs": [
        {
          "internalType": "string",
          "name": "ID_Tontine",
          "type": "string"
        },
        {
          "internalType": "bytes32",
          "name": "trHash",
          "type": "bytes32"
        },
        {
          "internalType": "address",
          "name": "Adherent_Address",
          "type": "address"
        }
      ],
      "name": "setTransactionHashGarantie",
      "outputs": [],
      "payable": false,
      "stateMutability": "nonpayable",
      "type": "function"
    },
    {
      "constant": false,
      "inputs": [
        {
          "internalType": "string",
          "name": "ID_Tontine",
          "type": "string"
        },
        {
          "internalType": "bytes32",
          "name": "trHash",
          "type": "bytes32"
        },
        {
          "internalType": "address",
          "name": "Adherent_Address",
          "type": "address"
        }
      ],
      "name": "setTransactionHashCotisation",
      "outputs": [],
      "payable": false,
      "stateMutability": "nonpayable",
      "type": "function"
    },
    {
      "constant": false,
      "inputs": [
        {
          "internalType": "string",
          "name": "ID_Tontine",
          "type": "string"
        },
        {
          "internalType": "bytes32",
          "name": "trHash",
          "type": "bytes32"
        },
        {
          "internalType": "address",
          "name": "Adherent_Address",
          "type": "address"
        }
      ],
      "name": "setTransactionHashDistribution",
      "outputs": [],
      "payable": false,
      "stateMutability": "nonpayable",
      "type": "function"
    },
    {
      "constant": true,
      "inputs": [
        {
          "internalType": "string",
          "name": "ID_Tontine",
          "type": "string"
        },
        {
          "internalType": "address",
          "name": "Address_Receiver",
          "type": "address"
        },
        {
          "internalType": "uint256",
          "name": "indice",
          "type": "uint256"
        }
      ],
      "name": "getGarantie",
      "outputs": [
        {
          "internalType": "uint256",
          "name": "",
          "type": "uint256"
        },
        {
          "internalType": "uint256",
          "name": "",
          "type": "uint256"
        },
        {
          "internalType": "uint256",
          "name": "",
          "type": "uint256"
        }
      ],
      "payable": false,
      "stateMutability": "view",
      "type": "function"
    },
    {
      "constant": true,
      "inputs": [
        {
          "internalType": "string",
          "name": "ID_Tontine",
          "type": "string"
        },
        {
          "internalType": "address",
          "name": "Address_Receiver",
          "type": "address"
        },
        {
          "internalType": "uint256",
          "name": "indice",
          "type": "uint256"
        }
      ],
      "name": "getCotisation",
      "outputs": [
        {
          "internalType": "uint256",
          "name": "",
          "type": "uint256"
        },
        {
          "internalType": "uint256",
          "name": "",
          "type": "uint256"
        },
        {
          "internalType": "uint256",
          "name": "",
          "type": "uint256"
        }
      ],
      "payable": false,
      "stateMutability": "view",
      "type": "function"
    },
    {
      "constant": true,
      "inputs": [
        {
          "internalType": "string",
          "name": "ID_Tontine",
          "type": "string"
        },
        {
          "internalType": "address",
          "name": "Address_Receiver",
          "type": "address"
        },
        {
          "internalType": "uint256",
          "name": "indice",
          "type": "uint256"
        }
      ],
      "name": "getDistribution",
      "outputs": [
        {
          "internalType": "uint256",
          "name": "",
          "type": "uint256"
        },
        {
          "internalType": "uint256",
          "name": "",
          "type": "uint256"
        },
        {
          "internalType": "uint256",
          "name": "",
          "type": "uint256"
        }
      ],
      "payable": false,
      "stateMutability": "view",
      "type": "function"
    },
    {
      "constant": true,
      "inputs": [
        {
          "internalType": "string",
          "name": "ID_Tontine",
          "type": "string"
        },
        {
          "internalType": "address",
          "name": "Address_Receiver",
          "type": "address"
        },
        {
          "internalType": "bool",
          "name": "Gar",
          "type": "bool"
        },
        {
          "internalType": "bool",
          "name": "Cot",
          "type": "bool"
        },
        {
          "internalType": "bool",
          "name": "Dis",
          "type": "bool"
        }
      ],
      "name": "getLastGarCotDist",
      "outputs": [
        {
          "internalType": "uint256",
          "name": "",
          "type": "uint256"
        },
        {
          "internalType": "uint256",
          "name": "",
          "type": "uint256"
        },
        {
          "internalType": "uint256",
          "name": "",
          "type": "uint256"
        },
        {
          "internalType": "uint256",
          "name": "",
          "type": "uint256"
        },
        {
          "internalType": "uint256",
          "name": "",
          "type": "uint256"
        },
        {
          "internalType": "uint256",
          "name": "",
          "type": "uint256"
        },
        {
          "internalType": "uint256",
          "name": "",
          "type": "uint256"
        }
      ],
      "payable": false,
      "stateMutability": "view",
      "type": "function"
    }
  ],
  "bytecode": "0x608060405260006003556000600455600060055534801561001f57600080fd5b5061582d80620000306000396000f3fe6080604052600436106101655760003560e01c80633b4b7655116100d15780639683c7b01161008a578063be4dd2b911610064578063be4dd2b91461058b578063c0dca6cc146105c8578063db59596814610607578063f705df5b1461063057610165565b80639683c7b0146104e75780639906269214610525578063a77df1a01461056257610165565b80633b4b7655146103c75780633ce356a9146103f05780634d4803b1146104195780637b9c5f83146104445780637d5450881461046d578063894436ef146104aa57610165565b806328b575141161012357806328b57514146102b35780632b01985c146102dc5780632db47e3e14610307578063326d2f021461033057806332d6a72e14610373578063367103861461039c57610165565b80620ae96e146101675780630bb0851c146101a65780630ce98442146101e357806317b655b21461020c57806319d48b351461024b5780631bbc4b8314610288575b005b34801561017357600080fd5b5061018e60048036036101899190810190614e06565b61066f565b60405161019d9392919061555e565b60405180910390f35b3480156101b257600080fd5b506101cd60048036036101c89190810190614e6d565b6108f2565b6040516101da9190615482565b60405180910390f35b3480156101ef57600080fd5b5061020a60048036036102059190810190614e06565b610bf5565b005b34801561021857600080fd5b50610233600480360361022e9190810190615149565b610eaa565b6040516102429392919061544b565b60405180910390f35b34801561025757600080fd5b50610272600480360361026d9190810190614d23565b610f24565b60405161027f919061551a565b60405180910390f35b34801561029457600080fd5b5061029d611121565b6040516102aa919061549d565b60405180910390f35b3480156102bf57600080fd5b506102da60048036036102d591908101906150e2565b611147565b005b3480156102e857600080fd5b506102f1611343565b6040516102fe919061551a565b60405180910390f35b34801561031357600080fd5b5061032e60048036036103299190810190614f77565b611349565b005b34801561033c57600080fd5b5061035760048036036103529190810190614d77565b611d31565b60405161036a9796959493929190615595565b60405180910390f35b34801561037f57600080fd5b5061039a600480360361039591908101906150e2565b6127a7565b005b3480156103a857600080fd5b506103b16129a3565b6040516103be919061551a565b60405180910390f35b3480156103d357600080fd5b506103ee60048036036103e99190810190614c97565b6129a9565b005b3480156103fc57600080fd5b5061041760048036036104129190810190615041565b612aa2565b005b34801561042557600080fd5b5061042e612f68565b60405161043b919061551a565b60405180910390f35b34801561045057600080fd5b5061046b60048036036104669190810190614ee8565b612f6e565b005b34801561047957600080fd5b50610494600480360361048f919081019061519d565b6137e0565b6040516104a191906153f9565b60405180910390f35b3480156104b657600080fd5b506104d160048036036104cc9190810190614d23565b613841565b6040516104de919061551a565b60405180910390f35b3480156104f357600080fd5b5061050e60048036036105099190810190614d23565b6138ac565b60405161051c929190615535565b60405180910390f35b34801561053157600080fd5b5061054c60048036036105479190810190614d23565b613985565b604051610559919061551a565b60405180910390f35b34801561056e57600080fd5b50610589600480360361058491908101906150e2565b6139f0565b005b34801561059757600080fd5b506105b260048036036105ad9190810190614d23565b613bec565b6040516105bf919061551a565b60405180910390f35b3480156105d457600080fd5b506105ef60048036036105ea9190810190614e06565b613c57565b6040516105fe9392919061555e565b60405180910390f35b34801561061357600080fd5b5061062e60048036036106299190810190614ee8565b613fc5565b005b34801561063c57600080fd5b5061065760048036036106529190810190614e06565b614478565b6040516106669392919061555e565b60405180910390f35b60008060008060008760405161068591906153cb565b908152602001604051809103902060008773ffffffffffffffffffffffffffffffffffffffff1673ffffffffffffffffffffffffffffffffffffffff16815260200190815260200160002060060180549050905060008114156106fc576000806000829250819150809050935093509350506108e9565b60008760405161070c91906153cb565b908152602001604051809103902060008773ffffffffffffffffffffffffffffffffffffffff1673ffffffffffffffffffffffffffffffffffffffff16815260200190815260200160002060050160008860405161076a91906153cb565b908152602001604051809103902060008873ffffffffffffffffffffffffffffffffffffffff1673ffffffffffffffffffffffffffffffffffffffff16815260200190815260200160002060060186815481106107c357fe5b906000526020600020016040516107da91906153e2565b9081526020016040518091039020600201546000886040516107fc91906153cb565b908152602001604051809103902060008873ffffffffffffffffffffffffffffffffffffffff1673ffffffffffffffffffffffffffffffffffffffff16815260200190815260200160002060050160008960405161085a91906153cb565b908152602001604051809103902060008973ffffffffffffffffffffffffffffffffffffffff1673ffffffffffffffffffffffffffffffffffffffff16815260200190815260200160002060060187815481106108b357fe5b906000526020600020016040516108ca91906153e2565b9081526020016040518091039020600301546000809050935093509350505b93509350939050565b600080600190506000808760405161090a91906153cb565b908152602001604051809103902060008773ffffffffffffffffffffffffffffffffffffffff1673ffffffffffffffffffffffffffffffffffffffff1681526020019081526020016000206006018054905014610be957606060008760405161097391906153cb565b908152602001604051809103902060008773ffffffffffffffffffffffffffffffffffffffff1673ffffffffffffffffffffffffffffffffffffffff16815260200190815260200160002060060160016000896040516109d391906153cb565b908152602001604051809103902060008973ffffffffffffffffffffffffffffffffffffffff1673ffffffffffffffffffffffffffffffffffffffff168152602001908152602001600020600601805490500381548110610a3057fe5b906000526020600020018054600181600116156101000203166002900480601f016020809104026020016040519081016040528092919081815260200182805460018160011615610100020316600290048015610ace5780601f10610aa357610100808354040283529160200191610ace565b820191906000526020600020905b815481529060010190602001808311610ab157829003601f168201915b5050505050905084600088604051610ae691906153cb565b908152602001604051809103902060008873ffffffffffffffffffffffffffffffffffffffff1673ffffffffffffffffffffffffffffffffffffffff16815260200190815260200160002060050182604051610b4291906153cb565b908152602001604051809103902060020154148015610bdd575083600088604051610b6d91906153cb565b908152602001604051809103902060008873ffffffffffffffffffffffffffffffffffffffff1673ffffffffffffffffffffffffffffffffffffffff16815260200190815260200160002060050182604051610bc991906153cb565b908152602001604051809103902060030154145b15610be757600091505b505b80915050949350505050565b600073ffffffffffffffffffffffffffffffffffffffff16600084604051610c1d91906153cb565b908152602001604051809103902060008473ffffffffffffffffffffffffffffffffffffffff1673ffffffffffffffffffffffffffffffffffffffff16815260200190815260200160002060000160009054906101000a900473ffffffffffffffffffffffffffffffffffffffff1673ffffffffffffffffffffffffffffffffffffffff1614610cac57600080fd5b81600084604051610cbd91906153cb565b908152602001604051809103902060008473ffffffffffffffffffffffffffffffffffffffff1673ffffffffffffffffffffffffffffffffffffffff16815260200190815260200160002060000160006101000a81548173ffffffffffffffffffffffffffffffffffffffff021916908373ffffffffffffffffffffffffffffffffffffffff16021790555080600084604051610d5a91906153cb565b908152602001604051809103902060008473ffffffffffffffffffffffffffffffffffffffff1673ffffffffffffffffffffffffffffffffffffffff168152602001908152602001600020600101819055506001600084604051610dbe91906153cb565b908152602001604051809103902060008473ffffffffffffffffffffffffffffffffffffffff1673ffffffffffffffffffffffffffffffffffffffff16815260200190815260200160002060020160006101000a81548160ff021916908315150217905550600183604051610e3391906153cb565b90815260200160405180910390208290806001815401808255809150509060018203906000526020600020016000909192909190916101000a81548173ffffffffffffffffffffffffffffffffffffffff021916908373ffffffffffffffffffffffffffffffffffffffff16021790555050505050565b600082805160208101820180518482526020830160208501208183528095505050505050602052806000526040600020600091509150508060000160009054906101000a900473ffffffffffffffffffffffffffffffffffffffff16908060010154908060020160009054906101000a900460ff16905083565b60006060600084604051610f3891906153cb565b908152602001604051809103902060008473ffffffffffffffffffffffffffffffffffffffff1673ffffffffffffffffffffffffffffffffffffffff1681526020019081526020016000206004016001600086604051610f9891906153cb565b908152602001604051809103902060008673ffffffffffffffffffffffffffffffffffffffff1673ffffffffffffffffffffffffffffffffffffffff168152602001908152602001600020600401805490500381548110610ff557fe5b906000526020600020018054600181600116156101000203166002900480601f0160208091040260200160405190810160405280929190818152602001828054600181600116156101000203166002900480156110935780601f1061106857610100808354040283529160200191611093565b820191906000526020600020905b81548152906001019060200180831161107657829003601f168201915b505050505090506000846040516110aa91906153cb565b908152602001604051809103902060008473ffffffffffffffffffffffffffffffffffffffff1673ffffffffffffffffffffffffffffffffffffffff1681526020019081526020016000206003018160405161110691906153cb565b90815260200160405180910390206007015491505092915050565b600660009054906101000a900473ffffffffffffffffffffffffffffffffffffffff1681565b606060008460405161115991906153cb565b908152602001604051809103902060008373ffffffffffffffffffffffffffffffffffffffff1673ffffffffffffffffffffffffffffffffffffffff16815260200190815260200160002060060160016000866040516111b991906153cb565b908152602001604051809103902060008573ffffffffffffffffffffffffffffffffffffffff1673ffffffffffffffffffffffffffffffffffffffff16815260200190815260200160002060060180549050038154811061121657fe5b906000526020600020018054600181600116156101000203166002900480601f0160208091040260200160405190810160405280929190818152602001828054600181600116156101000203166002900480156112b45780601f10611289576101008083540402835291602001916112b4565b820191906000526020600020905b81548152906001019060200180831161129757829003601f168201915b50505050509050826000856040516112cc91906153cb565b908152602001604051809103902060008473ffffffffffffffffffffffffffffffffffffffff1673ffffffffffffffffffffffffffffffffffffffff1681526020019081526020016000206005018260405161132891906153cb565b90815260200160405180910390206006018190555050505050565b60055481565b611355878486846129a9565b60008090506000808a60405161136b91906153cb565b908152602001604051809103902060008a73ffffffffffffffffffffffffffffffffffffffff1673ffffffffffffffffffffffffffffffffffffffff16815260200190815260200160002060040180549050146115b857606060008a6040516113d491906153cb565b908152602001604051809103902060008a73ffffffffffffffffffffffffffffffffffffffff1673ffffffffffffffffffffffffffffffffffffffff168152602001908152602001600020600401600160008c60405161143491906153cb565b908152602001604051809103902060008c73ffffffffffffffffffffffffffffffffffffffff1673ffffffffffffffffffffffffffffffffffffffff16815260200190815260200160002060040180549050038154811061149157fe5b906000526020600020018054600181600116156101000203166002900480601f01602080910402602001604051908101604052809291908181526020018280546001816001161561010002031660029004801561152f5780601f106115045761010080835404028352916020019161152f565b820191906000526020600020905b81548152906001019060200180831161151257829003601f168201915b5050505050905060008a60405161154691906153cb565b908152602001604051809103902060008a73ffffffffffffffffffffffffffffffffffffffff1673ffffffffffffffffffffffffffffffffffffffff168152602001908152602001600020600301816040516115a291906153cb565b9081526020016040518091039020600701549150505b60606116036040518060400160405280600381526020017f47415200000000000000000000000000000000000000000000000000000000008152506115fe6003546146fb565b614828565b90508060008b60405161161691906153cb565b908152602001604051809103902060008b73ffffffffffffffffffffffffffffffffffffffff1673ffffffffffffffffffffffffffffffffffffffff1681526020019081526020016000206003018260405161167291906153cb565b90815260200160405180910390206000019080519060200190611696929190614ae1565b508960008b6040516116a891906153cb565b908152602001604051809103902060008b73ffffffffffffffffffffffffffffffffffffffff1673ffffffffffffffffffffffffffffffffffffffff1681526020019081526020016000206003018260405161170491906153cb565b90815260200160405180910390206001019080519060200190611728929190614ae1565b504260008b60405161173a91906153cb565b908152602001604051809103902060008b73ffffffffffffffffffffffffffffffffffffffff1673ffffffffffffffffffffffffffffffffffffffff1681526020019081526020016000206003018260405161179691906153cb565b9081526020016040518091039020600301819055508760008b6040516117bc91906153cb565b908152602001604051809103902060008b73ffffffffffffffffffffffffffffffffffffffff1673ffffffffffffffffffffffffffffffffffffffff1681526020019081526020016000206003018260405161181891906153cb565b9081526020016040518091039020600201819055508660008b60405161183e91906153cb565b908152602001604051809103902060008b73ffffffffffffffffffffffffffffffffffffffff1673ffffffffffffffffffffffffffffffffffffffff1681526020019081526020016000206003018260405161189a91906153cb565b9081526020016040518091039020600401819055508560008b6040516118c091906153cb565b908152602001604051809103902060008b73ffffffffffffffffffffffffffffffffffffffff1673ffffffffffffffffffffffffffffffffffffffff1681526020019081526020016000206003018260405161191c91906153cb565b9081526020016040518091039020600501819055508315611a97576040518060400160405280600881526020017f526563686172676500000000000000000000000000000000000000000000000081525060008b60405161197d91906153cb565b908152602001604051809103902060008b73ffffffffffffffffffffffffffffffffffffffff1673ffffffffffffffffffffffffffffffffffffffff168152602001908152602001600020600301826040516119d991906153cb565b908152602001604051809103902060060190805190602001906119fd929190614ae1565b50611a11868361497790919063ffffffff16565b60008b604051611a2191906153cb565b908152602001604051809103902060008b73ffffffffffffffffffffffffffffffffffffffff1673ffffffffffffffffffffffffffffffffffffffff16815260200190815260200160002060030182604051611a7d91906153cb565b908152602001604051809103902060070181905550611bf3565b6040518060400160405280600781526020017f526574726169740000000000000000000000000000000000000000000000000081525060008b604051611add91906153cb565b908152602001604051809103902060008b73ffffffffffffffffffffffffffffffffffffffff1673ffffffffffffffffffffffffffffffffffffffff16815260200190815260200160002060030182604051611b3991906153cb565b90815260200160405180910390206006019080519060200190611b5d929190614ae1565b50611b7186836149cc90919063ffffffff16565b60008b604051611b8191906153cb565b908152602001604051809103902060008b73ffffffffffffffffffffffffffffffffffffffff1673ffffffffffffffffffffffffffffffffffffffff16815260200190815260200160002060030182604051611bdd91906153cb565b9081526020016040518091039020600701819055505b6000801b60008b604051611c0791906153cb565b908152602001604051809103902060008b73ffffffffffffffffffffffffffffffffffffffff1673ffffffffffffffffffffffffffffffffffffffff16815260200190815260200160002060030182604051611c6391906153cb565b90815260200160405180910390206008018190555060008a604051611c8891906153cb565b908152602001604051809103902060008a73ffffffffffffffffffffffffffffffffffffffff1673ffffffffffffffffffffffffffffffffffffffff168152602001908152602001600020600401819080600181540180825580915050906001820390600052602060002001600090919290919091509080519060200190611d11929190614ae1565b505060036000815480929190600101919050555050505050505050505050565b600080600080600080600060606007604051908082528060200260200182016040528015611d6e5781602001602082028038833980820191505090505b5090508a15612162576000808e604051611d8891906153cb565b908152602001604051809103902060008e73ffffffffffffffffffffffffffffffffffffffff1673ffffffffffffffffffffffffffffffffffffffff1681526020019081526020016000206004018054905090506000811415611e3b57600082600081518110611df457fe5b602002602001018181525050600082600181518110611e0f57fe5b602002602001018181525050600082600681518110611e2a57fe5b602002602001018181525050612160565b60008e604051611e4b91906153cb565b908152602001604051809103902060008e73ffffffffffffffffffffffffffffffffffffffff1673ffffffffffffffffffffffffffffffffffffffff16815260200190815260200160002060030160008f604051611ea991906153cb565b908152602001604051809103902060008f73ffffffffffffffffffffffffffffffffffffffff1673ffffffffffffffffffffffffffffffffffffffff1681526020019081526020016000206004016001830381548110611f0557fe5b90600052602060002001604051611f1c91906153e2565b90815260200160405180910390206003015482600081518110611f3b57fe5b60200260200101818152505060008e604051611f5791906153cb565b908152602001604051809103902060008e73ffffffffffffffffffffffffffffffffffffffff1673ffffffffffffffffffffffffffffffffffffffff16815260200190815260200160002060030160008f604051611fb591906153cb565b908152602001604051809103902060008f73ffffffffffffffffffffffffffffffffffffffff1673ffffffffffffffffffffffffffffffffffffffff168152602001908152602001600020600401600183038154811061201157fe5b9060005260206000200160405161202891906153e2565b9081526020016040518091039020600401548260018151811061204757fe5b60200260200101818152505060008e60405161206391906153cb565b908152602001604051809103902060008e73ffffffffffffffffffffffffffffffffffffffff1673ffffffffffffffffffffffffffffffffffffffff16815260200190815260200160002060030160008f6040516120c191906153cb565b908152602001604051809103902060008f73ffffffffffffffffffffffffffffffffffffffff1673ffffffffffffffffffffffffffffffffffffffff168152602001908152602001600020600401600183038154811061211d57fe5b9060005260206000200160405161213491906153e2565b9081526020016040518091039020600701548260068151811061215357fe5b6020026020010181815250505b505b891561242c576000808e60405161217991906153cb565b908152602001604051809103902060008e73ffffffffffffffffffffffffffffffffffffffff1673ffffffffffffffffffffffffffffffffffffffff1681526020019081526020016000206006018054905090506000811415612211576000826002815181106121e557fe5b60200260200101818152505060008260038151811061220057fe5b60200260200101818152505061242a565b60008e60405161222191906153cb565b908152602001604051809103902060008e73ffffffffffffffffffffffffffffffffffffffff1673ffffffffffffffffffffffffffffffffffffffff16815260200190815260200160002060050160008f60405161227f91906153cb565b908152602001604051809103902060008f73ffffffffffffffffffffffffffffffffffffffff1673ffffffffffffffffffffffffffffffffffffffff16815260200190815260200160002060060160018303815481106122db57fe5b906000526020600020016040516122f291906153e2565b9081526020016040518091039020600301548260028151811061231157fe5b60200260200101818152505060008e60405161232d91906153cb565b908152602001604051809103902060008e73ffffffffffffffffffffffffffffffffffffffff1673ffffffffffffffffffffffffffffffffffffffff16815260200190815260200160002060050160008f60405161238b91906153cb565b908152602001604051809103902060008f73ffffffffffffffffffffffffffffffffffffffff1673ffffffffffffffffffffffffffffffffffffffff16815260200190815260200160002060060160018303815481106123e757fe5b906000526020600020016040516123fe91906153e2565b9081526020016040518091039020600401548260038151811061241d57fe5b6020026020010181815250505b505b88156126f6576000808e60405161244391906153cb565b908152602001604051809103902060008e73ffffffffffffffffffffffffffffffffffffffff1673ffffffffffffffffffffffffffffffffffffffff16815260200190815260200160002060080180549050905060008114156124db576000826004815181106124af57fe5b6020026020010181815250506000826005815181106124ca57fe5b6020026020010181815250506126f4565b60008e6040516124eb91906153cb565b908152602001604051809103902060008e73ffffffffffffffffffffffffffffffffffffffff1673ffffffffffffffffffffffffffffffffffffffff16815260200190815260200160002060070160008f60405161254991906153cb565b908152602001604051809103902060008f73ffffffffffffffffffffffffffffffffffffffff1673ffffffffffffffffffffffffffffffffffffffff16815260200190815260200160002060080160018303815481106125a557fe5b906000526020600020016040516125bc91906153e2565b908152602001604051809103902060040154826004815181106125db57fe5b60200260200101818152505060008e6040516125f791906153cb565b908152602001604051809103902060008e73ffffffffffffffffffffffffffffffffffffffff1673ffffffffffffffffffffffffffffffffffffffff16815260200190815260200160002060070160008f60405161265591906153cb565b908152602001604051809103902060008f73ffffffffffffffffffffffffffffffffffffffff1673ffffffffffffffffffffffffffffffffffffffff16815260200190815260200160002060080160018303815481106126b157fe5b906000526020600020016040516126c891906153e2565b908152602001604051809103902060020154826005815181106126e757fe5b6020026020010181815250505b505b8060008151811061270357fe5b60200260200101518160018151811061271857fe5b60200260200101518260028151811061272d57fe5b60200260200101518360038151811061274257fe5b60200260200101518460048151811061275757fe5b60200260200101518560058151811061276c57fe5b60200260200101518660068151811061278157fe5b6020026020010151975097509750975097509750975050959b949a509550955095509550565b60606000846040516127b991906153cb565b908152602001604051809103902060008373ffffffffffffffffffffffffffffffffffffffff1673ffffffffffffffffffffffffffffffffffffffff168152602001908152602001600020600401600160008660405161281991906153cb565b908152602001604051809103902060008573ffffffffffffffffffffffffffffffffffffffff1673ffffffffffffffffffffffffffffffffffffffff16815260200190815260200160002060040180549050038154811061287657fe5b906000526020600020018054600181600116156101000203166002900480601f0160208091040260200160405190810160405280929190818152602001828054600181600116156101000203166002900480156129145780601f106128e957610100808354040283529160200191612914565b820191906000526020600020905b8154815290600101906020018083116128f757829003601f168201915b505050505090508260008560405161292c91906153cb565b908152602001604051809103902060008473ffffffffffffffffffffffffffffffffffffffff1673ffffffffffffffffffffffffffffffffffffffff1681526020019081526020016000206003018260405161298891906153cb565b90815260200160405180910390206008018190555050505050565b60035481565b80600660006101000a81548173ffffffffffffffffffffffffffffffffffffffff021916908373ffffffffffffffffffffffffffffffffffffffff160217905550600660009054906101000a900473ffffffffffffffffffffffffffffffffffffffff1673ffffffffffffffffffffffffffffffffffffffff1663fd3e6a0a8585856040518463ffffffff1660e01b8152600401612a4993929190615414565b602060405180830381600087803b158015612a6357600080fd5b505af1158015612a77573d6000803e3d6000fd5b505050506040513d601f19601f82011682018060405250612a9b9190810190614cfa565b5050505050565b6060612aed6040518060400160405280600381526020017f4449530000000000000000000000000000000000000000000000000000000000815250612ae86005546146fb565b614828565b905080600088604051612b0091906153cb565b908152602001604051809103902060008873ffffffffffffffffffffffffffffffffffffffff1673ffffffffffffffffffffffffffffffffffffffff16815260200190815260200160002060070182604051612b5c91906153cb565b90815260200160405180910390206000019080519060200190612b80929190614ae1565b5086600088604051612b9291906153cb565b908152602001604051809103902060008873ffffffffffffffffffffffffffffffffffffffff1673ffffffffffffffffffffffffffffffffffffffff16815260200190815260200160002060070182604051612bee91906153cb565b90815260200160405180910390206001019080519060200190612c12929190614ae1565b5084600088604051612c2491906153cb565b908152602001604051809103902060008873ffffffffffffffffffffffffffffffffffffffff1673ffffffffffffffffffffffffffffffffffffffff16815260200190815260200160002060070182604051612c8091906153cb565b90815260200160405180910390206003018190555083600088604051612ca691906153cb565b908152602001604051809103902060008873ffffffffffffffffffffffffffffffffffffffff1673ffffffffffffffffffffffffffffffffffffffff16815260200190815260200160002060070182604051612d0291906153cb565b90815260200160405180910390206004018190555042600088604051612d2891906153cb565b908152602001604051809103902060008873ffffffffffffffffffffffffffffffffffffffff1673ffffffffffffffffffffffffffffffffffffffff16815260200190815260200160002060070182604051612d8491906153cb565b908152602001604051809103902060020181905550612dac8284614a1690919063ffffffff16565b600088604051612dbc91906153cb565b908152602001604051809103902060008873ffffffffffffffffffffffffffffffffffffffff1673ffffffffffffffffffffffffffffffffffffffff16815260200190815260200160002060070182604051612e1891906153cb565b9081526020016040518091039020600501819055506000801b600088604051612e4191906153cb565b908152602001604051809103902060008873ffffffffffffffffffffffffffffffffffffffff1673ffffffffffffffffffffffffffffffffffffffff16815260200190815260200160002060070182604051612e9d91906153cb565b908152602001604051809103902060060181905550600087604051612ec291906153cb565b908152602001604051809103902060008773ffffffffffffffffffffffffffffffffffffffff1673ffffffffffffffffffffffffffffffffffffffff168152602001908152602001600020600801819080600181540180825580915050906001820390600052602060002001600090919290919091509080519060200190612f4b929190614ae1565b505060056000815480929190600101919050555050505050505050565b60045481565b600080905060008087604051612f8491906153cb565b908152602001604051809103902060008773ffffffffffffffffffffffffffffffffffffffff1673ffffffffffffffffffffffffffffffffffffffff16815260200190815260200160002060040180549050146131d1576060600087604051612fed91906153cb565b908152602001604051809103902060008773ffffffffffffffffffffffffffffffffffffffff1673ffffffffffffffffffffffffffffffffffffffff168152602001908152602001600020600401600160008960405161304d91906153cb565b908152602001604051809103902060008973ffffffffffffffffffffffffffffffffffffffff1673ffffffffffffffffffffffffffffffffffffffff1681526020019081526020016000206004018054905003815481106130aa57fe5b906000526020600020018054600181600116156101000203166002900480601f0160208091040260200160405190810160405280929190818152602001828054600181600116156101000203166002900480156131485780601f1061311d57610100808354040283529160200191613148565b820191906000526020600020905b81548152906001019060200180831161312b57829003601f168201915b5050505050905060008760405161315f91906153cb565b908152602001604051809103902060008773ffffffffffffffffffffffffffffffffffffffff1673ffffffffffffffffffffffffffffffffffffffff168152602001908152602001600020600301816040516131bb91906153cb565b9081526020016040518091039020600701549150505b606061321c6040518060400160405280600381526020017f47415200000000000000000000000000000000000000000000000000000000008152506132176003546146fb565b614828565b90508060008860405161322f91906153cb565b908152602001604051809103902060008873ffffffffffffffffffffffffffffffffffffffff1673ffffffffffffffffffffffffffffffffffffffff1681526020019081526020016000206003018260405161328b91906153cb565b908152602001604051809103902060000190805190602001906132af929190614ae1565b50866000886040516132c191906153cb565b908152602001604051809103902060008873ffffffffffffffffffffffffffffffffffffffff1673ffffffffffffffffffffffffffffffffffffffff1681526020019081526020016000206003018260405161331d91906153cb565b90815260200160405180910390206001019080519060200190613341929190614ae1565b504260008860405161335391906153cb565b908152602001604051809103902060008873ffffffffffffffffffffffffffffffffffffffff1673ffffffffffffffffffffffffffffffffffffffff168152602001908152602001600020600301826040516133af91906153cb565b908152602001604051809103902060030181905550846000886040516133d591906153cb565b908152602001604051809103902060008873ffffffffffffffffffffffffffffffffffffffff1673ffffffffffffffffffffffffffffffffffffffff1681526020019081526020016000206003018260405161343191906153cb565b9081526020016040518091039020600201819055508360008860405161345791906153cb565b908152602001604051809103902060008873ffffffffffffffffffffffffffffffffffffffff1673ffffffffffffffffffffffffffffffffffffffff168152602001908152602001600020600301826040516134b391906153cb565b908152602001604051809103902060040181905550826000886040516134d991906153cb565b908152602001604051809103902060008873ffffffffffffffffffffffffffffffffffffffff1673ffffffffffffffffffffffffffffffffffffffff1681526020019081526020016000206003018260405161353591906153cb565b9081526020016040518091039020600501819055506040518060400160405280600781526020017f526574726169740000000000000000000000000000000000000000000000000081525060008860405161359091906153cb565b908152602001604051809103902060008873ffffffffffffffffffffffffffffffffffffffff1673ffffffffffffffffffffffffffffffffffffffff168152602001908152602001600020600301826040516135ec91906153cb565b90815260200160405180910390206006019080519060200190613610929190614ae1565b5061362483836149cc90919063ffffffff16565b60008860405161363491906153cb565b908152602001604051809103902060008873ffffffffffffffffffffffffffffffffffffffff1673ffffffffffffffffffffffffffffffffffffffff1681526020019081526020016000206003018260405161369091906153cb565b9081526020016040518091039020600701819055506000801b6000886040516136b991906153cb565b908152602001604051809103902060008873ffffffffffffffffffffffffffffffffffffffff1673ffffffffffffffffffffffffffffffffffffffff1681526020019081526020016000206003018260405161371591906153cb565b90815260200160405180910390206008018190555060008760405161373a91906153cb565b908152602001604051809103902060008773ffffffffffffffffffffffffffffffffffffffff1673ffffffffffffffffffffffffffffffffffffffff1681526020019081526020016000206004018190806001815401808255809150509060018203906000526020600020016000909192909190915090805190602001906137c3929190614ae1565b505060036000815480929190600101919050555050505050505050565b600182805160208101820180518482526020830160208501208183528095505050505050818154811061380f57fe5b906000526020600020016000915091509054906101000a900473ffffffffffffffffffffffffffffffffffffffff1681565b6000808360405161385291906153cb565b908152602001604051809103902060008373ffffffffffffffffffffffffffffffffffffffff1673ffffffffffffffffffffffffffffffffffffffff16815260200190815260200160002060060180549050905092915050565b6000806000846040516138bf91906153cb565b908152602001604051809103902060008473ffffffffffffffffffffffffffffffffffffffff1673ffffffffffffffffffffffffffffffffffffffff1681526020019081526020016000206001015460008560405161391e91906153cb565b908152602001604051809103902060008573ffffffffffffffffffffffffffffffffffffffff1673ffffffffffffffffffffffffffffffffffffffff16815260200190815260200160002060020160009054906101000a900460ff16915091509250929050565b6000808360405161399691906153cb565b908152602001604051809103902060008373ffffffffffffffffffffffffffffffffffffffff1673ffffffffffffffffffffffffffffffffffffffff16815260200190815260200160002060080180549050905092915050565b6060600084604051613a0291906153cb565b908152602001604051809103902060008373ffffffffffffffffffffffffffffffffffffffff1673ffffffffffffffffffffffffffffffffffffffff1681526020019081526020016000206008016001600086604051613a6291906153cb565b908152602001604051809103902060008573ffffffffffffffffffffffffffffffffffffffff1673ffffffffffffffffffffffffffffffffffffffff168152602001908152602001600020600801805490500381548110613abf57fe5b906000526020600020018054600181600116156101000203166002900480601f016020809104026020016040519081016040528092919081815260200182805460018160011615610100020316600290048015613b5d5780601f10613b3257610100808354040283529160200191613b5d565b820191906000526020600020905b815481529060010190602001808311613b4057829003601f168201915b5050505050905082600085604051613b7591906153cb565b908152602001604051809103902060008473ffffffffffffffffffffffffffffffffffffffff1673ffffffffffffffffffffffffffffffffffffffff16815260200190815260200160002060070182604051613bd191906153cb565b90815260200160405180910390206006018190555050505050565b60008083604051613bfd91906153cb565b908152602001604051809103902060008373ffffffffffffffffffffffffffffffffffffffff1673ffffffffffffffffffffffffffffffffffffffff16815260200190815260200160002060040180549050905092915050565b600080600080600087604051613c6d91906153cb565b908152602001604051809103902060008773ffffffffffffffffffffffffffffffffffffffff1673ffffffffffffffffffffffffffffffffffffffff1681526020019081526020016000206004018054905090506000811415613ce457600080600082925081915080905093509350935050613fbc565b600087604051613cf491906153cb565b908152602001604051809103902060008773ffffffffffffffffffffffffffffffffffffffff1673ffffffffffffffffffffffffffffffffffffffff168152602001908152602001600020600301600088604051613d5291906153cb565b908152602001604051809103902060008873ffffffffffffffffffffffffffffffffffffffff1673ffffffffffffffffffffffffffffffffffffffff1681526020019081526020016000206004018681548110613dab57fe5b90600052602060002001604051613dc291906153e2565b908152602001604051809103902060020154600088604051613de491906153cb565b908152602001604051809103902060008873ffffffffffffffffffffffffffffffffffffffff1673ffffffffffffffffffffffffffffffffffffffff168152602001908152602001600020600301600089604051613e4291906153cb565b908152602001604051809103902060008973ffffffffffffffffffffffffffffffffffffffff1673ffffffffffffffffffffffffffffffffffffffff1681526020019081526020016000206004018781548110613e9b57fe5b90600052602060002001604051613eb291906153e2565b908152602001604051809103902060040154600089604051613ed491906153cb565b908152602001604051809103902060008973ffffffffffffffffffffffffffffffffffffffff1673ffffffffffffffffffffffffffffffffffffffff16815260200190815260200160002060030160008a604051613f3291906153cb565b908152602001604051809103902060008a73ffffffffffffffffffffffffffffffffffffffff1673ffffffffffffffffffffffffffffffffffffffff1681526020019081526020016000206004018881548110613f8b57fe5b90600052602060002001604051613fa291906153e2565b908152602001604051809103902060070154935093509350505b93509350939050565b60606140106040518060400160405280600381526020017f434f54000000000000000000000000000000000000000000000000000000000081525061400b6004546146fb565b614828565b90508060008760405161402391906153cb565b908152602001604051809103902060008773ffffffffffffffffffffffffffffffffffffffff1673ffffffffffffffffffffffffffffffffffffffff1681526020019081526020016000206005018260405161407f91906153cb565b908152602001604051809103902060000190805190602001906140a3929190614ae1565b50856000876040516140b591906153cb565b908152602001604051809103902060008773ffffffffffffffffffffffffffffffffffffffff1673ffffffffffffffffffffffffffffffffffffffff1681526020019081526020016000206005018260405161411191906153cb565b90815260200160405180910390206001019080519060200190614135929190614ae1565b504260008760405161414791906153cb565b908152602001604051809103902060008773ffffffffffffffffffffffffffffffffffffffff1673ffffffffffffffffffffffffffffffffffffffff168152602001908152602001600020600501826040516141a391906153cb565b908152602001604051809103902060040181905550836000876040516141c991906153cb565b908152602001604051809103902060008773ffffffffffffffffffffffffffffffffffffffff1673ffffffffffffffffffffffffffffffffffffffff1681526020019081526020016000206005018260405161422591906153cb565b9081526020016040518091039020600201819055508260008760405161424b91906153cb565b908152602001604051809103902060008773ffffffffffffffffffffffffffffffffffffffff1673ffffffffffffffffffffffffffffffffffffffff168152602001908152602001600020600501826040516142a791906153cb565b908152602001604051809103902060030181905550816000876040516142cd91906153cb565b908152602001604051809103902060008773ffffffffffffffffffffffffffffffffffffffff1673ffffffffffffffffffffffffffffffffffffffff1681526020019081526020016000206005018260405161432991906153cb565b9081526020016040518091039020600501819055506000801b60008760405161435291906153cb565b908152602001604051809103902060008773ffffffffffffffffffffffffffffffffffffffff1673ffffffffffffffffffffffffffffffffffffffff168152602001908152602001600020600501826040516143ae91906153cb565b9081526020016040518091039020600601819055506000866040516143d391906153cb565b908152602001604051809103902060008673ffffffffffffffffffffffffffffffffffffffff1673ffffffffffffffffffffffffffffffffffffffff16815260200190815260200160002060060181908060018154018082558091505090600182039060005260206000200160009091929091909150908051906020019061445c929190614ae1565b5050600460008154809291906001019190505550505050505050565b60008060008060008760405161448e91906153cb565b908152602001604051809103902060008773ffffffffffffffffffffffffffffffffffffffff1673ffffffffffffffffffffffffffffffffffffffff1681526020019081526020016000206008018054905090506000811415614505576000806000829250819150809050935093509350506146f2565b60008760405161451591906153cb565b908152602001604051809103902060008773ffffffffffffffffffffffffffffffffffffffff1673ffffffffffffffffffffffffffffffffffffffff16815260200190815260200160002060070160008860405161457391906153cb565b908152602001604051809103902060008873ffffffffffffffffffffffffffffffffffffffff1673ffffffffffffffffffffffffffffffffffffffff16815260200190815260200160002060080186815481106145cc57fe5b906000526020600020016040516145e391906153e2565b90815260200160405180910390206003015460008860405161460591906153cb565b908152602001604051809103902060008873ffffffffffffffffffffffffffffffffffffffff1673ffffffffffffffffffffffffffffffffffffffff16815260200190815260200160002060070160008960405161466391906153cb565b908152602001604051809103902060008973ffffffffffffffffffffffffffffffffffffffff1673ffffffffffffffffffffffffffffffffffffffff16815260200190815260200160002060080187815481106146bc57fe5b906000526020600020016040516146d391906153e2565b9081526020016040518091039020600401546000809050935093509350505b93509350939050565b60606000821415614743576040518060400160405280600181526020017f30000000000000000000000000000000000000000000000000000000000000008152509050614823565b600082905060005b6000821461476d578080600101915050600a828161476557fe5b04915061474b565b6060816040519080825280601f01601f1916602001820160405280156147a25781602001600182028038833980820191505090505b50905060006001830390505b6000861461481b57600a86816147c057fe5b0660300160f81b828280600190039350815181106147da57fe5b60200101907effffffffffffffffffffffffffffffffffffffffffffffffffffffffffffff1916908160001a905350600a868161481357fe5b0495506147ae565b819450505050505b919050565b6060808390506060839050600081511161483e57fe5b606081518351016040519080825280601f01601f1916602001820160405280156148775781602001600182028038833980820191505090505b5090506060819050600080600091505b85518210156148f55785828151811061489c57fe5b602001015160f81c60f81b8382806001019350815181106148b957fe5b60200101907effffffffffffffffffffffffffffffffffffffffffffffffffffffffffffff1916908160001a9053508180600101925050614887565b600091505b84518210156149685784828151811061490f57fe5b602001015160f81c60f81b83828060010193508151811061492c57fe5b60200101907effffffffffffffffffffffffffffffffffffffffffffffffffffffffffffff1916908160001a90535081806001019250506148fa565b82965050505050505092915050565b6000808284019050838110156149c2576040517f08c379a00000000000000000000000000000000000000000000000000000000081526004016149b9906154da565b60405180910390fd5b8091505092915050565b6000614a0e83836040518060400160405280601e81526020017f536166654d6174683a207375627472616374696f6e206f766572666c6f770000815250614a86565b905092915050565b600080831415614a295760009050614a80565b6000828402905082848281614a3a57fe5b0414614a7b576040517f08c379a0000000000000000000000000000000000000000000000000000000008152600401614a72906154fa565b60405180910390fd5b809150505b92915050565b6000838311158290614ace576040517f08c379a0000000000000000000000000000000000000000000000000000000008152600401614ac591906154b8565b60405180910390fd5b5060008385039050809150509392505050565b828054600181600116156101000203166002900490600052602060002090601f016020900481019282601f10614b2257805160ff1916838001178555614b50565b82800160010185558215614b50579182015b82811115614b4f578251825591602001919060010190614b34565b5b509050614b5d9190614b61565b5090565b614b8391905b80821115614b7f576000816000905550600101614b67565b5090565b90565b600081359050614b958161578e565b92915050565b600081359050614baa816157a5565b92915050565b600081519050614bbf816157a5565b92915050565b600081359050614bd4816157bc565b92915050565b600082601f830112614beb57600080fd5b8135614bfe614bf982615631565b615604565b91508082526020830160208301858383011115614c1a57600080fd5b614c2583828461573b565b50505092915050565b600082601f830112614c3f57600080fd5b8135614c52614c4d8261565d565b615604565b91508082526020830160208301858383011115614c6e57600080fd5b614c7983828461573b565b50505092915050565b600081359050614c91816157d3565b92915050565b60008060008060808587031215614cad57600080fd5b6000614cbb87828801614b86565b9450506020614ccc87828801614b86565b9350506040614cdd87828801614c82565b9250506060614cee87828801614b86565b91505092959194509250565b600060208284031215614d0c57600080fd5b6000614d1a84828501614bb0565b91505092915050565b60008060408385031215614d3657600080fd5b600083013567ffffffffffffffff811115614d5057600080fd5b614d5c85828601614c2e565b9250506020614d6d85828601614b86565b9150509250929050565b600080600080600060a08688031215614d8f57600080fd5b600086013567ffffffffffffffff811115614da957600080fd5b614db588828901614c2e565b9550506020614dc688828901614b86565b9450506040614dd788828901614b9b565b9350506060614de888828901614b9b565b9250506080614df988828901614b9b565b9150509295509295909350565b600080600060608486031215614e1b57600080fd5b600084013567ffffffffffffffff811115614e3557600080fd5b614e4186828701614c2e565b9350506020614e5286828701614b86565b9250506040614e6386828701614c82565b9150509250925092565b60008060008060808587031215614e8357600080fd5b600085013567ffffffffffffffff811115614e9d57600080fd5b614ea987828801614c2e565b9450506020614eba87828801614b86565b9350506040614ecb87828801614c82565b9250506060614edc87828801614c82565b91505092959194509250565b600080600080600060a08688031215614f0057600080fd5b600086013567ffffffffffffffff811115614f1a57600080fd5b614f2688828901614c2e565b9550506020614f3788828901614b86565b9450506040614f4888828901614c82565b9350506060614f5988828901614c82565b9250506080614f6a88828901614c82565b9150509295509295909350565b600080600080600080600080610100898b031215614f9457600080fd5b600089013567ffffffffffffffff811115614fae57600080fd5b614fba8b828c01614c2e565b9850506020614fcb8b828c01614b86565b9750506040614fdc8b828c01614c82565b9650506060614fed8b828c01614c82565b9550506080614ffe8b828c01614c82565b94505060a061500f8b828c01614b86565b93505060c06150208b828c01614b9b565b92505060e06150318b828c01614b86565b9150509295985092959890939650565b60008060008060008060c0878903121561505a57600080fd5b600087013567ffffffffffffffff81111561507457600080fd5b61508089828a01614c2e565b965050602061509189828a01614b86565b95505060406150a289828a01614c82565b94505060606150b389828a01614c82565b93505060806150c489828a01614c82565b92505060a06150d589828a01614c82565b9150509295509295509295565b6000806000606084860312156150f757600080fd5b600084013567ffffffffffffffff81111561511157600080fd5b61511d86828701614c2e565b935050602061512e86828701614bc5565b925050604061513f86828701614b86565b9150509250925092565b6000806040838503121561515c57600080fd5b600083013567ffffffffffffffff81111561517657600080fd5b61518285828601614bda565b925050602061519385828601614b86565b9150509250929050565b600080604083850312156151b057600080fd5b600083013567ffffffffffffffff8111156151ca57600080fd5b6151d685828601614bda565b92505060206151e785828601614c82565b9150509250929050565b6151fa816156c5565b82525050565b615209816156d7565b82525050565b61521881615717565b82525050565b60006152298261569e565b61523381856156a9565b935061524381856020860161574a565b61524c8161577d565b840191505092915050565b60006152628261569e565b61526c81856156ba565b935061527c81856020860161574a565b80840191505092915050565b6000815460018116600081146152a557600181146152ca5761530e565b607f60028304166152b681876156ba565b955060ff198316865280860193505061530e565b600282046152d881876156ba565b95506152e385615689565b60005b82811015615305578154818901526001820191506020810190506152e6565b82880195505050505b505092915050565b6000615323601b836156a9565b91507f536166654d6174683a206164646974696f6e206f766572666c6f7700000000006000830152602082019050919050565b60006153636021836156a9565b91507f536166654d6174683a206d756c7469706c69636174696f6e206f766572666c6f60008301527f77000000000000000000000000000000000000000000000000000000000000006020830152604082019050919050565b6153c58161570d565b82525050565b60006153d78284615257565b915081905092915050565b60006153ee8284615288565b915081905092915050565b600060208201905061540e60008301846151f1565b92915050565b600060608201905061542960008301866151f1565b61543660208301856151f1565b61544360408301846153bc565b949350505050565b600060608201905061546060008301866151f1565b61546d60208301856153bc565b61547a6040830184615200565b949350505050565b60006020820190506154976000830184615200565b92915050565b60006020820190506154b2600083018461520f565b92915050565b600060208201905081810360008301526154d2818461521e565b905092915050565b600060208201905081810360008301526154f381615316565b9050919050565b6000602082019050818103600083015261551381615356565b9050919050565b600060208201905061552f60008301846153bc565b92915050565b600060408201905061554a60008301856153bc565b6155576020830184615200565b9392505050565b600060608201905061557360008301866153bc565b61558060208301856153bc565b61558d60408301846153bc565b949350505050565b600060e0820190506155aa600083018a6153bc565b6155b760208301896153bc565b6155c460408301886153bc565b6155d160608301876153bc565b6155de60808301866153bc565b6155eb60a08301856153bc565b6155f860c08301846153bc565b98975050505050505050565b6000604051905081810181811067ffffffffffffffff8211171561562757600080fd5b8060405250919050565b600067ffffffffffffffff82111561564857600080fd5b601f19601f8301169050602081019050919050565b600067ffffffffffffffff82111561567457600080fd5b601f19601f8301169050602081019050919050565b60008190508160005260206000209050919050565b600081519050919050565b600082825260208201905092915050565b600081905092915050565b60006156d0826156ed565b9050919050565b60008115159050919050565b6000819050919050565b600073ffffffffffffffffffffffffffffffffffffffff82169050919050565b6000819050919050565b600061572282615729565b9050919050565b6000615734826156ed565b9050919050565b82818337600083830152505050565b60005b8381101561576857808201518184015260208101905061574d565b83811115615777576000848401525b50505050565b6000601f19601f8301169050919050565b615797816156c5565b81146157a257600080fd5b50565b6157ae816156d7565b81146157b957600080fd5b50565b6157c5816156e3565b81146157d057600080fd5b50565b6157dc8161570d565b81146157e757600080fd5b5056fea365627a7a7231582006248876d0350ef64d376ca317ec52a3eb49e5f91f19fc7fed789d2aae73b2616c6578706572696d656e74616cf564736f6c634300050b0040",
  "source": "pragma solidity 0.5.11;\n\npragma experimental ABIEncoderV2;\n\nlibrary SafeMath {\n    function add(uint256 a, uint256 b) internal pure returns (uint256) {\n        uint256 c = a + b;\n\n        require(c >= a, \"SafeMath: addition overflow\");\n\n        return c;\n\n    }\n\n    function sub(uint256 a, uint256 b) internal pure returns (uint256) {\n        return sub(a, b, \"SafeMath: subtraction overflow\");\n\n    }\n\n    function sub(uint256 a, uint256 b, string memory errorMessage)\n        internal\n        pure\n        returns (uint256)\n    {\n        require(b <= a, errorMessage);\n\n        uint256 c = a - b;\n\n        return c;\n\n    }\n\n    function mul(uint256 a, uint256 b) internal pure returns (uint256) {\n        // Gas optimization: this is cheaper than requiring 'a' not being zero, but the\n\n        // benefit is lost if 'b' is also tested.\n\n        // See: https://github.com/OpenZeppelin/openzeppelin-contracts/pull/522\n\n        if (a == 0) {\n            return 0;\n\n        }\n\n        uint256 c = a * b;\n\n        require(c / a == b, \"SafeMath: multiplication overflow\");\n\n        return c;\n\n    }\n\n\n}\n\n/**\n\n * @title ERC20Basic\n\n * @dev Simpler version of ERC20 interface\n\n * @dev see https://github.com/ethereum/EIPs/issues/179\n\n * \n\n * \n\n */\n\ncontract ERC20Basic {\n    function totalSupply() public view returns (uint256);\n\n    function balanceOf(address who) public view returns (uint256);\n\n    function transfer(address to, uint256 value) public returns (bool);\n\n    event Transfer(address indexed from, address indexed to, uint256 value);\n\n}\n\n/**\n\n * @title ERC20 interface\n\n * @dev see https://github.com/ethereum/EIPs/issues/20\n\n */\n\ncontract ERC20 is ERC20Basic {\n    function allowance(address owner, address spender)\n        public\n        view\n        returns (uint256);\n\n    function transferFrom(address from, address to, uint256 value)\n        public\n        returns (bool);\n\n    function approve(address spender, uint256 value) public returns (bool);\n\n    function transfers(address from_, address _to, uint256 _value)\n        public\n        returns (bool);\n\n    event Approval(\n        address indexed owner,\n        address indexed spender,\n        uint256 value\n    );\n\n}\n\ncontract participant_contract {\n    \n     using SafeMath for uint256;\n    \n        struct participants {\n        address Adherent_Address;\n        uint256 Ordre;\n        bool Inscrit;\n         mapping (string => TxGarantie) ListeGaranties;\n        string [] NbrGaranties;\n        mapping (string => TxCotisation) ListeCotisations;\n        string [] NbrCotisations;\n        mapping (string => TxDistribution) ListeDistributions;\n        string [] NbrDistributions;\n    }\n    \n    mapping  (  string =>   mapping(address => participants)) public Liste;\n       mapping(string => address[]) public participantsAddress;\n        string[] IDTontines;\n    \n     struct TxGarantie {\n        string ID_Garantie;\n        string ID_Tontine;\n        uint256 ID_Cycle;\n        uint256 date_garantie;\n        uint256 ID_Iteration;\n        uint256 Montant;\n        string Type_Transaction;\n        uint256 Cumule;\n        bytes32 Hash_Transaction;\n    }\n\n    uint256 public numGarantie = 0;\n\n\n    struct TxCotisation {\n        string ID_Cotisation;\n        string ID_Tontine;\n        uint256 ID_Cycle;\n        uint256 ID_Iteration;\n        uint256 date_cotisation;\n        uint256 Montant;\n        bytes32 Hash_Transaction;\n    }\n\n    uint256 public numCotisation = 0;\n\n\n    struct TxDistribution {\n        string ID_Distribution;\n        string ID_Tontine;\n        uint256 date_distribution;\n        uint256 ID_Cycle;\n        uint256 ID_Iteration;\n        uint256 Montant;\n        bytes32 Hash_Transaction;\n    }\n\n    uint256 public numDistribution = 0;\n    \n    \n    \n    function concat(string memory _base, string memory _value)\n        internal\n        pure\n        returns (string memory) {\n        bytes memory _baseBytes = bytes(_base);\n        bytes memory _valueBytes = bytes(_value);\n\n \n\n        assert(_valueBytes.length > 0);\n\n \n\n        string memory _tmpValue = new string(_baseBytes.length +\n            _valueBytes.length);\n        bytes memory _newValue = bytes(_tmpValue);\n\n \n\n        uint i;\n        uint j;\n\n \n\n        for (i = 0; i < _baseBytes.length; i++) {\n            _newValue[j++] = _baseBytes[i];\n        }\n\n \n\n        for (i = 0; i < _valueBytes.length; i++) {\n            _newValue[j++] = _valueBytes[i];\n        }\n\n \n\n        return string(_newValue);\n    }\n    function uint2str(uint i) internal pure returns (string memory){\n    if (i == 0) return \"0\";\n    uint j = i;\n    uint length;\n    while (j != 0){\n        length++;\n        j /= 10;\n    }\n    bytes memory bstr = new bytes(length);\n    uint k = length - 1;\n    while (i != 0){\n        bstr[k--] = byte(uint8(48 + i % 10)); \n        i /= 10;\n    }\n    return string(bstr);\n}\n\n /**\n\n    * @dev list of all supported tokens for transfer * @param string token symbol * @param address contract address of token */\n\n\n    constructor() public {\n        //   require (owner == msg.sender);\n    }\n\n    function() external payable {}\n\n    \n        ERC20 public ERC20Interface;\n\n    function transaction(\n        address Address_Sender,\n        address Address_Receiver,\n        uint256 Montant,\n        address contract_\n    ) public {\n\n        ERC20Interface = ERC20(contract_);\n        ERC20Interface.transfers(Address_Sender, Address_Receiver, Montant);\n\n    }\n    \n     function addUser(\n        string memory ID_Tontine,\n        address Adherent_Address,\n        uint256 Ordre\n    ) public {\n       \n        require(\n            Liste[ID_Tontine][Adherent_Address]\n                .Adherent_Address ==\n                address(0)\n        );\n\n\n       Liste[ID_Tontine][Adherent_Address]\n            .Adherent_Address = Adherent_Address;\n\n        Liste[ID_Tontine][Adherent_Address]\n            .Ordre = Ordre;\n\n        Liste[ID_Tontine][Adherent_Address]\n            .Inscrit = true;\n\n  participantsAddress[ID_Tontine].push(Adherent_Address);\n\n    }\n    \n    \n    function get(string memory ID_Tontine ,address addPart) public view returns(uint256, bool) {\n        return(Liste[ID_Tontine][addPart].Ordre, Liste[ID_Tontine][addPart].Inscrit);\n    }\n    \n    function addTxGarantie(\n    string memory ID_Tontine,\n        address Adherent_Address,\n        uint256 Cycle_enCours,\n        uint256 Iteration_enCours,\n        uint256 Montant,\n        address addTontine,\n        bool Type,\n        address contract_\n    ) public {\n        transaction(\n            Adherent_Address,\n            addTontine,\n            Montant,\n            contract_ \n            \n        );\n\n        // to get the latest cumule\n\n       uint256 cumule =0;\n        \n         \n        if (Liste[ID_Tontine][Adherent_Address].NbrGaranties.length != 0) { \n        string memory lastGarantie = Liste[ID_Tontine][Adherent_Address].NbrGaranties[Liste[ID_Tontine][Adherent_Address].NbrGaranties.length-1];\n       \n       cumule = Liste[ID_Tontine][Adherent_Address].ListeGaranties[lastGarantie].Cumule;\n        } \n          \n        \n      \n        string memory ID_Garantie =  concat(\"GAR\",uint2str(numGarantie)) ;\n    \n       Liste[ID_Tontine][Adherent_Address].ListeGaranties[ID_Garantie].ID_Garantie = ID_Garantie;\n\n        Liste[ID_Tontine][Adherent_Address].ListeGaranties[ID_Garantie].ID_Tontine = ID_Tontine;\n\n       Liste[ID_Tontine][Adherent_Address].ListeGaranties[ID_Garantie].date_garantie = now;\n\n       Liste[ID_Tontine][Adherent_Address].ListeGaranties[ID_Garantie].ID_Cycle = Cycle_enCours;\n\n        Liste[ID_Tontine][Adherent_Address].ListeGaranties[ID_Garantie].ID_Iteration = Iteration_enCours;\n\n       Liste[ID_Tontine][Adherent_Address].ListeGaranties[ID_Garantie].Montant = Montant;\n\n        if (Type) {\n          Liste[ID_Tontine][Adherent_Address].ListeGaranties[ID_Garantie].Type_Transaction = \"Recharge\";\n\n           Liste[ID_Tontine][Adherent_Address].ListeGaranties[ID_Garantie].Cumule = cumule.add(Montant);\n\n        } else {\n           Liste[ID_Tontine][Adherent_Address].ListeGaranties[ID_Garantie].Type_Transaction = \"Retrait\";\n\n            Liste[ID_Tontine][Adherent_Address].ListeGaranties[ID_Garantie].Cumule = cumule.sub(Montant);\n\n        }\n\n       Liste[ID_Tontine][Adherent_Address].ListeGaranties[ID_Garantie].Hash_Transaction = 0x0;\n        \n     Liste[ID_Tontine][Adherent_Address].NbrGaranties.push(ID_Garantie);\n\n        \n         numGarantie++;\n\n    }\n    \n    \n \n    \n    function getGarNbr(string memory ID_Tontine,address  Adherent_Address) public view returns (uint256) {\n        return (Liste[ID_Tontine][Adherent_Address].NbrGaranties.length);\n        \n    }\n    \n     function getCotNbr(string memory ID_Tontine,address  Adherent_Address) public view returns (uint256) {\n        return (Liste[ID_Tontine][Adherent_Address].NbrCotisations.length);\n        \n    }\n    \n     function getDisNbr(string memory ID_Tontine,address  Adherent_Address) public view returns (uint256) {\n        return (Liste[ID_Tontine][Adherent_Address].NbrDistributions.length);\n        \n    }\n    \n   \n    \n     function verifgarantie(\n    string memory ID_Tontine,\n        address Adherent_Address,\n        uint256 Cycle_enCours,\n        uint256 Iteration_enCours,\n        uint256 Montant\n    ) public {\n       \n\n       uint256 cumule =0;\n        \n         \n        if (Liste[ID_Tontine][Adherent_Address].NbrGaranties.length != 0) { \n        string memory lastGarantie = Liste[ID_Tontine][Adherent_Address].NbrGaranties[Liste[ID_Tontine][Adherent_Address].NbrGaranties.length-1];\n       \n       cumule = Liste[ID_Tontine][Adherent_Address].ListeGaranties[lastGarantie].Cumule;\n        } \n          \n        \n      \n        string memory ID_Garantie =  concat(\"GAR\",uint2str(numGarantie)) ;\n    \n       Liste[ID_Tontine][Adherent_Address].ListeGaranties[ID_Garantie].ID_Garantie = ID_Garantie;\n\n        Liste[ID_Tontine][Adherent_Address].ListeGaranties[ID_Garantie].ID_Tontine = ID_Tontine;\n\n       Liste[ID_Tontine][Adherent_Address].ListeGaranties[ID_Garantie].date_garantie = now;\n\n       Liste[ID_Tontine][Adherent_Address].ListeGaranties[ID_Garantie].ID_Cycle = Cycle_enCours;\n\n        Liste[ID_Tontine][Adherent_Address].ListeGaranties[ID_Garantie].ID_Iteration = Iteration_enCours;\n\n       Liste[ID_Tontine][Adherent_Address].ListeGaranties[ID_Garantie].Montant = Montant;\n\n       \n       Liste[ID_Tontine][Adherent_Address].ListeGaranties[ID_Garantie].Type_Transaction = \"Retrait\";\n\n       Liste[ID_Tontine][Adherent_Address].ListeGaranties[ID_Garantie].Cumule = cumule.sub(Montant);\n\n        \n\n       Liste[ID_Tontine][Adherent_Address].ListeGaranties[ID_Garantie].Hash_Transaction = 0x0;\n        \n     Liste[ID_Tontine][Adherent_Address].NbrGaranties.push(ID_Garantie);\n\n        \n         numGarantie++;\n\n    }\n \n    \n    \n    function addTxCotisation(string memory ID_Tontine, address Adherent_Address, uint256 Cycle_enCours, uint256 Iteration_enCours, uint256 Montant)\n        public {\n        \n         string memory ID_Cotisation =  concat(\"COT\",uint2str(numCotisation)) ;\n      // string memory ID_Cotisation= 'rr';\n     \n         Liste[ID_Tontine][Adherent_Address].ListeCotisations[ID_Cotisation].ID_Cotisation = ID_Cotisation;\n\n        Liste[ID_Tontine][Adherent_Address].ListeCotisations[ID_Cotisation].ID_Tontine = ID_Tontine;\n\n        Liste[ID_Tontine][Adherent_Address].ListeCotisations[ID_Cotisation].date_cotisation = now;\n\n        Liste[ID_Tontine][Adherent_Address].ListeCotisations[ID_Cotisation].ID_Cycle = Cycle_enCours;\n\n       Liste[ID_Tontine][Adherent_Address].ListeCotisations[ID_Cotisation].ID_Iteration = Iteration_enCours;\n\n        Liste[ID_Tontine][Adherent_Address].ListeCotisations[ID_Cotisation].Montant = Montant;\n\n        Liste[ID_Tontine][Adherent_Address].ListeCotisations[ID_Cotisation].Hash_Transaction = 0x0;\n\n        Liste[ID_Tontine][Adherent_Address].NbrCotisations.push(ID_Cotisation);\n        \n         numCotisation++;\n\n    }\n\n\n    function addTxDistribution(\n        string memory ID_Tontine,\n        address Adherent_Address, uint256 Cycle_enCours, uint256 Iteration_enCours, uint256 Montant, uint256 Nbr_participants) public {\n       \n\n        string memory ID_Distribution =  concat(\"DIS\",uint2str(numDistribution)) ;\n        \n        Liste[ID_Tontine][Adherent_Address].ListeDistributions[ID_Distribution].ID_Distribution = ID_Distribution;\n\n        Liste[ID_Tontine][Adherent_Address].ListeDistributions[ID_Distribution].ID_Tontine = ID_Tontine;\n\n        Liste[ID_Tontine][Adherent_Address].ListeDistributions[ID_Distribution].ID_Cycle = Cycle_enCours;\n\n       Liste[ID_Tontine][Adherent_Address].ListeDistributions[ID_Distribution].ID_Iteration = Iteration_enCours;\n\n        Liste[ID_Tontine][Adherent_Address].ListeDistributions[ID_Distribution].date_distribution = now;\n\n        Liste[ID_Tontine][Adherent_Address].ListeDistributions[ID_Distribution].Montant = Montant.mul(Nbr_participants );\n\n        Liste[ID_Tontine][Adherent_Address].ListeDistributions[ID_Distribution].Hash_Transaction = 0x0;\n\n        Liste[ID_Tontine][Adherent_Address].NbrDistributions.push(ID_Distribution);\n             numDistribution++;\n\n    }\n    \n     /* function cotisation(string memory ID_Tontine, address addressTon, uint256 Cycle_enCours, uint256 Iteration_enCours, uint256 montant, address contract_) public {\n      \n        addTxCotisation(ID_Tontine, msg.sender, Cycle_enCours, Iteration_enCours, montant);\n      \n        transaction(\n            msg.sender,\n            addressTon,\n            montant,\n            contract_\n        );\n   \n\n    }*/\n    \n    function getLastCumule(string memory ID_Tontine, address Address_Receiver) public view returns (uint256) {\n       \n        string memory lastGarantie = Liste[ID_Tontine][Address_Receiver].NbrGaranties[Liste[ID_Tontine][Address_Receiver].NbrGaranties.length-1];\n       \n        return (Liste[ID_Tontine][Address_Receiver].ListeGaranties[lastGarantie].Cumule);\n    }\n    \n    function getLastCotisation(string memory ID_Tontine,address Adherent_Address, uint256 Cycle_enCours, uint256 Iteration_enCours) public view returns (bool) {\n        bool payementCotisation = true;\n        \n          if (Liste[ID_Tontine][Adherent_Address].NbrCotisations.length != 0) { \n         string memory lastCotisation = Liste[ID_Tontine][Adherent_Address].NbrCotisations[Liste[ID_Tontine][Adherent_Address].NbrCotisations.length-1];\n           \n                   \n                    if ( Liste[ID_Tontine][Adherent_Address].ListeCotisations[lastCotisation].ID_Cycle ==\n                        Cycle_enCours && Liste[ID_Tontine][Adherent_Address].ListeCotisations[lastCotisation].ID_Iteration == Iteration_enCours\n                    ) {\n                        payementCotisation = false;\n                    }\n          }\n          return payementCotisation;\n    }\n\n\n          function setTransactionHashGarantie(\n          string memory ID_Tontine,\n        bytes32 trHash,\n        address Adherent_Address\n    ) public {\n        string memory last = Liste[ID_Tontine][Adherent_Address].NbrGaranties[Liste[ID_Tontine][Adherent_Address].NbrGaranties.length-1];\n      Liste[ID_Tontine][Adherent_Address].ListeGaranties[last].Hash_Transaction = trHash;\n\n    }\n    \n        function setTransactionHashCotisation(\n        string memory ID_Tontine,\n        bytes32 trHash,\n        address Adherent_Address\n    ) public {\n            string memory last = Liste[ID_Tontine][Adherent_Address].NbrCotisations[Liste[ID_Tontine][Adherent_Address].NbrCotisations.length-1];\n      Liste[ID_Tontine][Adherent_Address].ListeCotisations[last].Hash_Transaction = trHash;\n\n    }\n\n    function setTransactionHashDistribution(\n    string memory ID_Tontine,\n        bytes32 trHash,\n        address Adherent_Address\n    ) public {\n         string memory last = Liste[ID_Tontine][Adherent_Address].NbrDistributions[Liste[ID_Tontine][Adherent_Address].NbrDistributions.length-1];\n      Liste[ID_Tontine][Adherent_Address].ListeDistributions[last].Hash_Transaction = trHash;\n    }\n\n /*   function envoiMondataire(address tontine_address, address mondataire1_address, address mondataire2_address) public \n    {\n        \n        bytes32 symbol_ = convertttt();\n        address contract_ = tokens[symbol_];\n        ERC20Interface = ERC20(contract_);\n       // ERC20Interface.balanceOf(tontine_address);\n        transaction(tontine_address, mondataire1_address, ERC20Interface.balanceOf(tontine_address)/2);\n        transaction(tontine_address, mondataire2_address, ERC20Interface.balanceOf(tontine_address));\n    }*/\n\n\n\n   function getGarantie(\n       string memory ID_Tontine,\n        address Address_Receiver,\n        uint256 indice\n    )\n        public\n        view\n        returns (uint256, uint256, uint256 )\n    {\n      uint256 lastGarantie =  Liste[ID_Tontine][Address_Receiver].NbrGaranties.length;\n           if(lastGarantie == 0) {\n            return(0,0,0);\n           } else  {\n        return (Liste[ID_Tontine][Address_Receiver].ListeGaranties[ Liste[ID_Tontine][Address_Receiver].NbrGaranties[indice]].ID_Cycle,\n            Liste[ID_Tontine][Address_Receiver].ListeGaranties[ Liste[ID_Tontine][Address_Receiver].NbrGaranties[indice]].ID_Iteration,\n            Liste[ID_Tontine][Address_Receiver].ListeGaranties[ Liste[ID_Tontine][Address_Receiver].NbrGaranties[indice]].Cumule);\n}\n        \n    }\n    \n       function getCotisation(\n        string memory ID_Tontine,\n        address Address_Receiver,\n        uint256 indice \n        \n    )\n        public\n        view\n        returns (uint256, uint256, uint256 )\n    {\n   uint256 lastCotisation =  Liste[ID_Tontine][Address_Receiver].NbrCotisations.length;\n           if(lastCotisation == 0) {\n            return(0,0,0);\n           } else  {\n                    return (Liste[ID_Tontine][Address_Receiver].ListeCotisations[ Liste[ID_Tontine][Address_Receiver].NbrCotisations[indice]].ID_Cycle,\n            Liste[ID_Tontine][Address_Receiver].ListeCotisations[ Liste[ID_Tontine][Address_Receiver].NbrCotisations[indice]].ID_Iteration,\n            0);\n                   }\n        }\n            \n    \n    \n       function getDistribution(\n        string memory ID_Tontine,\n        address Address_Receiver,\n        uint256 indice\n    )\n        public\n        view\n        returns (uint256, uint256, uint256 )\n    {\n   uint256 lastDistribution =  Liste[ID_Tontine][Address_Receiver].NbrDistributions.length;\n           if(lastDistribution == 0) {\n            return(0,0,0);\n           } else  {\n             return (Liste[ID_Tontine][Address_Receiver].ListeDistributions[ Liste[ID_Tontine][Address_Receiver].NbrDistributions[indice]].ID_Cycle,\n            Liste[ID_Tontine][Address_Receiver].ListeDistributions[ Liste[ID_Tontine][Address_Receiver].NbrDistributions[indice]].ID_Iteration,\n           0);\n           }\n        \n    }\n    \n    \n           function getLastGarCotDist(\n            string memory ID_Tontine,\n        address Address_Receiver,\n        bool Gar,\n        bool Cot,\n        bool Dis) public  view returns (uint256, uint256, uint256, uint256, uint256, uint256, uint256)\n    {\n\n           \n  uint256[] memory listiddate = new uint256[](7);        \n\n        if (Gar) {\n       \n        uint256 lastGarantie = Liste[ID_Tontine][Address_Receiver].NbrGaranties.length;\n            if(lastGarantie == 0) {\n                 listiddate[0] = 0;\n                  listiddate[1] = 0;\n                   listiddate[6] = 0;\n            } else {\n                    listiddate[0] = Liste[ID_Tontine][Address_Receiver].ListeGaranties[ Liste[ID_Tontine][Address_Receiver].NbrGaranties[lastGarantie - 1]].date_garantie;\n                    listiddate[1] =Liste[ID_Tontine][Address_Receiver].ListeGaranties[ Liste[ID_Tontine][Address_Receiver].NbrGaranties[lastGarantie - 1]].ID_Iteration;\n                    listiddate[6] = Liste[ID_Tontine][Address_Receiver].ListeGaranties[ Liste[ID_Tontine][Address_Receiver].NbrGaranties[lastGarantie - 1]].Cumule;\n           }\n        }\n\n        if (Cot) {\n            \n            uint256 lastCotisation =  Liste[ID_Tontine][Address_Receiver].NbrCotisations.length;\n           if(lastCotisation == 0) {\n                listiddate[2] =0;\n                 listiddate[3] = 0; } \n                 else {\n                    listiddate[2] =Liste[ID_Tontine][Address_Receiver].ListeCotisations[ Liste[ID_Tontine][Address_Receiver].NbrCotisations[lastCotisation - 1]].ID_Iteration;\n                    listiddate[3] = Liste[ID_Tontine][Address_Receiver].ListeCotisations[ Liste[ID_Tontine][Address_Receiver].NbrCotisations[lastCotisation - 1]].date_cotisation;\n}\n        }\n\n        if (Dis) {\n            \n            uint256 lastDistribution =  Liste[ID_Tontine][Address_Receiver].NbrDistributions.length;\n          if(lastDistribution == 0) {\n               listiddate[4] =0;\n                listiddate[5] =0;\n          } else {\n             \n                    listiddate[4] = Liste[ID_Tontine][Address_Receiver].ListeDistributions[ Liste[ID_Tontine][Address_Receiver].NbrDistributions[lastDistribution - 1]].ID_Iteration;\n                    listiddate[5] = Liste[ID_Tontine][Address_Receiver].ListeDistributions[ Liste[ID_Tontine][Address_Receiver].NbrDistributions[lastDistribution - 1]].date_distribution;\n}\n        }\n\n        return ( listiddate[0],\n            listiddate[1],\n            listiddate[2],\n            listiddate[3],\n            listiddate[4],\n            listiddate[5],\n            listiddate[6] );\n    }\n    \n}\n\n",
  "sourcePath": "/home/ubuntu/az/paylis/Tontine/contracts/PA.sol",
  "compiler": {
    "name": "solc",
    "version": "0.5.11+commit.c082d0b4.Emscripten.clang"
  },
  "schemaVersion": "3.0.19",
  "updatedAt": "2021-02-03T09:46:05.626Z",
  "networkType": "ethereum",
  "devdoc": {
    "methods": {
      "constructor": {
        "details": "list of all supported tokens for transfer * @param string token symbol * @param address contract address of token "
      }
    }
  },
  "userdoc": {
    "methods": {}
  }
}