{
  "contractName": "tontine_Cercle1",
  "abi": [
    {
      "constant": true,
      "inputs": [
        {
          "internalType": "string",
          "name": "",
          "type": "string"
        }
      ],
      "name": "tontineCercle",
      "outputs": [
        {
          "internalType": "string",
          "name": "ID_Tontine",
          "type": "string"
        },
        {
          "internalType": "string",
          "name": "Nom_Tontine",
          "type": "string"
        },
        {
          "internalType": "uint256",
          "name": "Date",
          "type": "uint256"
        },
        {
          "internalType": "uint256",
          "name": "Montant",
          "type": "uint256"
        },
        {
          "internalType": "address",
          "name": "Createur",
          "type": "address"
        },
        {
          "internalType": "uint256",
          "name": "Nbr_participants",
          "type": "uint256"
        },
        {
          "internalType": "uint256",
          "name": "Nbr_cycles",
          "type": "uint256"
        },
        {
          "internalType": "uint256",
          "name": "Iteration_enCours",
          "type": "uint256"
        },
        {
          "internalType": "uint256",
          "name": "Cycle_enCours",
          "type": "uint256"
        },
        {
          "internalType": "bool",
          "name": "Etat",
          "type": "bool"
        },
        {
          "internalType": "string",
          "name": "Frequence",
          "type": "string"
        }
      ],
      "payable": false,
      "stateMutability": "view",
      "type": "function"
    },
    {
      "constant": true,
      "inputs": [],
      "name": "ERC20Interface",
      "outputs": [
        {
          "internalType": "contract ERC20",
          "name": "",
          "type": "address"
        }
      ],
      "payable": false,
      "stateMutability": "view",
      "type": "function"
    },
    {
      "constant": true,
      "inputs": [
        {
          "internalType": "uint256",
          "name": "",
          "type": "uint256"
        }
      ],
      "name": "tontineList",
      "outputs": [
        {
          "internalType": "string",
          "name": "",
          "type": "string"
        }
      ],
      "payable": false,
      "stateMutability": "view",
      "type": "function"
    },
    {
      "constant": true,
      "inputs": [
        {
          "internalType": "bytes32",
          "name": "",
          "type": "bytes32"
        }
      ],
      "name": "tokens",
      "outputs": [
        {
          "internalType": "address",
          "name": "",
          "type": "address"
        }
      ],
      "payable": false,
      "stateMutability": "view",
      "type": "function"
    },
    {
      "inputs": [
        {
          "internalType": "contract participant_contract",
          "name": "_a",
          "type": "address"
        }
      ],
      "payable": false,
      "stateMutability": "nonpayable",
      "type": "constructor"
    },
    {
      "constant": false,
      "inputs": [
        {
          "internalType": "address",
          "name": "address_",
          "type": "address"
        }
      ],
      "name": "addNewToken",
      "outputs": [
        {
          "internalType": "bool",
          "name": "",
          "type": "bool"
        }
      ],
      "payable": false,
      "stateMutability": "nonpayable",
      "type": "function"
    },
    {
      "constant": false,
      "inputs": [
        {
          "internalType": "string",
          "name": "ID_Tontine",
          "type": "string"
        },
        {
          "internalType": "string",
          "name": "Nom_Tontine",
          "type": "string"
        },
        {
          "internalType": "uint256",
          "name": "Montant",
          "type": "uint256"
        },
        {
          "internalType": "uint256",
          "name": "Nbr_participants",
          "type": "uint256"
        },
        {
          "internalType": "uint256",
          "name": "Nbr_cycles",
          "type": "uint256"
        },
        {
          "internalType": "string",
          "name": "Frequence",
          "type": "string"
        },
        {
          "internalType": "uint256",
          "name": "Ordre",
          "type": "uint256"
        },
        {
          "internalType": "address",
          "name": "addressParticipant",
          "type": "address"
        },
        {
          "internalType": "address",
          "name": "addressTon",
          "type": "address"
        }
      ],
      "name": "addTontine",
      "outputs": [],
      "payable": false,
      "stateMutability": "nonpayable",
      "type": "function"
    },
    {
      "constant": true,
      "inputs": [
        {
          "internalType": "string",
          "name": "ID_Tontine",
          "type": "string"
        }
      ],
      "name": "getTontine",
      "outputs": [
        {
          "internalType": "string",
          "name": "",
          "type": "string"
        },
        {
          "internalType": "uint256",
          "name": "",
          "type": "uint256"
        },
        {
          "internalType": "uint256",
          "name": "",
          "type": "uint256"
        },
        {
          "internalType": "uint256",
          "name": "",
          "type": "uint256"
        },
        {
          "internalType": "string",
          "name": "",
          "type": "string"
        },
        {
          "internalType": "address",
          "name": "",
          "type": "address"
        },
        {
          "internalType": "bool",
          "name": "",
          "type": "bool"
        }
      ],
      "payable": false,
      "stateMutability": "view",
      "type": "function"
    },
    {
      "constant": false,
      "inputs": [
        {
          "internalType": "string",
          "name": "ID_Tontine",
          "type": "string"
        },
        {
          "internalType": "uint256",
          "name": "Ordre",
          "type": "uint256"
        },
        {
          "internalType": "bool",
          "name": "decline",
          "type": "bool"
        },
        {
          "internalType": "address",
          "name": "addressTon",
          "type": "address"
        }
      ],
      "name": "addParticipant",
      "outputs": [],
      "payable": false,
      "stateMutability": "nonpayable",
      "type": "function"
    },
    {
      "constant": true,
      "inputs": [
        {
          "internalType": "string",
          "name": "ID_Tontine",
          "type": "string"
        },
        {
          "internalType": "address",
          "name": "addresPart",
          "type": "address"
        }
      ],
      "name": "getPart",
      "outputs": [
        {
          "internalType": "uint256",
          "name": "",
          "type": "uint256"
        },
        {
          "internalType": "bool",
          "name": "",
          "type": "bool"
        }
      ],
      "payable": false,
      "stateMutability": "view",
      "type": "function"
    },
    {
      "constant": false,
      "inputs": [
        {
          "internalType": "string",
          "name": "ID_Tontine",
          "type": "string"
        },
        {
          "internalType": "address",
          "name": "addressTon",
          "type": "address"
        }
      ],
      "name": "cotisation",
      "outputs": [],
      "payable": false,
      "stateMutability": "nonpayable",
      "type": "function"
    },
    {
      "constant": true,
      "inputs": [
        {
          "internalType": "string",
          "name": "ID_Tontine",
          "type": "string"
        },
        {
          "internalType": "address",
          "name": "Adherent_Address",
          "type": "address"
        }
      ],
      "name": "getCotnbr",
      "outputs": [
        {
          "internalType": "uint256",
          "name": "",
          "type": "uint256"
        }
      ],
      "payable": false,
      "stateMutability": "view",
      "type": "function"
    },
    {
      "constant": false,
      "inputs": [
        {
          "internalType": "string",
          "name": "ID_Tontine",
          "type": "string"
        },
        {
          "internalType": "address",
          "name": "tontine_Address",
          "type": "address"
        },
        {
          "internalType": "bool",
          "name": "Type",
          "type": "bool"
        }
      ],
      "name": "RechargeGarantie",
      "outputs": [],
      "payable": false,
      "stateMutability": "nonpayable",
      "type": "function"
    },
    {
      "constant": true,
      "inputs": [
        {
          "internalType": "string",
          "name": "ID_Tontine",
          "type": "string"
        }
      ],
      "name": "getGarnbr",
      "outputs": [
        {
          "internalType": "uint256",
          "name": "",
          "type": "uint256"
        }
      ],
      "payable": false,
      "stateMutability": "view",
      "type": "function"
    },
    {
      "constant": false,
      "inputs": [
        {
          "internalType": "string",
          "name": "ID_Tontine",
          "type": "string"
        },
        {
          "internalType": "address",
          "name": "Address_Receiver",
          "type": "address"
        },
        {
          "internalType": "uint256",
          "name": "Ordre",
          "type": "uint256"
        },
        {
          "internalType": "address",
          "name": "addressTon",
          "type": "address"
        }
      ],
      "name": "distribution",
      "outputs": [],
      "payable": false,
      "stateMutability": "nonpayable",
      "type": "function"
    },
    {
      "constant": true,
      "inputs": [
        {
          "internalType": "string",
          "name": "ID_Tontine",
          "type": "string"
        },
        {
          "internalType": "address",
          "name": "Adherent_Address",
          "type": "address"
        }
      ],
      "name": "getDisnbr",
      "outputs": [
        {
          "internalType": "uint256",
          "name": "",
          "type": "uint256"
        }
      ],
      "payable": false,
      "stateMutability": "view",
      "type": "function"
    },
    {
      "constant": true,
      "inputs": [
        {
          "internalType": "string",
          "name": "ID_Tontine",
          "type": "string"
        },
        {
          "internalType": "address",
          "name": "Adherent_Address",
          "type": "address"
        }
      ],
      "name": "getLastCotisation",
      "outputs": [
        {
          "internalType": "bool",
          "name": "",
          "type": "bool"
        }
      ],
      "payable": false,
      "stateMutability": "view",
      "type": "function"
    },
    {
      "constant": false,
      "inputs": [
        {
          "internalType": "string",
          "name": "ID_Tontine",
          "type": "string"
        }
      ],
      "name": "interruption",
      "outputs": [],
      "payable": false,
      "stateMutability": "nonpayable",
      "type": "function"
    },
    {
      "constant": false,
      "inputs": [
        {
          "internalType": "bytes32",
          "name": "trHash",
          "type": "bytes32"
        },
        {
          "internalType": "uint256",
          "name": "typeTransaction",
          "type": "uint256"
        },
        {
          "internalType": "string",
          "name": "ID_Tontine",
          "type": "string"
        }
      ],
      "name": "setTransactionHash",
      "outputs": [],
      "payable": false,
      "stateMutability": "nonpayable",
      "type": "function"
    },
    {
      "constant": true,
      "inputs": [
        {
          "internalType": "string",
          "name": "ID_Tontine",
          "type": "string"
        }
      ],
      "name": "getNumberParticipantByTontine",
      "outputs": [
        {
          "internalType": "uint256",
          "name": "",
          "type": "uint256"
        }
      ],
      "payable": false,
      "stateMutability": "view",
      "type": "function"
    },
    {
      "constant": true,
      "inputs": [
        {
          "internalType": "string",
          "name": "ID_Tontine",
          "type": "string"
        },
        {
          "internalType": "address",
          "name": "Address_Receiver",
          "type": "address"
        },
        {
          "internalType": "uint256",
          "name": "indice",
          "type": "uint256"
        },
        {
          "internalType": "bool",
          "name": "Gar",
          "type": "bool"
        },
        {
          "internalType": "bool",
          "name": "Cot",
          "type": "bool"
        },
        {
          "internalType": "bool",
          "name": "Dis",
          "type": "bool"
        }
      ],
      "name": "GetGarCotiDisByIndex",
      "outputs": [
        {
          "internalType": "uint256",
          "name": "",
          "type": "uint256"
        },
        {
          "internalType": "uint256",
          "name": "",
          "type": "uint256"
        },
        {
          "internalType": "uint256",
          "name": "",
          "type": "uint256"
        }
      ],
      "payable": false,
      "stateMutability": "view",
      "type": "function"
    },
    {
      "constant": true,
      "inputs": [
        {
          "internalType": "string",
          "name": "ID_Tontine",
          "type": "string"
        },
        {
          "internalType": "address",
          "name": "Adherent_Address",
          "type": "address"
        }
      ],
      "name": "getLeng",
      "outputs": [
        {
          "internalType": "uint256",
          "name": "",
          "type": "uint256"
        },
        {
          "internalType": "uint256",
          "name": "",
          "type": "uint256"
        },
        {
          "internalType": "uint256",
          "name": "",
          "type": "uint256"
        }
      ],
      "payable": false,
      "stateMutability": "view",
      "type": "function"
    },
    {
      "constant": true,
      "inputs": [
        {
          "internalType": "string",
          "name": "ID_Tontine",
          "type": "string"
        }
      ],
      "name": "getNumIterationCycle",
      "outputs": [
        {
          "internalType": "uint256",
          "name": "",
          "type": "uint256"
        },
        {
          "internalType": "uint256",
          "name": "",
          "type": "uint256"
        }
      ],
      "payable": false,
      "stateMutability": "view",
      "type": "function"
    },
    {
      "constant": true,
      "inputs": [
        {
          "internalType": "string",
          "name": "ID_Tontine",
          "type": "string"
        }
      ],
      "name": "getDateLancement",
      "outputs": [
        {
          "internalType": "uint256",
          "name": "",
          "type": "uint256"
        },
        {
          "internalType": "uint256",
          "name": "",
          "type": "uint256"
        },
        {
          "internalType": "string",
          "name": "",
          "type": "string"
        },
        {
          "internalType": "uint256",
          "name": "",
          "type": "uint256"
        },
        {
          "internalType": "bool",
          "name": "",
          "type": "bool"
        }
      ],
      "payable": false,
      "stateMutability": "view",
      "type": "function"
    },
    {
      "constant": false,
      "inputs": [
        {
          "internalType": "string",
          "name": "ID_Tontine",
          "type": "string"
        },
        {
          "internalType": "address",
          "name": "tontine_address",
          "type": "address"
        },
        {
          "internalType": "address",
          "name": "mondataire1_address",
          "type": "address"
        },
        {
          "internalType": "address",
          "name": "mondataire2_address",
          "type": "address"
        }
      ],
      "name": "envoiMondataire",
      "outputs": [],
      "payable": false,
      "stateMutability": "nonpayable",
      "type": "function"
    },
    {
      "constant": true,
      "inputs": [
        {
          "internalType": "string",
          "name": "ID_Tontine",
          "type": "string"
        },
        {
          "internalType": "address",
          "name": "Address_Receiver",
          "type": "address"
        },
        {
          "internalType": "bool",
          "name": "Gar",
          "type": "bool"
        },
        {
          "internalType": "bool",
          "name": "Cot",
          "type": "bool"
        },
        {
          "internalType": "bool",
          "name": "Dis",
          "type": "bool"
        }
      ],
      "name": "getLastGarCotDist",
      "outputs": [
        {
          "internalType": "uint256",
          "name": "",
          "type": "uint256"
        },
        {
          "internalType": "uint256",
          "name": "",
          "type": "uint256"
        },
        {
          "internalType": "uint256",
          "name": "",
          "type": "uint256"
        },
        {
          "internalType": "uint256",
          "name": "",
          "type": "uint256"
        },
        {
          "internalType": "uint256",
          "name": "",
          "type": "uint256"
        },
        {
          "internalType": "uint256",
          "name": "",
          "type": "uint256"
        },
        {
          "internalType": "uint256",
          "name": "",
          "type": "uint256"
        }
      ],
      "payable": false,
      "stateMutability": "view",
      "type": "function"
    }
  ],
  "bytecode": "0x60806040523480156200001157600080fd5b50604051620053fe380380620053fe833981810160405262000037919081019062000095565b806000806101000a81548173ffffffffffffffffffffffffffffffffffffffff021916908373ffffffffffffffffffffffffffffffffffffffff1602179055505062000123565b6000815190506200008f8162000109565b92915050565b600060208284031215620000a857600080fd5b6000620000b8848285016200007e565b91505092915050565b6000620000ce82620000e9565b9050919050565b6000620000e282620000c1565b9050919050565b600073ffffffffffffffffffffffffffffffffffffffff82169050919050565b6200011481620000d5565b81146200012057600080fd5b50565b6152cb80620001336000396000f3fe608060405234801561001057600080fd5b50600436106101735760003560e01c806371deb4fc116100de578063904194a311610097578063c6ac8f9911610071578063c6ac8f9914610512578063c9dee75314610542578063de8a7f3f1461055e578063f2fe1ab61461057a57610173565b8063904194a314610496578063a19b2239146104c6578063ac7e7a1b146104e257610173565b806371deb4fc1461037e5780637bd97cbf146103b25780638a38ac18146103e25780638a9f5d73146104185780638ab02282146104345780638b1d5a141461046657610173565b80632131b6a3116101305780632131b6a31461027f5780632ab8b59a1461029b578063326d2f02146102cc57806339892c7a146103025780633c9890341461031e57806364db444a1461034e57610173565b8063014303b41461017857806305b85ae3146101aa578063062829dd146101db5780631b839492146102155780631ba2d143146102455780631bbc4b8314610261575b600080fd5b610192600480360361018d919081019061442f565b610596565b6040516101a193929190614fd0565b60405180910390f35b6101c460048036036101bf91908101906141ef565b6109dd565b6040516101d2929190614f24565b60405180910390f35b6101f560048036036101f0919081019061416d565b610af3565b60405161020c9b9a99989796959493929190614e29565b60405180910390f35b61022f600480360361022a91908101906141ef565b610d58565b60405161023c9190614f09565b60405180910390f35b61025f600480360361025a91908101906142be565b610e6b565b005b610269611010565b6040516102769190614a0e565b60405180910390f35b61029960048036036102949190810190614243565b611036565b005b6102b560048036036102b091908101906141ae565b6113ff565b6040516102c3929190614f4d565b60405180910390f35b6102e660048036036102e19190810190614325565b611482565b6040516102f99796959493929190615007565b60405180910390f35b61031c600480360361031791908101906145de565b6116b8565b005b61033860048036036103339190810190614659565b611bf4565b6040516103459190614a29565b60405180910390f35b6103686004803603610363919081019061408b565b611cad565b60405161037591906149f3565b60405180910390f35b610398600480360361039391908101906141ae565b611d16565b6040516103a9959493929190614f76565b60405180910390f35b6103cc60048036036103c791908101906141ae565b611e83565b6040516103d99190614f09565b60405180910390f35b6103fc60048036036103f791908101906141ae565b611eb1565b60405161040f9796959493929190614dac565b60405180910390f35b610432600480360361042d91908101906143b4565b612127565b005b61044e600480360361044991908101906141ef565b61295f565b60405161045d93929190614fd0565b60405180910390f35b610480600480360361047b91908101906141ae565b612d71565b60405161048d9190614f09565b60405180910390f35b6104b060048036036104ab91908101906140dd565b612e83565b6040516104bd919061494e565b60405180910390f35b6104e060048036036104db91908101906144d0565b612eb6565b005b6104fc60048036036104f791908101906141ef565b613219565b60405161050991906149f3565b60405180910390f35b61052c600480360361052791908101906141ef565b613372565b6040516105399190614f09565b60405180910390f35b61055c600480360361055791908101906141ae565b613485565b005b610578600480360361057391908101906141ef565b6136f5565b005b610594600480360361058f9190810190614106565b613a61565b005b600080600080600090505b60018a6040516105b19190614937565b9081526020016040518091039020600c01805490508110156109bb5760018a6040516105dd9190614937565b9081526020016040518091039020600c0181815481106105f957fe5b9060005260206000200160009054906101000a900473ffffffffffffffffffffffffffffffffffffffff1673ffffffffffffffffffffffffffffffffffffffff168973ffffffffffffffffffffffffffffffffffffffff1614156109ae5786156107745760018a60405161066d9190614937565b9081526020016040518091039020600b0160008a73ffffffffffffffffffffffffffffffffffffffff1673ffffffffffffffffffffffffffffffffffffffff16815260200190815260200160002060009054906101000a900473ffffffffffffffffffffffffffffffffffffffff1673ffffffffffffffffffffffffffffffffffffffff1663c0dca6cc8b8b8b6040518463ffffffff1660e01b815260040161071893929190614c22565b60606040518083038186803b15801561073057600080fd5b505afa158015610744573d6000803e3d6000fd5b505050506040513d601f19601f8201168201806040525061076891908101906146e7565b935093509350506109d1565b85156108905760018a60405161078a9190614937565b9081526020016040518091039020600b0160008a73ffffffffffffffffffffffffffffffffffffffff1673ffffffffffffffffffffffffffffffffffffffff16815260200190815260200160002060009054906101000a900473ffffffffffffffffffffffffffffffffffffffff1673ffffffffffffffffffffffffffffffffffffffff16620ae96e8b8b8b6040518463ffffffff1660e01b815260040161083493929190614c22565b60606040518083038186803b15801561084c57600080fd5b505afa158015610860573d6000803e3d6000fd5b505050506040513d601f19601f8201168201806040525061088491908101906146e7565b935093509350506109d1565b84156109ad5760018a6040516108a69190614937565b9081526020016040518091039020600b0160008a73ffffffffffffffffffffffffffffffffffffffff1673ffffffffffffffffffffffffffffffffffffffff16815260200190815260200160002060009054906101000a900473ffffffffffffffffffffffffffffffffffffffff1673ffffffffffffffffffffffffffffffffffffffff1663f705df5b8b8b8b6040518463ffffffff1660e01b815260040161095193929190614c22565b60606040518083038186803b15801561096957600080fd5b505afa15801561097d573d6000803e3d6000fd5b505050506040513d601f19601f820116820180604052506109a191908101906146e7565b935093509350506109d1565b5b80806001019150506105a1565b5060008060008292508191508090509250925092505b96509650969350505050565b6000806001846040516109f09190614937565b9081526020016040518091039020600b0160008473ffffffffffffffffffffffffffffffffffffffff1673ffffffffffffffffffffffffffffffffffffffff16815260200190815260200160002060009054906101000a900473ffffffffffffffffffffffffffffffffffffffff1673ffffffffffffffffffffffffffffffffffffffff16639683c7b085856040518363ffffffff1660e01b8152600401610a99929190614a4b565b604080518083038186803b158015610ab057600080fd5b505afa158015610ac4573d6000803e3d6000fd5b505050506040513d601f19601f82011682018060405250610ae891908101906146ab565b915091509250929050565b600181805160208101820180518482526020830160208501208183528095505050505050600091509050806000018054600181600116156101000203166002900480601f016020809104026020016040519081016040528092919081815260200182805460018160011615610100020316600290048015610bb55780601f10610b8a57610100808354040283529160200191610bb5565b820191906000526020600020905b815481529060010190602001808311610b9857829003601f168201915b505050505090806001018054600181600116156101000203166002900480601f016020809104026020016040519081016040528092919081815260200182805460018160011615610100020316600290048015610c535780601f10610c2857610100808354040283529160200191610c53565b820191906000526020600020905b815481529060010190602001808311610c3657829003601f168201915b5050505050908060020154908060030154908060040160009054906101000a900473ffffffffffffffffffffffffffffffffffffffff16908060050154908060060154908060070154908060080154908060090160009054906101000a900460ff169080600a018054600181600116156101000203166002900480601f016020809104026020016040519081016040528092919081815260200182805460018160011615610100020316600290048015610d4e5780601f10610d2357610100808354040283529160200191610d4e565b820191906000526020600020905b815481529060010190602001808311610d3157829003601f168201915b505050505090508b565b6000600183604051610d6a9190614937565b9081526020016040518091039020600b0160008373ffffffffffffffffffffffffffffffffffffffff1673ffffffffffffffffffffffffffffffffffffffff16815260200190815260200160002060009054906101000a900473ffffffffffffffffffffffffffffffffffffffff1673ffffffffffffffffffffffffffffffffffffffff16639906269284846040518363ffffffff1660e01b8152600401610e13929190614a4b565b60206040518083038186803b158015610e2b57600080fd5b505afa158015610e3f573d6000803e3d6000fd5b505050506040513d601f19601f82011682018060405250610e639190810190614682565b905092915050565b6000610e75613e09565b905060006003600083815260200190815260200160002060009054906101000a900473ffffffffffffffffffffffffffffffffffffffff169050600185604051610ebf9190614937565b9081526020016040518091039020600b0160003373ffffffffffffffffffffffffffffffffffffffff1673ffffffffffffffffffffffffffffffffffffffff16815260200190815260200160002060009054906101000a900473ffffffffffffffffffffffffffffffffffffffff1673ffffffffffffffffffffffffffffffffffffffff16632db47e3e8633600189604051610f5b9190614937565b90815260200160405180910390206008015460018a604051610f7d9190614937565b90815260200160405180910390206007015460018b604051610f9f9190614937565b9081526020016040518091039020600301548a8a896040518963ffffffff1660e01b8152600401610fd7989796959493929190614b43565b600060405180830381600087803b158015610ff157600080fd5b505af1158015611005573d6000803e3d6000fd5b505050505050505050565b600460009054906101000a900473ffffffffffffffffffffffffffffffffffffffff1681565b6000611040613e09565b905060006003600083815260200190815260200160002060009054906101000a900473ffffffffffffffffffffffffffffffffffffffff16905080600460006101000a81548173ffffffffffffffffffffffffffffffffffffffff021916908373ffffffffffffffffffffffffffffffffffffffff1602179055506001866040516110cb9190614937565b9081526020016040518091039020600b0160008573ffffffffffffffffffffffffffffffffffffffff1673ffffffffffffffffffffffffffffffffffffffff16815260200190815260200160002060009054906101000a900473ffffffffffffffffffffffffffffffffffffffff1673ffffffffffffffffffffffffffffffffffffffff16633b4b765586866002600460009054906101000a900473ffffffffffffffffffffffffffffffffffffffff1673ffffffffffffffffffffffffffffffffffffffff166370a082318b6040518263ffffffff1660e01b81526004016111b4919061494e565b60206040518083038186803b1580156111cc57600080fd5b505afa1580156111e0573d6000803e3d6000fd5b505050506040513d601f19601f820116820180604052506112049190810190614682565b8161120b57fe5b04856040518563ffffffff1660e01b815260040161122c94939291906149ae565b600060405180830381600087803b15801561124657600080fd5b505af115801561125a573d6000803e3d6000fd5b5050505060018660405161126e9190614937565b9081526020016040518091039020600b0160008473ffffffffffffffffffffffffffffffffffffffff1673ffffffffffffffffffffffffffffffffffffffff16815260200190815260200160002060009054906101000a900473ffffffffffffffffffffffffffffffffffffffff1673ffffffffffffffffffffffffffffffffffffffff16633b4b76558685600460009054906101000a900473ffffffffffffffffffffffffffffffffffffffff1673ffffffffffffffffffffffffffffffffffffffff166370a082318a6040518263ffffffff1660e01b8152600401611355919061494e565b60206040518083038186803b15801561136d57600080fd5b505afa158015611381573d6000803e3d6000fd5b505050506040513d601f19601f820116820180604052506113a59190810190614682565b856040518563ffffffff1660e01b81526004016113c594939291906149ae565b600060405180830381600087803b1580156113df57600080fd5b505af11580156113f3573d6000803e3d6000fd5b50505050505050505050565b6000806114576001846040516114159190614937565b9081526020016040518091039020600601546001856040516114379190614937565b908152602001604051809103902060050154613e5090919063ffffffff16565b6001846040516114679190614937565b90815260200160405180910390206006015491509150915091565b600080600080600080600080600090505b60018d6040516114a39190614937565b9081526020016040518091039020600c01805490508110156116795760018d6040516114cf9190614937565b9081526020016040518091039020600c0181815481106114eb57fe5b9060005260206000200160009054906101000a900473ffffffffffffffffffffffffffffffffffffffff1673ffffffffffffffffffffffffffffffffffffffff168c73ffffffffffffffffffffffffffffffffffffffff16141561166c5760018d6040516115599190614937565b9081526020016040518091039020600b0160008d73ffffffffffffffffffffffffffffffffffffffff1673ffffffffffffffffffffffffffffffffffffffff16815260200190815260200160002060009054906101000a900473ffffffffffffffffffffffffffffffffffffffff1673ffffffffffffffffffffffffffffffffffffffff1663326d2f028e8e8e8e8e6040518663ffffffff1660e01b8152600401611608959493929190614bc8565b60e06040518083038186803b15801561162057600080fd5b505afa158015611634573d6000803e3d6000fd5b505050506040513d601f19601f820116820180604052506116589190810190614736565b9750975097509750975097509750506116a9565b8080600101915050611493565b50600080600080600080600086965085955084945083935082925081915080905096509650965096509650965096505b959b949a509550955095509550565b6000809054906101000a900473ffffffffffffffffffffffffffffffffffffffff166001856040516116ea9190614937565b9081526020016040518091039020600b0160003373ffffffffffffffffffffffffffffffffffffffff1673ffffffffffffffffffffffffffffffffffffffff16815260200190815260200160002060006101000a81548173ffffffffffffffffffffffffffffffffffffffff021916908373ffffffffffffffffffffffffffffffffffffffff1602179055506001846040516117869190614937565b9081526020016040518091039020600b0160003373ffffffffffffffffffffffffffffffffffffffff1673ffffffffffffffffffffffffffffffffffffffff16815260200190815260200160002060009054906101000a900473ffffffffffffffffffffffffffffffffffffffff1673ffffffffffffffffffffffffffffffffffffffff16630ce984428533866040518463ffffffff1660e01b815260040161183193929190614aab565b600060405180830381600087803b15801561184b57600080fd5b505af115801561185f573d6000803e3d6000fd5b50505050600061186d613e09565b905060006003600083815260200190815260200160002060009054906101000a900473ffffffffffffffffffffffffffffffffffffffff1690506001866040516118b79190614937565b9081526020016040518091039020600c013390806001815401808255809150509060018203906000526020600020016000909192909190916101000a81548173ffffffffffffffffffffffffffffffffffffffff021916908373ffffffffffffffffffffffffffffffffffffffff16021790555050831561199757426001876040516119439190614937565b908152602001604051809103902060020181905550600060018760405161196a9190614937565b908152602001604051809103902060090160006101000a81548160ff021916908315150217905550611bec565b6001866040516119a79190614937565b9081526020016040518091039020600b0160003373ffffffffffffffffffffffffffffffffffffffff1673ffffffffffffffffffffffffffffffffffffffff16815260200190815260200160002060009054906101000a900473ffffffffffffffffffffffffffffffffffffffff1673ffffffffffffffffffffffffffffffffffffffff16632db47e3e873360018a604051611a439190614937565b90815260200160405180910390206008015460018b604051611a659190614937565b90815260200160405180910390206007015460018c604051611a879190614937565b908152602001604051809103902060030154896001896040518963ffffffff1660e01b8152600401611ac0989796959493929190614b43565b600060405180830381600087803b158015611ada57600080fd5b505af1158015611aee573d6000803e3d6000fd5b50505050600186604051611b029190614937565b908152602001604051809103902060050154600187604051611b249190614937565b9081526020016040518091039020600c01805490501415611beb5742600187604051611b509190614937565b90815260200160405180910390206002018190555060018087604051611b769190614937565b908152602001604051809103902060090160006101000a81548160ff02191690831515021790555060018087604051611baf9190614937565b90815260200160405180910390206008018190555060018087604051611bd59190614937565b9081526020016040518091039020600701819055505b5b505050505050565b60028181548110611c0157fe5b906000526020600020016000915090508054600181600116156101000203166002900480601f016020809104026020016040519081016040528092919081815260200182805460018160011615610100020316600290048015611ca55780601f10611c7a57610100808354040283529160200191611ca5565b820191906000526020600020905b815481529060010190602001808311611c8857829003601f168201915b505050505081565b600080611cb8613e09565b9050826003600083815260200190815260200160002060006101000a81548173ffffffffffffffffffffffffffffffffffffffff021916908373ffffffffffffffffffffffffffffffffffffffff1602179055506001915050919050565b6000806060600080600186604051611d2e9190614937565b908152602001604051809103902060020154600187604051611d509190614937565b908152602001604051809103902060070154600188604051611d729190614937565b9081526020016040518091039020600a01600189604051611d939190614937565b90815260200160405180910390206008015460018a604051611db59190614937565b908152602001604051809103902060090160009054906101000a900460ff16828054600181600116156101000203166002900480601f016020809104026020016040519081016040528092919081815260200182805460018160011615610100020316600290048015611e695780601f10611e3e57610100808354040283529160200191611e69565b820191906000526020600020905b815481529060010190602001808311611e4c57829003601f168201915b505050505092509450945094509450945091939590929450565b6000600182604051611e959190614937565b9081526020016040518091039020600c01805490509050919050565b606060008060006060600080600188604051611ecd9190614937565b9081526020016040518091039020600101600189604051611eee9190614937565b90815260200160405180910390206005015460018a604051611f109190614937565b90815260200160405180910390206003015460018b604051611f329190614937565b90815260200160405180910390206006015460018c604051611f549190614937565b9081526020016040518091039020600a0160018d604051611f759190614937565b908152602001604051809103902060040160009054906101000a900473ffffffffffffffffffffffffffffffffffffffff1660018e604051611fb79190614937565b908152602001604051809103902060090160009054906101000a900460ff16868054600181600116156101000203166002900480601f01602080910402602001604051908101604052809291908181526020018280546001816001161561010002031660029004801561206b5780601f106120405761010080835404028352916020019161206b565b820191906000526020600020905b81548152906001019060200180831161204e57829003601f168201915b50505050509650828054600181600116156101000203166002900480601f0160208091040260200160405190810160405280929190818152602001828054600181600116156101000203166002900480156121075780601f106120dc57610100808354040283529160200191612107565b820191906000526020600020905b8154815290600101906020018083116120ea57829003601f168201915b505050505092509650965096509650965096509650919395979092949650565b60006001856040516121399190614937565b9081526020016040518091039020600501549050600060018660405161215f9190614937565b90815260200160405180910390206003015490506001866040516121839190614937565b908152602001604051809103902060090160009054906101000a900460ff166121ab57600080fd5b6000809054906101000a900473ffffffffffffffffffffffffffffffffffffffff166001876040516121dd9190614937565b9081526020016040518091039020600b0160008773ffffffffffffffffffffffffffffffffffffffff1673ffffffffffffffffffffffffffffffffffffffff16815260200190815260200160002060006101000a81548173ffffffffffffffffffffffffffffffffffffffff021916908373ffffffffffffffffffffffffffffffffffffffff16021790555060008090505b60018760405161227f9190614937565b9081526020016040518091039020600c01805490508110156125dc576001876040516122ab9190614937565b9081526020016040518091039020600b0160008773ffffffffffffffffffffffffffffffffffffffff1673ffffffffffffffffffffffffffffffffffffffff16815260200190815260200160002060009054906101000a900473ffffffffffffffffffffffffffffffffffffffff1673ffffffffffffffffffffffffffffffffffffffff16630bb0851c8860018a6040516123469190614937565b9081526020016040518091039020600c01848154811061236257fe5b9060005260206000200160009054906101000a900473ffffffffffffffffffffffffffffffffffffffff1660018b60405161239d9190614937565b90815260200160405180910390206008015460018c6040516123bf9190614937565b9081526020016040518091039020600701546040518563ffffffff1660e01b81526004016123f09493929190614c60565b60206040518083038186803b15801561240857600080fd5b505afa15801561241c573d6000803e3d6000fd5b505050506040513d601f19601f8201168201806040525061244091908101906140b4565b156125cf576001876040516124559190614937565b9081526020016040518091039020600b0160008773ffffffffffffffffffffffffffffffffffffffff1673ffffffffffffffffffffffffffffffffffffffff16815260200190815260200160002060009054906101000a900473ffffffffffffffffffffffffffffffffffffffff1673ffffffffffffffffffffffffffffffffffffffff16637b9c5f838860018a6040516124f09190614937565b9081526020016040518091039020600c01848154811061250c57fe5b9060005260206000200160009054906101000a900473ffffffffffffffffffffffffffffffffffffffff1660018b6040516125479190614937565b90815260200160405180910390206008015460018c6040516125699190614937565b908152602001604051809103902060070154876040518663ffffffff1660e01b815260040161259c959493929190614cac565b600060405180830381600087803b1580156125b657600080fd5b505af11580156125ca573d6000803e3d6000fd5b505050505b808060010191505061226f565b506001866040516125ed9190614937565b908152602001604051809103902060070154841415612957576000612610613e09565b905060006003600083815260200190815260200160002060009054906101000a900473ffffffffffffffffffffffffffffffffffffffff16905060018860405161265a9190614937565b9081526020016040518091039020600b0160008873ffffffffffffffffffffffffffffffffffffffff1673ffffffffffffffffffffffffffffffffffffffff16815260200190815260200160002060009054906101000a900473ffffffffffffffffffffffffffffffffffffffff1673ffffffffffffffffffffffffffffffffffffffff16633b4b765586896126f98888613e5090919063ffffffff16565b856040518563ffffffff1660e01b815260040161271994939291906149ae565b600060405180830381600087803b15801561273357600080fd5b505af1158015612747573d6000803e3d6000fd5b5050505060018860405161275b9190614937565b9081526020016040518091039020600b0160008873ffffffffffffffffffffffffffffffffffffffff1673ffffffffffffffffffffffffffffffffffffffff16815260200190815260200160002060009054906101000a900473ffffffffffffffffffffffffffffffffffffffff1673ffffffffffffffffffffffffffffffffffffffff16633ce356a9898960018c6040516127f79190614937565b90815260200160405180910390206008015460018d6040516128199190614937565b908152602001604051809103902060070154888a6040518763ffffffff1660e01b815260040161284e96959493929190614d06565b600060405180830381600087803b15801561286857600080fd5b505af115801561287c573d6000803e3d6000fd5b505050506001886040516128909190614937565b9081526020016040518091039020600501546001896040516128b29190614937565b908152602001604051809103902060070154141561292457600180896040516128db9190614937565b9081526020016040518091039020600801600082825401925050819055506001808960405161290a9190614937565b908152602001604051809103902060070181905550612954565b600180896040516129359190614937565b9081526020016040518091039020600701600082825401925050819055505b50505b505050505050565b600080600080600090505b60018660405161297a9190614937565b9081526020016040518091039020600c0180549050811015612d54576001866040516129a69190614937565b9081526020016040518091039020600c0181815481106129c257fe5b9060005260206000200160009054906101000a900473ffffffffffffffffffffffffffffffffffffffff1673ffffffffffffffffffffffffffffffffffffffff168573ffffffffffffffffffffffffffffffffffffffff161415612d4757600186604051612a309190614937565b9081526020016040518091039020600b0160008673ffffffffffffffffffffffffffffffffffffffff1673ffffffffffffffffffffffffffffffffffffffff16815260200190815260200160002060009054906101000a900473ffffffffffffffffffffffffffffffffffffffff1673ffffffffffffffffffffffffffffffffffffffff1663be4dd2b987876040518363ffffffff1660e01b8152600401612ad9929190614a4b565b60206040518083038186803b158015612af157600080fd5b505afa158015612b05573d6000803e3d6000fd5b505050506040513d601f19601f82011682018060405250612b299190810190614682565b600187604051612b399190614937565b9081526020016040518091039020600b0160008773ffffffffffffffffffffffffffffffffffffffff1673ffffffffffffffffffffffffffffffffffffffff16815260200190815260200160002060009054906101000a900473ffffffffffffffffffffffffffffffffffffffff1673ffffffffffffffffffffffffffffffffffffffff1663894436ef88886040518363ffffffff1660e01b8152600401612be2929190614a4b565b60206040518083038186803b158015612bfa57600080fd5b505afa158015612c0e573d6000803e3d6000fd5b505050506040513d601f19601f82011682018060405250612c329190810190614682565b600188604051612c429190614937565b9081526020016040518091039020600b0160008873ffffffffffffffffffffffffffffffffffffffff1673ffffffffffffffffffffffffffffffffffffffff16815260200190815260200160002060009054906101000a900473ffffffffffffffffffffffffffffffffffffffff1673ffffffffffffffffffffffffffffffffffffffff16639906269289896040518363ffffffff1660e01b8152600401612ceb929190614a4b565b60206040518083038186803b158015612d0357600080fd5b505afa158015612d17573d6000803e3d6000fd5b505050506040513d601f19601f82011682018060405250612d3b9190810190614682565b93509350935050612d6a565b808060010191505061296a565b5060008060008292508191508090509250925092505b9250925092565b6000600182604051612d839190614937565b9081526020016040518091039020600b0160003373ffffffffffffffffffffffffffffffffffffffff1673ffffffffffffffffffffffffffffffffffffffff16815260200190815260200160002060009054906101000a900473ffffffffffffffffffffffffffffffffffffffff1673ffffffffffffffffffffffffffffffffffffffff1663be4dd2b983336040518363ffffffff1660e01b8152600401612e2c929190614a7b565b60206040518083038186803b158015612e4457600080fd5b505afa158015612e58573d6000803e3d6000fd5b505050506040513d601f19601f82011682018060405250612e7c9190810190614682565b9050919050565b60036020528060005260406000206000915054906101000a900473ffffffffffffffffffffffffffffffffffffffff1681565b606060018a604051612ec89190614937565b90815260200160405180910390206000018054600181600116156101000203166002900480601f016020809104026020016040519081016040528092919081815260200182805460018160011615610100020316600290048015612f6d5780601f10612f4257610100808354040283529160200191612f6d565b820191906000526020600020905b815481529060010190602001808311612f5057829003601f168201915b505050505090506000815114612f8257600080fd5b6002871015612f9057600080fd5b6001861015612f9e57600080fd5b8960018b604051612faf9190614937565b90815260200160405180910390206000019080519060200190612fd3929190613ec0565b508860018b604051612fe59190614937565b90815260200160405180910390206001019080519060200190613009929190613ec0565b503360018b60405161301b9190614937565b908152602001604051809103902060040160006101000a81548173ffffffffffffffffffffffffffffffffffffffff021916908373ffffffffffffffffffffffffffffffffffffffff1602179055508660018b60405161307b9190614937565b9081526020016040518091039020600501819055508560018b6040516130a19190614937565b908152602001604051809103902060060181905550600060018b6040516130c89190614937565b9081526020016040518091039020600201819055508760018b6040516130ee9190614937565b908152602001604051809103902060030181905550600060018b6040516131159190614937565b908152602001604051809103902060090160006101000a81548160ff021916908315150217905550600060018b60405161314f9190614937565b908152602001604051809103902060080181905550600060018b6040516131769190614937565b9081526020016040518091039020600701819055508460018b60405161319c9190614937565b9081526020016040518091039020600a0190805190602001906131c0929190613ec0565b5060028a90806001815401808255809150509060018203906000526020600020016000909192909190915090805190602001906131fe929190613ec0565b505061320d8a856000856116b8565b50505050505050505050565b600060018360405161322b9190614937565b9081526020016040518091039020600b0160008373ffffffffffffffffffffffffffffffffffffffff1673ffffffffffffffffffffffffffffffffffffffff16815260200190815260200160002060009054906101000a900473ffffffffffffffffffffffffffffffffffffffff1673ffffffffffffffffffffffffffffffffffffffff16630bb0851c84846001876040516132c79190614937565b9081526020016040518091039020600801546001886040516132e99190614937565b9081526020016040518091039020600701546040518563ffffffff1660e01b815260040161331a9493929190614c60565b60206040518083038186803b15801561333257600080fd5b505afa158015613346573d6000803e3d6000fd5b505050506040513d601f19601f8201168201806040525061336a91908101906140b4565b905092915050565b60006001836040516133849190614937565b9081526020016040518091039020600b0160008373ffffffffffffffffffffffffffffffffffffffff1673ffffffffffffffffffffffffffffffffffffffff16815260200190815260200160002060009054906101000a900473ffffffffffffffffffffffffffffffffffffffff1673ffffffffffffffffffffffffffffffffffffffff1663894436ef84846040518363ffffffff1660e01b815260040161342d929190614a4b565b60206040518083038186803b15801561344557600080fd5b505afa158015613459573d6000803e3d6000fd5b505050506040513d601f19601f8201168201806040525061347d9190810190614682565b905092915050565b60008090505b60018260405161349b9190614937565b9081526020016040518091039020600c01805490508110156136f1576001826040516134c79190614937565b908152602001604051809103902060090160009054906101000a900460ff16156136e45760006001836040516134fd9190614937565b9081526020016040518091039020600b0160006001856040516135209190614937565b9081526020016040518091039020600c01848154811061353c57fe5b9060005260206000200160009054906101000a900473ffffffffffffffffffffffffffffffffffffffff1673ffffffffffffffffffffffffffffffffffffffff1673ffffffffffffffffffffffffffffffffffffffff16815260200190815260200160002060009054906101000a900473ffffffffffffffffffffffffffffffffffffffff1673ffffffffffffffffffffffffffffffffffffffff166319d48b35846001866040516135ee9190614937565b9081526020016040518091039020600c01858154811061360a57fe5b9060005260206000200160009054906101000a900473ffffffffffffffffffffffffffffffffffffffff166040518363ffffffff1660e01b8152600401613652929190614a4b565b60206040518083038186803b15801561366a57600080fd5b505afa15801561367e573d6000803e3d6000fd5b505050506040513d601f19601f820116820180604052506136a29190810190614682565b14156136e35760006001836040516136ba9190614937565b908152602001604051809103902060090160006101000a81548160ff0219169083151502179055505b5b808060010191505061348b565b5050565b6000809054906101000a900473ffffffffffffffffffffffffffffffffffffffff166001836040516137279190614937565b9081526020016040518091039020600b0160003373ffffffffffffffffffffffffffffffffffffffff1673ffffffffffffffffffffffffffffffffffffffff16815260200190815260200160002060006101000a81548173ffffffffffffffffffffffffffffffffffffffff021916908373ffffffffffffffffffffffffffffffffffffffff16021790555060006137bd613e09565b905060006003600083815260200190815260200160002060009054906101000a900473ffffffffffffffffffffffffffffffffffffffff1690506001846040516138079190614937565b9081526020016040518091039020600b0160003373ffffffffffffffffffffffffffffffffffffffff1673ffffffffffffffffffffffffffffffffffffffff16815260200190815260200160002060009054906101000a900473ffffffffffffffffffffffffffffffffffffffff1673ffffffffffffffffffffffffffffffffffffffff1663db59596885336001886040516138a39190614937565b9081526020016040518091039020600801546001896040516138c59190614937565b90815260200160405180910390206007015460018a6040516138e79190614937565b9081526020016040518091039020600301546040518663ffffffff1660e01b8152600401613919959493929190614ae9565b600060405180830381600087803b15801561393357600080fd5b505af1158015613947573d6000803e3d6000fd5b5050505060018460405161395b9190614937565b9081526020016040518091039020600b0160003373ffffffffffffffffffffffffffffffffffffffff1673ffffffffffffffffffffffffffffffffffffffff16815260200190815260200160002060009054906101000a900473ffffffffffffffffffffffffffffffffffffffff1673ffffffffffffffffffffffffffffffffffffffff16633b4b765533856001886040516139f79190614937565b908152602001604051809103902060030154856040518563ffffffff1660e01b8152600401613a299493929190614969565b600060405180830381600087803b158015613a4357600080fd5b505af1158015613a57573d6000803e3d6000fd5b5050505050505050565b6000809054906101000a900473ffffffffffffffffffffffffffffffffffffffff16600182604051613a939190614937565b9081526020016040518091039020600b0160003373ffffffffffffffffffffffffffffffffffffffff1673ffffffffffffffffffffffffffffffffffffffff16815260200190815260200160002060006101000a81548173ffffffffffffffffffffffffffffffffffffffff021916908373ffffffffffffffffffffffffffffffffffffffff1602179055506000821415613c1a57600181604051613b389190614937565b9081526020016040518091039020600b0160003373ffffffffffffffffffffffffffffffffffffffff1673ffffffffffffffffffffffffffffffffffffffff16815260200190815260200160002060009054906101000a900473ffffffffffffffffffffffffffffffffffffffff1673ffffffffffffffffffffffffffffffffffffffff166332d6a72e8285336040518463ffffffff1660e01b8152600401613be393929190614d6e565b600060405180830381600087803b158015613bfd57600080fd5b505af1158015613c11573d6000803e3d6000fd5b50505050613e04565b6001821415613d1557600181604051613c339190614937565b9081526020016040518091039020600b0160003373ffffffffffffffffffffffffffffffffffffffff1673ffffffffffffffffffffffffffffffffffffffff16815260200190815260200160002060009054906101000a900473ffffffffffffffffffffffffffffffffffffffff1673ffffffffffffffffffffffffffffffffffffffff166328b575148285336040518463ffffffff1660e01b8152600401613cde93929190614d6e565b600060405180830381600087803b158015613cf857600080fd5b505af1158015613d0c573d6000803e3d6000fd5b50505050613e03565b600181604051613d259190614937565b9081526020016040518091039020600b0160003373ffffffffffffffffffffffffffffffffffffffff1673ffffffffffffffffffffffffffffffffffffffff16815260200190815260200160002060009054906101000a900473ffffffffffffffffffffffffffffffffffffffff1673ffffffffffffffffffffffffffffffffffffffff1663a77df1a08285336040518463ffffffff1660e01b8152600401613dd093929190614d6e565b600060405180830381600087803b158015613dea57600080fd5b505af1158015613dfe573d6000803e3d6000fd5b505050505b5b505050565b600060606040518060400160405280600481526020017f494d4654000000000000000000000000000000000000000000000000000000008152509050602081015191505090565b600080831415613e635760009050613eba565b6000828402905082848281613e7457fe5b0414613eb5576040517f08c379a0000000000000000000000000000000000000000000000000000000008152600401613eac90614ee9565b60405180910390fd5b809150505b92915050565b828054600181600116156101000203166002900490600052602060002090601f016020900481019282601f10613f0157805160ff1916838001178555613f2f565b82800160010185558215613f2f579182015b82811115613f2e578251825591602001919060010190613f13565b5b509050613f3c9190613f40565b5090565b613f6291905b80821115613f5e576000816000905550600101613f46565b5090565b90565b600081359050613f748161522c565b92915050565b600081359050613f8981615243565b92915050565b600081519050613f9e81615243565b92915050565b600081359050613fb38161525a565b92915050565b600082601f830112613fca57600080fd5b8135613fdd613fd8826150a3565b615076565b91508082526020830160208301858383011115613ff957600080fd5b6140048382846151d9565b50505092915050565b600082601f83011261401e57600080fd5b813561403161402c826150cf565b615076565b9150808252602083016020830185838301111561404d57600080fd5b6140588382846151d9565b50505092915050565b60008135905061407081615271565b92915050565b60008151905061408581615271565b92915050565b60006020828403121561409d57600080fd5b60006140ab84828501613f65565b91505092915050565b6000602082840312156140c657600080fd5b60006140d484828501613f8f565b91505092915050565b6000602082840312156140ef57600080fd5b60006140fd84828501613fa4565b91505092915050565b60008060006060848603121561411b57600080fd5b600061412986828701613fa4565b935050602061413a86828701614061565b925050604084013567ffffffffffffffff81111561415757600080fd5b6141638682870161400d565b9150509250925092565b60006020828403121561417f57600080fd5b600082013567ffffffffffffffff81111561419957600080fd5b6141a584828501613fb9565b91505092915050565b6000602082840312156141c057600080fd5b600082013567ffffffffffffffff8111156141da57600080fd5b6141e68482850161400d565b91505092915050565b6000806040838503121561420257600080fd5b600083013567ffffffffffffffff81111561421c57600080fd5b6142288582860161400d565b925050602061423985828601613f65565b9150509250929050565b6000806000806080858703121561425957600080fd5b600085013567ffffffffffffffff81111561427357600080fd5b61427f8782880161400d565b945050602061429087828801613f65565b93505060406142a187828801613f65565b92505060606142b287828801613f65565b91505092959194509250565b6000806000606084860312156142d357600080fd5b600084013567ffffffffffffffff8111156142ed57600080fd5b6142f98682870161400d565b935050602061430a86828701613f65565b925050604061431b86828701613f7a565b9150509250925092565b600080600080600060a0868803121561433d57600080fd5b600086013567ffffffffffffffff81111561435757600080fd5b6143638882890161400d565b955050602061437488828901613f65565b945050604061438588828901613f7a565b935050606061439688828901613f7a565b92505060806143a788828901613f7a565b9150509295509295909350565b600080600080608085870312156143ca57600080fd5b600085013567ffffffffffffffff8111156143e457600080fd5b6143f08782880161400d565b945050602061440187828801613f65565b935050604061441287828801614061565b925050606061442387828801613f65565b91505092959194509250565b60008060008060008060c0878903121561444857600080fd5b600087013567ffffffffffffffff81111561446257600080fd5b61446e89828a0161400d565b965050602061447f89828a01613f65565b955050604061449089828a01614061565b94505060606144a189828a01613f7a565b93505060806144b289828a01613f7a565b92505060a06144c389828a01613f7a565b9150509295509295509295565b60008060008060008060008060006101208a8c0312156144ef57600080fd5b60008a013567ffffffffffffffff81111561450957600080fd5b6145158c828d0161400d565b99505060208a013567ffffffffffffffff81111561453257600080fd5b61453e8c828d0161400d565b985050604061454f8c828d01614061565b97505060606145608c828d01614061565b96505060806145718c828d01614061565b95505060a08a013567ffffffffffffffff81111561458e57600080fd5b61459a8c828d0161400d565b94505060c06145ab8c828d01614061565b93505060e06145bc8c828d01613f65565b9250506101006145ce8c828d01613f65565b9150509295985092959850929598565b600080600080608085870312156145f457600080fd5b600085013567ffffffffffffffff81111561460e57600080fd5b61461a8782880161400d565b945050602061462b87828801614061565b935050604061463c87828801613f7a565b925050606061464d87828801613f65565b91505092959194509250565b60006020828403121561466b57600080fd5b600061467984828501614061565b91505092915050565b60006020828403121561469457600080fd5b60006146a284828501614076565b91505092915050565b600080604083850312156146be57600080fd5b60006146cc85828601614076565b92505060206146dd85828601613f8f565b9150509250929050565b6000806000606084860312156146fc57600080fd5b600061470a86828701614076565b935050602061471b86828701614076565b925050604061472c86828701614076565b9150509250925092565b600080600080600080600060e0888a03121561475157600080fd5b600061475f8a828b01614076565b97505060206147708a828b01614076565b96505060406147818a828b01614076565b95505060606147928a828b01614076565b94505060806147a38a828b01614076565b93505060a06147b48a828b01614076565b92505060c06147c58a828b01614076565b91505092959891949750929550565b6147dd8161517f565b82525050565b6147ec8161512d565b82525050565b6147fb8161513f565b82525050565b61480a8161514b565b82525050565b61481981615191565b82525050565b600061482a82615106565b6148348185615111565b93506148448185602086016151e8565b61484d8161521b565b840191505092915050565b600061486382615106565b61486d8185615122565b935061487d8185602086016151e8565b80840191505092915050565b6000614894826150fb565b61489e8185615111565b93506148ae8185602086016151e8565b6148b78161521b565b840191505092915050565b60006148cf602183615111565b91507f536166654d6174683a206d756c7469706c69636174696f6e206f766572666c6f60008301527f77000000000000000000000000000000000000000000000000000000000000006020830152604082019050919050565b61493181615175565b82525050565b60006149438284614858565b915081905092915050565b600060208201905061496360008301846147e3565b92915050565b600060808201905061497e60008301876147d4565b61498b60208301866147e3565b6149986040830185614928565b6149a560608301846147e3565b95945050505050565b60006080820190506149c360008301876147e3565b6149d060208301866147e3565b6149dd6040830185614928565b6149ea60608301846147e3565b95945050505050565b6000602082019050614a0860008301846147f2565b92915050565b6000602082019050614a236000830184614810565b92915050565b60006020820190508181036000830152614a438184614889565b905092915050565b60006040820190508181036000830152614a65818561481f565b9050614a7460208301846147e3565b9392505050565b60006040820190508181036000830152614a95818561481f565b9050614aa460208301846147d4565b9392505050565b60006060820190508181036000830152614ac5818661481f565b9050614ad460208301856147d4565b614ae16040830184614928565b949350505050565b600060a0820190508181036000830152614b03818861481f565b9050614b1260208301876147d4565b614b1f6040830186614928565b614b2c6060830185614928565b614b396080830184614928565b9695505050505050565b6000610100820190508181036000830152614b5e818b61481f565b9050614b6d602083018a6147d4565b614b7a6040830189614928565b614b876060830188614928565b614b946080830187614928565b614ba160a08301866147e3565b614bae60c08301856147f2565b614bbb60e08301846147e3565b9998505050505050505050565b600060a0820190508181036000830152614be2818861481f565b9050614bf160208301876147e3565b614bfe60408301866147f2565b614c0b60608301856147f2565b614c1860808301846147f2565b9695505050505050565b60006060820190508181036000830152614c3c818661481f565b9050614c4b60208301856147e3565b614c586040830184614928565b949350505050565b60006080820190508181036000830152614c7a818761481f565b9050614c8960208301866147e3565b614c966040830185614928565b614ca36060830184614928565b95945050505050565b600060a0820190508181036000830152614cc6818861481f565b9050614cd560208301876147e3565b614ce26040830186614928565b614cef6060830185614928565b614cfc6080830184614928565b9695505050505050565b600060c0820190508181036000830152614d20818961481f565b9050614d2f60208301886147e3565b614d3c6040830187614928565b614d496060830186614928565b614d566080830185614928565b614d6360a0830184614928565b979650505050505050565b60006060820190508181036000830152614d88818661481f565b9050614d976020830185614801565b614da460408301846147d4565b949350505050565b600060e0820190508181036000830152614dc6818a61481f565b9050614dd56020830189614928565b614de26040830188614928565b614def6060830187614928565b8181036080830152614e01818661481f565b9050614e1060a08301856147e3565b614e1d60c08301846147f2565b98975050505050505050565b6000610160820190508181036000830152614e44818e614889565b90508181036020830152614e58818d614889565b9050614e67604083018c614928565b614e74606083018b614928565b614e81608083018a6147e3565b614e8e60a0830189614928565b614e9b60c0830188614928565b614ea860e0830187614928565b614eb6610100830186614928565b614ec46101208301856147f2565b818103610140830152614ed78184614889565b90509c9b505050505050505050505050565b60006020820190508181036000830152614f02816148c2565b9050919050565b6000602082019050614f1e6000830184614928565b92915050565b6000604082019050614f396000830185614928565b614f4660208301846147f2565b9392505050565b6000604082019050614f626000830185614928565b614f6f6020830184614928565b9392505050565b600060a082019050614f8b6000830188614928565b614f986020830187614928565b8181036040830152614faa818661481f565b9050614fb96060830185614928565b614fc660808301846147f2565b9695505050505050565b6000606082019050614fe56000830186614928565b614ff26020830185614928565b614fff6040830184614928565b949350505050565b600060e08201905061501c600083018a614928565b6150296020830189614928565b6150366040830188614928565b6150436060830187614928565b6150506080830186614928565b61505d60a0830185614928565b61506a60c0830184614928565b98975050505050505050565b6000604051905081810181811067ffffffffffffffff8211171561509957600080fd5b8060405250919050565b600067ffffffffffffffff8211156150ba57600080fd5b601f19601f8301169050602081019050919050565b600067ffffffffffffffff8211156150e657600080fd5b601f19601f8301169050602081019050919050565b600081519050919050565b600081519050919050565b600082825260208201905092915050565b600081905092915050565b600061513882615155565b9050919050565b60008115159050919050565b6000819050919050565b600073ffffffffffffffffffffffffffffffffffffffff82169050919050565b6000819050919050565b600061518a826151b5565b9050919050565b600061519c826151a3565b9050919050565b60006151ae82615155565b9050919050565b60006151c0826151c7565b9050919050565b60006151d282615155565b9050919050565b82818337600083830152505050565b60005b838110156152065780820151818401526020810190506151eb565b83811115615215576000848401525b50505050565b6000601f19601f8301169050919050565b6152358161512d565b811461524057600080fd5b50565b61524c8161513f565b811461525757600080fd5b50565b6152638161514b565b811461526e57600080fd5b50565b61527a81615175565b811461528557600080fd5b5056fea365627a7a72315820bd1c93f6c251f0701445e26d20384818700d5ec3a108a93f380d1cede3be8c786c6578706572696d656e74616cf564736f6c634300050b0040",
  "source": "pragma solidity 0.5.11;\nimport './PA.sol';\npragma experimental ABIEncoderV2;\n\n\n\ncontract tontine_Cercle1 {\n    using SafeMath for uint256;\nparticipant_contract a;\n\n\n    struct Tontine {\n        string ID_Tontine;\n        string Nom_Tontine;\n        uint256 Date;\n        uint256 Montant;\n        address Createur;\n        uint256 Nbr_participants;\n        uint256 Nbr_cycles;\n        uint256 Iteration_enCours;\n        uint256 Cycle_enCours;\n        bool Etat;\n        string Frequence;\n      //  uint256 SommeParMois;\n        mapping(address => participant_contract) ListeParticipant;\n        address[] participantsAddress;\n    }\n\n     mapping(string => Tontine) public tontineCercle;\n\n    string[] public tontineList;\n    \n        mapping(bytes32 => address) public tokens;\n\n    ERC20 public ERC20Interface;\n\n  constructor (participant_contract _a) public {\n      \n    a = _a;\n  }\n  \n  \n    /* ********************* Transaction Globale **************************/\n\n  \n      function convertttt() internal pure returns (bytes32 result) {\n        string memory testFoo = \"IMFT\";\n\n        assembly {\n            result := mload(add(testFoo, 32))\n\n        }\n\n    }\n\n    /**\n \n    * @dev add address of token to list of supported tokens using * token symbol as identifier in mapping */\n\n    function addNewToken(address address_) public returns (bool) {\n        bytes32 symbol_ = convertttt();\n\n        tokens[symbol_] = address_;\n\n        return true;\n\n    }\n    \n    \n       function transaction(address add,address add1,uint256 m) internal {\n     //   participant_contract a = new participant_contract();\n               bytes32 symbol_ = convertttt();\n        address contract_ = tokens[symbol_];\n       \n        a.transaction(add,add1,m,contract_);\n    }\n    \n       \n  \n  /* ********************* Tontine Create + Get **************************/\n\n  \n    function addTontine(\n        string memory ID_Tontine,\n        string memory Nom_Tontine,\n        uint256 Montant,\n        uint256 Nbr_participants,\n        uint256 Nbr_cycles,\n        string memory Frequence,\n        uint256 Ordre,\n        address addressParticipant,\n        address addressTon\n    ) public { \n        \n        bytes memory identi = bytes(tontineCercle[ID_Tontine].ID_Tontine);\n\n        require(identi.length == 0);\n        require(Nbr_participants >= 2);\n        require(Nbr_cycles >= 1);\n   \n\n        tontineCercle[ID_Tontine].ID_Tontine = ID_Tontine;\n\n        tontineCercle[ID_Tontine].Nom_Tontine = Nom_Tontine;\n\n        tontineCercle[ID_Tontine].Createur = msg.sender;\n\n        tontineCercle[ID_Tontine].Nbr_participants = Nbr_participants;\n\n        tontineCercle[ID_Tontine].Nbr_cycles = Nbr_cycles;\n\n        tontineCercle[ID_Tontine].Date = 0;\n\n       // tontineCercle[ID_Tontine].SommeParMois = 0;\n\n        tontineCercle[ID_Tontine].Montant = Montant;\n\n        tontineCercle[ID_Tontine].Etat = false;\n\n        tontineCercle[ID_Tontine].Cycle_enCours = 0;\n\n        tontineCercle[ID_Tontine].Iteration_enCours = 0;\n\n        tontineCercle[ID_Tontine].Frequence = Frequence;\n\n        tontineList.push(ID_Tontine);\n        \n       // tontineCercle[ID_Tontine].participantsAddress.push(addressParticipant);\n\n       \n        addParticipant(ID_Tontine, Ordre,false,addressTon);\n        \n\n    }\n\n    \n    function getTontine(string memory ID_Tontine)\n        public\n        view\n        returns (\n            string memory,\n            uint256,\n            uint256,\n            uint256,\n            string memory,\n            address,\n            bool\n        )\n    {\n        return (\n            tontineCercle[ID_Tontine].Nom_Tontine,\n            tontineCercle[ID_Tontine].Nbr_participants,\n            tontineCercle[ID_Tontine].Montant,\n            tontineCercle[ID_Tontine].Nbr_cycles,\n            tontineCercle[ID_Tontine].Frequence,\n            tontineCercle[ID_Tontine].Createur,\n            tontineCercle[ID_Tontine].Etat\n            \n        );\n\n    }\n    \n          /* **************************** Ajouter Participant : Post + Get      ******************************/\n\n    \n    \n           function addParticipant(string memory ID_Tontine, uint256 Ordre,bool decline, address addressTon) public {\n                 //  tontineCercle[ID_Tontine].ListeParticipant[msg.sender] = new participant_contract();\n\ntontineCercle[ID_Tontine].ListeParticipant[msg.sender] =a;\n\ntontineCercle[ID_Tontine].ListeParticipant[msg.sender].addUser(ID_Tontine,msg.sender, Ordre);\n       bytes32 symbol_ = convertttt();\n        address contract_ = tokens[symbol_];\ntontineCercle[ID_Tontine].participantsAddress.push(msg.sender);\n       if(decline){\n           tontineCercle[ID_Tontine].Date = now;\n            tontineCercle[ID_Tontine].Etat = false;\n       }else{\n           \n           tontineCercle[ID_Tontine].ListeParticipant[msg.sender].addTxGarantie(ID_Tontine, msg.sender, \n           tontineCercle[ID_Tontine].Cycle_enCours, tontineCercle[ID_Tontine].Iteration_enCours, tontineCercle[ID_Tontine].Montant, addressTon, true,contract_);\n        if (\n            tontineCercle[ID_Tontine].participantsAddress.length ==\n            tontineCercle[ID_Tontine].Nbr_participants\n        ) {\n            tontineCercle[ID_Tontine].Date = now;\n            tontineCercle[ID_Tontine].Etat = true;\n            tontineCercle[ID_Tontine].Cycle_enCours = 1;\n            tontineCercle[ID_Tontine].Iteration_enCours = 1;\n        }\n           \n       }\n\n    }\n    \n    //  supprimer: non utilse\n    \n    function getPart(string memory ID_Tontine, address addresPart) public view returns(uint256, bool) {\n       return(tontineCercle[ID_Tontine].ListeParticipant[addresPart].get(ID_Tontine,addresPart));\n        \n    }\n    \n    \n      /* ****************************cotisation : Post + Get      ******************************/\n\n    \n\n      function cotisation(string memory ID_Tontine, address addressTon) public {\n              tontineCercle[ID_Tontine].ListeParticipant[msg.sender] = a;\n\n      //  tontineCercle[ID_Tontine].ListeParticipant[msg.sender] = new participant_contract();\n      bytes32 symbol_ = convertttt();\n        address contract_ = tokens[symbol_];\n    //     tontineCercle[ID_Tontine].ListeParticipant[msg.sender].cotisation(ID_Tontine, addressTon, tontineCercle[ID_Tontine].Cycle_enCours,\n    //tontineCercle[ID_Tontine].Iteration_enCours, tontineCercle[ID_Tontine].Montant, contract_);\n    tontineCercle[ID_Tontine].ListeParticipant[msg.sender].addTxCotisation(ID_Tontine, msg.sender, tontineCercle[ID_Tontine].Cycle_enCours,\n    tontineCercle[ID_Tontine].Iteration_enCours, tontineCercle[ID_Tontine].Montant);\n     tontineCercle[ID_Tontine].ListeParticipant[msg.sender].transaction( msg.sender, addressTon, tontineCercle[ID_Tontine].Montant, contract_);\n       \n      /* tontineCercle[ID_Tontine].SommeParMois = tontineCercle[ID_Tontine].Montant.add(\n            tontineCercle[ID_Tontine].SommeParMois\n        );*/\n\n    }\n    \n    //  supprimer: non utilise (pour test)\n    \n            function getCotnbr(string memory ID_Tontine, address Adherent_Address) public view returns(uint256) {\n       return(tontineCercle[ID_Tontine].ListeParticipant[Adherent_Address].getCotNbr(ID_Tontine,Adherent_Address));\n        \n    }\n    \n        \n\n    \n          /* **************************** Recharge et Garantie  :Post + Get      ******************************/\n          \n          \n          \n              function RechargeGarantie(\n        string memory ID_Tontine,\n        address tontine_Address,\n        bool Type\n    ) public {\n             bytes32 symbol_ = convertttt();\n        address contract_ = tokens[symbol_];\n\n       tontineCercle[ID_Tontine].ListeParticipant[msg.sender].addTxGarantie(\n      ID_Tontine,\n         msg.sender,\n         tontineCercle[ID_Tontine].Cycle_enCours,\n         tontineCercle[ID_Tontine].Iteration_enCours,\n         tontineCercle[ID_Tontine].Montant,\n         tontine_Address,\n         Type,\n         contract_);\n\n    }\n\n              //  supprimer: non utilise (pour test)\n              \n     function getGarnbr(string memory ID_Tontine) public view returns(uint256) {\n       return(tontineCercle[ID_Tontine].ListeParticipant[msg.sender].getGarNbr(ID_Tontine,msg.sender));\n        \n    }\n    /* **************************** distribution  :Post + Get      ******************************/\n\n    function distribution(\n        string memory ID_Tontine,\n        address Address_Receiver,\n        uint256 Ordre,\n        address addressTon\n    ) public {\n        uint256 nbr = tontineCercle[ID_Tontine].Nbr_participants;\n        uint256 montant = tontineCercle[ID_Tontine].Montant;\n\n       // require(tontineCercle[ID_Tontine].SommeParMois == montant.mul(nbr));\n        require(tontineCercle[ID_Tontine].Etat);\n              //  tontineCercle[ID_Tontine].ListeParticipant[msg.sender] = new participant_contract();\n\ntontineCercle[ID_Tontine].ListeParticipant[Address_Receiver] = a;\n           \n           for(uint i=0; i< tontineCercle[ID_Tontine].participantsAddress.length; i++) {\n                if (tontineCercle[ID_Tontine].ListeParticipant[Address_Receiver].getLastCotisation(ID_Tontine, tontineCercle[ID_Tontine].participantsAddress[i], tontineCercle[ID_Tontine].Cycle_enCours,  tontineCercle[ID_Tontine].Iteration_enCours)) \n            {\n               tontineCercle[ID_Tontine].ListeParticipant[Address_Receiver].verifgarantie(ID_Tontine, tontineCercle[ID_Tontine].participantsAddress[i], \n           tontineCercle[ID_Tontine].Cycle_enCours, tontineCercle[ID_Tontine].Iteration_enCours, montant);\n           }\n            }\n\n\n        if (Ordre == tontineCercle[ID_Tontine].Iteration_enCours) {\n           bytes32 symbol_ = convertttt();\n        address contract_ = tokens[symbol_];\n\n             tontineCercle[ID_Tontine].ListeParticipant[Address_Receiver].transaction(\n                  addressTon,\n            Address_Receiver,\n            montant.mul(nbr),\n            contract_ \n            \n        );\n            tontineCercle[ID_Tontine].ListeParticipant[Address_Receiver]\n            .addTxDistribution( ID_Tontine, Address_Receiver, tontineCercle[ID_Tontine].Cycle_enCours, tontineCercle[ID_Tontine].Iteration_enCours, montant, nbr);\n         \n\n           // tontineCercle[ID_Tontine].SommeParMois = 0;\n            if (\n                tontineCercle[ID_Tontine].Iteration_enCours ==\n                tontineCercle[ID_Tontine].Nbr_participants\n            ) {\n                tontineCercle[ID_Tontine].Cycle_enCours += 1;\n                tontineCercle[ID_Tontine].Iteration_enCours = 1;\n\n            } else {\n                tontineCercle[ID_Tontine].Iteration_enCours += 1;\n\n            }\n\n        }\n\n    }\n    \n        //  supprimer: non utilise (pour test)\n\n           function getDisnbr(string memory ID_Tontine, address Adherent_Address) public view returns(uint256) {\n       return(tontineCercle[ID_Tontine].ListeParticipant[Adherent_Address].getDisNbr(ID_Tontine,Adherent_Address));\n        \n    }\n    \n    \n     function getLastCotisation(string memory ID_Tontine, address Adherent_Address) public view returns(bool) {\n       return(tontineCercle[ID_Tontine].ListeParticipant[Adherent_Address].getLastCotisation(ID_Tontine,Adherent_Address,tontineCercle[ID_Tontine].Cycle_enCours, tontineCercle[ID_Tontine].Iteration_enCours));\n        \n    }\n    function interruption(string memory ID_Tontine) public {\n    \n    \n    for(uint i=0; i< tontineCercle[ID_Tontine].participantsAddress.length; i++) {\n        if (tontineCercle[ID_Tontine].Etat ) {\n            \n             if (tontineCercle[ID_Tontine].ListeParticipant[tontineCercle[ID_Tontine].participantsAddress[i]].getLastCumule(ID_Tontine,tontineCercle[ID_Tontine].participantsAddress[i]) == 0) {\n                tontineCercle[ID_Tontine].Etat = false;\n            }\n        }\n        \n    }\n    }\n    \n   /* function verifGarantie(string memory ID_Tontine, address Address_Receiver) public  {\n     // tontineCercle[ID_Tontine].ListeParticipant[Address_Receiver] = a;\n      uint256 nbr = tontineCercle[ID_Tontine].Nbr_participants;\n        uint256 montant = tontineCercle[ID_Tontine].Montant;\n        //uint256 cumule ;\n               bytes32 symbol_ = convertttt();\n        address contract_ = tokens[symbol_];\n        //bool payementCotisation = true;\n    if(tontineCercle[ID_Tontine].Etat){\n      // if (tontineCercle[ID_Tontine].SommeParMois != montant.mul(nbr)) {\n        \n                   \n            if (tontineCercle[ID_Tontine].ListeParticipant[Address_Receiver].getLastCotisation(ID_Tontine,Address_Receiver, tontineCercle[ID_Tontine].Cycle_enCours,  tontineCercle[ID_Tontine].Iteration_enCours)) \n            {\n              \n                  \n              // cumule =  tontineCercle[ID_Tontine].ListeParticipant[Address_Receiver].getLastCumule(Address_Receiver);\n\n               //  if (tontineCercle[ID_Tontine].ListeParticipant[Address_Receiver].getLastCumule(Address_Receiver) != 0) {\n              \n                 // tontineCercle[ID_Tontine].SommeParMois += montant;\n                        \n                      tontineCercle[ID_Tontine].ListeParticipant[Address_Receiver] = a;\n\n\n                        tontineCercle[ID_Tontine].ListeParticipant[Address_Receiver].verifgarantie(ID_Tontine, Address_Receiver, \n           tontineCercle[ID_Tontine].Cycle_enCours, tontineCercle[ID_Tontine].Iteration_enCours, montant);\n \n\n\n             //  } \n              // else {\n                //    tontineCercle[ID_Tontine].Etat = false;\n               // }\n            }\n\n    //    }\n      \n    }\n    }*/\n    \n   /* function getsommeparmois(string memory ID_Tontine) public view returns(uint256) {\n        return tontineCercle[ID_Tontine].SommeParMois;\n    }*/\n    \n    \n        /* **************************** hashFunction      ******************************/\n        \n        // selon le choix de type transaction(0,1,2) on va modifier le hash de la transaction\n\n    function setTransactionHash(\n        bytes32 trHash,\n        uint256 typeTransaction,\n        string memory ID_Tontine\n    ) public {\n        // 0 : garantie\n        tontineCercle[ID_Tontine].ListeParticipant[msg.sender] =a;\n\n   if(typeTransaction == 0) {\n       tontineCercle[ID_Tontine].ListeParticipant[msg.sender].setTransactionHashGarantie(ID_Tontine,trHash,msg.sender);\n\n   }\n           // 1 : cotisation\n\n   else if(typeTransaction == 1){\n              tontineCercle[ID_Tontine].ListeParticipant[msg.sender].setTransactionHashCotisation(ID_Tontine,trHash,msg.sender);\n\n   }\n           // 2 : distribution\n\n   else{\n              tontineCercle[ID_Tontine].ListeParticipant[msg.sender].setTransactionHashDistribution(ID_Tontine,trHash,msg.sender);\n\n   }\n\n    }\n    \n    \n    /* **************************** fonction pour affichage dans node      ******************************/\n\n\n\n        function getNumberParticipantByTontine(string memory ID_Tontine) public view returns(uint256) {\n       return(tontineCercle[ID_Tontine].participantsAddress.length);\n        \n    }\n    \n     /* ****************************  affichage plus de dtails tontine      ******************************/\n\n   function GetGarCotiDisByIndex(\n        string memory ID_Tontine,\n        address Address_Receiver,\n        uint256 indice ,\n           bool Gar,\n        bool Cot,\n        bool Dis\n    )\n        public\n        view\n        returns (uint256, uint256, uint256 )\n    {\n        \n        for(uint256 i=0; i< tontineCercle[ID_Tontine].participantsAddress.length; i++) {\n    if(Address_Receiver == tontineCercle[ID_Tontine].participantsAddress[i]) {\n           //    tontineCercle[ID_Tontine].ListeParticipant[Address_Receiver] =a;\n\n           if (Gar) {\n                     return(tontineCercle[ID_Tontine].ListeParticipant[Address_Receiver].getGarantie(ID_Tontine,Address_Receiver,indice));\n\n           }\n            if (Cot) {\n                    return(tontineCercle[ID_Tontine].ListeParticipant[Address_Receiver].getCotisation(ID_Tontine,Address_Receiver,indice));\n\n\n            \n            }\n                \n            if (Dis) {\n                    return(tontineCercle[ID_Tontine].ListeParticipant[Address_Receiver].getDistribution(ID_Tontine,Address_Receiver,indice));\n\n         }\n     }\n        }\n        \n        return(0,0,0);\n\n            \n        \n    }\n    \n    \n    \n             function getLeng(\n        string memory ID_Tontine,\n        address Adherent_Address )\n        public\n        view\n        returns (uint256,uint256,uint256)\n    {\n    \n  for(uint256 i=0; i< tontineCercle[ID_Tontine].participantsAddress.length; i++) {\nif(Adherent_Address == tontineCercle[ID_Tontine].participantsAddress[i]) {\n         return (tontineCercle[ID_Tontine].ListeParticipant[Adherent_Address].getGarNbr(ID_Tontine,Adherent_Address),tontineCercle[ID_Tontine].ListeParticipant[Adherent_Address].getCotNbr(ID_Tontine,Adherent_Address),\n        tontineCercle[ID_Tontine].ListeParticipant[Adherent_Address].getDisNbr(ID_Tontine,Adherent_Address));\n       \n  }  }\n \n  return (0,0,0); \n        \n    }\n\n    /* ******************************** fonction pour le node (schedule)******************************/\n\n    function getNumIterationCycle(string memory ID_Tontine)\n        public\n        view\n        returns (uint256, uint256)\n    {\n        return (\n            tontineCercle[ID_Tontine].Nbr_participants.mul(\n                tontineCercle[ID_Tontine].Nbr_cycles\n            ), tontineCercle[ID_Tontine].Nbr_cycles\n        );\n\n    }\n    \n    /* ******************************** fonction pour le node (schedule et notification)******************************/\n\n\n    function getDateLancement(string memory ID_Tontine)\n        public\n        view\n        returns (uint256, uint256, string memory, uint256, bool)\n    {\n       \n        return (\n            tontineCercle[ID_Tontine].Date,\n            tontineCercle[ID_Tontine].Iteration_enCours,\n            tontineCercle[ID_Tontine].Frequence,\n            tontineCercle[ID_Tontine].Cycle_enCours,\n            tontineCercle[ID_Tontine].Etat\n        );\n    \n    }\n    /* ******************************** envoi Mondataire******************************/\n\n\n  function envoiMondataire(string memory ID_Tontine,address tontine_address, address mondataire1_address, address mondataire2_address) public \n    {           bytes32 symbol_ = convertttt();\n        address contract_ = tokens[symbol_];\n        ERC20Interface = ERC20(contract_);\n\n             tontineCercle[ID_Tontine].ListeParticipant[mondataire1_address].transaction(\n                  tontine_address,\n            mondataire1_address,\n          ERC20Interface.balanceOf(tontine_address)/2,\n            contract_ \n            \n        );\n               \n\n             tontineCercle[ID_Tontine].ListeParticipant[mondataire2_address].transaction(\n                  tontine_address,\n            mondataire2_address,\n           ERC20Interface.balanceOf(tontine_address),\n            contract_ \n            \n        );\n  \n\n    }\n    \n        /* ******************************** dernires oprations******************************/\n\n        function getLastGarCotDist(\n        string memory ID_Tontine,\n        address Address_Receiver,\n        bool Gar,\n        bool Cot,\n        bool Dis) public  view returns (uint256, uint256, uint256, uint256, uint256, uint256, uint256)\n    {\n        for(uint256 i=0; i< tontineCercle[ID_Tontine].participantsAddress.length; i++) {\nif(Address_Receiver == tontineCercle[ID_Tontine].participantsAddress[i]) {\n   return ( tontineCercle[ID_Tontine].ListeParticipant[Address_Receiver].getLastGarCotDist(\n       ID_Tontine,\n        Address_Receiver,\n         Gar,\n         Cot,\n         Dis));\n     }\n    }\n    return(0,0,0,0,0,0,0);\n    }\n\n \n}\n\n",
  "sourcePath": "/home/ubuntu/az/paylis/Tontine/contracts/CA.sol",
  "compiler": {
    "name": "solc",
    "version": "0.5.11+commit.c082d0b4.Emscripten.clang"
  },
  "schemaVersion": "3.0.19",
  "updatedAt": "2021-02-03T09:50:53.738Z",
  "networkType": "ethereum",
  "devdoc": {
    "methods": {
      "addNewToken(address)": {
        "details": "add address of token to list of supported tokens using * token symbol as identifier in mapping "
      }
    }
  },
  "userdoc": {
    "methods": {}
  }
}