{
  "contractName": "tontine_Cercle",
  "abi": [
    {
      "constant": true,
      "inputs": [
        {
          "internalType": "string",
          "name": "",
          "type": "string"
        }
      ],
      "name": "tontineCercle",
      "outputs": [
        {
          "internalType": "string",
          "name": "ID_Tontine",
          "type": "string"
        },
        {
          "internalType": "string",
          "name": "Nom_Tontine",
          "type": "string"
        },
        {
          "internalType": "uint256",
          "name": "Date",
          "type": "uint256"
        },
        {
          "internalType": "uint256",
          "name": "Montant",
          "type": "uint256"
        },
        {
          "internalType": "address",
          "name": "Createur",
          "type": "address"
        },
        {
          "internalType": "uint256",
          "name": "Nbr_participants",
          "type": "uint256"
        },
        {
          "internalType": "uint256",
          "name": "Nbr_cycles",
          "type": "uint256"
        },
        {
          "internalType": "uint256",
          "name": "Iteration_enCours",
          "type": "uint256"
        },
        {
          "internalType": "uint256",
          "name": "Cycle_enCours",
          "type": "uint256"
        },
        {
          "internalType": "bool",
          "name": "Etat",
          "type": "bool"
        },
        {
          "internalType": "string",
          "name": "Frequence",
          "type": "string"
        },
        {
          "internalType": "uint256",
          "name": "SommeParMois",
          "type": "uint256"
        }
      ],
      "payable": false,
      "stateMutability": "view",
      "type": "function"
    },
    {
      "constant": true,
      "inputs": [],
      "name": "ERC20Interface",
      "outputs": [
        {
          "internalType": "contract ERC20",
          "name": "",
          "type": "address"
        }
      ],
      "payable": false,
      "stateMutability": "view",
      "type": "function"
    },
    {
      "constant": true,
      "inputs": [
        {
          "internalType": "uint256",
          "name": "",
          "type": "uint256"
        }
      ],
      "name": "tontineList",
      "outputs": [
        {
          "internalType": "string",
          "name": "",
          "type": "string"
        }
      ],
      "payable": false,
      "stateMutability": "view",
      "type": "function"
    },
    {
      "constant": true,
      "inputs": [
        {
          "internalType": "bytes32",
          "name": "",
          "type": "bytes32"
        }
      ],
      "name": "tokens",
      "outputs": [
        {
          "internalType": "address",
          "name": "",
          "type": "address"
        }
      ],
      "payable": false,
      "stateMutability": "view",
      "type": "function"
    },
    {
      "inputs": [
        {
          "internalType": "contract participant_contract",
          "name": "_a",
          "type": "address"
        }
      ],
      "payable": false,
      "stateMutability": "nonpayable",
      "type": "constructor"
    },
    {
      "constant": false,
      "inputs": [
        {
          "internalType": "address",
          "name": "address_",
          "type": "address"
        }
      ],
      "name": "addNewToken",
      "outputs": [
        {
          "internalType": "bool",
          "name": "",
          "type": "bool"
        }
      ],
      "payable": false,
      "stateMutability": "nonpayable",
      "type": "function"
    },
    {
      "constant": false,
      "inputs": [
        {
          "internalType": "string",
          "name": "ID_Tontine",
          "type": "string"
        },
        {
          "internalType": "string",
          "name": "Nom_Tontine",
          "type": "string"
        },
        {
          "internalType": "uint256",
          "name": "Montant",
          "type": "uint256"
        },
        {
          "internalType": "uint256",
          "name": "Nbr_participants",
          "type": "uint256"
        },
        {
          "internalType": "uint256",
          "name": "Nbr_cycles",
          "type": "uint256"
        },
        {
          "internalType": "string",
          "name": "Frequence",
          "type": "string"
        },
        {
          "internalType": "uint256",
          "name": "Ordre",
          "type": "uint256"
        },
        {
          "internalType": "address",
          "name": "addressParticipant",
          "type": "address"
        },
        {
          "internalType": "address",
          "name": "addressTon",
          "type": "address"
        }
      ],
      "name": "addTontine",
      "outputs": [],
      "payable": false,
      "stateMutability": "nonpayable",
      "type": "function"
    },
    {
      "constant": true,
      "inputs": [
        {
          "internalType": "string",
          "name": "ID_Tontine",
          "type": "string"
        }
      ],
      "name": "getTontine",
      "outputs": [
        {
          "internalType": "string",
          "name": "",
          "type": "string"
        },
        {
          "internalType": "uint256",
          "name": "",
          "type": "uint256"
        },
        {
          "internalType": "uint256",
          "name": "",
          "type": "uint256"
        },
        {
          "internalType": "uint256",
          "name": "",
          "type": "uint256"
        },
        {
          "internalType": "string",
          "name": "",
          "type": "string"
        },
        {
          "internalType": "address",
          "name": "",
          "type": "address"
        },
        {
          "internalType": "uint256",
          "name": "",
          "type": "uint256"
        }
      ],
      "payable": false,
      "stateMutability": "view",
      "type": "function"
    },
    {
      "constant": false,
      "inputs": [
        {
          "internalType": "string",
          "name": "ID_Tontine",
          "type": "string"
        },
        {
          "internalType": "uint256",
          "name": "Ordre",
          "type": "uint256"
        },
        {
          "internalType": "bool",
          "name": "decline",
          "type": "bool"
        },
        {
          "internalType": "address",
          "name": "addressTon",
          "type": "address"
        }
      ],
      "name": "addParticipant",
      "outputs": [],
      "payable": false,
      "stateMutability": "nonpayable",
      "type": "function"
    },
    {
      "constant": true,
      "inputs": [
        {
          "internalType": "string",
          "name": "ID_Tontine",
          "type": "string"
        },
        {
          "internalType": "address",
          "name": "addresPart",
          "type": "address"
        }
      ],
      "name": "getPart",
      "outputs": [
        {
          "internalType": "uint256",
          "name": "",
          "type": "uint256"
        },
        {
          "internalType": "bool",
          "name": "",
          "type": "bool"
        }
      ],
      "payable": false,
      "stateMutability": "view",
      "type": "function"
    },
    {
      "constant": false,
      "inputs": [
        {
          "internalType": "string",
          "name": "ID_Tontine",
          "type": "string"
        },
        {
          "internalType": "address",
          "name": "addressTon",
          "type": "address"
        }
      ],
      "name": "cotisation",
      "outputs": [],
      "payable": false,
      "stateMutability": "nonpayable",
      "type": "function"
    },
    {
      "constant": true,
      "inputs": [
        {
          "internalType": "string",
          "name": "ID_Tontine",
          "type": "string"
        },
        {
          "internalType": "address",
          "name": "Adherent_Address",
          "type": "address"
        }
      ],
      "name": "getCotnbr",
      "outputs": [
        {
          "internalType": "uint256",
          "name": "",
          "type": "uint256"
        }
      ],
      "payable": false,
      "stateMutability": "view",
      "type": "function"
    },
    {
      "constant": false,
      "inputs": [
        {
          "internalType": "string",
          "name": "ID_Tontine",
          "type": "string"
        },
        {
          "internalType": "address",
          "name": "tontine_Address",
          "type": "address"
        },
        {
          "internalType": "bool",
          "name": "Type",
          "type": "bool"
        }
      ],
      "name": "RechargeGarantie",
      "outputs": [],
      "payable": false,
      "stateMutability": "nonpayable",
      "type": "function"
    },
    {
      "constant": true,
      "inputs": [
        {
          "internalType": "string",
          "name": "ID_Tontine",
          "type": "string"
        }
      ],
      "name": "getGarnbr",
      "outputs": [
        {
          "internalType": "uint256",
          "name": "",
          "type": "uint256"
        }
      ],
      "payable": false,
      "stateMutability": "view",
      "type": "function"
    },
    {
      "constant": false,
      "inputs": [
        {
          "internalType": "string",
          "name": "ID_Tontine",
          "type": "string"
        },
        {
          "internalType": "address",
          "name": "Address_Receiver",
          "type": "address"
        },
        {
          "internalType": "uint256",
          "name": "Ordre",
          "type": "uint256"
        },
        {
          "internalType": "address",
          "name": "addressTon",
          "type": "address"
        }
      ],
      "name": "distribution",
      "outputs": [],
      "payable": false,
      "stateMutability": "nonpayable",
      "type": "function"
    },
    {
      "constant": true,
      "inputs": [
        {
          "internalType": "string",
          "name": "ID_Tontine",
          "type": "string"
        },
        {
          "internalType": "address",
          "name": "Adherent_Address",
          "type": "address"
        }
      ],
      "name": "getDisnbr",
      "outputs": [
        {
          "internalType": "uint256",
          "name": "",
          "type": "uint256"
        }
      ],
      "payable": false,
      "stateMutability": "view",
      "type": "function"
    },
    {
      "constant": false,
      "inputs": [
        {
          "internalType": "string",
          "name": "ID_Tontine",
          "type": "string"
        },
        {
          "internalType": "address",
          "name": "Adherent_Address",
          "type": "address"
        }
      ],
      "name": "interruption",
      "outputs": [],
      "payable": false,
      "stateMutability": "nonpayable",
      "type": "function"
    },
    {
      "constant": false,
      "inputs": [
        {
          "internalType": "string",
          "name": "ID_Tontine",
          "type": "string"
        },
        {
          "internalType": "address",
          "name": "Address_Receiver",
          "type": "address"
        }
      ],
      "name": "verifGarantie",
      "outputs": [],
      "payable": false,
      "stateMutability": "nonpayable",
      "type": "function"
    },
    {
      "constant": true,
      "inputs": [
        {
          "internalType": "string",
          "name": "ID_Tontine",
          "type": "string"
        }
      ],
      "name": "getsommeparmois",
      "outputs": [
        {
          "internalType": "uint256",
          "name": "",
          "type": "uint256"
        }
      ],
      "payable": false,
      "stateMutability": "view",
      "type": "function"
    },
    {
      "constant": false,
      "inputs": [
        {
          "internalType": "bytes32",
          "name": "trHash",
          "type": "bytes32"
        },
        {
          "internalType": "uint256",
          "name": "typeTransaction",
          "type": "uint256"
        },
        {
          "internalType": "string",
          "name": "ID_Tontine",
          "type": "string"
        }
      ],
      "name": "setTransactionHash",
      "outputs": [],
      "payable": false,
      "stateMutability": "nonpayable",
      "type": "function"
    },
    {
      "constant": true,
      "inputs": [
        {
          "internalType": "string",
          "name": "ID_Tontine",
          "type": "string"
        }
      ],
      "name": "getNumberParticipantByTontine",
      "outputs": [
        {
          "internalType": "uint256",
          "name": "",
          "type": "uint256"
        }
      ],
      "payable": false,
      "stateMutability": "view",
      "type": "function"
    },
    {
      "constant": true,
      "inputs": [
        {
          "internalType": "string",
          "name": "ID_Tontine",
          "type": "string"
        },
        {
          "internalType": "address",
          "name": "Address_Receiver",
          "type": "address"
        },
        {
          "internalType": "uint256",
          "name": "indice",
          "type": "uint256"
        },
        {
          "internalType": "bool",
          "name": "Gar",
          "type": "bool"
        },
        {
          "internalType": "bool",
          "name": "Cot",
          "type": "bool"
        },
        {
          "internalType": "bool",
          "name": "Dis",
          "type": "bool"
        }
      ],
      "name": "GetGarCotiDisByIndex",
      "outputs": [
        {
          "internalType": "uint256",
          "name": "",
          "type": "uint256"
        },
        {
          "internalType": "uint256",
          "name": "",
          "type": "uint256"
        },
        {
          "internalType": "uint256",
          "name": "",
          "type": "uint256"
        }
      ],
      "payable": false,
      "stateMutability": "view",
      "type": "function"
    },
    {
      "constant": true,
      "inputs": [
        {
          "internalType": "string",
          "name": "ID_Tontine",
          "type": "string"
        },
        {
          "internalType": "address",
          "name": "Adherent_Address",
          "type": "address"
        }
      ],
      "name": "getLeng",
      "outputs": [
        {
          "internalType": "uint256",
          "name": "",
          "type": "uint256"
        },
        {
          "internalType": "uint256",
          "name": "",
          "type": "uint256"
        },
        {
          "internalType": "uint256",
          "name": "",
          "type": "uint256"
        }
      ],
      "payable": false,
      "stateMutability": "view",
      "type": "function"
    },
    {
      "constant": true,
      "inputs": [
        {
          "internalType": "string",
          "name": "ID_Tontine",
          "type": "string"
        },
        {
          "internalType": "uint256",
          "name": "i",
          "type": "uint256"
        }
      ],
      "name": "getLeng2",
      "outputs": [
        {
          "internalType": "address",
          "name": "",
          "type": "address"
        }
      ],
      "payable": false,
      "stateMutability": "view",
      "type": "function"
    },
    {
      "constant": true,
      "inputs": [
        {
          "internalType": "string",
          "name": "ID_Tontine",
          "type": "string"
        }
      ],
      "name": "getNumIterationCycle",
      "outputs": [
        {
          "internalType": "uint256",
          "name": "",
          "type": "uint256"
        },
        {
          "internalType": "uint256",
          "name": "",
          "type": "uint256"
        }
      ],
      "payable": false,
      "stateMutability": "view",
      "type": "function"
    },
    {
      "constant": true,
      "inputs": [
        {
          "internalType": "string",
          "name": "ID_Tontine",
          "type": "string"
        }
      ],
      "name": "getDateLancement",
      "outputs": [
        {
          "internalType": "uint256",
          "name": "",
          "type": "uint256"
        },
        {
          "internalType": "uint256",
          "name": "",
          "type": "uint256"
        },
        {
          "internalType": "string",
          "name": "",
          "type": "string"
        },
        {
          "internalType": "uint256",
          "name": "",
          "type": "uint256"
        },
        {
          "internalType": "bool",
          "name": "",
          "type": "bool"
        }
      ],
      "payable": false,
      "stateMutability": "view",
      "type": "function"
    },
    {
      "constant": false,
      "inputs": [
        {
          "internalType": "string",
          "name": "ID_Tontine",
          "type": "string"
        },
        {
          "internalType": "address",
          "name": "tontine_address",
          "type": "address"
        },
        {
          "internalType": "address",
          "name": "mondataire1_address",
          "type": "address"
        },
        {
          "internalType": "address",
          "name": "mondataire2_address",
          "type": "address"
        }
      ],
      "name": "envoiMondataire",
      "outputs": [],
      "payable": false,
      "stateMutability": "nonpayable",
      "type": "function"
    },
    {
      "constant": true,
      "inputs": [
        {
          "internalType": "string",
          "name": "ID_Tontine",
          "type": "string"
        },
        {
          "internalType": "address",
          "name": "Address_Receiver",
          "type": "address"
        },
        {
          "internalType": "bool",
          "name": "Gar",
          "type": "bool"
        },
        {
          "internalType": "bool",
          "name": "Cot",
          "type": "bool"
        },
        {
          "internalType": "bool",
          "name": "Dis",
          "type": "bool"
        }
      ],
      "name": "getLastGarCotDist",
      "outputs": [
        {
          "internalType": "uint256",
          "name": "",
          "type": "uint256"
        },
        {
          "internalType": "uint256",
          "name": "",
          "type": "uint256"
        },
        {
          "internalType": "uint256",
          "name": "",
          "type": "uint256"
        },
        {
          "internalType": "uint256",
          "name": "",
          "type": "uint256"
        },
        {
          "internalType": "uint256",
          "name": "",
          "type": "uint256"
        },
        {
          "internalType": "uint256",
          "name": "",
          "type": "uint256"
        },
        {
          "internalType": "uint256",
          "name": "",
          "type": "uint256"
        }
      ],
      "payable": false,
      "stateMutability": "view",
      "type": "function"
    }
  ],
  "bytecode": "0x60806040523480156200001157600080fd5b50604051620051f3380380620051f3833981810160405262000037919081019062000095565b806000806101000a81548173ffffffffffffffffffffffffffffffffffffffff021916908373ffffffffffffffffffffffffffffffffffffffff1602179055505062000123565b6000815190506200008f8162000109565b92915050565b600060208284031215620000a857600080fd5b6000620000b8848285016200007e565b91505092915050565b6000620000ce82620000e9565b9050919050565b6000620000e282620000c1565b9050919050565b600073ffffffffffffffffffffffffffffffffffffffff82169050919050565b6200011481620000d5565b81146200012057600080fd5b50565b6150c080620001336000396000f3fe608060405234801561001057600080fd5b50600436106101a95760003560e01c806371deb4fc116100f9578063904194a311610097578063cb55be2f11610071578063cb55be2f146105a9578063ce69f171146105c5578063de8a7f3f146105e1578063f2fe1ab6146105fd576101a9565b8063904194a31461052d578063a19b22391461055d578063c6ac8f9914610579576101a9565b80638a38ac18116100d35780638a38ac18146104795780638a9f5d73146104af5780638ab02282146104cb5780638b1d5a14146104fd576101a9565b806371deb4fc146103e55780637bd97cbf146104195780637e27fbf014610449576101a9565b80632131b6a311610166578063327f6a6a11610140578063327f6a6a1461033957806339892c7a146103695780633c9890341461038557806364db444a146103b5576101a9565b80632131b6a3146102b65780632ab8b59a146102d2578063326d2f0214610303576101a9565b8063014303b4146101ae57806305b85ae3146101e0578063062829dd146102115780631b8394921461024c5780631ba2d1431461027c5780631bbc4b8314610298575b600080fd5b6101c860048036036101c3919081019061420f565b610619565b6040516101d793929190614dc5565b60405180910390f35b6101fa60048036036101f59190810190613fcf565b610a5b565b604051610208929190614d19565b60405180910390f35b61022b60048036036102269190810190613f4d565b610b6f565b6040516102439c9b9a99989796959493929190614bef565b60405180910390f35b61026660048036036102619190810190613fcf565b610dda565b6040516102739190614cfe565b60405180910390f35b6102966004803603610291919081019061409e565b610eeb565b005b6102a0611090565b6040516102ad9190614994565b60405180910390f35b6102d060048036036102cb9190810190614023565b6110b6565b005b6102ec60048036036102e79190810190613f8e565b61147f565b6040516102fa929190614d42565b60405180910390f35b61031d60048036036103189190810190614105565b611502565b6040516103309796959493929190614dfc565b60405180910390f35b610353600480360361034e91908101906143be565b611736565b60405161036091906147c2565b60405180910390f35b610383600480360361037e9190810190614412565b611797565b005b61039f600480360361039a919081019061448d565b611cd1565b6040516103ac91906149af565b60405180910390f35b6103cf60048036036103ca9190810190613e6b565b611d8a565b6040516103dc9190614950565b60405180910390f35b6103ff60048036036103fa9190810190613f8e565b611df3565b604051610410959493929190614d6b565b60405180910390f35b610433600480360361042e9190810190613f8e565b611f60565b6040516104409190614cfe565b60405180910390f35b610463600480360361045e9190810190613f8e565b611f8e565b6040516104709190614cfe565b60405180910390f35b610493600480360361048e9190810190613f8e565b611fb9565b6040516104a69796959493929190614b72565b60405180910390f35b6104c960048036036104c49190810190614194565b612225565b005b6104e560048036036104e09190810190613fcf565b61274f565b6040516104f493929190614dc5565b60405180910390f35b61051760048036036105129190810190613f8e565b612865565b6040516105249190614cfe565b60405180910390f35b61054760048036036105429190810190613ebd565b612975565b60405161055491906147c2565b60405180910390f35b610577600480360361057291908101906142b0565b6129a8565b005b610593600480360361058e9190810190613fcf565b612d32565b6040516105a09190614cfe565b60405180910390f35b6105c360048036036105be9190810190613fcf565b612e43565b005b6105df60048036036105da9190810190613fcf565b612fc6565b005b6105fb60048036036105f69190810190613fcf565b61340c565b005b61061760048036036106129190810190613ee6565b6137f2565b005b600080600080600090505b60018a60405161063491906147ab565b9081526020016040518091039020600d0180549050811015610a395760018a60405161066091906147ab565b9081526020016040518091039020600d01818154811061067c57fe5b9060005260206000200160009054906101000a900473ffffffffffffffffffffffffffffffffffffffff1673ffffffffffffffffffffffffffffffffffffffff168973ffffffffffffffffffffffffffffffffffffffff161415610a2c5786156107f55760018a6040516106f091906147ab565b9081526020016040518091039020600c0160008a73ffffffffffffffffffffffffffffffffffffffff1673ffffffffffffffffffffffffffffffffffffffff16815260200190815260200160002060009054906101000a900473ffffffffffffffffffffffffffffffffffffffff1673ffffffffffffffffffffffffffffffffffffffff1663e20c58808a8a6040518363ffffffff1660e01b81526004016107999291906148f0565b60606040518083038186803b1580156107b157600080fd5b505afa1580156107c5573d6000803e3d6000fd5b505050506040513d601f19601f820116820180604052506107e9919081019061451b565b93509350935050610a4f565b85156109105760018a60405161080b91906147ab565b9081526020016040518091039020600c0160008a73ffffffffffffffffffffffffffffffffffffffff1673ffffffffffffffffffffffffffffffffffffffff16815260200190815260200160002060009054906101000a900473ffffffffffffffffffffffffffffffffffffffff1673ffffffffffffffffffffffffffffffffffffffff1663f259e8ac8a8a6040518363ffffffff1660e01b81526004016108b49291906148f0565b60606040518083038186803b1580156108cc57600080fd5b505afa1580156108e0573d6000803e3d6000fd5b505050506040513d601f19601f82011682018060405250610904919081019061451b565b93509350935050610a4f565b8415610a2b5760018a60405161092691906147ab565b9081526020016040518091039020600c0160008a73ffffffffffffffffffffffffffffffffffffffff1673ffffffffffffffffffffffffffffffffffffffff16815260200190815260200160002060009054906101000a900473ffffffffffffffffffffffffffffffffffffffff1673ffffffffffffffffffffffffffffffffffffffff1663769f610d8a8a6040518363ffffffff1660e01b81526004016109cf9291906148f0565b60606040518083038186803b1580156109e757600080fd5b505afa1580156109fb573d6000803e3d6000fd5b505050506040513d601f19601f82011682018060405250610a1f919081019061451b565b93509350935050610a4f565b5b8080600101915050610624565b5060008060008292508191508090509250925092505b96509650969350505050565b600080600184604051610a6e91906147ab565b9081526020016040518091039020600c0160008473ffffffffffffffffffffffffffffffffffffffff1673ffffffffffffffffffffffffffffffffffffffff16815260200190815260200160002060009054906101000a900473ffffffffffffffffffffffffffffffffffffffff1673ffffffffffffffffffffffffffffffffffffffff1663c2bc2efc846040518263ffffffff1660e01b8152600401610b1591906147c2565b604080518083038186803b158015610b2c57600080fd5b505afa158015610b40573d6000803e3d6000fd5b505050506040513d601f19601f82011682018060405250610b6491908101906144df565b915091509250929050565b600181805160208101820180518482526020830160208501208183528095505050505050600091509050806000018054600181600116156101000203166002900480601f016020809104026020016040519081016040528092919081815260200182805460018160011615610100020316600290048015610c315780601f10610c0657610100808354040283529160200191610c31565b820191906000526020600020905b815481529060010190602001808311610c1457829003601f168201915b505050505090806001018054600181600116156101000203166002900480601f016020809104026020016040519081016040528092919081815260200182805460018160011615610100020316600290048015610ccf5780601f10610ca457610100808354040283529160200191610ccf565b820191906000526020600020905b815481529060010190602001808311610cb257829003601f168201915b5050505050908060020154908060030154908060040160009054906101000a900473ffffffffffffffffffffffffffffffffffffffff16908060050154908060060154908060070154908060080154908060090160009054906101000a900460ff169080600a018054600181600116156101000203166002900480601f016020809104026020016040519081016040528092919081815260200182805460018160011615610100020316600290048015610dca5780601f10610d9f57610100808354040283529160200191610dca565b820191906000526020600020905b815481529060010190602001808311610dad57829003601f168201915b50505050509080600b015490508c565b6000600183604051610dec91906147ab565b9081526020016040518091039020600c0160008373ffffffffffffffffffffffffffffffffffffffff1673ffffffffffffffffffffffffffffffffffffffff16815260200190815260200160002060009054906101000a900473ffffffffffffffffffffffffffffffffffffffff1673ffffffffffffffffffffffffffffffffffffffff166314d87e56836040518263ffffffff1660e01b8152600401610e9391906147c2565b60206040518083038186803b158015610eab57600080fd5b505afa158015610ebf573d6000803e3d6000fd5b505050506040513d601f19601f82011682018060405250610ee391908101906144b6565b905092915050565b6000610ef5613b94565b905060006003600083815260200190815260200160002060009054906101000a900473ffffffffffffffffffffffffffffffffffffffff169050600185604051610f3f91906147ab565b9081526020016040518091039020600c0160003373ffffffffffffffffffffffffffffffffffffffff1673ffffffffffffffffffffffffffffffffffffffff16815260200190815260200160002060009054906101000a900473ffffffffffffffffffffffffffffffffffffffff1673ffffffffffffffffffffffffffffffffffffffff16632db47e3e8633600189604051610fdb91906147ab565b90815260200160405180910390206008015460018a604051610ffd91906147ab565b90815260200160405180910390206007015460018b60405161101f91906147ab565b9081526020016040518091039020600301548a8a896040518963ffffffff1660e01b8152600401611057989796959493929190614a2b565b600060405180830381600087803b15801561107157600080fd5b505af1158015611085573d6000803e3d6000fd5b505050505050505050565b600460009054906101000a900473ffffffffffffffffffffffffffffffffffffffff1681565b60006110c0613b94565b905060006003600083815260200190815260200160002060009054906101000a900473ffffffffffffffffffffffffffffffffffffffff16905080600460006101000a81548173ffffffffffffffffffffffffffffffffffffffff021916908373ffffffffffffffffffffffffffffffffffffffff16021790555060018660405161114b91906147ab565b9081526020016040518091039020600c0160008573ffffffffffffffffffffffffffffffffffffffff1673ffffffffffffffffffffffffffffffffffffffff16815260200190815260200160002060009054906101000a900473ffffffffffffffffffffffffffffffffffffffff1673ffffffffffffffffffffffffffffffffffffffff16633b4b765586866002600460009054906101000a900473ffffffffffffffffffffffffffffffffffffffff1673ffffffffffffffffffffffffffffffffffffffff166370a082318b6040518263ffffffff1660e01b815260040161123491906147c2565b60206040518083038186803b15801561124c57600080fd5b505afa158015611260573d6000803e3d6000fd5b505050506040513d601f19601f8201168201806040525061128491908101906144b6565b8161128b57fe5b04856040518563ffffffff1660e01b81526004016112ac9493929190614866565b600060405180830381600087803b1580156112c657600080fd5b505af11580156112da573d6000803e3d6000fd5b505050506001866040516112ee91906147ab565b9081526020016040518091039020600c0160008473ffffffffffffffffffffffffffffffffffffffff1673ffffffffffffffffffffffffffffffffffffffff16815260200190815260200160002060009054906101000a900473ffffffffffffffffffffffffffffffffffffffff1673ffffffffffffffffffffffffffffffffffffffff16633b4b76558685600460009054906101000a900473ffffffffffffffffffffffffffffffffffffffff1673ffffffffffffffffffffffffffffffffffffffff166370a082318a6040518263ffffffff1660e01b81526004016113d591906147c2565b60206040518083038186803b1580156113ed57600080fd5b505afa158015611401573d6000803e3d6000fd5b505050506040513d601f19601f8201168201806040525061142591908101906144b6565b856040518563ffffffff1660e01b81526004016114459493929190614866565b600060405180830381600087803b15801561145f57600080fd5b505af1158015611473573d6000803e3d6000fd5b50505050505050505050565b6000806114d760018460405161149591906147ab565b9081526020016040518091039020600601546001856040516114b791906147ab565b908152602001604051809103902060050154613bdb90919063ffffffff16565b6001846040516114e791906147ab565b90815260200160405180910390206006015491509150915091565b600080600080600080600080600090505b60018d60405161152391906147ab565b9081526020016040518091039020600d01805490508110156116f75760018d60405161154f91906147ab565b9081526020016040518091039020600d01818154811061156b57fe5b9060005260206000200160009054906101000a900473ffffffffffffffffffffffffffffffffffffffff1673ffffffffffffffffffffffffffffffffffffffff168c73ffffffffffffffffffffffffffffffffffffffff1614156116ea5760018d6040516115d991906147ab565b9081526020016040518091039020600c0160008d73ffffffffffffffffffffffffffffffffffffffff1673ffffffffffffffffffffffffffffffffffffffff16815260200190815260200160002060009054906101000a900473ffffffffffffffffffffffffffffffffffffffff1673ffffffffffffffffffffffffffffffffffffffff1663b72842ad8d8d8d8d6040518563ffffffff1660e01b815260040161168694939291906148ab565b60e06040518083038186803b15801561169e57600080fd5b505afa1580156116b2573d6000803e3d6000fd5b505050506040513d601f19601f820116820180604052506116d6919081019061456a565b975097509750975097509750975050611727565b8080600101915050611513565b50600080600080600080600086965085955084945083935082925081915080905096509650965096509650965096505b959b949a509550955095509550565b600060018360405161174891906147ab565b9081526020016040518091039020600d01828154811061176457fe5b9060005260206000200160009054906101000a900473ffffffffffffffffffffffffffffffffffffffff16905092915050565b6000809054906101000a900473ffffffffffffffffffffffffffffffffffffffff166001856040516117c991906147ab565b9081526020016040518091039020600c0160003373ffffffffffffffffffffffffffffffffffffffff1673ffffffffffffffffffffffffffffffffffffffff16815260200190815260200160002060006101000a81548173ffffffffffffffffffffffffffffffffffffffff021916908373ffffffffffffffffffffffffffffffffffffffff16021790555060018460405161186591906147ab565b9081526020016040518091039020600c0160003373ffffffffffffffffffffffffffffffffffffffff1673ffffffffffffffffffffffffffffffffffffffff16815260200190815260200160002060009054906101000a900473ffffffffffffffffffffffffffffffffffffffff1673ffffffffffffffffffffffffffffffffffffffff1663d301719333856040518363ffffffff1660e01b815260040161190e92919061483d565b600060405180830381600087803b15801561192857600080fd5b505af115801561193c573d6000803e3d6000fd5b50505050600061194a613b94565b905060006003600083815260200190815260200160002060009054906101000a900473ffffffffffffffffffffffffffffffffffffffff16905060018660405161199491906147ab565b9081526020016040518091039020600d013390806001815401808255809150509060018203906000526020600020016000909192909190916101000a81548173ffffffffffffffffffffffffffffffffffffffff021916908373ffffffffffffffffffffffffffffffffffffffff160217905550508315611a745742600187604051611a2091906147ab565b9081526020016040518091039020600201819055506000600187604051611a4791906147ab565b908152602001604051809103902060090160006101000a81548160ff021916908315150217905550611cc9565b600186604051611a8491906147ab565b9081526020016040518091039020600c0160003373ffffffffffffffffffffffffffffffffffffffff1673ffffffffffffffffffffffffffffffffffffffff16815260200190815260200160002060009054906101000a900473ffffffffffffffffffffffffffffffffffffffff1673ffffffffffffffffffffffffffffffffffffffff16632db47e3e873360018a604051611b2091906147ab565b90815260200160405180910390206008015460018b604051611b4291906147ab565b90815260200160405180910390206007015460018c604051611b6491906147ab565b908152602001604051809103902060030154896001896040518963ffffffff1660e01b8152600401611b9d989796959493929190614a2b565b600060405180830381600087803b158015611bb757600080fd5b505af1158015611bcb573d6000803e3d6000fd5b50505050600186604051611bdf91906147ab565b908152602001604051809103902060050154600187604051611c0191906147ab565b9081526020016040518091039020600d01805490501415611cc85742600187604051611c2d91906147ab565b90815260200160405180910390206002018190555060018087604051611c5391906147ab565b908152602001604051809103902060090160006101000a81548160ff02191690831515021790555060018087604051611c8c91906147ab565b90815260200160405180910390206008018190555060018087604051611cb291906147ab565b9081526020016040518091039020600701819055505b5b505050505050565b60028181548110611cde57fe5b906000526020600020016000915090508054600181600116156101000203166002900480601f016020809104026020016040519081016040528092919081815260200182805460018160011615610100020316600290048015611d825780601f10611d5757610100808354040283529160200191611d82565b820191906000526020600020905b815481529060010190602001808311611d6557829003601f168201915b505050505081565b600080611d95613b94565b9050826003600083815260200190815260200160002060006101000a81548173ffffffffffffffffffffffffffffffffffffffff021916908373ffffffffffffffffffffffffffffffffffffffff1602179055506001915050919050565b6000806060600080600186604051611e0b91906147ab565b908152602001604051809103902060020154600187604051611e2d91906147ab565b908152602001604051809103902060070154600188604051611e4f91906147ab565b9081526020016040518091039020600a01600189604051611e7091906147ab565b90815260200160405180910390206008015460018a604051611e9291906147ab565b908152602001604051809103902060090160009054906101000a900460ff16828054600181600116156101000203166002900480601f016020809104026020016040519081016040528092919081815260200182805460018160011615610100020316600290048015611f465780601f10611f1b57610100808354040283529160200191611f46565b820191906000526020600020905b815481529060010190602001808311611f2957829003601f168201915b505050505092509450945094509450945091939590929450565b6000600182604051611f7291906147ab565b9081526020016040518091039020600d01805490509050919050565b6000600182604051611fa091906147ab565b9081526020016040518091039020600b01549050919050565b606060008060006060600080600188604051611fd591906147ab565b9081526020016040518091039020600101600189604051611ff691906147ab565b90815260200160405180910390206005015460018a60405161201891906147ab565b90815260200160405180910390206003015460018b60405161203a91906147ab565b90815260200160405180910390206006015460018c60405161205c91906147ab565b9081526020016040518091039020600a0160018d60405161207d91906147ab565b908152602001604051809103902060040160009054906101000a900473ffffffffffffffffffffffffffffffffffffffff1660018e6040516120bf91906147ab565b9081526020016040518091039020600d0180549050868054600181600116156101000203166002900480601f0160208091040260200160405190810160405280929190818152602001828054600181600116156101000203166002900480156121695780601f1061213e57610100808354040283529160200191612169565b820191906000526020600020905b81548152906001019060200180831161214c57829003601f168201915b50505050509650828054600181600116156101000203166002900480601f0160208091040260200160405190810160405280929190818152602001828054600181600116156101000203166002900480156122055780601f106121da57610100808354040283529160200191612205565b820191906000526020600020905b8154815290600101906020018083116121e857829003601f168201915b505050505092509650965096509650965096509650919395979092949650565b600060018560405161223791906147ab565b9081526020016040518091039020600501549050600060018660405161225d91906147ab565b90815260200160405180910390206003015490506122848282613bdb90919063ffffffff16565b60018760405161229491906147ab565b9081526020016040518091039020600b0154146122b057600080fd5b6001866040516122c091906147ab565b908152602001604051809103902060090160009054906101000a900460ff166122e857600080fd5b6000809054906101000a900473ffffffffffffffffffffffffffffffffffffffff1660018760405161231a91906147ab565b9081526020016040518091039020600c0160008773ffffffffffffffffffffffffffffffffffffffff1673ffffffffffffffffffffffffffffffffffffffff16815260200190815260200160002060006101000a81548173ffffffffffffffffffffffffffffffffffffffff021916908373ffffffffffffffffffffffffffffffffffffffff1602179055506001866040516123b691906147ab565b9081526020016040518091039020600701548414156127475760006123d9613b94565b905060006003600083815260200190815260200160002060009054906101000a900473ffffffffffffffffffffffffffffffffffffffff16905060018860405161242391906147ab565b9081526020016040518091039020600c0160008873ffffffffffffffffffffffffffffffffffffffff1673ffffffffffffffffffffffffffffffffffffffff16815260200190815260200160002060009054906101000a900473ffffffffffffffffffffffffffffffffffffffff1673ffffffffffffffffffffffffffffffffffffffff16633b4b765586896124c28888613bdb90919063ffffffff16565b856040518563ffffffff1660e01b81526004016124e29493929190614866565b600060405180830381600087803b1580156124fc57600080fd5b505af1158015612510573d6000803e3d6000fd5b5050505060018860405161252491906147ab565b9081526020016040518091039020600c0160008873ffffffffffffffffffffffffffffffffffffffff1673ffffffffffffffffffffffffffffffffffffffff16815260200190815260200160002060009054906101000a900473ffffffffffffffffffffffffffffffffffffffff1673ffffffffffffffffffffffffffffffffffffffff16633ce356a9898960018c6040516125c091906147ab565b90815260200160405180910390206008015460018d6040516125e291906147ab565b908152602001604051809103902060070154888a6040518763ffffffff1660e01b815260040161261796959493929190614b0a565b600060405180830381600087803b15801561263157600080fd5b505af1158015612645573d6000803e3d6000fd5b50505050600060018960405161265b91906147ab565b9081526020016040518091039020600b018190555060018860405161268091906147ab565b9081526020016040518091039020600501546001896040516126a291906147ab565b908152602001604051809103902060070154141561271457600180896040516126cb91906147ab565b908152602001604051809103902060080160008282540192505081905550600180896040516126fa91906147ab565b908152602001604051809103902060070181905550612744565b6001808960405161272591906147ab565b9081526020016040518091039020600701600082825401925050819055505b50505b505050505050565b6000806000806000905060008090505b60018760405161276f91906147ab565b9081526020016040518091039020600d01805490508110156128275760018760405161279b91906147ab565b9081526020016040518091039020600d0181815481106127b757fe5b9060005260206000200160009054906101000a900473ffffffffffffffffffffffffffffffffffffffff1673ffffffffffffffffffffffffffffffffffffffff168673ffffffffffffffffffffffffffffffffffffffff16141561281a57600191505b808060010191505061275f565b5080156128485760018060018292508191508090509350935093505061285e565b6000806000829250819150809050935093509350505b9250925092565b600060018260405161287791906147ab565b9081526020016040518091039020600c0160003373ffffffffffffffffffffffffffffffffffffffff1673ffffffffffffffffffffffffffffffffffffffff16815260200190815260200160002060009054906101000a900473ffffffffffffffffffffffffffffffffffffffff1673ffffffffffffffffffffffffffffffffffffffff16636e5c25f2336040518263ffffffff1660e01b815260040161291e91906147dd565b60206040518083038186803b15801561293657600080fd5b505afa15801561294a573d6000803e3d6000fd5b505050506040513d601f19601f8201168201806040525061296e91908101906144b6565b9050919050565b60036020528060005260406000206000915054906101000a900473ffffffffffffffffffffffffffffffffffffffff1681565b606060018a6040516129ba91906147ab565b90815260200160405180910390206000018054600181600116156101000203166002900480601f016020809104026020016040519081016040528092919081815260200182805460018160011615610100020316600290048015612a5f5780601f10612a3457610100808354040283529160200191612a5f565b820191906000526020600020905b815481529060010190602001808311612a4257829003601f168201915b505050505090506000815114612a7457600080fd5b6002871015612a8257600080fd5b6001861015612a9057600080fd5b8960018b604051612aa191906147ab565b90815260200160405180910390206000019080519060200190612ac5929190613ca0565b508860018b604051612ad791906147ab565b90815260200160405180910390206001019080519060200190612afb929190613ca0565b503360018b604051612b0d91906147ab565b908152602001604051809103902060040160006101000a81548173ffffffffffffffffffffffffffffffffffffffff021916908373ffffffffffffffffffffffffffffffffffffffff1602179055508660018b604051612b6d91906147ab565b9081526020016040518091039020600501819055508560018b604051612b9391906147ab565b908152602001604051809103902060060181905550600060018b604051612bba91906147ab565b908152602001604051809103902060020181905550600060018b604051612be191906147ab565b9081526020016040518091039020600b01819055508760018b604051612c0791906147ab565b908152602001604051809103902060030181905550600060018b604051612c2e91906147ab565b908152602001604051809103902060090160006101000a81548160ff021916908315150217905550600060018b604051612c6891906147ab565b908152602001604051809103902060080181905550600060018b604051612c8f91906147ab565b9081526020016040518091039020600701819055508460018b604051612cb591906147ab565b9081526020016040518091039020600a019080519060200190612cd9929190613ca0565b5060028a9080600181540180825580915050906001820390600052602060002001600090919290919091509080519060200190612d17929190613ca0565b5050612d268a85600085611797565b50505050505050505050565b6000600183604051612d4491906147ab565b9081526020016040518091039020600c0160008373ffffffffffffffffffffffffffffffffffffffff1673ffffffffffffffffffffffffffffffffffffffff16815260200190815260200160002060009054906101000a900473ffffffffffffffffffffffffffffffffffffffff1673ffffffffffffffffffffffffffffffffffffffff1663b560439d836040518263ffffffff1660e01b8152600401612deb91906147c2565b60206040518083038186803b158015612e0357600080fd5b505afa158015612e17573d6000803e3d6000fd5b505050506040513d601f19601f82011682018060405250612e3b91908101906144b6565b905092915050565b600182604051612e5391906147ab565b908152602001604051809103902060090160009054906101000a900460ff1615612fc2576000600183604051612e8991906147ab565b9081526020016040518091039020600c0160008373ffffffffffffffffffffffffffffffffffffffff1673ffffffffffffffffffffffffffffffffffffffff16815260200190815260200160002060009054906101000a900473ffffffffffffffffffffffffffffffffffffffff1673ffffffffffffffffffffffffffffffffffffffff1663dcc02854836040518263ffffffff1660e01b8152600401612f3091906147c2565b60206040518083038186803b158015612f4857600080fd5b505afa158015612f5c573d6000803e3d6000fd5b505050506040513d601f19601f82011682018060405250612f8091908101906144b6565b1415612fc1576000600183604051612f9891906147ab565b908152602001604051809103902060090160006101000a81548160ff0219169083151502179055505b5b5050565b6000600183604051612fd891906147ab565b90815260200160405180910390206005015490506000600184604051612ffe91906147ab565b9081526020016040518091039020600301549050600061301c613b94565b905060006003600083815260200190815260200160002060009054906101000a900473ffffffffffffffffffffffffffffffffffffffff1690506130698484613bdb90919063ffffffff16565b60018760405161307991906147ab565b9081526020016040518091039020600b015414613404576001866040516130a091906147ab565b9081526020016040518091039020600c0160008673ffffffffffffffffffffffffffffffffffffffff1673ffffffffffffffffffffffffffffffffffffffff16815260200190815260200160002060009054906101000a900473ffffffffffffffffffffffffffffffffffffffff1673ffffffffffffffffffffffffffffffffffffffff166382f355708660018960405161313b91906147ab565b90815260200160405180910390206008015460018a60405161315d91906147ab565b9081526020016040518091039020600701546040518463ffffffff1660e01b815260040161318d93929190614919565b60206040518083038186803b1580156131a557600080fd5b505afa1580156131b9573d6000803e3d6000fd5b505050506040513d601f19601f820116820180604052506131dd9190810190613e94565b1561340357826001876040516131f391906147ab565b9081526020016040518091039020600b01600082825401925050819055506000809054906101000a900473ffffffffffffffffffffffffffffffffffffffff1660018760405161324391906147ab565b9081526020016040518091039020600c0160008773ffffffffffffffffffffffffffffffffffffffff1673ffffffffffffffffffffffffffffffffffffffff16815260200190815260200160002060006101000a81548173ffffffffffffffffffffffffffffffffffffffff021916908373ffffffffffffffffffffffffffffffffffffffff1602179055506001866040516132df91906147ab565b9081526020016040518091039020600c0160008673ffffffffffffffffffffffffffffffffffffffff1673ffffffffffffffffffffffffffffffffffffffff16815260200190815260200160002060009054906101000a900473ffffffffffffffffffffffffffffffffffffffff1673ffffffffffffffffffffffffffffffffffffffff16637b9c5f83878760018a60405161337b91906147ab565b90815260200160405180910390206008015460018b60405161339d91906147ab565b908152602001604051809103902060070154886040518663ffffffff1660e01b81526004016133d0959493929190614ab0565b600060405180830381600087803b1580156133ea57600080fd5b505af11580156133fe573d6000803e3d6000fd5b505050505b5b505050505050565b6000809054906101000a900473ffffffffffffffffffffffffffffffffffffffff1660018360405161343e91906147ab565b9081526020016040518091039020600c0160003373ffffffffffffffffffffffffffffffffffffffff1673ffffffffffffffffffffffffffffffffffffffff16815260200190815260200160002060006101000a81548173ffffffffffffffffffffffffffffffffffffffff021916908373ffffffffffffffffffffffffffffffffffffffff16021790555060006134d4613b94565b905060006003600083815260200190815260200160002060009054906101000a900473ffffffffffffffffffffffffffffffffffffffff16905060018460405161351e91906147ab565b9081526020016040518091039020600c0160003373ffffffffffffffffffffffffffffffffffffffff1673ffffffffffffffffffffffffffffffffffffffff16815260200190815260200160002060009054906101000a900473ffffffffffffffffffffffffffffffffffffffff1673ffffffffffffffffffffffffffffffffffffffff1663db59596885336001886040516135ba91906147ab565b9081526020016040518091039020600801546001896040516135dc91906147ab565b90815260200160405180910390206007015460018a6040516135fe91906147ab565b9081526020016040518091039020600301546040518663ffffffff1660e01b81526004016136309594939291906149d1565b600060405180830381600087803b15801561364a57600080fd5b505af115801561365e573d6000803e3d6000fd5b5050505060018460405161367291906147ab565b9081526020016040518091039020600c0160003373ffffffffffffffffffffffffffffffffffffffff1673ffffffffffffffffffffffffffffffffffffffff16815260200190815260200160002060009054906101000a900473ffffffffffffffffffffffffffffffffffffffff1673ffffffffffffffffffffffffffffffffffffffff16633b4b7655338560018860405161370e91906147ab565b908152602001604051809103902060030154856040518563ffffffff1660e01b815260040161374094939291906147f8565b600060405180830381600087803b15801561375a57600080fd5b505af115801561376e573d6000803e3d6000fd5b505050506137c760018560405161378591906147ab565b9081526020016040518091039020600b01546001866040516137a791906147ab565b908152602001604051809103902060030154613c4b90919063ffffffff16565b6001856040516137d791906147ab565b9081526020016040518091039020600b018190555050505050565b6000809054906101000a900473ffffffffffffffffffffffffffffffffffffffff1660018260405161382491906147ab565b9081526020016040518091039020600c0160003373ffffffffffffffffffffffffffffffffffffffff1673ffffffffffffffffffffffffffffffffffffffff16815260200190815260200160002060006101000a81548173ffffffffffffffffffffffffffffffffffffffff021916908373ffffffffffffffffffffffffffffffffffffffff16021790555060008214156139a9576001816040516138c991906147ab565b9081526020016040518091039020600c0160003373ffffffffffffffffffffffffffffffffffffffff1673ffffffffffffffffffffffffffffffffffffffff16815260200190815260200160002060009054906101000a900473ffffffffffffffffffffffffffffffffffffffff1673ffffffffffffffffffffffffffffffffffffffff1663400b944084336040518363ffffffff1660e01b815260040161397292919061496b565b600060405180830381600087803b15801561398c57600080fd5b505af11580156139a0573d6000803e3d6000fd5b50505050613b8f565b6001821415613aa2576001816040516139c291906147ab565b9081526020016040518091039020600c0160003373ffffffffffffffffffffffffffffffffffffffff1673ffffffffffffffffffffffffffffffffffffffff16815260200190815260200160002060009054906101000a900473ffffffffffffffffffffffffffffffffffffffff1673ffffffffffffffffffffffffffffffffffffffff166302e761cc84336040518363ffffffff1660e01b8152600401613a6b92919061496b565b600060405180830381600087803b158015613a8557600080fd5b505af1158015613a99573d6000803e3d6000fd5b50505050613b8e565b600181604051613ab291906147ab565b9081526020016040518091039020600c0160003373ffffffffffffffffffffffffffffffffffffffff1673ffffffffffffffffffffffffffffffffffffffff16815260200190815260200160002060009054906101000a900473ffffffffffffffffffffffffffffffffffffffff1673ffffffffffffffffffffffffffffffffffffffff1663dbb7229084336040518363ffffffff1660e01b8152600401613b5b92919061496b565b600060405180830381600087803b158015613b7557600080fd5b505af1158015613b89573d6000803e3d6000fd5b505050505b5b505050565b600060606040518060400160405280600481526020017f494d4654000000000000000000000000000000000000000000000000000000008152509050602081015191505090565b600080831415613bee5760009050613c45565b6000828402905082848281613bff57fe5b0414613c40576040517f08c379a0000000000000000000000000000000000000000000000000000000008152600401613c3790614cde565b60405180910390fd5b809150505b92915050565b600080828401905083811015613c96576040517f08c379a0000000000000000000000000000000000000000000000000000000008152600401613c8d90614cbe565b60405180910390fd5b8091505092915050565b828054600181600116156101000203166002900490600052602060002090601f016020900481019282601f10613ce157805160ff1916838001178555613d0f565b82800160010185558215613d0f579182015b82811115613d0e578251825591602001919060010190613cf3565b5b509050613d1c9190613d20565b5090565b613d4291905b80821115613d3e576000816000905550600101613d26565b5090565b90565b600081359050613d5481615021565b92915050565b600081359050613d6981615038565b92915050565b600081519050613d7e81615038565b92915050565b600081359050613d938161504f565b92915050565b600082601f830112613daa57600080fd5b8135613dbd613db882614e98565b614e6b565b91508082526020830160208301858383011115613dd957600080fd5b613de4838284614fce565b50505092915050565b600082601f830112613dfe57600080fd5b8135613e11613e0c82614ec4565b614e6b565b91508082526020830160208301858383011115613e2d57600080fd5b613e38838284614fce565b50505092915050565b600081359050613e5081615066565b92915050565b600081519050613e6581615066565b92915050565b600060208284031215613e7d57600080fd5b6000613e8b84828501613d45565b91505092915050565b600060208284031215613ea657600080fd5b6000613eb484828501613d6f565b91505092915050565b600060208284031215613ecf57600080fd5b6000613edd84828501613d84565b91505092915050565b600080600060608486031215613efb57600080fd5b6000613f0986828701613d84565b9350506020613f1a86828701613e41565b925050604084013567ffffffffffffffff811115613f3757600080fd5b613f4386828701613ded565b9150509250925092565b600060208284031215613f5f57600080fd5b600082013567ffffffffffffffff811115613f7957600080fd5b613f8584828501613d99565b91505092915050565b600060208284031215613fa057600080fd5b600082013567ffffffffffffffff811115613fba57600080fd5b613fc684828501613ded565b91505092915050565b60008060408385031215613fe257600080fd5b600083013567ffffffffffffffff811115613ffc57600080fd5b61400885828601613ded565b925050602061401985828601613d45565b9150509250929050565b6000806000806080858703121561403957600080fd5b600085013567ffffffffffffffff81111561405357600080fd5b61405f87828801613ded565b945050602061407087828801613d45565b935050604061408187828801613d45565b925050606061409287828801613d45565b91505092959194509250565b6000806000606084860312156140b357600080fd5b600084013567ffffffffffffffff8111156140cd57600080fd5b6140d986828701613ded565b93505060206140ea86828701613d45565b92505060406140fb86828701613d5a565b9150509250925092565b600080600080600060a0868803121561411d57600080fd5b600086013567ffffffffffffffff81111561413757600080fd5b61414388828901613ded565b955050602061415488828901613d45565b945050604061416588828901613d5a565b935050606061417688828901613d5a565b925050608061418788828901613d5a565b9150509295509295909350565b600080600080608085870312156141aa57600080fd5b600085013567ffffffffffffffff8111156141c457600080fd5b6141d087828801613ded565b94505060206141e187828801613d45565b93505060406141f287828801613e41565b925050606061420387828801613d45565b91505092959194509250565b60008060008060008060c0878903121561422857600080fd5b600087013567ffffffffffffffff81111561424257600080fd5b61424e89828a01613ded565b965050602061425f89828a01613d45565b955050604061427089828a01613e41565b945050606061428189828a01613d5a565b935050608061429289828a01613d5a565b92505060a06142a389828a01613d5a565b9150509295509295509295565b60008060008060008060008060006101208a8c0312156142cf57600080fd5b60008a013567ffffffffffffffff8111156142e957600080fd5b6142f58c828d01613ded565b99505060208a013567ffffffffffffffff81111561431257600080fd5b61431e8c828d01613ded565b985050604061432f8c828d01613e41565b97505060606143408c828d01613e41565b96505060806143518c828d01613e41565b95505060a08a013567ffffffffffffffff81111561436e57600080fd5b61437a8c828d01613ded565b94505060c061438b8c828d01613e41565b93505060e061439c8c828d01613d45565b9250506101006143ae8c828d01613d45565b9150509295985092959850929598565b600080604083850312156143d157600080fd5b600083013567ffffffffffffffff8111156143eb57600080fd5b6143f785828601613ded565b925050602061440885828601613e41565b9150509250929050565b6000806000806080858703121561442857600080fd5b600085013567ffffffffffffffff81111561444257600080fd5b61444e87828801613ded565b945050602061445f87828801613e41565b935050604061447087828801613d5a565b925050606061448187828801613d45565b91505092959194509250565b60006020828403121561449f57600080fd5b60006144ad84828501613e41565b91505092915050565b6000602082840312156144c857600080fd5b60006144d684828501613e56565b91505092915050565b600080604083850312156144f257600080fd5b600061450085828601613e56565b925050602061451185828601613d6f565b9150509250929050565b60008060006060848603121561453057600080fd5b600061453e86828701613e56565b935050602061454f86828701613e56565b925050604061456086828701613e56565b9150509250925092565b600080600080600080600060e0888a03121561458557600080fd5b60006145938a828b01613e56565b97505060206145a48a828b01613e56565b96505060406145b58a828b01613e56565b95505060606145c68a828b01613e56565b94505060806145d78a828b01613e56565b93505060a06145e88a828b01613e56565b92505060c06145f98a828b01613e56565b91505092959891949750929550565b61461181614f74565b82525050565b61462081614f22565b82525050565b61462f81614f34565b82525050565b61463e81614f40565b82525050565b61464d81614f86565b82525050565b600061465e82614efb565b6146688185614f06565b9350614678818560208601614fdd565b61468181615010565b840191505092915050565b600061469782614efb565b6146a18185614f17565b93506146b1818560208601614fdd565b80840191505092915050565b60006146c882614ef0565b6146d28185614f06565b93506146e2818560208601614fdd565b6146eb81615010565b840191505092915050565b6000614703601b83614f06565b91507f536166654d6174683a206164646974696f6e206f766572666c6f7700000000006000830152602082019050919050565b6000614743602183614f06565b91507f536166654d6174683a206d756c7469706c69636174696f6e206f766572666c6f60008301527f77000000000000000000000000000000000000000000000000000000000000006020830152604082019050919050565b6147a581614f6a565b82525050565b60006147b7828461468c565b915081905092915050565b60006020820190506147d76000830184614617565b92915050565b60006020820190506147f26000830184614608565b92915050565b600060808201905061480d6000830187614608565b61481a6020830186614617565b614827604083018561479c565b6148346060830184614617565b95945050505050565b60006040820190506148526000830185614608565b61485f602083018461479c565b9392505050565b600060808201905061487b6000830187614617565b6148886020830186614617565b614895604083018561479c565b6148a26060830184614617565b95945050505050565b60006080820190506148c06000830187614617565b6148cd6020830186614626565b6148da6040830185614626565b6148e76060830184614626565b95945050505050565b60006040820190506149056000830185614617565b614912602083018461479c565b9392505050565b600060608201905061492e6000830186614617565b61493b602083018561479c565b614948604083018461479c565b949350505050565b60006020820190506149656000830184614626565b92915050565b60006040820190506149806000830185614635565b61498d6020830184614608565b9392505050565b60006020820190506149a96000830184614644565b92915050565b600060208201905081810360008301526149c981846146bd565b905092915050565b600060a08201905081810360008301526149eb8188614653565b90506149fa6020830187614608565b614a07604083018661479c565b614a14606083018561479c565b614a21608083018461479c565b9695505050505050565b6000610100820190508181036000830152614a46818b614653565b9050614a55602083018a614608565b614a62604083018961479c565b614a6f606083018861479c565b614a7c608083018761479c565b614a8960a0830186614617565b614a9660c0830185614626565b614aa360e0830184614617565b9998505050505050505050565b600060a0820190508181036000830152614aca8188614653565b9050614ad96020830187614617565b614ae6604083018661479c565b614af3606083018561479c565b614b00608083018461479c565b9695505050505050565b600060c0820190508181036000830152614b248189614653565b9050614b336020830188614617565b614b40604083018761479c565b614b4d606083018661479c565b614b5a608083018561479c565b614b6760a083018461479c565b979650505050505050565b600060e0820190508181036000830152614b8c818a614653565b9050614b9b602083018961479c565b614ba8604083018861479c565b614bb5606083018761479c565b8181036080830152614bc78186614653565b9050614bd660a0830185614617565b614be360c083018461479c565b98975050505050505050565b6000610180820190508181036000830152614c0a818f6146bd565b90508181036020830152614c1e818e6146bd565b9050614c2d604083018d61479c565b614c3a606083018c61479c565b614c47608083018b614617565b614c5460a083018a61479c565b614c6160c083018961479c565b614c6e60e083018861479c565b614c7c61010083018761479c565b614c8a610120830186614626565b818103610140830152614c9d81856146bd565b9050614cad61016083018461479c565b9d9c50505050505050505050505050565b60006020820190508181036000830152614cd7816146f6565b9050919050565b60006020820190508181036000830152614cf781614736565b9050919050565b6000602082019050614d13600083018461479c565b92915050565b6000604082019050614d2e600083018561479c565b614d3b6020830184614626565b9392505050565b6000604082019050614d57600083018561479c565b614d64602083018461479c565b9392505050565b600060a082019050614d80600083018861479c565b614d8d602083018761479c565b8181036040830152614d9f8186614653565b9050614dae606083018561479c565b614dbb6080830184614626565b9695505050505050565b6000606082019050614dda600083018661479c565b614de7602083018561479c565b614df4604083018461479c565b949350505050565b600060e082019050614e11600083018a61479c565b614e1e602083018961479c565b614e2b604083018861479c565b614e38606083018761479c565b614e45608083018661479c565b614e5260a083018561479c565b614e5f60c083018461479c565b98975050505050505050565b6000604051905081810181811067ffffffffffffffff82111715614e8e57600080fd5b8060405250919050565b600067ffffffffffffffff821115614eaf57600080fd5b601f19601f8301169050602081019050919050565b600067ffffffffffffffff821115614edb57600080fd5b601f19601f8301169050602081019050919050565b600081519050919050565b600081519050919050565b600082825260208201905092915050565b600081905092915050565b6000614f2d82614f4a565b9050919050565b60008115159050919050565b6000819050919050565b600073ffffffffffffffffffffffffffffffffffffffff82169050919050565b6000819050919050565b6000614f7f82614faa565b9050919050565b6000614f9182614f98565b9050919050565b6000614fa382614f4a565b9050919050565b6000614fb582614fbc565b9050919050565b6000614fc782614f4a565b9050919050565b82818337600083830152505050565b60005b83811015614ffb578082015181840152602081019050614fe0565b8381111561500a576000848401525b50505050565b6000601f19601f8301169050919050565b61502a81614f22565b811461503557600080fd5b50565b61504181614f34565b811461504c57600080fd5b50565b61505881614f40565b811461506357600080fd5b50565b61506f81614f6a565b811461507a57600080fd5b5056fea365627a7a72315820cd8894e48e15f2a8a42790ad304105e329515333bd1278425dc1c0dc00b606a66c6578706572696d656e74616cf564736f6c634300050b0040",
  "source": "pragma solidity 0.5.11;\nimport './PA.sol';\npragma experimental ABIEncoderV2;\n\n\n\ncontract tontine_Cercle {\n    using SafeMath for uint256;\nparticipant_contract a;\n\n\n    struct Tontine {\n        string ID_Tontine;\n        string Nom_Tontine;\n        uint256 Date;\n        uint256 Montant;\n        address Createur;\n        uint256 Nbr_participants;\n        uint256 Nbr_cycles;\n        uint256 Iteration_enCours;\n        uint256 Cycle_enCours;\n        bool Etat;\n        string Frequence;\n        uint256 SommeParMois;\n        mapping(address => participant_contract) ListeParticipant;\n        address[] participantsAddress;\n    }\n\n     mapping(string => Tontine) public tontineCercle;\n\n    string[] public tontineList;\n    \n        mapping(bytes32 => address) public tokens;\n\n    ERC20 public ERC20Interface;\n\n  constructor (participant_contract _a) public {\n    a = _a;\n  }\n  \n  \n    /* ********************* Transaction Globale **************************/\n\n  \n      function convertttt() internal pure returns (bytes32 result) {\n        string memory testFoo = \"IMFT\";\n\n        assembly {\n            result := mload(add(testFoo, 32))\n\n        }\n\n    }\n\n    /**\n \n    * @dev add address of token to list of supported tokens using * token symbol as identifier in mapping */\n\n    function addNewToken(address address_) public returns (bool) {\n        bytes32 symbol_ = convertttt();\n\n        tokens[symbol_] = address_;\n\n        return true;\n\n    }\n    \n    \n       function transaction(address add,address add1,uint256 m) internal {\n     //   participant_contract a = new participant_contract();\n               bytes32 symbol_ = convertttt();\n        address contract_ = tokens[symbol_];\n       \n        a.transaction(add,add1,m,contract_);\n    }\n    \n       \n  \n  /* ********************* Tontine Create + Get **************************/\n\n  \n    function addTontine(\n        string memory ID_Tontine,\n        string memory Nom_Tontine,\n        uint256 Montant,\n        uint256 Nbr_participants,\n        uint256 Nbr_cycles,\n        string memory Frequence,\n        uint256 Ordre,\n        address addressParticipant,\n        address addressTon\n    ) public { \n        \n        bytes memory identi = bytes(tontineCercle[ID_Tontine].ID_Tontine);\n\n        require(identi.length == 0);\n        require(Nbr_participants >= 2);\n        require(Nbr_cycles >= 1);\n   \n\n        tontineCercle[ID_Tontine].ID_Tontine = ID_Tontine;\n\n        tontineCercle[ID_Tontine].Nom_Tontine = Nom_Tontine;\n\n        tontineCercle[ID_Tontine].Createur = msg.sender;\n\n        tontineCercle[ID_Tontine].Nbr_participants = Nbr_participants;\n\n        tontineCercle[ID_Tontine].Nbr_cycles = Nbr_cycles;\n\n        tontineCercle[ID_Tontine].Date = 0;\n\n        tontineCercle[ID_Tontine].SommeParMois = 0;\n\n        tontineCercle[ID_Tontine].Montant = Montant;\n\n        tontineCercle[ID_Tontine].Etat = false;\n\n        tontineCercle[ID_Tontine].Cycle_enCours = 0;\n\n        tontineCercle[ID_Tontine].Iteration_enCours = 0;\n\n        tontineCercle[ID_Tontine].Frequence = Frequence;\n\n        tontineList.push(ID_Tontine);\n        \n       // tontineCercle[ID_Tontine].participantsAddress.push(addressParticipant);\n\n       \n        addParticipant(ID_Tontine, Ordre,false,addressTon);\n        \n\n    }\n\n    \n    function getTontine(string memory ID_Tontine)\n        public\n        view\n        returns (\n            string memory,\n            uint256,\n            uint256,\n            uint256,\n            string memory,\n            address,\n            uint256\n        )\n    {\n        return (\n            tontineCercle[ID_Tontine].Nom_Tontine,\n            tontineCercle[ID_Tontine].Nbr_participants,\n            tontineCercle[ID_Tontine].Montant,\n            tontineCercle[ID_Tontine].Nbr_cycles,\n            tontineCercle[ID_Tontine].Frequence,\n            tontineCercle[ID_Tontine].Createur,\n            tontineCercle[ID_Tontine].participantsAddress.length\n            \n        );\n\n    }\n    \n          /* **************************** Ajouter Participant : Post + Get      ******************************/\n\n    \n    \n           function addParticipant(string memory ID_Tontine, uint256 Ordre,bool decline, address addressTon) public {\n                 //  tontineCercle[ID_Tontine].ListeParticipant[msg.sender] = new participant_contract();\n\ntontineCercle[ID_Tontine].ListeParticipant[msg.sender] =a;\n\ntontineCercle[ID_Tontine].ListeParticipant[msg.sender].addUser(msg.sender, Ordre);\n       bytes32 symbol_ = convertttt();\n        address contract_ = tokens[symbol_];\ntontineCercle[ID_Tontine].participantsAddress.push(msg.sender);\n       if(decline){\n           tontineCercle[ID_Tontine].Date = now;\n            tontineCercle[ID_Tontine].Etat = false;\n       }else{\n           \n           tontineCercle[ID_Tontine].ListeParticipant[msg.sender].addTxGarantie(ID_Tontine, msg.sender, \n           tontineCercle[ID_Tontine].Cycle_enCours, tontineCercle[ID_Tontine].Iteration_enCours, tontineCercle[ID_Tontine].Montant, addressTon, true,contract_);\n        if (\n            tontineCercle[ID_Tontine].participantsAddress.length ==\n            tontineCercle[ID_Tontine].Nbr_participants\n        ) {\n            tontineCercle[ID_Tontine].Date = now;\n            tontineCercle[ID_Tontine].Etat = true;\n            tontineCercle[ID_Tontine].Cycle_enCours = 1;\n            tontineCercle[ID_Tontine].Iteration_enCours = 1;\n        }\n           \n       }\n\n    }\n    \n    //  supprimer: non utilse\n    \n    function getPart(string memory ID_Tontine, address addresPart) public view returns(uint256, bool) {\n       return(tontineCercle[ID_Tontine].ListeParticipant[addresPart].get(addresPart));\n        \n    }\n    \n    \n      /* ****************************cotisation : Post + Get      ******************************/\n\n    \n\n      function cotisation(string memory ID_Tontine, address addressTon) public {\n              tontineCercle[ID_Tontine].ListeParticipant[msg.sender] = a;\n\n      //  tontineCercle[ID_Tontine].ListeParticipant[msg.sender] = new participant_contract();\n      bytes32 symbol_ = convertttt();\n        address contract_ = tokens[symbol_];\n    //     tontineCercle[ID_Tontine].ListeParticipant[msg.sender].cotisation(ID_Tontine, addressTon, tontineCercle[ID_Tontine].Cycle_enCours,\n    //tontineCercle[ID_Tontine].Iteration_enCours, tontineCercle[ID_Tontine].Montant, contract_);\n    tontineCercle[ID_Tontine].ListeParticipant[msg.sender].addTxCotisation(ID_Tontine, msg.sender, tontineCercle[ID_Tontine].Cycle_enCours,\n    tontineCercle[ID_Tontine].Iteration_enCours, tontineCercle[ID_Tontine].Montant);\n     tontineCercle[ID_Tontine].ListeParticipant[msg.sender].transaction( msg.sender, addressTon, tontineCercle[ID_Tontine].Montant, contract_);\n       \n        tontineCercle[ID_Tontine].SommeParMois = tontineCercle[ID_Tontine].Montant.add(\n            tontineCercle[ID_Tontine].SommeParMois\n        );\n\n    }\n    \n    //  supprimer: non utilise (pour test)\n    \n            function getCotnbr(string memory ID_Tontine, address Adherent_Address) public view returns(uint256) {\n       return(tontineCercle[ID_Tontine].ListeParticipant[Adherent_Address].getCotNbr(Adherent_Address));\n        \n    }\n    \n        \n\n    \n          /* **************************** Recharge et Garantie  :Post + Get      ******************************/\n          \n          \n          \n              function RechargeGarantie(\n        string memory ID_Tontine,\n        address tontine_Address,\n        bool Type\n    ) public {\n             bytes32 symbol_ = convertttt();\n        address contract_ = tokens[symbol_];\n\n       tontineCercle[ID_Tontine].ListeParticipant[msg.sender].addTxGarantie(\n      ID_Tontine,\n         msg.sender,\n         tontineCercle[ID_Tontine].Cycle_enCours,\n         tontineCercle[ID_Tontine].Iteration_enCours,\n         tontineCercle[ID_Tontine].Montant,\n         tontine_Address,\n         Type,\n         contract_);\n\n    }\n\n              //  supprimer: non utilise (pour test)\n              \n     function getGarnbr(string memory ID_Tontine) public view returns(uint256) {\n       return(tontineCercle[ID_Tontine].ListeParticipant[msg.sender].getGarNbr(msg.sender));\n        \n    }\n    /* **************************** distribution  :Post + Get      ******************************/\n\n    function distribution(\n        string memory ID_Tontine,\n        address Address_Receiver,\n        uint256 Ordre,\n        address addressTon\n    ) public {\n        uint256 nbr = tontineCercle[ID_Tontine].Nbr_participants;\n        uint256 montant = tontineCercle[ID_Tontine].Montant;\n\n        require(tontineCercle[ID_Tontine].SommeParMois == montant.mul(nbr));\n        require(tontineCercle[ID_Tontine].Etat);\n              //  tontineCercle[ID_Tontine].ListeParticipant[msg.sender] = new participant_contract();\n\ntontineCercle[ID_Tontine].ListeParticipant[Address_Receiver] = a;\n        if (Ordre == tontineCercle[ID_Tontine].Iteration_enCours) {\n           bytes32 symbol_ = convertttt();\n        address contract_ = tokens[symbol_];\n\n             tontineCercle[ID_Tontine].ListeParticipant[Address_Receiver].transaction(\n                  addressTon,\n            Address_Receiver,\n            montant.mul(nbr),\n            contract_ \n            \n        );\n            tontineCercle[ID_Tontine].ListeParticipant[Address_Receiver]\n            .addTxDistribution( ID_Tontine, Address_Receiver, tontineCercle[ID_Tontine].Cycle_enCours, tontineCercle[ID_Tontine].Iteration_enCours, montant, nbr);\n         \n\n            tontineCercle[ID_Tontine].SommeParMois = 0;\n            if (\n                tontineCercle[ID_Tontine].Iteration_enCours ==\n                tontineCercle[ID_Tontine].Nbr_participants\n            ) {\n                tontineCercle[ID_Tontine].Cycle_enCours += 1;\n                tontineCercle[ID_Tontine].Iteration_enCours = 1;\n\n            } else {\n                tontineCercle[ID_Tontine].Iteration_enCours += 1;\n\n            }\n\n        }\n\n    }\n    \n        //  supprimer: non utilise (pour test)\n\n           function getDisnbr(string memory ID_Tontine, address Adherent_Address) public view returns(uint256) {\n       return(tontineCercle[ID_Tontine].ListeParticipant[Adherent_Address].getDisNbr(Adherent_Address));\n        \n    }\n    \n    function interruption(string memory ID_Tontine, address Adherent_Address) public {\n    \n        if (tontineCercle[ID_Tontine].Etat ) {\n            \n             if (tontineCercle[ID_Tontine].ListeParticipant[Adherent_Address].getLastCumule(Adherent_Address) == 0) {\n                tontineCercle[ID_Tontine].Etat = false;\n            }\n        }\n        \n    }\n \n    \n     function verifGarantie(string memory ID_Tontine, address Address_Receiver) public  {\n     // tontineCercle[ID_Tontine].ListeParticipant[Address_Receiver] = a;\n      uint256 nbr = tontineCercle[ID_Tontine].Nbr_participants;\n        uint256 montant = tontineCercle[ID_Tontine].Montant;\n        //uint256 cumule ;\n               bytes32 symbol_ = convertttt();\n        address contract_ = tokens[symbol_];\n        //bool payementCotisation = true;\n\n       if (tontineCercle[ID_Tontine].SommeParMois != montant.mul(nbr)) {\n        \n                   \n            if (tontineCercle[ID_Tontine].ListeParticipant[Address_Receiver].getLastCotisation(Address_Receiver, tontineCercle[ID_Tontine].Cycle_enCours,  tontineCercle[ID_Tontine].Iteration_enCours)) {\n              \n                  \n              // cumule =  tontineCercle[ID_Tontine].ListeParticipant[Address_Receiver].getLastCumule(Address_Receiver);\n\n               //  if (tontineCercle[ID_Tontine].ListeParticipant[Address_Receiver].getLastCumule(Address_Receiver) != 0) {\n              \n                  tontineCercle[ID_Tontine].SommeParMois += montant;\n                        \n                      tontineCercle[ID_Tontine].ListeParticipant[Address_Receiver] = a;\n\n\n                        tontineCercle[ID_Tontine].ListeParticipant[Address_Receiver].verifgarantie(ID_Tontine, Address_Receiver, \n           tontineCercle[ID_Tontine].Cycle_enCours, tontineCercle[ID_Tontine].Iteration_enCours, montant);\n \n\n\n             /*  } \n               else {\n                    tontineCercle[ID_Tontine].Etat = false;\n                }*/\n            }\n\n        }\n      \n\n    }\n    \n    function getsommeparmois(string memory ID_Tontine) public view returns(uint256) {\n        return tontineCercle[ID_Tontine].SommeParMois;\n    }\n    \n    \n        /* **************************** hashFunction      ******************************/\n        \n        // selon le choix de type transaction(0,1,2) on va modifier le hash de la transaction\n\n    function setTransactionHash(\n        bytes32 trHash,\n        uint256 typeTransaction,\n        string memory ID_Tontine\n    ) public {\n        // 0 : garantie\n        tontineCercle[ID_Tontine].ListeParticipant[msg.sender] =a;\n\n   if(typeTransaction == 0) {\n       tontineCercle[ID_Tontine].ListeParticipant[msg.sender].setTransactionHashGarantie(trHash,msg.sender);\n\n   }\n           // 1 : cotisation\n\n   else if(typeTransaction == 1){\n              tontineCercle[ID_Tontine].ListeParticipant[msg.sender].setTransactionHashCotisation(trHash,msg.sender);\n\n   }\n           // 2 : distribution\n\n   else{\n              tontineCercle[ID_Tontine].ListeParticipant[msg.sender].setTransactionHashDistribution(trHash,msg.sender);\n\n   }\n\n    }\n    \n    \n    /* **************************** fonction pour affichage dans node      ******************************/\n\n\n\n        function getNumberParticipantByTontine(string memory ID_Tontine) public view returns(uint256) {\n       return(tontineCercle[ID_Tontine].participantsAddress.length);\n        \n    }\n    \n     /* ****************************  affichage plus de dtails tontine      ******************************/\n\n   function GetGarCotiDisByIndex(\n        string memory ID_Tontine,\n        address Address_Receiver,\n        uint256 indice ,\n           bool Gar,\n        bool Cot,\n        bool Dis\n    )\n        public\n        view\n        returns (uint256, uint256, uint256 )\n    {\n        \n        for(uint256 i=0; i< tontineCercle[ID_Tontine].participantsAddress.length; i++) {\n    if(Address_Receiver == tontineCercle[ID_Tontine].participantsAddress[i]) {\n           //    tontineCercle[ID_Tontine].ListeParticipant[Address_Receiver] =a;\n\n           if (Gar) {\n                     return(tontineCercle[ID_Tontine].ListeParticipant[Address_Receiver].getGarantie(Address_Receiver,indice));\n\n           }\n            if (Cot) {\n                    return(tontineCercle[ID_Tontine].ListeParticipant[Address_Receiver].getCotisation(Address_Receiver,indice));\n\n\n            \n            }\n                \n            if (Dis) {\n                    return(tontineCercle[ID_Tontine].ListeParticipant[Address_Receiver].getDistribution(Address_Receiver,indice));\n\n         }\n     }\n        }\n        \n        return(0,0,0);\n\n            \n        \n    }\n    \n    \n    \n             function getLeng(\n        string memory ID_Tontine,\n        address Adherent_Address )\n        public\n        view\n        returns (uint256,uint256,uint256)\n    {\n        bool tt = false;\n  for(uint256 i=0; i< tontineCercle[ID_Tontine].participantsAddress.length; i++) {\nif(Adherent_Address == tontineCercle[ID_Tontine].participantsAddress[i]) {\n        tt = true;\n  }  }\n  if(tt){\n      return(1,1,1);\n  /*return (tontineCercle[ID_Tontine].ListeParticipant[Adherent_Address].getGarNbr(Adherent_Address),tontineCercle[ID_Tontine].ListeParticipant[Adherent_Address].getCotNbr(Adherent_Address),\n        tontineCercle[ID_Tontine].ListeParticipant[Adherent_Address].getDisNbr(Adherent_Address));\n        */\n  } else {\n  return (0,0,0); }\n        \n    }\n\n    function getLeng2(\n        string memory ID_Tontine,\n        uint256 i )\n        public\n        view\n        returns (address)\n    {\n      \n      return(tontineCercle[ID_Tontine].participantsAddress[i]);\n      \n      \n    }\n    /* ******************************** fonction pour le node (schedule)******************************/\n\n    function getNumIterationCycle(string memory ID_Tontine)\n        public\n        view\n        returns (uint256, uint256)\n    {\n        return (\n            tontineCercle[ID_Tontine].Nbr_participants.mul(\n                tontineCercle[ID_Tontine].Nbr_cycles\n            ), tontineCercle[ID_Tontine].Nbr_cycles\n        );\n\n    }\n    \n    /* ******************************** fonction pour le node (schedule et notification)******************************/\n\n\n    function getDateLancement(string memory ID_Tontine)\n        public\n        view\n        returns (uint256, uint256, string memory, uint256, bool)\n    {\n       \n        return (\n            tontineCercle[ID_Tontine].Date,\n            tontineCercle[ID_Tontine].Iteration_enCours,\n            tontineCercle[ID_Tontine].Frequence,\n            tontineCercle[ID_Tontine].Cycle_enCours,\n            tontineCercle[ID_Tontine].Etat\n        );\n    \n    }\n    /* ******************************** envoi Mondataire******************************/\n\n\n  function envoiMondataire(string memory ID_Tontine,address tontine_address, address mondataire1_address, address mondataire2_address) public \n    {           bytes32 symbol_ = convertttt();\n        address contract_ = tokens[symbol_];\n        ERC20Interface = ERC20(contract_);\n\n             tontineCercle[ID_Tontine].ListeParticipant[mondataire1_address].transaction(\n                  tontine_address,\n            mondataire1_address,\n          ERC20Interface.balanceOf(tontine_address)/2,\n            contract_ \n            \n        );\n               \n\n             tontineCercle[ID_Tontine].ListeParticipant[mondataire2_address].transaction(\n                  tontine_address,\n            mondataire2_address,\n           ERC20Interface.balanceOf(tontine_address),\n            contract_ \n            \n        );\n  \n\n    }\n    \n        /* ******************************** dernires oprations******************************/\n\n        function getLastGarCotDist(\n        string memory ID_Tontine,\n        address Address_Receiver,\n        bool Gar,\n        bool Cot,\n        bool Dis) public  view returns (uint256, uint256, uint256, uint256, uint256, uint256, uint256)\n    {\n        for(uint256 i=0; i< tontineCercle[ID_Tontine].participantsAddress.length; i++) {\nif(Address_Receiver == tontineCercle[ID_Tontine].participantsAddress[i]) {\n   return ( tontineCercle[ID_Tontine].ListeParticipant[Address_Receiver].getLastGarCotDist(\n        Address_Receiver,\n         Gar,\n         Cot,\n         Dis));\n     }\n    }\n    return(0,0,0,0,0,0,0);\n    }\n\n \n}\n\n\n",
  "sourcePath": "/home/ubuntu/az/paylis/Tontine/contracts/CA.sol",
  "compiler": {
    "name": "solc",
    "version": "0.5.11+commit.c082d0b4.Emscripten.clang"
  },
  "schemaVersion": "3.0.19",
  "updatedAt": "2020-08-11T10:28:31.445Z",
  "devdoc": {
    "methods": {
      "addNewToken(address)": {
        "details": "add address of token to list of supported tokens using * token symbol as identifier in mapping "
      }
    }
  },
  "userdoc": {
    "methods": {}
  }
}