{
  "contractName": "credit",
  "abi": [
    {
      "payable": true,
      "stateMutability": "payable",
      "type": "fallback"
    },
    {
      "constant": true,
      "inputs": [
        {
          "internalType": "uint256",
          "name": "",
          "type": "uint256"
        }
      ],
      "name": "Credit",
      "outputs": [
        {
          "internalType": "uint256",
          "name": "id_Credit",
          "type": "uint256"
        },
        {
          "internalType": "address",
          "name": "adress_adherent",
          "type": "address"
        },
        {
          "internalType": "uint256",
          "name": "date_payment",
          "type": "uint256"
        },
        {
          "internalType": "uint256",
          "name": "date_obtention",
          "type": "uint256"
        },
        {
          "internalType": "uint256",
          "name": "montantpret",
          "type": "uint256"
        },
        {
          "internalType": "bytes32",
          "name": "H_Credit",
          "type": "bytes32"
        }
      ],
      "payable": false,
      "stateMutability": "view",
      "type": "function"
    },
    {
      "constant": true,
      "inputs": [
        {
          "internalType": "uint256",
          "name": "",
          "type": "uint256"
        }
      ],
      "name": "CreditList",
      "outputs": [
        {
          "internalType": "uint256",
          "name": "",
          "type": "uint256"
        }
      ],
      "payable": false,
      "stateMutability": "view",
      "type": "function"
    },
    {
      "constant": true,
      "inputs": [],
      "name": "ERC20BasicInterface",
      "outputs": [
        {
          "internalType": "contract ERC20Basic",
          "name": "",
          "type": "address"
        }
      ],
      "payable": false,
      "stateMutability": "view",
      "type": "function"
    },
    {
      "constant": true,
      "inputs": [],
      "name": "ERC20Interface",
      "outputs": [
        {
          "internalType": "contract ERC20",
          "name": "",
          "type": "address"
        }
      ],
      "payable": false,
      "stateMutability": "view",
      "type": "function"
    },
    {
      "constant": true,
      "inputs": [
        {
          "internalType": "address",
          "name": "",
          "type": "address"
        }
      ],
      "name": "NBRCredit",
      "outputs": [
        {
          "internalType": "uint256",
          "name": "",
          "type": "uint256"
        }
      ],
      "payable": false,
      "stateMutability": "view",
      "type": "function"
    },
    {
      "constant": true,
      "inputs": [
        {
          "internalType": "uint256",
          "name": "",
          "type": "uint256"
        }
      ],
      "name": "listAdress_adherent",
      "outputs": [
        {
          "internalType": "address",
          "name": "",
          "type": "address"
        }
      ],
      "payable": false,
      "stateMutability": "view",
      "type": "function"
    },
    {
      "constant": true,
      "inputs": [
        {
          "internalType": "address",
          "name": "",
          "type": "address"
        },
        {
          "internalType": "uint256",
          "name": "",
          "type": "uint256"
        }
      ],
      "name": "listCredit",
      "outputs": [
        {
          "internalType": "uint256",
          "name": "id_Credit",
          "type": "uint256"
        },
        {
          "internalType": "address",
          "name": "adress_adherent",
          "type": "address"
        },
        {
          "internalType": "uint256",
          "name": "date_payment",
          "type": "uint256"
        },
        {
          "internalType": "uint256",
          "name": "date_obtention",
          "type": "uint256"
        },
        {
          "internalType": "uint256",
          "name": "montantpret",
          "type": "uint256"
        },
        {
          "internalType": "bytes32",
          "name": "H_Credit",
          "type": "bytes32"
        }
      ],
      "payable": false,
      "stateMutability": "view",
      "type": "function"
    },
    {
      "constant": true,
      "inputs": [
        {
          "internalType": "bytes32",
          "name": "",
          "type": "bytes32"
        }
      ],
      "name": "tokens",
      "outputs": [
        {
          "internalType": "address",
          "name": "",
          "type": "address"
        }
      ],
      "payable": false,
      "stateMutability": "view",
      "type": "function"
    },
    {
      "constant": true,
      "inputs": [
        {
          "internalType": "uint256",
          "name": "numerator",
          "type": "uint256"
        },
        {
          "internalType": "uint256",
          "name": "denominator",
          "type": "uint256"
        },
        {
          "internalType": "uint256",
          "name": "precision",
          "type": "uint256"
        }
      ],
      "name": "percent",
      "outputs": [
        {
          "internalType": "uint256",
          "name": "quotient",
          "type": "uint256"
        }
      ],
      "payable": false,
      "stateMutability": "view",
      "type": "function"
    },
    {
      "constant": true,
      "inputs": [
        {
          "internalType": "uint256",
          "name": "salaire",
          "type": "uint256"
        },
        {
          "internalType": "uint256",
          "name": "tauxaccept",
          "type": "uint256"
        },
        {
          "internalType": "uint256",
          "name": "precisionmaxpret",
          "type": "uint256"
        }
      ],
      "name": "maxpret",
      "outputs": [
        {
          "internalType": "uint256",
          "name": "mp",
          "type": "uint256"
        }
      ],
      "payable": false,
      "stateMutability": "view",
      "type": "function"
    },
    {
      "constant": true,
      "inputs": [
        {
          "internalType": "uint256",
          "name": "pret",
          "type": "uint256"
        },
        {
          "internalType": "uint256",
          "name": "tauxfrais",
          "type": "uint256"
        },
        {
          "internalType": "uint256",
          "name": "precisionmaxpret",
          "type": "uint256"
        }
      ],
      "name": "fraisdossier",
      "outputs": [
        {
          "internalType": "uint256",
          "name": "fd",
          "type": "uint256"
        }
      ],
      "payable": false,
      "stateMutability": "view",
      "type": "function"
    },
    {
      "constant": true,
      "inputs": [
        {
          "internalType": "uint256",
          "name": "salaire",
          "type": "uint256"
        },
        {
          "internalType": "uint256",
          "name": "pret",
          "type": "uint256"
        },
        {
          "internalType": "uint256",
          "name": "fraisdossier",
          "type": "uint256"
        }
      ],
      "name": "salairefinal",
      "outputs": [
        {
          "internalType": "uint256",
          "name": "maxpret",
          "type": "uint256"
        }
      ],
      "payable": false,
      "stateMutability": "view",
      "type": "function"
    },
    {
      "constant": true,
      "inputs": [],
      "name": "tokenSymbole",
      "outputs": [
        {
          "internalType": "bytes32",
          "name": "result",
          "type": "bytes32"
        }
      ],
      "payable": false,
      "stateMutability": "pure",
      "type": "function"
    },
    {
      "constant": false,
      "inputs": [
        {
          "internalType": "bytes32",
          "name": "symbol_",
          "type": "bytes32"
        },
        {
          "internalType": "address",
          "name": "address_",
          "type": "address"
        }
      ],
      "name": "addNewToken",
      "outputs": [
        {
          "internalType": "bool",
          "name": "",
          "type": "bool"
        }
      ],
      "payable": false,
      "stateMutability": "nonpayable",
      "type": "function"
    },
    {
      "constant": true,
      "inputs": [
        {
          "internalType": "uint256",
          "name": "_amountFiat",
          "type": "uint256"
        },
        {
          "internalType": "uint256",
          "name": "_conversionRate",
          "type": "uint256"
        }
      ],
      "name": "convertFIATtoTOKEN",
      "outputs": [
        {
          "internalType": "uint256",
          "name": "",
          "type": "uint256"
        }
      ],
      "payable": false,
      "stateMutability": "pure",
      "type": "function"
    },
    {
      "constant": false,
      "inputs": [
        {
          "internalType": "bytes32",
          "name": "_symbol",
          "type": "bytes32"
        },
        {
          "internalType": "uint256",
          "name": "SalaireToken",
          "type": "uint256"
        },
        {
          "internalType": "bool",
          "name": "pretencour",
          "type": "bool"
        },
        {
          "internalType": "uint256",
          "name": "pret",
          "type": "uint256"
        },
        {
          "internalType": "address",
          "name": "_adress_adherent",
          "type": "address"
        },
        {
          "internalType": "address",
          "name": "address_sender",
          "type": "address"
        }
      ],
      "name": "VersementSalaireAdh",
      "outputs": [],
      "payable": false,
      "stateMutability": "nonpayable",
      "type": "function"
    },
    {
      "constant": true,
      "inputs": [
        {
          "internalType": "uint256",
          "name": "idCredit",
          "type": "uint256"
        },
        {
          "internalType": "address",
          "name": "address_sender",
          "type": "address"
        }
      ],
      "name": "getcredit",
      "outputs": [
        {
          "internalType": "uint256",
          "name": "",
          "type": "uint256"
        },
        {
          "internalType": "address",
          "name": "",
          "type": "address"
        },
        {
          "internalType": "uint256",
          "name": "",
          "type": "uint256"
        },
        {
          "internalType": "uint256",
          "name": "",
          "type": "uint256"
        },
        {
          "internalType": "uint256",
          "name": "",
          "type": "uint256"
        },
        {
          "internalType": "bytes32",
          "name": "",
          "type": "bytes32"
        }
      ],
      "payable": false,
      "stateMutability": "view",
      "type": "function"
    },
    {
      "constant": true,
      "inputs": [
        {
          "internalType": "address",
          "name": "_adress_adherent",
          "type": "address"
        }
      ],
      "name": "getNBRCredit",
      "outputs": [
        {
          "internalType": "uint256",
          "name": "",
          "type": "uint256"
        }
      ],
      "payable": false,
      "stateMutability": "view",
      "type": "function"
    },
    {
      "constant": false,
      "inputs": [
        {
          "internalType": "bool",
          "name": "VerificationDemande",
          "type": "bool"
        },
        {
          "internalType": "uint256",
          "name": "pret",
          "type": "uint256"
        },
        {
          "internalType": "bytes32",
          "name": "_symbol",
          "type": "bytes32"
        },
        {
          "internalType": "address",
          "name": "_adress_adherent",
          "type": "address"
        },
        {
          "internalType": "address",
          "name": "address_sender",
          "type": "address"
        }
      ],
      "name": "ObtentionDePret",
      "outputs": [],
      "payable": false,
      "stateMutability": "nonpayable",
      "type": "function"
    }
  ],
  "bytecode": "0x6080604052600160005534801561001557600080fd5b50611b00806100256000396000f3fe6080604052600436106101135760003560e01c80639ea1f521116100a0578063cc08c4d911610064578063cc08c4d91461076d578063cd93a0f31461082b578063d7e4613b146108bc578063deeefb03146108e7578063eeb360a61461093657610113565b80639ea1f5211461053d578063aa59a58d14610596578063b082443b14610634578063b70e67cc146106a7578063c59e20881461070a57610113565b80631f54b6ee116100e75780631f54b6ee146102ad57806321dcafdb1461036b578063280f0c88146103c2578063600df6b21461045d578063904194a3146104c257610113565b80622c1a9e146101155780630389008e146101785780630f6e7505146101db5780631bbc4b8314610256575b005b34801561012157600080fd5b506101626004803603606081101561013857600080fd5b8101908080359060200190929190803590602001909291908035906020019092919050505061099b565b6040518082815260200191505060405180910390f35b34801561018457600080fd5b506101c56004803603606081101561019b57600080fd5b810190808035906020019092919080359060200190929190803590602001909291905050506109d0565b6040518082815260200191505060405180910390f35b3480156101e757600080fd5b50610214600480360360208110156101fe57600080fd5b8101908080359060200190929190505050610a14565b604051808273ffffffffffffffffffffffffffffffffffffffff1673ffffffffffffffffffffffffffffffffffffffff16815260200191505060405180910390f35b34801561026257600080fd5b5061026b610a50565b604051808273ffffffffffffffffffffffffffffffffffffffff1673ffffffffffffffffffffffffffffffffffffffff16815260200191505060405180910390f35b3480156102b957600080fd5b50610306600480360360408110156102d057600080fd5b81019080803573ffffffffffffffffffffffffffffffffffffffff16906020019092919080359060200190929190505050610a76565b604051808781526020018673ffffffffffffffffffffffffffffffffffffffff1673ffffffffffffffffffffffffffffffffffffffff168152602001858152602001848152602001838152602001828152602001965050505050505060405180910390f35b34801561037757600080fd5b50610380610adf565b604051808273ffffffffffffffffffffffffffffffffffffffff1673ffffffffffffffffffffffffffffffffffffffff16815260200191505060405180910390f35b3480156103ce57600080fd5b5061045b600480360360c08110156103e557600080fd5b81019080803590602001909291908035906020019092919080351515906020019092919080359060200190929190803573ffffffffffffffffffffffffffffffffffffffff169060200190929190803573ffffffffffffffffffffffffffffffffffffffff169060200190929190505050610b05565b005b34801561046957600080fd5b506104ac6004803603602081101561048057600080fd5b81019080803573ffffffffffffffffffffffffffffffffffffffff169060200190929190505050610ef5565b6040518082815260200191505060405180910390f35b3480156104ce57600080fd5b506104fb600480360360208110156104e557600080fd5b8101908080359060200190929190505050610f3e565b604051808273ffffffffffffffffffffffffffffffffffffffff1673ffffffffffffffffffffffffffffffffffffffff16815260200191505060405180910390f35b34801561054957600080fd5b506105806004803603604081101561056057600080fd5b810190808035906020019092919080359060200190929190505050610f71565b6040518082815260200191505060405180910390f35b3480156105a257600080fd5b506105cf600480360360208110156105b957600080fd5b8101908080359060200190929190505050610f83565b604051808781526020018673ffffffffffffffffffffffffffffffffffffffff1673ffffffffffffffffffffffffffffffffffffffff168152602001858152602001848152602001838152602001828152602001965050505050505060405180910390f35b34801561064057600080fd5b5061068d6004803603604081101561065757600080fd5b8101908080359060200190929190803573ffffffffffffffffffffffffffffffffffffffff169060200190929190505050610fdf565b604051808215151515815260200191505060405180910390f35b3480156106b357600080fd5b506106f4600480360360608110156106ca57600080fd5b8101908080359060200190929190803590602001909291908035906020019092919050505061103d565b6040518082815260200191505060405180910390f35b34801561071657600080fd5b506107576004803603606081101561072d57600080fd5b81019080803590602001909291908035906020019092919080359060200190929190505050611075565b6040518082815260200191505060405180910390f35b34801561077957600080fd5b506107c66004803603604081101561079057600080fd5b8101908080359060200190929190803573ffffffffffffffffffffffffffffffffffffffff1690602001909291905050506110b9565b604051808781526020018673ffffffffffffffffffffffffffffffffffffffff1673ffffffffffffffffffffffffffffffffffffffff168152602001858152602001848152602001838152602001828152602001965050505050505060405180910390f35b34801561083757600080fd5b506108ba600480360360a081101561084e57600080fd5b810190808035151590602001909291908035906020019092919080359060200190929190803573ffffffffffffffffffffffffffffffffffffffff169060200190929190803573ffffffffffffffffffffffffffffffffffffffff1690602001909291905050506112f0565b005b3480156108c857600080fd5b506108d161189a565b6040518082815260200191505060405180910390f35b3480156108f357600080fd5b506109206004803603602081101561090a57600080fd5b81019080803590602001909291905050506118e1565b6040518082815260200191505060405180910390f35b34801561094257600080fd5b506109856004803603602081101561095957600080fd5b81019080803573ffffffffffffffffffffffffffffffffffffffff169060200190929190505050611902565b6040518082815260200191505060405180910390f35b60008060018301600a0a850290506000600a60058684816109b857fe5b0401816109c157fe5b04905080925050509392505050565b6000806109e0606485600361099b565b90506109f76103e88661191a90919063ffffffff16565b94506000610a0686838661099b565b905080925050509392505050565b60048181548110610a2157fe5b906000526020600020016000915054906101000a900473ffffffffffffffffffffffffffffffffffffffff1681565b600660009054906101000a900473ffffffffffffffffffffffffffffffffffffffff1681565b6003602052816000526040600020602052806000526040600020600091509150508060000154908060010160009054906101000a900473ffffffffffffffffffffffffffffffffffffffff16908060020154908060030154908060040154908060050154905086565b600760009054906101000a900473ffffffffffffffffffffffffffffffffffffffff1681565b600073ffffffffffffffffffffffffffffffffffffffff166008600088815260200190815260200160002060009054906101000a900473ffffffffffffffffffffffffffffffffffffffff1673ffffffffffffffffffffffffffffffffffffffff161415610b7257600080fd5b60006008600088815260200190815260200160002060009054906101000a900473ffffffffffffffffffffffffffffffffffffffff169050600015158515151415610d165780600660006101000a81548173ffffffffffffffffffffffffffffffffffffffff021916908373ffffffffffffffffffffffffffffffffffffffff160217905550600660009054906101000a900473ffffffffffffffffffffffffffffffffffffffff1673ffffffffffffffffffffffffffffffffffffffff1663fd3e6a0a8385896040518463ffffffff1660e01b8152600401808473ffffffffffffffffffffffffffffffffffffffff1673ffffffffffffffffffffffffffffffffffffffff1681526020018373ffffffffffffffffffffffffffffffffffffffff1673ffffffffffffffffffffffffffffffffffffffff1681526020018281526020019350505050602060405180830381600087803b158015610cd557600080fd5b505af1158015610ce9573d6000803e3d6000fd5b505050506040513d6020811015610cff57600080fd5b810190808051906020019092919050505050610eec565b6000610d258560056000611075565b90506000610d3488878461103d565b9050600660009054906101000a900473ffffffffffffffffffffffffffffffffffffffff1673ffffffffffffffffffffffffffffffffffffffff1663fd3e6a0a8587846040518463ffffffff1660e01b8152600401808473ffffffffffffffffffffffffffffffffffffffff1673ffffffffffffffffffffffffffffffffffffffff1681526020018373ffffffffffffffffffffffffffffffffffffffff1673ffffffffffffffffffffffffffffffffffffffff1681526020018281526020019350505050602060405180830381600087803b158015610e1357600080fd5b505af1158015610e27573d6000803e3d6000fd5b505050506040513d6020811015610e3d57600080fd5b81019080805190602001909291905050505042600360008773ffffffffffffffffffffffffffffffffffffffff1673ffffffffffffffffffffffffffffffffffffffff16815260200190815260200160002060006001600560008a73ffffffffffffffffffffffffffffffffffffffff1673ffffffffffffffffffffffffffffffffffffffff168152602001908152602001600020540381526020019081526020016000206002018190555050505b50505050505050565b6000600560008373ffffffffffffffffffffffffffffffffffffffff1673ffffffffffffffffffffffffffffffffffffffff168152602001908152602001600020549050919050565b60086020528060005260406000206000915054906101000a900473ffffffffffffffffffffffffffffffffffffffff1681565b60008082840290508091505092915050565b60016020528060005260406000206000915090508060000154908060010160009054906101000a900473ffffffffffffffffffffffffffffffffffffffff16908060020154908060030154908060040154908060050154905086565b6000816008600085815260200190815260200160002060006101000a81548173ffffffffffffffffffffffffffffffffffffffff021916908373ffffffffffffffffffffffffffffffffffffffff1602179055506001905092915050565b60008061105384866119a090919063ffffffff16565b905061106883826119a090919063ffffffff16565b9050809150509392505050565b600080611085606485600361099b565b905061109c6103e88661191a90919063ffffffff16565b945060006110ab86838661099b565b905080925050509392505050565b600080600080600080600360008873ffffffffffffffffffffffffffffffffffffffff1673ffffffffffffffffffffffffffffffffffffffff168152602001908152602001600020600089815260200190815260200160002060000154600360008973ffffffffffffffffffffffffffffffffffffffff1673ffffffffffffffffffffffffffffffffffffffff16815260200190815260200160002060008a815260200190815260200160002060010160009054906101000a900473ffffffffffffffffffffffffffffffffffffffff16600360008a73ffffffffffffffffffffffffffffffffffffffff1673ffffffffffffffffffffffffffffffffffffffff16815260200190815260200160002060008b815260200190815260200160002060020154600360008b73ffffffffffffffffffffffffffffffffffffffff1673ffffffffffffffffffffffffffffffffffffffff16815260200190815260200160002060008c815260200190815260200160002060030154600360008c73ffffffffffffffffffffffffffffffffffffffff1673ffffffffffffffffffffffffffffffffffffffff16815260200190815260200160002060008d815260200190815260200160002060040154600360008d73ffffffffffffffffffffffffffffffffffffffff1673ffffffffffffffffffffffffffffffffffffffff16815260200190815260200160002060008e8152602001908152602001600020600501549550955095509550955095509295509295509295565b600073ffffffffffffffffffffffffffffffffffffffff166008600085815260200190815260200160002060009054906101000a900473ffffffffffffffffffffffffffffffffffffffff1673ffffffffffffffffffffffffffffffffffffffff16141561135d57600080fd5b60006008600085815260200190815260200160002060009054906101000a900473ffffffffffffffffffffffffffffffffffffffff1690506001151586151514156118925780600660006101000a81548173ffffffffffffffffffffffffffffffffffffffff021916908373ffffffffffffffffffffffffffffffffffffffff160217905550600660009054906101000a900473ffffffffffffffffffffffffffffffffffffffff1673ffffffffffffffffffffffffffffffffffffffff1663fd3e6a0a8385886040518463ffffffff1660e01b8152600401808473ffffffffffffffffffffffffffffffffffffffff1673ffffffffffffffffffffffffffffffffffffffff1681526020018373ffffffffffffffffffffffffffffffffffffffff1673ffffffffffffffffffffffffffffffffffffffff1681526020018281526020019350505050602060405180830381600087803b1580156114c057600080fd5b505af11580156114d4573d6000803e3d6000fd5b505050506040513d60208110156114ea57600080fd5b810190808051906020019092919050505050600054600360008573ffffffffffffffffffffffffffffffffffffffff1673ffffffffffffffffffffffffffffffffffffffff1681526020019081526020016000206000600560008773ffffffffffffffffffffffffffffffffffffffff1673ffffffffffffffffffffffffffffffffffffffff1681526020019081526020016000205481526020019081526020016000206000018190555082600360008573ffffffffffffffffffffffffffffffffffffffff1673ffffffffffffffffffffffffffffffffffffffff1681526020019081526020016000206000600560008773ffffffffffffffffffffffffffffffffffffffff1673ffffffffffffffffffffffffffffffffffffffff16815260200190815260200160002054815260200190815260200160002060010160006101000a81548173ffffffffffffffffffffffffffffffffffffffff021916908373ffffffffffffffffffffffffffffffffffffffff16021790555042600360008573ffffffffffffffffffffffffffffffffffffffff1673ffffffffffffffffffffffffffffffffffffffff1681526020019081526020016000206000600560008773ffffffffffffffffffffffffffffffffffffffff1673ffffffffffffffffffffffffffffffffffffffff1681526020019081526020016000205481526020019081526020016000206003018190555084600360008573ffffffffffffffffffffffffffffffffffffffff1673ffffffffffffffffffffffffffffffffffffffff1681526020019081526020016000206000600560008773ffffffffffffffffffffffffffffffffffffffff1673ffffffffffffffffffffffffffffffffffffffff1681526020019081526020016000205481526020019081526020016000206004018190555060048390806001815401808255809150509060018203906000526020600020016000909192909190916101000a81548173ffffffffffffffffffffffffffffffffffffffff021916908373ffffffffffffffffffffffffffffffffffffffff1602179055505060008081548092919060010191905055506001600560008573ffffffffffffffffffffffffffffffffffffffff1673ffffffffffffffffffffffffffffffffffffffff1681526020019081526020016000205401600560008573ffffffffffffffffffffffffffffffffffffffff1673ffffffffffffffffffffffffffffffffffffffff168152602001908152602001600020819055505b505050505050565b600060606040518060400160405280600481526020017f494d4654000000000000000000000000000000000000000000000000000000008152509050602081015191505090565b600281815481106118ee57fe5b906000526020600020016000915090505481565b60056020528060005260406000206000915090505481565b60008083141561192d576000905061199a565b600082840290508284828161193e57fe5b0414611995576040517f08c379a0000000000000000000000000000000000000000000000000000000008152600401808060200182810382526021815260200180611aab6021913960400191505060405180910390fd5b809150505b92915050565b60006119e283836040518060400160405280601e81526020017f536166654d6174683a207375627472616374696f6e206f766572666c6f7700008152506119ea565b905092915050565b6000838311158290611a97576040517f08c379a00000000000000000000000000000000000000000000000000000000081526004018080602001828103825283818151815260200191508051906020019080838360005b83811015611a5c578082015181840152602081019050611a41565b50505050905090810190601f168015611a895780820380516001836020036101000a031916815260200191505b509250505060405180910390fd5b506000838503905080915050939250505056fe536166654d6174683a206d756c7469706c69636174696f6e206f766572666c6f77a265627a7a72315820f199f860ded6d04b7451a2b3f14a59394c38899303a8b3590ab578c96a2263bd64736f6c634300050f0032",
  "source": "pragma solidity 0.5.15;\n\nlibrary SafeMath {\n\n\n    function add(uint256 a, uint256 b) internal pure returns (uint256) {\n\n        uint256 c = a + b;\n\n        require(c >= a, \"SafeMath: addition overflow\");\n\n\n\n        return c;\n\n    }\n\n\n    function sub(uint256 a, uint256 b) internal pure returns (uint256) {\n\n        return sub(a, b, \"SafeMath: subtraction overflow\");\n\n    }\n\n    function sub(uint256 a, uint256 b, string memory errorMessage) internal pure returns (uint256) {\n\n        require(b <= a, errorMessage);\n\n        uint256 c = a - b;\n\n\n\n        return c;\n\n    }\n\n    function mul(uint256 a, uint256 b) internal pure returns (uint256) {\n\n        // Gas optimization: this is cheaper than requiring 'a' not being zero, but the\n\n        // benefit is lost if 'b' is also tested.\n\n        // See: https://github.com/OpenZeppelin/openzeppelin-contracts/pull/522\n\n        if (a == 0) {\n\n            return 0;\n\n        }\n\n\n\n        uint256 c = a * b;\n\n        require(c / a == b, \"SafeMath: multiplication overflow\");\n\n\n\n        return c;\n\n    }\n\n\n    function div(uint256 a, uint256 b) internal pure returns (uint256) {\n\n        return div(a, b, \"SafeMath: division by zero\");\n\n    }\n\n    function div(uint256 a, uint256 b, string memory errorMessage) internal pure returns (uint256) {\n\n        // Solidity only automatically asserts when dividing by 0\n\n        require(b > 0, errorMessage);\n\n        uint256 c = a / b;\n\n        // assert(a == b * c + a % b); // There is no case in which this doesn't hold\n\n\n\n        return c;\n\n    }\n\n\n\n\n    function mod(uint256 a, uint256 b) internal pure returns (uint256) {\n\n        return mod(a, b, \"SafeMath: modulo by zero\");\n\n    }\n\n\n\n    function mod(uint256 a, uint256 b, string memory errorMessage) internal pure returns (uint256) {\n\n        require(b != 0, errorMessage);\n\n        return a % b;\n\n    }\n\n}\ncontract ERC20Basic {\n  function totalSupply() public view returns (uint256);\n  function balanceOf(address who) public view returns (uint256);\n  function transfer(address to, uint256 value) public returns (bool);\n  event Transfer(address indexed from, address indexed to, uint256 value);\n}\ncontract ERC20 is ERC20Basic {\n  function allowance(address owner, address spender) public view returns (uint256);\n  function transferFrom(address from, address to, uint256 value) public returns (bool);\n  function approve(address spender, uint256 value) public returns (bool);\n  function transfers(address from_,address _to, uint256 _value) public returns (bool);\n  event Approval(address indexed owner, address indexed spender, uint256 value);\n}\n\n\n\n\ncontract credit  {\n   \n  using SafeMath for uint256;\n\n uint constant percenttotal = 100 ;\n\n uint idCreditg = 1 ;\n \nstruct credit {\n    uint id_Credit;\n    address adress_adherent;\n    uint date_payment ;\n    uint date_obtention;\n    uint montantpret;\n    bytes32 H_Credit;\n   \n   \n    \n}\n\n\n mapping (uint => credit) public Credit;\n\n    uint [] public CreditList ;\n    \n\n\n\nmapping (address  => mapping (uint => credit)) public listCredit;\n\naddress []public listAdress_adherent;\nmapping (address => uint) public NBRCredit;\n\n\n\n\nstruct TransferToken {\n        string idOp; //Id of the transfert\n        address sender;\n        string nom_sender;\n        string prenom_sender;\n        uint256 unqIdsender; //Unique Id of the sender\n        address reciver;\n        string namereciver;\n        uint256 id_reciver ;//Unique Id of the receiver\n        uint256  TransferDate;\n        uint amount;\n        bytes32 transaction_hash;\n     }\n    \n    // Structure de donne de la preuve de cash_in\n     struct Cashin {\n        string idOp; //Id of the transfert\n        address reciver;\n        string nom_reciver;\n        string prenom_reciver;\n        uint256 id_reciver;\n        address sender;\n        string nom_sender;\n        string prenom_sender;\n        uint256 id_sender ;\n        uint256  TransferDate;\n        uint amountFiat;\n        uint amountToken;\n        bytes32 transaction_hash;\n     }\n   \n         \n     \n     \n     ERC20 public ERC20Interface;\n  ERC20Basic public ERC20BasicInterface;\n  \n  \n  \n  \n  \n  \n  \n  \n   function percent(uint numerator, uint denominator, uint precision) public\n\n  view returns(uint quotient) {\n\n         // caution, check safe-to-multiply here\n        uint _numerator  = numerator * 10 ** (precision+1);\n        // with rounding of last digit\n        uint _quotient =  ((_numerator / denominator) + 5) / 10;\n        return ( _quotient);\n        \n  }\n  \n  function maxpret(uint salaire ,uint tauxaccept, uint precisionmaxpret) public\n\n  view returns(uint mp) {\n\nuint denominator = percent(percenttotal, tauxaccept, 3);\n\nsalaire = salaire.mul(1000);\n\nuint mp = percent(salaire, denominator, precisionmaxpret);\n\nreturn mp;\n        \n  }\n  \n   function fraisdossier(uint pret ,uint tauxfrais, uint precisionmaxpret) public\n\n  view returns(uint fd) {\n\nuint denominator = percent(percenttotal, tauxfrais, 3);\n\npret = pret.mul(1000);\n\nuint fd = percent(pret, denominator, precisionmaxpret);\n\nreturn fd;\n        \n  }\n\n  function salairefinal(uint salaire ,uint pret, uint fraisdossier) public\n\n  view returns(uint maxpret) {\n\n\nuint sf = salaire.sub(pret);\nsf = sf.sub(fraisdossier);\n\nreturn sf;\n        \n  }\n  \n  \n  \n  \n  \n   //return the symbol of the IMFT\n    function tokenSymbole() public pure returns (bytes32 result) {\n    string memory testFoo = \"IMFT\";\n        assembly {\n            result := mload(add(testFoo, 32))\n        }\n    }\n\n  /**\n * @dev list of all supported tokens for transfer * @param string token symbol * @param address contract address of token */\n mapping(bytes32 => address) public tokens;\n\n  /**\n * @dev add address of token to list of supported tokens using * token symbol as identifier in mapping */\n function addNewToken(bytes32 symbol_, address address_) public returns (bool) {\n  tokens[symbol_] = address_;\n\n  return true;\n }\n      //fonction de convertion de fiat on token\n       function convertFIATtoTOKEN(uint _amountFiat, uint _conversionRate) public pure returns (uint) {\n        uint a = _amountFiat * _conversionRate;\n        return a;\n    }\n     function() external payable {}\n     \n     \n     \n     \n     \n     /*\n     \n     function VersementSalaireParIMF(address reciver,uint _SalaireFiat,address address_sender  )public{\n        \n        address sender= address_sender;    \n        uint SalaireToken = convertFIATtoTOKEN(_SalaireFiat, 1);\n    }*/\n    \n    \n    \n    function VersementSalaireAdh(bytes32 _symbol,uint SalaireToken,bool pretencour, uint pret,address _adress_adherent,address address_sender )public{\n       \n         require(tokens[_symbol] != address(0));\n       address contract_ = tokens[_symbol];\n       \n        if (pretencour==false){\n        ERC20Interface = ERC20(contract_);\n        ERC20Interface.transfers(address_sender ,_adress_adherent,SalaireToken);\n        \n        }else { \n           uint fraisd = fraisdossier(pret, 5, 0);\n           uint salairef = salairefinal(SalaireToken, pret , fraisd );\n        ERC20Interface.transfers(address_sender,_adress_adherent,salairef);\n        //date_payment=now;\n        listCredit[_adress_adherent][NBRCredit[_adress_adherent]-1].date_payment=now;\n        \n    }}\n\n\n\n\n// function Credittt (uint idCredit, address adress_adherent, uint date_payment ,uint date_obtention, uint montantpret , bytes32 H_Credit ) public\n  //  {\n    //    Credit[idCredit].id_Credit=idCredit;\n      //  Credit[idCredit].adress_adherent=adress_adherent;\n    //    Credit[idCredit].date_payment=date_payment;\n      // Credit[idCredit].date_obtention=date_obtention;\n        //Credit[idCredit].montantpret=montantpret;\n        //Credit[idCredit].H_Credit=H_Credit;\n      \n        //CreditList.push(idCredit);\n       \n    //}\n  \n  \n  function getcredit(uint  idCredit, address address_sender  )public view returns\n  (uint  , address , uint , uint, uint , bytes32 ){\n\n        return\n        (listCredit[address_sender][idCredit].id_Credit,\n            listCredit[address_sender][idCredit].adress_adherent,\n              listCredit[address_sender][idCredit].date_payment ,\n             listCredit[address_sender][idCredit].date_obtention,\n             listCredit[address_sender][idCredit].montantpret,\n            listCredit[address_sender][idCredit].H_Credit\n             );\n    } \n    \n     function getNBRCredit(address _adress_adherent) public view returns (uint) {\n    \n    return NBRCredit[_adress_adherent];\n  }\n    \n \n    function ObtentionDePret(bool VerificationDemande,uint pret,bytes32 _symbol,address _adress_adherent, address address_sender )public {\n       \n       require(tokens[_symbol] != address(0));\n       address contract_ = tokens[_symbol];\n       \n        if (VerificationDemande == true){\n       \n         ERC20Interface = ERC20(contract_);\n        ERC20Interface.transfers(address_sender,_adress_adherent,pret);\n       \n       \n         listCredit[_adress_adherent][NBRCredit[_adress_adherent]].id_Credit=idCreditg;\n        listCredit[_adress_adherent][NBRCredit[_adress_adherent]].adress_adherent=_adress_adherent;\n       //listCredit[_adress_adherent][NBRCredit[_adress_adherent]].date_payment=0;\n      listCredit[_adress_adherent][NBRCredit[_adress_adherent]].date_obtention=now;\n       listCredit[_adress_adherent][NBRCredit[_adress_adherent]].montantpret=pret;\n        //Credit[idCredit].H_Credit=H_Credit;\n        \n      \n    listAdress_adherent.push(_adress_adherent);\n        idCreditg ++ ;\n        NBRCredit[_adress_adherent]=NBRCredit[_adress_adherent]+1;\n        }\n        \n    }\n    \n\n} \n",
  "sourcePath": "/home/ubuntu/Auth/contracts/credit.sol",
  "compiler": {
    "name": "solc",
    "version": "0.5.15+commit.6a57276f.Emscripten.clang"
  },
  "schemaVersion": "3.0.19",
  "updatedAt": "2020-07-02T13:04:05.734Z",
  "networkType": "ethereum",
  "devdoc": {
    "methods": {
      "addNewToken(bytes32,address)": {
        "details": "add address of token to list of supported tokens using * token symbol as identifier in mapping "
      }
    }
  },
  "userdoc": {
    "methods": {}
  }
}