{
  "contractName": "PaymentDeadLine",
  "abi": [
    {
      "constant": true,
      "inputs": [],
      "name": "ERC20Interface",
      "outputs": [
        {
          "name": "",
          "type": "address"
        }
      ],
      "payable": false,
      "stateMutability": "view",
      "type": "function"
    },
    {
      "constant": true,
      "inputs": [],
      "name": "operationNum",
      "outputs": [
        {
          "name": "",
          "type": "uint256"
        }
      ],
      "payable": false,
      "stateMutability": "view",
      "type": "function"
    },
    {
      "constant": true,
      "inputs": [],
      "name": "owner",
      "outputs": [
        {
          "name": "",
          "type": "address"
        }
      ],
      "payable": false,
      "stateMutability": "view",
      "type": "function"
    },
    {
      "constant": true,
      "inputs": [
        {
          "name": "",
          "type": "bytes32"
        }
      ],
      "name": "tokens",
      "outputs": [
        {
          "name": "",
          "type": "address"
        }
      ],
      "payable": false,
      "stateMutability": "view",
      "type": "function"
    },
    {
      "constant": true,
      "inputs": [
        {
          "name": "",
          "type": "address"
        },
        {
          "name": "",
          "type": "uint256"
        }
      ],
      "name": "DeadlineMap",
      "outputs": [
        {
          "name": "",
          "type": "uint256"
        }
      ],
      "payable": false,
      "stateMutability": "view",
      "type": "function"
    },
    {
      "constant": true,
      "inputs": [
        {
          "name": "",
          "type": "uint256"
        }
      ],
      "name": "NotifMap",
      "outputs": [
        {
          "name": "",
          "type": "uint256"
        }
      ],
      "payable": false,
      "stateMutability": "view",
      "type": "function"
    },
    {
      "inputs": [],
      "payable": false,
      "stateMutability": "nonpayable",
      "type": "constructor"
    },
    {
      "constant": true,
      "inputs": [
        {
          "name": "sender",
          "type": "address"
        }
      ],
      "name": "getPDLength",
      "outputs": [
        {
          "name": "",
          "type": "uint256"
        }
      ],
      "payable": false,
      "stateMutability": "view",
      "type": "function"
    },
    {
      "constant": true,
      "inputs": [
        {
          "name": "sender",
          "type": "address"
        },
        {
          "name": "i",
          "type": "uint256"
        }
      ],
      "name": "getPDIndex",
      "outputs": [
        {
          "name": "",
          "type": "uint256"
        }
      ],
      "payable": false,
      "stateMutability": "view",
      "type": "function"
    },
    {
      "constant": false,
      "inputs": [
        {
          "name": "symbol_",
          "type": "bytes32"
        },
        {
          "name": "address_",
          "type": "address"
        }
      ],
      "name": "addNewToken",
      "outputs": [
        {
          "name": "",
          "type": "bool"
        }
      ],
      "payable": false,
      "stateMutability": "nonpayable",
      "type": "function"
    },
    {
      "constant": false,
      "inputs": [
        {
          "name": "symbol_",
          "type": "bytes32"
        }
      ],
      "name": "removeToken",
      "outputs": [
        {
          "name": "",
          "type": "bool"
        }
      ],
      "payable": false,
      "stateMutability": "nonpayable",
      "type": "function"
    },
    {
      "constant": false,
      "inputs": [
        {
          "name": "symbol_",
          "type": "bytes32"
        },
        {
          "name": "adh",
          "type": "address"
        },
        {
          "name": "amount",
          "type": "uint256"
        }
      ],
      "name": "transferBackTokens",
      "outputs": [],
      "payable": false,
      "stateMutability": "nonpayable",
      "type": "function"
    },
    {
      "constant": false,
      "inputs": [
        {
          "name": "DateDeadline",
          "type": "uint256"
        },
        {
          "name": "id_loan",
          "type": "uint256"
        },
        {
          "name": "amount",
          "type": "uint256"
        },
        {
          "name": "borrower",
          "type": "address"
        }
      ],
      "name": "AddPaymentDeadline",
      "outputs": [],
      "payable": false,
      "stateMutability": "nonpayable",
      "type": "function"
    },
    {
      "constant": false,
      "inputs": [
        {
          "name": "index",
          "type": "uint256"
        }
      ],
      "name": "setAlerte",
      "outputs": [],
      "payable": false,
      "stateMutability": "nonpayable",
      "type": "function"
    },
    {
      "constant": false,
      "inputs": [
        {
          "name": "index",
          "type": "uint256"
        }
      ],
      "name": "setNotification",
      "outputs": [],
      "payable": false,
      "stateMutability": "nonpayable",
      "type": "function"
    },
    {
      "constant": true,
      "inputs": [
        {
          "name": "index",
          "type": "uint256"
        }
      ],
      "name": "getNotification",
      "outputs": [
        {
          "name": "no",
          "type": "uint256"
        },
        {
          "name": "al",
          "type": "uint256"
        }
      ],
      "payable": false,
      "stateMutability": "view",
      "type": "function"
    },
    {
      "constant": false,
      "inputs": [
        {
          "name": "_idE",
          "type": "uint256"
        },
        {
          "name": "amount",
          "type": "uint256"
        }
      ],
      "name": "accomplishEcheance",
      "outputs": [],
      "payable": false,
      "stateMutability": "nonpayable",
      "type": "function"
    },
    {
      "constant": true,
      "inputs": [
        {
          "name": "borrower",
          "type": "address"
        }
      ],
      "name": "getDeadlinesIndexes",
      "outputs": [
        {
          "name": "",
          "type": "uint256[]"
        }
      ],
      "payable": false,
      "stateMutability": "view",
      "type": "function"
    },
    {
      "constant": true,
      "inputs": [
        {
          "name": "id_loan",
          "type": "uint256"
        },
        {
          "name": "borrower",
          "type": "address"
        }
      ],
      "name": "getDeadlineInfo",
      "outputs": [
        {
          "name": "",
          "type": "string"
        },
        {
          "name": "",
          "type": "uint256"
        },
        {
          "name": "",
          "type": "address"
        },
        {
          "name": "",
          "type": "address"
        },
        {
          "name": "",
          "type": "uint256"
        },
        {
          "name": "",
          "type": "uint256"
        },
        {
          "name": "",
          "type": "uint256"
        },
        {
          "name": "",
          "type": "uint8"
        },
        {
          "name": "",
          "type": "bytes32"
        }
      ],
      "payable": false,
      "stateMutability": "view",
      "type": "function"
    },
    {
      "constant": false,
      "inputs": [
        {
          "name": "index_loan",
          "type": "uint256"
        },
        {
          "name": "hash",
          "type": "bytes32"
        }
      ],
      "name": "UpdatePaymentDeadlinehash",
      "outputs": [],
      "payable": false,
      "stateMutability": "nonpayable",
      "type": "function"
    },
    {
      "constant": false,
      "inputs": [
        {
          "name": "index_loan",
          "type": "uint256"
        }
      ],
      "name": "UpdatePaymentDeadline",
      "outputs": [],
      "payable": false,
      "stateMutability": "nonpayable",
      "type": "function"
    },
    {
      "constant": false,
      "inputs": [
        {
          "name": "charger",
          "type": "address"
        },
        {
          "name": "amount",
          "type": "uint256"
        },
        {
          "name": "ID",
          "type": "uint256"
        }
      ],
      "name": "intermediatePayEcheance",
      "outputs": [],
      "payable": false,
      "stateMutability": "nonpayable",
      "type": "function"
    },
    {
      "constant": true,
      "inputs": [],
      "name": "convertttt",
      "outputs": [
        {
          "name": "result",
          "type": "bytes32"
        }
      ],
      "payable": false,
      "stateMutability": "pure",
      "type": "function"
    }
  ],
  "bytecode": "0x60606040526000600155341561001457600080fd5b336000806101000a81548173ffffffffffffffffffffffffffffffffffffffff021916908373ffffffffffffffffffffffffffffffffffffffff1602179055506121d8806100636000396000f300606060405260043610610127576000357c0100000000000000000000000000000000000000000000000000000000900463ffffffff168062fe13901461012c5780630e539c9c1461028d5780631a6bcb961461031b5780631bbc4b8314610347578063224e74621461039c57806329fedc8c146103db5780632ebfe9e3146104265780634995528d146104495780635130a8631461046c578063554db41c146104955780636e7f7c59146104e25780638da5cb5b14610505578063904194a31461055a5780639a8afff0146105c1578063a33ae09e14610617578063b082443b14610647578063c153e97f146106a5578063cf10962f146106e3578063cfd4b80f14610732578063d99a64c914610786578063ddaff93b146107b7578063f42896491461080d575b600080fd5b341561013757600080fd5b61016c600480803590602001909190803573ffffffffffffffffffffffffffffffffffffffff16906020019091905050610844565b60405180806020018a81526020018973ffffffffffffffffffffffffffffffffffffffff1673ffffffffffffffffffffffffffffffffffffffff1681526020018873ffffffffffffffffffffffffffffffffffffffff1673ffffffffffffffffffffffffffffffffffffffff1681526020018781526020018681526020018581526020018460018111156101fc57fe5b60ff168152602001836000191660001916815260200182810382528b818151815260200191508051906020019080838360005b8381101561024a57808201518184015260208101905061022f565b50505050905090810190601f1680156102775780820380516001836020036101000a031916815260200191505b509a505050505050505050505060405180910390f35b341561029857600080fd5b6102c4600480803573ffffffffffffffffffffffffffffffffffffffff16906020019091905050610b0c565b6040518080602001828103825283818151815260200191508051906020019060200280838360005b838110156103075780820151818401526020810190506102ec565b505050509050019250505060405180910390f35b341561032657600080fd5b6103456004808035906020019091908035906020019091905050610ba9565b005b341561035257600080fd5b61035a610daf565b604051808273ffffffffffffffffffffffffffffffffffffffff1673ffffffffffffffffffffffffffffffffffffffff16815260200191505060405180910390f35b34156103a757600080fd5b6103c1600480803560001916906020019091905050610dd5565b604051808215151515815260200191505060405180910390f35b34156103e657600080fd5b610424600480803573ffffffffffffffffffffffffffffffffffffffff16906020019091908035906020019091908035906020019091905050610e7e565b005b341561043157600080fd5b61044760048080359060200190919050506110bf565b005b341561045457600080fd5b61046a6004808035906020019091905050611130565b005b341561047757600080fd5b61047f6111a1565b6040518082815260200191505060405180910390f35b34156104a057600080fd5b6104cc600480803573ffffffffffffffffffffffffffffffffffffffff169060200190919050506111a7565b6040518082815260200191505060405180910390f35b34156104ed57600080fd5b61050360048080359060200190919050506111f3565b005b341561051057600080fd5b610518611293565b604051808273ffffffffffffffffffffffffffffffffffffffff1673ffffffffffffffffffffffffffffffffffffffff16815260200191505060405180910390f35b341561056557600080fd5b61057f6004808035600019169060200190919050506112b8565b604051808273ffffffffffffffffffffffffffffffffffffffff1673ffffffffffffffffffffffffffffffffffffffff16815260200191505060405180910390f35b34156105cc57600080fd5b610601600480803573ffffffffffffffffffffffffffffffffffffffff169060200190919080359060200190919050506112eb565b6040518082815260200191505060405180910390f35b341561062257600080fd5b61064560048080359060200190919080356000191690602001909190505061131c565b005b341561065257600080fd5b61068b60048080356000191690602001909190803573ffffffffffffffffffffffffffffffffffffffff169060200190919050506113a4565b604051808215151515815260200191505060405180910390f35b34156106b057600080fd5b6106c6600480803590602001909190505061140a565b604051808381526020018281526020019250505060405180910390f35b34156106ee57600080fd5b61073060048080356000191690602001909190803573ffffffffffffffffffffffffffffffffffffffff1690602001909190803590602001909190505061147e565b005b341561073d57600080fd5b610784600480803590602001909190803590602001909190803590602001909190803573ffffffffffffffffffffffffffffffffffffffff169060200190919050506116a9565b005b341561079157600080fd5b6107996119c9565b60405180826000191660001916815260200191505060405180910390f35b34156107c257600080fd5b6107f7600480803573ffffffffffffffffffffffffffffffffffffffff16906020019091908035906020019091905050611a16565b6040518082815260200191505060405180910390f35b341561081857600080fd5b61082e6004808035906020019091905050611a7d565b6040518082815260200191505060405180910390f35b61084c611dd0565b600080600080600080600080610860611de4565b8a73ffffffffffffffffffffffffffffffffffffffff1660038d81548110151561088657fe5b906000526020600020906009020160020160009054906101000a900473ffffffffffffffffffffffffffffffffffffffff1673ffffffffffffffffffffffffffffffffffffffff161415156108da57600080fd5b60038c8154811015156108e957fe5b90600052602060002090600902016101206040519081016040529081600082018054600181600116156101000203166002900480601f01602080910402602001604051908101604052809291908181526020018280546001816001161561010002031660029004801561099d5780601f106109725761010080835404028352916020019161099d565b820191906000526020600020905b81548152906001019060200180831161098057829003601f168201915b50505050508152602001600182015481526020016002820160009054906101000a900473ffffffffffffffffffffffffffffffffffffffff1673ffffffffffffffffffffffffffffffffffffffff1673ffffffffffffffffffffffffffffffffffffffff1681526020016003820160009054906101000a900473ffffffffffffffffffffffffffffffffffffffff1673ffffffffffffffffffffffffffffffffffffffff1673ffffffffffffffffffffffffffffffffffffffff1681526020016004820154815260200160058201548152602001600682015481526020016007820160009054906101000a900460ff166001811115610a9857fe5b6001811115610aa357fe5b815260200160088201546000191660001916815250509050806000015181602001518260400151836060015184608001518560a001518660c001518760e00151886101000151889850995099509950995099509950995099509950509295985092959850929598565b610b14611e71565b600260008373ffffffffffffffffffffffffffffffffffffffff1673ffffffffffffffffffffffffffffffffffffffff168152602001908152602001600020805480602002602001604051908101604052809291908181526020018280548015610b9d57602002820191906000526020600020905b815481526020019060010190808311610b89575b50505050509050919050565b3373ffffffffffffffffffffffffffffffffffffffff16600383815481101515610bcf57fe5b906000526020600020906009020160020160009054906101000a900473ffffffffffffffffffffffffffffffffffffffff1673ffffffffffffffffffffffffffffffffffffffff16141515610c2357600080fd5b80600383815481101515610c3357fe5b906000526020600020906009020160050154141515610c5157600080fd5b60006001811115610c5e57fe5b600383815481101515610c6d57fe5b906000526020600020906009020160070160009054906101000a900460ff166001811115610c9757fe5b141515610ca357600080fd5b610cb5610cae6119c9565b338361147e565b6001600383815481101515610cc657fe5b906000526020600020906009020160070160006101000a81548160ff02191690836001811115610cf257fe5b0217905550610d406040805190810160405280600281526020017f5044000000000000000000000000000000000000000000000000000000000000815250610d3b600154611a95565b611be7565b600383815481101515610d4f57fe5b90600052602060002090600902016000019080519060200190610d73929190611e85565b5042600383815481101515610d8457fe5b9060005260206000209060090201600601819055506001600081548092919060010191905055505050565b600760009054906101000a900473ffffffffffffffffffffffffffffffffffffffff1681565b60008060066000846000191660001916815260200190815260200160002060009054906101000a900473ffffffffffffffffffffffffffffffffffffffff1673ffffffffffffffffffffffffffffffffffffffff1614151515610e3757600080fd5b60066000836000191660001916815260200190815260200160002060006101000a81549073ffffffffffffffffffffffffffffffffffffffff021916905560019050919050565b8273ffffffffffffffffffffffffffffffffffffffff16600382815481101515610ea457fe5b906000526020600020906009020160020160009054906101000a900473ffffffffffffffffffffffffffffffffffffffff1673ffffffffffffffffffffffffffffffffffffffff16141515610ef857600080fd5b81600382815481101515610f0857fe5b906000526020600020906009020160050154141515610f2657600080fd5b60006001811115610f3357fe5b600382815481101515610f4257fe5b906000526020600020906009020160070160009054906101000a900460ff166001811115610f6c57fe5b141515610f7857600080fd5b610f8a610f836119c9565b338461147e565b6001600382815481101515610f9b57fe5b906000526020600020906009020160070160006101000a81548160ff02191690836001811115610fc757fe5b021790555033600382815481101515610fdc57fe5b906000526020600020906009020160030160006101000a81548173ffffffffffffffffffffffffffffffffffffffff021916908373ffffffffffffffffffffffffffffffffffffffff1602179055506110746040805190810160405280600181526020017f4e0000000000000000000000000000000000000000000000000000000000000081525061106f600154611a95565b611be7565b60038281548110151561108357fe5b906000526020600020906009020160000190805190602001906110a7929190611e85565b50600160008154809291906001019190505550505050565b6001600460056000848152602001908152602001600020548154811015156110e357fe5b906000526020600020906002020160000154016004600560008481526020019081526020016000205481548110151561111857fe5b90600052602060002090600202016000018190555050565b60016004600560008481526020019081526020016000205481548110151561115457fe5b906000526020600020906002020160010154016004600560008481526020019081526020016000205481548110151561118957fe5b90600052602060002090600202016001018190555050565b60015481565b6000600260008373ffffffffffffffffffffffffffffffffffffffff1673ffffffffffffffffffffffffffffffffffffffff168152602001908152602001600020805490509050919050565b3373ffffffffffffffffffffffffffffffffffffffff166000809054906101000a900473ffffffffffffffffffffffffffffffffffffffff1673ffffffffffffffffffffffffffffffffffffffff1614151561124e57600080fd5b600160038281548110151561125f57fe5b906000526020600020906009020160070160006101000a81548160ff0219169083600181111561128b57fe5b021790555050565b6000809054906101000a900473ffffffffffffffffffffffffffffffffffffffff1681565b60066020528060005260406000206000915054906101000a900473ffffffffffffffffffffffffffffffffffffffff1681565b60026020528160005260406000208181548110151561130657fe5b9060005260206000209001600091509150505481565b3373ffffffffffffffffffffffffffffffffffffffff166000809054906101000a900473ffffffffffffffffffffffffffffffffffffffff1673ffffffffffffffffffffffffffffffffffffffff1614151561137757600080fd5b8060038381548110151561138757fe5b906000526020600020906009020160080181600019169055505050565b60008160066000856000191660001916815260200190815260200160002060006101000a81548173ffffffffffffffffffffffffffffffffffffffff021916908373ffffffffffffffffffffffffffffffffffffffff1602179055506001905092915050565b6000806004600560008581526020019081526020016000205481548110151561142f57fe5b9060005260206000209060020201600001546004600560008681526020019081526020016000205481548110151561146357fe5b90600052602060002090600202016001015491509150915091565b600080600060066000876000191660001916815260200190815260200160002060009054906101000a900473ffffffffffffffffffffffffffffffffffffffff1673ffffffffffffffffffffffffffffffffffffffff16141515156114e257600080fd5b60066000866000191660001916815260200190815260200160002060009054906101000a900473ffffffffffffffffffffffffffffffffffffffff16915083905081600760006101000a81548173ffffffffffffffffffffffffffffffffffffffff021916908373ffffffffffffffffffffffffffffffffffffffff160217905550600760009054906101000a900473ffffffffffffffffffffffffffffffffffffffff1673ffffffffffffffffffffffffffffffffffffffff1663fd3e6a0a826000809054906101000a900473ffffffffffffffffffffffffffffffffffffffff16866000604051602001526040518463ffffffff167c0100000000000000000000000000000000000000000000000000000000028152600401808473ffffffffffffffffffffffffffffffffffffffff1673ffffffffffffffffffffffffffffffffffffffff1681526020018373ffffffffffffffffffffffffffffffffffffffff1673ffffffffffffffffffffffffffffffffffffffff1681526020018281526020019350505050602060405180830381600087803b151561168657600080fd5b6102c65a03f1151561169757600080fd5b50505060405180519050505050505050565b6116b1611de4565b6116b9611f05565b6000861115156116c857600080fd5b6000851115156116d757600080fd5b6000841115156116e657600080fd5b610120604051908101604052806040805190810160405280600c81526020017f4e4f204f5045524154494f4e000000000000000000000000000000000000000081525081526020018681526020018473ffffffffffffffffffffffffffffffffffffffff168152602001600073ffffffffffffffffffffffffffffffffffffffff168152602001878152602001858152602001600081526020016000600181111561178d57fe5b815260200160006001026000191681525091506004805490506005600060038054905081526020019081526020016000208190555060408051908101604052806000815260200160008152509050600480548060010182816117ef9190611f1f565b916000526020600020906002020160008390919091506000820151816000015560208201518160010155505050600260008473ffffffffffffffffffffffffffffffffffffffff1673ffffffffffffffffffffffffffffffffffffffff168152602001908152602001600020805480600101828161186d9190611f51565b91600052602060002090016000600380549050909190915055506003805480600101828161189b9190611f7d565b9160005260206000209060090201600084909190915060008201518160000190805190602001906118cd929190611faf565b506020820151816001015560408201518160020160006101000a81548173ffffffffffffffffffffffffffffffffffffffff021916908373ffffffffffffffffffffffffffffffffffffffff16021790555060608201518160030160006101000a81548173ffffffffffffffffffffffffffffffffffffffff021916908373ffffffffffffffffffffffffffffffffffffffff1602179055506080820151816004015560a0820151816005015560c0820151816006015560e08201518160070160006101000a81548160ff021916908360018111156119a857fe5b02179055506101008201518160080190600019169055505050505050505050565b60006119d3611dd0565b6040805190810160405280600481526020017f494d4654000000000000000000000000000000000000000000000000000000008152509050602081015191505090565b600080600260008573ffffffffffffffffffffffffffffffffffffffff1673ffffffffffffffffffffffffffffffffffffffff16815260200190815260200160002083815481101515611a6557fe5b90600052602060002090015490508091505092915050565b60056020528060005260406000206000915090505481565b611a9d611dd0565b600080611aa861202f565b600080861415611aef576040805190810160405280600181526020017f30000000000000000000000000000000000000000000000000000000000000008152509450611bde565b8593505b600084141515611b19578280600101935050600a84811515611b1157fe5b049350611af3565b82604051805910611b275750595b9080825280601f01601f191660200182016040525091506001830390505b600086141515611bda57600a86811515611b5b57fe5b066030017f010000000000000000000000000000000000000000000000000000000000000002828280600190039350815181101515611b9657fe5b9060200101907effffffffffffffffffffffffffffffffffffffffffffffffffffffffffffff1916908160001a905350600a86811515611bd257fe5b049550611b45565b8194505b50505050919050565b611bef611dd0565b611bf761202f565b611bff61202f565b611c07611dd0565b611c0f61202f565b60008088955087945060008551111515611c2557fe5b8451865101604051805910611c375750595b9080825280601f01601f19166020018201604052509350839250600091505b8551821015611d09578582815181101515611c6d57fe5b9060200101517f010000000000000000000000000000000000000000000000000000000000000090047f0100000000000000000000000000000000000000000000000000000000000000028382806001019350815181101515611ccc57fe5b9060200101907effffffffffffffffffffffffffffffffffffffffffffffffffffffffffffff1916908160001a9053508180600101925050611c56565b600091505b8451821015611dc1578482815181101515611d2557fe5b9060200101517f010000000000000000000000000000000000000000000000000000000000000090047f0100000000000000000000000000000000000000000000000000000000000000028382806001019350815181101515611d8457fe5b9060200101907effffffffffffffffffffffffffffffffffffffffffffffffffffffffffffff1916908160001a9053508180600101925050611d0e565b82965050505050505092915050565b602060405190810160405280600081525090565b61012060405190810160405280611df9612043565b815260200160008152602001600073ffffffffffffffffffffffffffffffffffffffff168152602001600073ffffffffffffffffffffffffffffffffffffffff16815260200160008152602001600081526020016000815260200160006001811115611e6157fe5b8152602001600080191681525090565b602060405190810160405280600081525090565b828054600181600116156101000203166002900490600052602060002090601f016020900481019282601f10611ec657805160ff1916838001178555611ef4565b82800160010185558215611ef4579182015b82811115611ef3578251825591602001919060010190611ed8565b5b509050611f019190612057565b5090565b604080519081016040528060008152602001600081525090565b815481835581811511611f4c57600202816002028360005260206000209182019101611f4b919061207c565b5b505050565b815481835581811511611f7857818360005260206000209182019101611f779190612057565b5b505050565b815481835581811511611faa57600902816009028360005260206000209182019101611fa991906120ab565b5b505050565b828054600181600116156101000203166002900490600052602060002090601f016020900481019282601f10611ff057805160ff191683800117855561201e565b8280016001018555821561201e579182015b8281111561201d578251825591602001919060010190612002565b5b50905061202b9190612057565b5090565b602060405190810160405280600081525090565b602060405190810160405280600081525090565b61207991905b8082111561207557600081600090555060010161205d565b5090565b90565b6120a891905b808211156120a457600080820160009055600182016000905550600201612082565b5090565b90565b61216191905b8082111561215d57600080820160006120ca9190612164565b60018201600090556002820160006101000a81549073ffffffffffffffffffffffffffffffffffffffff02191690556003820160006101000a81549073ffffffffffffffffffffffffffffffffffffffff02191690556004820160009055600582016000905560068201600090556007820160006101000a81549060ff02191690556008820160009055506009016120b1565b5090565b90565b50805460018160011615610100020316600290046000825580601f1061218a57506121a9565b601f0160209004906000526020600020908101906121a89190612057565b5b505600a165627a7a723058206a5544b8a73de39ad343b6e67a5fcca4136afd1d31bb9181e70fe1b01cc6fe750029",
  "source": "pragma solidity ^0.4.18;\n\n \n\n \n\n/**\n * @title ERC20Basic\n * @dev Simpler version of ERC20 interface\n * @dev see https://github.com/ethereum/EIPs/issues/179\n */\ncontract ERC20Basic {\n  function totalSupply() public view returns (uint256);\n  function balanceOf(address who) public view returns (uint256);\n  function transfer(address to, uint256 value) public returns (bool);\n  function transfers(address from_,address _to, uint256 _value) public returns (bool);\n  event Transfer(address indexed from, address indexed to, uint256 value);\n}\n\n \n\n \n\n \n\n/**\n * @title ERC20 interface\n * @dev see https://github.com/ethereum/EIPs/issues/20\n */\ncontract ERC20 is ERC20Basic {\n  function allowance(address owner, address spender) public view returns (uint256);\n  function transferFrom(address from, address to, uint256 value) public returns (bool);\n  function approve(address spender, uint256 value) public returns (bool);\n  event Approval(address indexed owner, address indexed spender, uint256 value);\n}\n\n \n\n \n\n \n\n \n\n \n\ncontract PaymentDeadLine {\n\n \n\n    address public owner;\n    uint public operationNum = 0 ;\n\n \n\n    enum EcheanceState {\n        WAITING,\n        ACCOMPLISHED\n    }\n\n \n\n    struct Deadline {\n\n \n\n        string id_op;\n        uint id_loan;\n        address borrower;\n        address intermediate;\n        uint  DateDeadline;\n        uint amount;\n        uint256 datepaiment;\n        EcheanceState state;\n        bytes32 transaction_hash;\n       \n    }\n    \n    struct notification{\n         uint notif;\n        uint alerte;\n\n \n\n    }\n\n \n\n    mapping (address=>uint[]) public DeadlineMap;\n    Deadline[] DeadlineList;\n    \n    \n    notification[] Notif;\n    mapping(uint => uint) public NotifMap;\n    \n     \n    \n    function getPDLength(address sender) public view returns (uint) {\n        return DeadlineMap[sender].length;\n    }\n\n \n\n \n\n \n\n function getPDIndex(address sender, uint i) public view returns(uint)\n    {\n        uint index = DeadlineMap[sender][i];\n        return index;\n    }\n    \n  /**\n * @dev list of all supported tokens for transfer * @param string token symbol * @param address contract address of token */\n mapping(bytes32 => address) public tokens;\n\n \n\n  ERC20 public ERC20Interface;\n\n \n\n  function PaymentDeadLine () public {\n  owner = msg.sender;\n }\n  /**\n * @dev add address of token to list of supported tokens using * token symbol as identifier in mapping */\n function addNewToken(bytes32 symbol_, address address_) public returns (bool) {\n  tokens[symbol_] = address_;\n\n \n\n  return true;\n }\n  /**\n * @dev remove address of token we no more support */\n function removeToken(bytes32 symbol_) public returns (bool) {\n  require(tokens[symbol_] != 0x0);\n\n \n\n  delete(tokens[symbol_]);\n\n \n\n  return true;\n }\n  /**\n * @dev method that handles transfer of ERC20 tokens to other address * it assumes the calling address has approved this contract * as spender * @param symbol_ identifier mapping to a token contract address * @param to_ beneficiary address * @param amount_ numbers of token to transfer */\n\n \n\n\n function transferBackTokens(bytes32 symbol_, address adh, uint amount) public {\n     require(tokens[symbol_] != 0x0);\n\n \n\n  address contract_ = tokens[symbol_];\n  address from_ = adh;\n  ERC20Interface = ERC20(contract_);\n\n \n\n  ERC20Interface.transfers(from_,owner, amount);\n\n \n\n }\n\n \n\n/** @dev Create Deadline according to particularity of a credit for a client\n*/\n\n \n\n  function AddPaymentDeadline(uint DateDeadline,uint id_loan,uint amount, address borrower) public {\n           // require(owner == msg.sender);\n            require(DateDeadline > 0);\n            require(id_loan > 0);\n            require(amount > 0);\n            Deadline memory NewDeadline = Deadline('NO OPERATION',id_loan, borrower ,0, DateDeadline, amount,0, EcheanceState.WAITING,0x0);\n            \n            NotifMap[DeadlineList.length] = Notif.length;\n            notification memory no = notification(0,0);\n            Notif.push(no);\n            \n            DeadlineMap[borrower].push(DeadlineList.length);\n            DeadlineList.push(NewDeadline);\n\n \n\n            \n            \n            \n            \n    }\n/*\n\n \n\n notification[] Notif;\n    mapping(uint => uint) public NotifMap;\n    */\n\n \n\nfunction setAlerte(uint index) public{\n\n \n\n    Notif[NotifMap[index]].alerte = Notif[NotifMap[index]].alerte +1;\n}\n\n \n\nfunction setNotification(uint index) public{\n    \n       Notif[NotifMap[index]].notif = Notif[NotifMap[index]].notif +1;\n\n \n\n}\n\n \n\nfunction getNotification(uint index)public view returns(uint no, uint al)\n{\n    return(Notif[NotifMap[index]].notif, Notif[NotifMap[index]].alerte);\n}\n\n \n\n \n\n\n    /** @dev function to convert int to string\n*/\n\n \n\n\nfunction uint2str(uint i) internal pure returns (string){\n    if (i == 0) return \"0\";\n    uint j = i;\n    uint length;\n    while (j != 0){\n        length++;\n        j /= 10;\n    }\n    bytes memory bstr = new bytes(length);\n    uint k = length - 1;\n    while (i != 0){\n        bstr[k--] = byte(48 + i % 10);\n        i /= 10;\n    }\n    return string(bstr);\n}\n\n \n\n\n/** @dev function to concatenat 2 string and return 1 string\n*/\n\n \n\n\n function concat(string memory _base, string memory _value)\n        internal\n        pure\n        returns (string memory) {\n        bytes memory _baseBytes = bytes(_base);\n        bytes memory _valueBytes = bytes(_value);\n\n \n\n        assert(_valueBytes.length > 0);\n\n \n\n        string memory _tmpValue = new string(_baseBytes.length +\n            _valueBytes.length);\n        bytes memory _newValue = bytes(_tmpValue);\n\n \n\n        uint i;\n        uint j;\n\n \n\n        for (i = 0; i < _baseBytes.length; i++) {\n            _newValue[j++] = _baseBytes[i];\n        }\n\n \n\n        for (i = 0; i < _valueBytes.length; i++) {\n            _newValue[j++] = _valueBytes[i];\n        }\n\n \n\n        return string(_newValue);\n    }\n\n \n\n    /** @dev payment of Echeance it get the id of the Echeance\n*/\n\n \n\n    function accomplishEcheance(uint _idE, uint amount) public {\n        require(DeadlineList[_idE].borrower == msg.sender);\n        require(DeadlineList[_idE].amount == amount);\n        require(DeadlineList[_idE].state == EcheanceState.WAITING);\n        transferBackTokens(convertttt(), msg.sender, amount);\n        DeadlineList[_idE].state = EcheanceState.ACCOMPLISHED;\n        DeadlineList[_idE].id_op =concat(\"PD\",uint2str(operationNum)) ;\n        DeadlineList[_idE].datepaiment= now ;\n        operationNum++;\n\n \n\n    }\n\n \n\n\n/** @dev get the all indexes deadlines of client\n*/\n    function getDeadlinesIndexes(address borrower) public view returns(uint[]) {\n        return DeadlineMap[borrower];\n    }\n/** @dev get the deadline information of client\n*/\n\n \n\n    function getDeadlineInfo(uint id_loan , address borrower ) public view returns(string,uint,address,address,uint256,uint,uint256, EcheanceState,bytes32) {\n        require(DeadlineList[id_loan].borrower == borrower);\n        Deadline memory D = DeadlineList[id_loan];\n        return (D.id_op,D.id_loan,D.borrower,D.intermediate,D.DateDeadline,D.amount,D.datepaiment,D.state,D.transaction_hash);\n    }\n\n \nfunction UpdatePaymentDeadlinehash(uint index_loan, bytes32 hash)public{\n       require(owner == msg.sender);\n       DeadlineList[index_loan].transaction_hash = hash;\n   }\n\n/** @dev Update state of a deadline\n*/\n   function UpdatePaymentDeadline(uint index_loan)public{\n       require(owner == msg.sender);\n       DeadlineList[index_loan].state = EcheanceState.ACCOMPLISHED;\n   }\n/** @dev this method for intermediate to pay Echeance for someone else\n*/\n    function intermediatePayEcheance(address charger, uint amount , uint ID) public\n    {\n        require(DeadlineList[ID].borrower == charger);\n        require(DeadlineList[ID].amount == amount) ;\n        require(DeadlineList[ID].state == EcheanceState.WAITING);\n        transferBackTokens(convertttt(), msg.sender, amount);\n        DeadlineList[ID].state = EcheanceState.ACCOMPLISHED;\n        DeadlineList[ID].intermediate = msg.sender;\n        DeadlineList[ID].id_op =concat(\"N\",uint2str(operationNum)) ;\n       operationNum++;\n    }\n\n \n\n    /** @dev convert the symbol of a token IMFT to bytes32\n*/\n\n \n\n         function convertttt() public pure returns (bytes32 result) {\n    string memory testFoo = \"IMFT\";\n    assembly {\n        result := mload(add(testFoo, 32))\n    }\n }\n\n \n\n\n}\n",
  "sourcePath": "/home/ubuntu/PaymentDeadline/contracts/PaymentDeadine.sol",
  "compiler": {
    "name": "solc",
    "version": "0.4.18+commit.9cf6e910.Emscripten.clang"
  },
  "schemaVersion": "3.0.19",
  "updatedAt": "2020-05-18T11:09:06.473Z",
  "networkType": "ethereum",
  "devdoc": {
    "methods": {
      "AddPaymentDeadline(uint256,uint256,uint256,address)": {
        "details": "Create Deadline according to particularity of a credit for a client"
      },
      "UpdatePaymentDeadline(uint256)": {
        "details": "Update state of a deadline"
      },
      "accomplishEcheance(uint256,uint256)": {
        "details": "payment of Echeance it get the id of the Echeance"
      },
      "addNewToken(bytes32,address)": {
        "details": "add address of token to list of supported tokens using * token symbol as identifier in mapping "
      },
      "convertttt()": {
        "details": "convert the symbol of a token IMFT to bytes32"
      },
      "getDeadlineInfo(uint256,address)": {
        "details": "get the deadline information of client"
      },
      "getDeadlinesIndexes(address)": {
        "details": "get the all indexes deadlines of client"
      },
      "intermediatePayEcheance(address,uint256,uint256)": {
        "details": "this method for intermediate to pay Echeance for someone else"
      },
      "removeToken(bytes32)": {
        "details": "remove address of token we no more support "
      },
      "transferBackTokens(bytes32,address,uint256)": {
        "details": "method that handles transfer of ERC20 tokens to other address * it assumes the calling address has approved this contract * as spender * @param symbol_ identifier mapping to a token contract address * @param to_ beneficiary address * @param amount_ numbers of token to transfer "
      }
    }
  },
  "userdoc": {
    "methods": {}
  }
}