{
  "contractName": "PretContract",
  "abi": [
    {
      "constant": true,
      "inputs": [],
      "name": "ERC20Interface",
      "outputs": [
        {
          "internalType": "contract ERC20",
          "name": "",
          "type": "address"
        }
      ],
      "payable": false,
      "stateMutability": "view",
      "type": "function"
    },
    {
      "constant": true,
      "inputs": [],
      "name": "idPretGlobale",
      "outputs": [
        {
          "internalType": "uint256",
          "name": "",
          "type": "uint256"
        }
      ],
      "payable": false,
      "stateMutability": "view",
      "type": "function"
    },
    {
      "constant": true,
      "inputs": [],
      "name": "owner",
      "outputs": [
        {
          "internalType": "address",
          "name": "",
          "type": "address"
        }
      ],
      "payable": false,
      "stateMutability": "view",
      "type": "function"
    },
    {
      "constant": true,
      "inputs": [
        {
          "internalType": "bytes32",
          "name": "",
          "type": "bytes32"
        }
      ],
      "name": "tokens",
      "outputs": [
        {
          "internalType": "address",
          "name": "",
          "type": "address"
        }
      ],
      "payable": false,
      "stateMutability": "view",
      "type": "function"
    },
    {
      "constant": true,
      "inputs": [
        {
          "internalType": "address",
          "name": "",
          "type": "address"
        }
      ],
      "name": "NombrePret",
      "outputs": [
        {
          "internalType": "uint256",
          "name": "",
          "type": "uint256"
        }
      ],
      "payable": false,
      "stateMutability": "view",
      "type": "function"
    },
    {
      "constant": true,
      "inputs": [],
      "name": "idEcheanceGlobale",
      "outputs": [
        {
          "internalType": "uint256",
          "name": "",
          "type": "uint256"
        }
      ],
      "payable": false,
      "stateMutability": "view",
      "type": "function"
    },
    {
      "constant": true,
      "inputs": [
        {
          "internalType": "address",
          "name": "",
          "type": "address"
        },
        {
          "internalType": "uint256",
          "name": "",
          "type": "uint256"
        }
      ],
      "name": "ListePret",
      "outputs": [
        {
          "internalType": "string",
          "name": "idPret",
          "type": "string"
        },
        {
          "internalType": "uint256",
          "name": "DateCreation",
          "type": "uint256"
        },
        {
          "internalType": "uint256",
          "name": "status",
          "type": "uint256"
        },
        {
          "internalType": "address",
          "name": "borrower",
          "type": "address"
        },
        {
          "internalType": "uint256",
          "name": "NombreEcheances",
          "type": "uint256"
        }
      ],
      "payable": false,
      "stateMutability": "view",
      "type": "function"
    },
    {
      "inputs": [],
      "payable": false,
      "stateMutability": "nonpayable",
      "type": "constructor"
    },
    {
      "constant": false,
      "inputs": [
        {
          "internalType": "bytes32",
          "name": "symbol_",
          "type": "bytes32"
        },
        {
          "internalType": "address",
          "name": "address_",
          "type": "address"
        }
      ],
      "name": "addNewToken",
      "outputs": [
        {
          "internalType": "bool",
          "name": "",
          "type": "bool"
        }
      ],
      "payable": false,
      "stateMutability": "nonpayable",
      "type": "function"
    },
    {
      "constant": false,
      "inputs": [
        {
          "internalType": "address",
          "name": "adh",
          "type": "address"
        },
        {
          "internalType": "uint256",
          "name": "amount",
          "type": "uint256"
        }
      ],
      "name": "transferBackTokens",
      "outputs": [],
      "payable": false,
      "stateMutability": "nonpayable",
      "type": "function"
    },
    {
      "constant": true,
      "inputs": [],
      "name": "SymbolToken",
      "outputs": [
        {
          "internalType": "bytes32",
          "name": "result",
          "type": "bytes32"
        }
      ],
      "payable": false,
      "stateMutability": "pure",
      "type": "function"
    },
    {
      "constant": false,
      "inputs": [
        {
          "internalType": "address",
          "name": "borrower",
          "type": "address"
        },
        {
          "internalType": "uint256",
          "name": "NombreEcheances",
          "type": "uint256"
        },
        {
          "internalType": "uint256",
          "name": "DateCreation",
          "type": "uint256"
        }
      ],
      "name": "addPret",
      "outputs": [],
      "payable": false,
      "stateMutability": "nonpayable",
      "type": "function"
    },
    {
      "constant": true,
      "inputs": [
        {
          "internalType": "uint256",
          "name": "index",
          "type": "uint256"
        },
        {
          "internalType": "address",
          "name": "borrower",
          "type": "address"
        }
      ],
      "name": "getPretInfoByIndex",
      "outputs": [
        {
          "internalType": "string",
          "name": "",
          "type": "string"
        },
        {
          "internalType": "uint256",
          "name": "",
          "type": "uint256"
        },
        {
          "internalType": "uint256",
          "name": "",
          "type": "uint256"
        },
        {
          "internalType": "address",
          "name": "",
          "type": "address"
        },
        {
          "internalType": "uint256",
          "name": "",
          "type": "uint256"
        }
      ],
      "payable": false,
      "stateMutability": "view",
      "type": "function"
    },
    {
      "constant": true,
      "inputs": [
        {
          "internalType": "address",
          "name": "borrower",
          "type": "address"
        }
      ],
      "name": "getPretLengthByBorrower",
      "outputs": [
        {
          "internalType": "uint256",
          "name": "",
          "type": "uint256"
        }
      ],
      "payable": false,
      "stateMutability": "view",
      "type": "function"
    },
    {
      "constant": false,
      "inputs": [
        {
          "internalType": "uint256",
          "name": "montant",
          "type": "uint256"
        },
        {
          "internalType": "uint256",
          "name": "DateLimite",
          "type": "uint256"
        },
        {
          "internalType": "uint256",
          "name": "DateLancement",
          "type": "uint256"
        },
        {
          "internalType": "address",
          "name": "borrower",
          "type": "address"
        },
        {
          "internalType": "uint256",
          "name": "DateActuel",
          "type": "uint256"
        }
      ],
      "name": "addEcheance",
      "outputs": [],
      "payable": false,
      "stateMutability": "nonpayable",
      "type": "function"
    },
    {
      "constant": true,
      "inputs": [
        {
          "internalType": "string",
          "name": "idPret",
          "type": "string"
        },
        {
          "internalType": "uint256",
          "name": "indexE",
          "type": "uint256"
        },
        {
          "internalType": "address",
          "name": "borrower",
          "type": "address"
        }
      ],
      "name": "getEcheanceInfoByIndex",
      "outputs": [
        {
          "internalType": "string",
          "name": "",
          "type": "string"
        },
        {
          "internalType": "uint256",
          "name": "",
          "type": "uint256"
        },
        {
          "internalType": "uint256",
          "name": "",
          "type": "uint256"
        },
        {
          "internalType": "address",
          "name": "",
          "type": "address"
        },
        {
          "internalType": "uint256",
          "name": "",
          "type": "uint256"
        },
        {
          "internalType": "bool",
          "name": "",
          "type": "bool"
        }
      ],
      "payable": false,
      "stateMutability": "view",
      "type": "function"
    },
    {
      "constant": true,
      "inputs": [
        {
          "internalType": "string",
          "name": "idPret",
          "type": "string"
        },
        {
          "internalType": "uint256",
          "name": "indexE",
          "type": "uint256"
        },
        {
          "internalType": "address",
          "name": "borrower",
          "type": "address"
        }
      ],
      "name": "getEcheanceInfoByIndexX",
      "outputs": [
        {
          "internalType": "string",
          "name": "",
          "type": "string"
        },
        {
          "internalType": "uint256",
          "name": "",
          "type": "uint256"
        },
        {
          "internalType": "bytes32",
          "name": "",
          "type": "bytes32"
        }
      ],
      "payable": false,
      "stateMutability": "view",
      "type": "function"
    },
    {
      "constant": true,
      "inputs": [
        {
          "internalType": "address",
          "name": "borrower",
          "type": "address"
        },
        {
          "internalType": "string",
          "name": "idPret",
          "type": "string"
        }
      ],
      "name": "getEcheanceLengthByPret",
      "outputs": [
        {
          "internalType": "uint256",
          "name": "",
          "type": "uint256"
        }
      ],
      "payable": false,
      "stateMutability": "view",
      "type": "function"
    },
    {
      "constant": false,
      "inputs": [
        {
          "internalType": "bytes32",
          "name": "trHash",
          "type": "bytes32"
        },
        {
          "internalType": "uint256",
          "name": "indexE",
          "type": "uint256"
        },
        {
          "internalType": "uint256",
          "name": "indexP",
          "type": "uint256"
        },
        {
          "internalType": "address",
          "name": "borrower",
          "type": "address"
        }
      ],
      "name": "setTransactionHash",
      "outputs": [],
      "payable": false,
      "stateMutability": "nonpayable",
      "type": "function"
    },
    {
      "constant": false,
      "inputs": [
        {
          "internalType": "string",
          "name": "idPret",
          "type": "string"
        },
        {
          "internalType": "address",
          "name": "borrower",
          "type": "address"
        },
        {
          "internalType": "string",
          "name": "idEcheance",
          "type": "string"
        }
      ],
      "name": "payerEcheance",
      "outputs": [],
      "payable": false,
      "stateMutability": "nonpayable",
      "type": "function"
    },
    {
      "constant": false,
      "inputs": [
        {
          "internalType": "string",
          "name": "idPret",
          "type": "string"
        },
        {
          "internalType": "address",
          "name": "borrower",
          "type": "address"
        },
        {
          "internalType": "string",
          "name": "idEcheance",
          "type": "string"
        }
      ],
      "name": "PayerEcheanceIntermadiate",
      "outputs": [],
      "payable": false,
      "stateMutability": "nonpayable",
      "type": "function"
    }
  ],
  "bytecode": "0x60806040526000600155600060025534801561001a57600080fd5b50336000806101000a81548173ffffffffffffffffffffffffffffffffffffffff021916908373ffffffffffffffffffffffffffffffffffffffff1602179055506138d78061006a6000396000f3fe608060405234801561001057600080fd5b506004361061012c5760003560e01c8063a4ba92c7116100ad578063e814fa0011610071578063e814fa00146109d6578063f73a893f14610b87578063f87dec1214610c96578063f94ac02b14610cb4578063f9bba85514610d165761012c565b8063a4ba92c71461065b578063ab690adb146107c7578063b082443b14610833578063c5b52b3514610899578063d4b16ae4146109885761012c565b8063577274f4116100f4578063577274f4146103bb5780636042d7ee146103d95780638da5cb5b1461054b578063904194a3146105955780639bbe0343146106035761012c565b80631bbc4b83146101315780632b9e94fa1461017b5780632d5da295146101d3578063395b0ab71461022b578063522e93261461039d575b600080fd5b610139610e25565b604051808273ffffffffffffffffffffffffffffffffffffffff1673ffffffffffffffffffffffffffffffffffffffff16815260200191505060405180910390f35b6101bd6004803603602081101561019157600080fd5b81019080803573ffffffffffffffffffffffffffffffffffffffff169060200190929190505050610e4b565b6040518082815260200191505060405180910390f35b610229600480360360608110156101e957600080fd5b81019080803573ffffffffffffffffffffffffffffffffffffffff1690602001909291908035906020019092919080359060200190929190505050610e94565b005b61039b6004803603606081101561024157600080fd5b810190808035906020019064010000000081111561025e57600080fd5b82018360208201111561027057600080fd5b8035906020019184600183028401116401000000008311171561029257600080fd5b91908080601f016020809104026020016040519081016040528093929190818152602001838380828437600081840152601f19601f820116905080830192505050505050509192919290803573ffffffffffffffffffffffffffffffffffffffff1690602001909291908035906020019064010000000081111561031557600080fd5b82018360208201111561032757600080fd5b8035906020019184600183028401116401000000008311171561034957600080fd5b91908080601f016020809104026020016040519081016040528093929190818152602001838380828437600081840152601f19601f8201169050808301925050505050505091929192905050506112bd565b005b6103a5611966565b6040518082815260200191505060405180910390f35b6103c361196c565b6040518082815260200191505060405180910390f35b610549600480360360608110156103ef57600080fd5b810190808035906020019064010000000081111561040c57600080fd5b82018360208201111561041e57600080fd5b8035906020019184600183028401116401000000008311171561044057600080fd5b91908080601f016020809104026020016040519081016040528093929190818152602001838380828437600081840152601f19601f820116905080830192505050505050509192919290803573ffffffffffffffffffffffffffffffffffffffff169060200190929190803590602001906401000000008111156104c357600080fd5b8201836020820111156104d557600080fd5b803590602001918460018302840111640100000000831117156104f757600080fd5b91908080601f016020809104026020016040519081016040528093929190818152602001838380828437600081840152601f19601f8201169050808301925050505050505091929192905050506119b3565b005b610553612059565b604051808273ffffffffffffffffffffffffffffffffffffffff1673ffffffffffffffffffffffffffffffffffffffff16815260200191505060405180910390f35b6105c1600480360360208110156105ab57600080fd5b810190808035906020019092919050505061207e565b604051808273ffffffffffffffffffffffffffffffffffffffff1673ffffffffffffffffffffffffffffffffffffffff16815260200191505060405180910390f35b6106456004803603602081101561061957600080fd5b81019080803573ffffffffffffffffffffffffffffffffffffffff1690602001909291905050506120b1565b6040518082815260200191505060405180910390f35b61073e6004803603606081101561067157600080fd5b810190808035906020019064010000000081111561068e57600080fd5b8201836020820111156106a057600080fd5b803590602001918460018302840111640100000000831117156106c257600080fd5b91908080601f016020809104026020016040519081016040528093929190818152602001838380828437600081840152601f19601f82011690508083019250505050505050919291929080359060200190929190803573ffffffffffffffffffffffffffffffffffffffff1690602001909291905050506120c9565b6040518080602001848152602001838152602001828103825285818151815260200191508051906020019080838360005b8381101561078a57808201518184015260208101905061076f565b50505050905090810190601f1680156107b75780820380516001836020036101000a031916815260200191505b5094505050505060405180910390f35b610831600480360360a08110156107dd57600080fd5b81019080803590602001909291908035906020019092919080359060200190929190803573ffffffffffffffffffffffffffffffffffffffff1690602001909291908035906020019092919050505061246e565b005b61087f6004803603604081101561084957600080fd5b8101908080359060200190929190803573ffffffffffffffffffffffffffffffffffffffff16906020019092919050505061274b565b604051808215151515815260200191505060405180910390f35b610972600480360360408110156108af57600080fd5b81019080803573ffffffffffffffffffffffffffffffffffffffff169060200190929190803590602001906401000000008111156108ec57600080fd5b8201836020820111156108fe57600080fd5b8035906020019184600183028401116401000000008311171561092057600080fd5b91908080601f016020809104026020016040519081016040528093929190818152602001838380828437600081840152601f19601f8201169050808301925050505050505091929192905050506127a9565b6040518082815260200191505060405180910390f35b6109d46004803603604081101561099e57600080fd5b81019080803573ffffffffffffffffffffffffffffffffffffffff169060200190929190803590602001909291905050506129b0565b005b610ab9600480360360608110156109ec57600080fd5b8101908080359060200190640100000000811115610a0957600080fd5b820183602082011115610a1b57600080fd5b80359060200191846001830284011164010000000083111715610a3d57600080fd5b91908080601f016020809104026020016040519081016040528093929190818152602001838380828437600081840152601f19601f82011690508083019250505050505050919291929080359060200190929190803573ffffffffffffffffffffffffffffffffffffffff169060200190929190505050612b7b565b60405180806020018781526020018681526020018573ffffffffffffffffffffffffffffffffffffffff1673ffffffffffffffffffffffffffffffffffffffff16815260200184815260200183151515158152602001828103825288818151815260200191508051906020019080838360005b83811015610b47578082015181840152602081019050610b2c565b50505050905090810190601f168015610b745780820380516001836020036101000a031916815260200191505b5097505050505050505060405180910390f35b610bd360048036036040811015610b9d57600080fd5b8101908080359060200190929190803573ffffffffffffffffffffffffffffffffffffffff1690602001909291905050506130ab565b60405180806020018681526020018581526020018473ffffffffffffffffffffffffffffffffffffffff1673ffffffffffffffffffffffffffffffffffffffff168152602001838152602001828103825287818151815260200191508051906020019080838360005b83811015610c57578082015181840152602081019050610c3c565b50505050905090810190601f168015610c845780820380516001836020036101000a031916815260200191505b50965050505050505060405180910390f35b610c9e613326565b6040518082815260200191505060405180910390f35b610d1460048036036080811015610cca57600080fd5b81019080803590602001909291908035906020019092919080359060200190929190803573ffffffffffffffffffffffffffffffffffffffff16906020019092919050505061332c565b005b610d6260048036036040811015610d2c57600080fd5b81019080803573ffffffffffffffffffffffffffffffffffffffff169060200190929190803590602001909291905050506133a6565b60405180806020018681526020018581526020018473ffffffffffffffffffffffffffffffffffffffff1673ffffffffffffffffffffffffffffffffffffffff168152602001838152602001828103825287818151815260200191508051906020019080838360005b83811015610de6578082015181840152602081019050610dcb565b50505050905090810190601f168015610e135780820380516001836020036101000a031916815260200191505b50965050505050505060405180910390f35b600660009054906101000a900473ffffffffffffffffffffffffffffffffffffffff1681565b6000600460008373ffffffffffffffffffffffffffffffffffffffff1673ffffffffffffffffffffffffffffffffffffffff168152602001908152602001600020549050919050565b6060610edf6040518060400160405280600281526020017f5052000000000000000000000000000000000000000000000000000000000000815250610eda6002546134a1565b6135ce565b905080600360008673ffffffffffffffffffffffffffffffffffffffff1673ffffffffffffffffffffffffffffffffffffffff1681526020019081526020016000206000600460008873ffffffffffffffffffffffffffffffffffffffff1673ffffffffffffffffffffffffffffffffffffffff1681526020019081526020016000205481526020019081526020016000206000019080519060200190610f8792919061371d565b5081600360008673ffffffffffffffffffffffffffffffffffffffff1673ffffffffffffffffffffffffffffffffffffffff1681526020019081526020016000206000600460008873ffffffffffffffffffffffffffffffffffffffff1673ffffffffffffffffffffffffffffffffffffffff168152602001908152602001600020548152602001908152602001600020600101819055506000600360008673ffffffffffffffffffffffffffffffffffffffff1673ffffffffffffffffffffffffffffffffffffffff1681526020019081526020016000206000600460008873ffffffffffffffffffffffffffffffffffffffff1673ffffffffffffffffffffffffffffffffffffffff1681526020019081526020016000205481526020019081526020016000206002018190555083600360008673ffffffffffffffffffffffffffffffffffffffff1673ffffffffffffffffffffffffffffffffffffffff1681526020019081526020016000206000600460008873ffffffffffffffffffffffffffffffffffffffff1673ffffffffffffffffffffffffffffffffffffffff16815260200190815260200160002054815260200190815260200160002060030160006101000a81548173ffffffffffffffffffffffffffffffffffffffff021916908373ffffffffffffffffffffffffffffffffffffffff16021790555082600360008673ffffffffffffffffffffffffffffffffffffffff1673ffffffffffffffffffffffffffffffffffffffff1681526020019081526020016000206000600460008873ffffffffffffffffffffffffffffffffffffffff1673ffffffffffffffffffffffffffffffffffffffff168152602001908152602001600020548152602001908152602001600020600401819055506001600460008673ffffffffffffffffffffffffffffffffffffffff1673ffffffffffffffffffffffffffffffffffffffff1681526020019081526020016000205401600460008673ffffffffffffffffffffffffffffffffffffffff1673ffffffffffffffffffffffffffffffffffffffff1681526020019081526020016000208190555060026000815480929190600101919050555050505050565b60008090505b600460008473ffffffffffffffffffffffffffffffffffffffff1673ffffffffffffffffffffffffffffffffffffffff1681526020019081526020016000205481101561196057836040516020018082805190602001908083835b60208310611341578051825260208201915060208101905060208303925061131e565b6001836020036101000a03801982511681845116808217855250505050505090500191505060405160208183030381529060405280519060200120600360008573ffffffffffffffffffffffffffffffffffffffff1673ffffffffffffffffffffffffffffffffffffffff1681526020019081526020016000206000838152602001908152602001600020600001604051602001808280546001816001161561010002031660029004801561142d5780601f1061140b57610100808354040283529182019161142d565b820191906000526020600020905b815481529060010190602001808311611419575b50509150506040516020818303038152906040528051906020012014156119535760008090505b600360008573ffffffffffffffffffffffffffffffffffffffff1673ffffffffffffffffffffffffffffffffffffffff16815260200190815260200160002060008381526020019081526020016000206005018054905081101561195157826040516020018082805190602001908083835b602083106114e957805182526020820191506020810190506020830392506114c6565b6001836020036101000a03801982511681845116808217855250505050505090500191505060405160208183030381529060405280519060200120600360008673ffffffffffffffffffffffffffffffffffffffff1673ffffffffffffffffffffffffffffffffffffffff1681526020019081526020016000206000848152602001908152602001600020600501828154811061158257fe5b906000526020600020906007020160000160405160200180828054600181600116156101000203166002900480156115f15780601f106115cf5761010080835404028352918201916115f1565b820191906000526020600020905b8154815290600101906020018083116115dd575b50509150506040516020818303038152906040528051906020012014156119445742600360008673ffffffffffffffffffffffffffffffffffffffff1673ffffffffffffffffffffffffffffffffffffffff1681526020019081526020016000206000848152602001908152602001600020600501828154811061167157fe5b9060005260206000209060070201600201541161168d57600080fd5b60001515600360008673ffffffffffffffffffffffffffffffffffffffff1673ffffffffffffffffffffffffffffffffffffffff168152602001908152602001600020600084815260200190815260200160002060050182815481106116ef57fe5b906000526020600020906007020160050160149054906101000a900460ff1615151461171a57600080fd5b6000600360008673ffffffffffffffffffffffffffffffffffffffff1673ffffffffffffffffffffffffffffffffffffffff1681526020019081526020016000206000848152602001908152602001600020600501828154811061177a57fe5b906000526020600020906007020160010154905061179833826129b0565b6001600360008773ffffffffffffffffffffffffffffffffffffffff1673ffffffffffffffffffffffffffffffffffffffff168152602001908152602001600020600085815260200190815260200160002060050183815481106117f857fe5b906000526020600020906007020160050160146101000a81548160ff02191690831515021790555042600360008773ffffffffffffffffffffffffffffffffffffffff1673ffffffffffffffffffffffffffffffffffffffff1681526020019081526020016000206000858152602001908152602001600020600501838154811061187f57fe5b90600052602060002090600702016004018190555033600360008773ffffffffffffffffffffffffffffffffffffffff1673ffffffffffffffffffffffffffffffffffffffff168152602001908152602001600020600085815260200190815260200160002060050183815481106118f357fe5b906000526020600020906007020160050160006101000a81548173ffffffffffffffffffffffffffffffffffffffff021916908373ffffffffffffffffffffffffffffffffffffffff160217905550505b8080600101915050611454565b505b80806001019150506112c3565b50505050565b60025481565b600060606040518060400160405280600481526020017f494d4654000000000000000000000000000000000000000000000000000000008152509050602081015191505090565b60008090505b600460008473ffffffffffffffffffffffffffffffffffffffff1673ffffffffffffffffffffffffffffffffffffffff1681526020019081526020016000205481101561205357836040516020018082805190602001908083835b60208310611a375780518252602082019150602081019050602083039250611a14565b6001836020036101000a03801982511681845116808217855250505050505090500191505060405160208183030381529060405280519060200120600360008573ffffffffffffffffffffffffffffffffffffffff1673ffffffffffffffffffffffffffffffffffffffff16815260200190815260200160002060008381526020019081526020016000206000016040516020018082805460018160011615610100020316600290048015611b235780601f10611b01576101008083540402835291820191611b23565b820191906000526020600020905b815481529060010190602001808311611b0f575b50509150506040516020818303038152906040528051906020012014156120465760008090505b600360008573ffffffffffffffffffffffffffffffffffffffff1673ffffffffffffffffffffffffffffffffffffffff16815260200190815260200160002060008381526020019081526020016000206005018054905081101561204457826040516020018082805190602001908083835b60208310611bdf5780518252602082019150602081019050602083039250611bbc565b6001836020036101000a03801982511681845116808217855250505050505090500191505060405160208183030381529060405280519060200120600360008673ffffffffffffffffffffffffffffffffffffffff1673ffffffffffffffffffffffffffffffffffffffff16815260200190815260200160002060008481526020019081526020016000206005018281548110611c7857fe5b90600052602060002090600702016000016040516020018082805460018160011615610100020316600290048015611ce75780601f10611cc5576101008083540402835291820191611ce7565b820191906000526020600020905b815481529060010190602001808311611cd3575b5050915050604051602081830303815290604052805190602001201415612037573373ffffffffffffffffffffffffffffffffffffffff16600360008673ffffffffffffffffffffffffffffffffffffffff1673ffffffffffffffffffffffffffffffffffffffff168152602001908152602001600020600084815260200190815260200160002060030160009054906101000a900473ffffffffffffffffffffffffffffffffffffffff1673ffffffffffffffffffffffffffffffffffffffff1614611db357600080fd5b42600360008673ffffffffffffffffffffffffffffffffffffffff1673ffffffffffffffffffffffffffffffffffffffff16815260200190815260200160002060008481526020019081526020016000206005018281548110611e1257fe5b90600052602060002090600702016002015411611e2e57600080fd5b60001515600360008673ffffffffffffffffffffffffffffffffffffffff1673ffffffffffffffffffffffffffffffffffffffff16815260200190815260200160002060008481526020019081526020016000206005018281548110611e9057fe5b906000526020600020906007020160050160149054906101000a900460ff16151514611ebb57600080fd5b6000600360008673ffffffffffffffffffffffffffffffffffffffff1673ffffffffffffffffffffffffffffffffffffffff16815260200190815260200160002060008481526020019081526020016000206005018281548110611f1b57fe5b9060005260206000209060070201600101549050611f3933826129b0565b6001600360008773ffffffffffffffffffffffffffffffffffffffff1673ffffffffffffffffffffffffffffffffffffffff16815260200190815260200160002060008581526020019081526020016000206005018381548110611f9957fe5b906000526020600020906007020160050160146101000a81548160ff02191690831515021790555042600360008773ffffffffffffffffffffffffffffffffffffffff1673ffffffffffffffffffffffffffffffffffffffff1681526020019081526020016000206000858152602001908152602001600020600501838154811061202057fe5b906000526020600020906007020160040181905550505b8080600101915050611b4a565b505b80806001019150506119b9565b50505050565b6000809054906101000a900473ffffffffffffffffffffffffffffffffffffffff1681565b60056020528060005260406000206000915054906101000a900473ffffffffffffffffffffffffffffffffffffffff1681565b60046020528060005260406000206000915090505481565b606060008060008090505b600460008673ffffffffffffffffffffffffffffffffffffffff1673ffffffffffffffffffffffffffffffffffffffff1681526020019081526020016000205481101561246357866040516020018082805190602001908083835b60208310612152578051825260208201915060208101905060208303925061212f565b6001836020036101000a03801982511681845116808217855250505050505090500191505060405160208183030381529060405280519060200120600360008773ffffffffffffffffffffffffffffffffffffffff1673ffffffffffffffffffffffffffffffffffffffff1681526020019081526020016000206000838152602001908152602001600020600001604051602001808280546001816001161561010002031660029004801561223e5780601f1061221c57610100808354040283529182019161223e565b820191906000526020600020905b81548152906001019060200180831161222a575b505091505060405160208183030381529060405280519060200120141561245657600360008673ffffffffffffffffffffffffffffffffffffffff1673ffffffffffffffffffffffffffffffffffffffff168152602001908152602001600020600082815260200190815260200160002060050186815481106122bd57fe5b9060005260206000209060070201600001600360008773ffffffffffffffffffffffffffffffffffffffff1673ffffffffffffffffffffffffffffffffffffffff1681526020019081526020016000206000838152602001908152602001600020600501878154811061232c57fe5b906000526020600020906007020160040154600360008873ffffffffffffffffffffffffffffffffffffffff1673ffffffffffffffffffffffffffffffffffffffff1681526020019081526020016000206000848152602001908152602001600020600501888154811061239c57fe5b906000526020600020906007020160060154828054600181600116156101000203166002900480601f0160208091040260200160405190810160405280929190818152602001828054600181600116156101000203166002900480156124435780601f1061241857610100808354040283529160200191612443565b820191906000526020600020905b81548152906001019060200180831161242657829003601f168201915b5050505050925093509350935050612465565b80806001019150506120d4565b505b93509350939050565b60606124b96040518060400160405280600181526020017f45000000000000000000000000000000000000000000000000000000000000008152506124b46001546134a1565b6135ce565b90506124c361379d565b818160000181905250868160200181815250508581604001818152505060008160a0019073ffffffffffffffffffffffffffffffffffffffff16908173ffffffffffffffffffffffffffffffffffffffff1681525050848160600181815250506000801b8160e001818152505060008160c001901515908115158152505060008090505b600460008673ffffffffffffffffffffffffffffffffffffffff1673ffffffffffffffffffffffffffffffffffffffff168152602001908152602001600020548110156127415783600360008773ffffffffffffffffffffffffffffffffffffffff1673ffffffffffffffffffffffffffffffffffffffff168152602001908152602001600020600083815260200190815260200160002060010154141561273457600360008673ffffffffffffffffffffffffffffffffffffffff1673ffffffffffffffffffffffffffffffffffffffff1681526020019081526020016000206000828152602001908152602001600020600501829080600181540180825580915050906001820390600052602060002090600702016000909192909190915060008201518160000190805190602001906126849291906137fd565b506020820151816001015560408201518160020155606082015181600301556080820151816004015560a08201518160050160006101000a81548173ffffffffffffffffffffffffffffffffffffffff021916908373ffffffffffffffffffffffffffffffffffffffff16021790555060c08201518160050160146101000a81548160ff02191690831515021790555060e082015181600601555050506001600081548092919060010191905055505b8080600101915050612547565b5050505050505050565b6000816005600085815260200190815260200160002060006101000a81548173ffffffffffffffffffffffffffffffffffffffff021916908373ffffffffffffffffffffffffffffffffffffffff1602179055506001905092915050565b600080600090505b600460008573ffffffffffffffffffffffffffffffffffffffff1673ffffffffffffffffffffffffffffffffffffffff168152602001908152602001600020548110156129a857826040516020018082805190602001908083835b6020831061282f578051825260208201915060208101905060208303925061280c565b6001836020036101000a03801982511681845116808217855250505050505090500191505060405160208183030381529060405280519060200120600360008673ffffffffffffffffffffffffffffffffffffffff1673ffffffffffffffffffffffffffffffffffffffff1681526020019081526020016000206000838152602001908152602001600020600001604051602001808280546001816001161561010002031660029004801561291b5780601f106128f957610100808354040283529182019161291b565b820191906000526020600020905b815481529060010190602001808311612907575b505091505060405160208183030381529060405280519060200120141561299b57600360008573ffffffffffffffffffffffffffffffffffffffff1673ffffffffffffffffffffffffffffffffffffffff1681526020019081526020016000206000828152602001908152602001600020600501805490509150506129aa565b80806001019150506127b1565b505b92915050565b60006129ba61196c565b905060006005600083815260200190815260200160002060009054906101000a900473ffffffffffffffffffffffffffffffffffffffff169050600084905081600660006101000a81548173ffffffffffffffffffffffffffffffffffffffff021916908373ffffffffffffffffffffffffffffffffffffffff160217905550600660009054906101000a900473ffffffffffffffffffffffffffffffffffffffff1673ffffffffffffffffffffffffffffffffffffffff1663fd3e6a0a826000809054906101000a900473ffffffffffffffffffffffffffffffffffffffff16876040518463ffffffff1660e01b8152600401808473ffffffffffffffffffffffffffffffffffffffff1673ffffffffffffffffffffffffffffffffffffffff1681526020018373ffffffffffffffffffffffffffffffffffffffff1673ffffffffffffffffffffffffffffffffffffffff1681526020018281526020019350505050602060405180830381600087803b158015612b3857600080fd5b505af1158015612b4c573d6000803e3d6000fd5b505050506040513d6020811015612b6257600080fd5b8101908080519060200190929190505050505050505050565b6060600080600080600080600090505b600460008973ffffffffffffffffffffffffffffffffffffffff1673ffffffffffffffffffffffffffffffffffffffff1681526020019081526020016000205481101561309d57896040516020018082805190602001908083835b60208310612c095780518252602082019150602081019050602083039250612be6565b6001836020036101000a03801982511681845116808217855250505050505090500191505060405160208183030381529060405280519060200120600360008a73ffffffffffffffffffffffffffffffffffffffff1673ffffffffffffffffffffffffffffffffffffffff16815260200190815260200160002060008381526020019081526020016000206000016040516020018082805460018160011615610100020316600290048015612cf55780601f10612cd3576101008083540402835291820191612cf5565b820191906000526020600020905b815481529060010190602001808311612ce1575b505091505060405160208183030381529060405280519060200120141561309057600360008973ffffffffffffffffffffffffffffffffffffffff1673ffffffffffffffffffffffffffffffffffffffff16815260200190815260200160002060008281526020019081526020016000206005018981548110612d7457fe5b9060005260206000209060070201600001600360008a73ffffffffffffffffffffffffffffffffffffffff1673ffffffffffffffffffffffffffffffffffffffff16815260200190815260200160002060008381526020019081526020016000206005018a81548110612de357fe5b906000526020600020906007020160010154600360008b73ffffffffffffffffffffffffffffffffffffffff1673ffffffffffffffffffffffffffffffffffffffff16815260200190815260200160002060008481526020019081526020016000206005018b81548110612e5357fe5b906000526020600020906007020160020154600360008c73ffffffffffffffffffffffffffffffffffffffff1673ffffffffffffffffffffffffffffffffffffffff16815260200190815260200160002060008581526020019081526020016000206005018c81548110612ec357fe5b906000526020600020906007020160050160009054906101000a900473ffffffffffffffffffffffffffffffffffffffff16600360008d73ffffffffffffffffffffffffffffffffffffffff1673ffffffffffffffffffffffffffffffffffffffff16815260200190815260200160002060008681526020019081526020016000206005018d81548110612f5357fe5b906000526020600020906007020160030154600360008e73ffffffffffffffffffffffffffffffffffffffff1673ffffffffffffffffffffffffffffffffffffffff16815260200190815260200160002060008781526020019081526020016000206005018e81548110612fc357fe5b906000526020600020906007020160050160149054906101000a900460ff16858054600181600116156101000203166002900480601f0160208091040260200160405190810160405280929190818152602001828054600181600116156101000203166002900480156130775780601f1061304c57610100808354040283529160200191613077565b820191906000526020600020905b81548152906001019060200180831161305a57829003601f168201915b505050505095509650965096509650965096505061309f565b8080600101915050612b8b565b505b93975093979195509350565b6060600080600080600360008773ffffffffffffffffffffffffffffffffffffffff1673ffffffffffffffffffffffffffffffffffffffff1681526020019081526020016000206000888152602001908152602001600020600001600360008873ffffffffffffffffffffffffffffffffffffffff1673ffffffffffffffffffffffffffffffffffffffff168152602001908152602001600020600089815260200190815260200160002060010154600360008973ffffffffffffffffffffffffffffffffffffffff1673ffffffffffffffffffffffffffffffffffffffff16815260200190815260200160002060008a815260200190815260200160002060020154600360008a73ffffffffffffffffffffffffffffffffffffffff1673ffffffffffffffffffffffffffffffffffffffff16815260200190815260200160002060008b815260200190815260200160002060030160009054906101000a900473ffffffffffffffffffffffffffffffffffffffff16600360008b73ffffffffffffffffffffffffffffffffffffffff1673ffffffffffffffffffffffffffffffffffffffff16815260200190815260200160002060008c815260200190815260200160002060040154848054600181600116156101000203166002900480601f01602080910402602001604051908101604052809291908181526020018280546001816001161561010002031660029004801561330b5780601f106132e05761010080835404028352916020019161330b565b820191906000526020600020905b8154815290600101906020018083116132ee57829003601f168201915b50505050509450945094509450945094509295509295909350565b60015481565b83600360008373ffffffffffffffffffffffffffffffffffffffff1673ffffffffffffffffffffffffffffffffffffffff1681526020019081526020016000206000848152602001908152602001600020600501848154811061338b57fe5b90600052602060002090600702016006018190555050505050565b600360205281600052604060002060205280600052604060002060009150915050806000018054600181600116156101000203166002900480601f01602080910402602001604051908101604052809291908181526020018280546001816001161561010002031660029004801561345f5780601f106134345761010080835404028352916020019161345f565b820191906000526020600020905b81548152906001019060200180831161344257829003601f168201915b5050505050908060010154908060020154908060030160009054906101000a900473ffffffffffffffffffffffffffffffffffffffff16908060040154905085565b606060008214156134e9576040518060400160405280600181526020017f300000000000000000000000000000000000000000000000000000000000000081525090506135c9565b600082905060005b60008214613513578080600101915050600a828161350b57fe5b0491506134f1565b6060816040519080825280601f01601f1916602001820160405280156135485781602001600182028038833980820191505090505b50905060006001830390505b600086146135c157600a868161356657fe5b0660300160f81b8282806001900393508151811061358057fe5b60200101907effffffffffffffffffffffffffffffffffffffffffffffffffffffffffffff1916908160001a905350600a86816135b957fe5b049550613554565b819450505050505b919050565b606080839050606083905060008151116135e457fe5b606081518351016040519080825280601f01601f19166020018201604052801561361d5781602001600182028038833980820191505090505b5090506060819050600080600091505b855182101561369b5785828151811061364257fe5b602001015160f81c60f81b83828060010193508151811061365f57fe5b60200101907effffffffffffffffffffffffffffffffffffffffffffffffffffffffffffff1916908160001a905350818060010192505061362d565b600091505b845182101561370e578482815181106136b557fe5b602001015160f81c60f81b8382806001019350815181106136d257fe5b60200101907effffffffffffffffffffffffffffffffffffffffffffffffffffffffffffff1916908160001a90535081806001019250506136a0565b82965050505050505092915050565b828054600181600116156101000203166002900490600052602060002090601f016020900481019282601f1061375e57805160ff191683800117855561378c565b8280016001018555821561378c579182015b8281111561378b578251825591602001919060010190613770565b5b509050613799919061387d565b5090565b6040518061010001604052806060815260200160008152602001600081526020016000815260200160008152602001600073ffffffffffffffffffffffffffffffffffffffff168152602001600015158152602001600080191681525090565b828054600181600116156101000203166002900490600052602060002090601f016020900481019282601f1061383e57805160ff191683800117855561386c565b8280016001018555821561386c579182015b8281111561386b578251825591602001919060010190613850565b5b509050613879919061387d565b5090565b61389f91905b8082111561389b576000816000905550600101613883565b5090565b9056fea265627a7a723158201ce0ea6a9fbfb89b8cbb06d7cc78fa78cd1dd96f50a239ed55cd66b6e68effde64736f6c634300050b0032",
  "source": "pragma solidity 0.5.11;\n\n\n/**\n * @title ERC20Basic\n * @dev Simpler version of ERC20 interface\n * @dev see https://github.com/ethereum/EIPs/issues/179\n */\ncontract ERC20Basic {\n  function totalSupply() public view returns (uint256);\n  function balanceOf(address who) public view returns (uint256);\n  function transfer(address to, uint256 value) public returns (bool);\n  function transfers(address from_,address _to, uint256 _value) public returns (bool);\n  event Transfer(address indexed from, address indexed to, uint256 value);\n}\n\n \n\n/**\n * @title ERC20 interface\n * @dev see https://github.com/ethereum/EIPs/issues/20\n */\ncontract ERC20 is ERC20Basic {\n  function allowance(address owner, address spender) public view returns (uint256);\n  function transferFrom(address from, address to, uint256 value) public returns (bool);\n  function approve(address spender, uint256 value) public returns (bool);\n  event Approval(address indexed owner, address indexed spender, uint256 value);\n}\n\n\n\ncontract PretContract {\n    \n    \n        address public owner;\n        uint256 public idEcheanceGlobale = 0;\n         uint public idPretGlobale = 0;\n\n\n     struct Echeance {\n        string idEcheance;\n        uint256 montant;\n        uint256 DateLimite ;\n        uint256 DateLancement ;\n        uint256 DatePaiement;\n        address intermediate ;\n        // nonPay .... false : pay .... true\n        bool status;\n        bytes32 transaction_hash;\n        \n        \n    }\n    \n    struct Pret {\n        string idPret ;\n        uint256 DateCreation ;\n        // 0 : nonPay .... 1 : pay .... 2 : bloqu\n        uint256 status ;\n        address borrower ;\n        uint256 NombreEcheances ;\n        Echeance[]  ListEcheances;\n\n \n\n        \n  \n    }\n    \n    \n    \n    \n    mapping (address => mapping (uint => Pret)) public ListePret;\n    \n    mapping(address => uint) public NombrePret;\n\n//  mapping(string => Pret) public ListPrets;\n\n  //  string[] public NbrListPrets;\n\n mapping(bytes32 => address) public tokens;\n \n   ERC20 public ERC20Interface;\n                                                                                                                                                                                                                                                                                                                                                                                                                                                                                                                                                                                                                                                                                                                                                                                                                                                                                                                                                                                                                                                                                                                                                                                                                                                                                                                                                                                                                                                                                                                                                                                                                                                                                                                                                                                                                                                                                                                                                                                                                                                                                                                                                                                                                                                                                                                                                                                                                                                                                                                                                                                                                                                                                                                                                                                                                                                                                                                                                                                                                                                                                                                                                                                                                                                                                                                                                                                                                                                                                                                                                                                                                                                                                                                                                                                                                                                                                                                                                                                                                                                                                                                                                                                                                                                                                                                                                                                                                                                                                                                                                                                                                                                                                                                                                                                                                                                                                                                                                                                                                                                                                                                                                                                                                                                                                                                                                                                                                                                                                                                                                                                                                                                                                                                                                                                                                                                                                                                                                                                                                                                                                                                                                                                                                                                                                                                                                                                                                                                                                                                                                                                                                                                                                                                                                                                                                                                                                                                                                                                                                                                                                                                                                                                                                                                                                                                                                                                                                                                                                                                                                                                                                                                                                                                                                                                                                                                                                                                                                                                                                                                                                                                                                                                                                                                                                                                                                                                                                                                                                                                                                                                                                                                                                                                                                                                                                                                                                                                                                                                                                                                                                                                                                                                                                                                                                                                                                                                                                                                                                                                                                                                                                                                                                                                                                                                                                                                                                                                                                                                                                                                                                                                                                                                                                                                                                                                                                                                                                                                                                                                                                                                                                                                                                                                                                                                                                                                                                                                                                                                                                                                                                                                                                                                                                                                                                                                                                                                                                                                                                                                                                                                                                                                                                                                                                                                                                                                                                                                                                                                                                                                                                                                                                                                                                                                                                                                                                                                                                                                                                                                                                                                                                                                                                                                                                                                                                                                                                                                                                                                                                                                                                                                                                                                                                                                                                                                                                                                                                                                                                                                                                                                                                                                                                                                                                                                                                                                                                                                                                                                                                                                                                                                                                                                                                                                                                                                                                                                                                                                                                                                                                                                                                                                                                                                                                                                                                                                                                                                                                                                                                                                                                                                                                                                                                                                                                                                                                                                                                                                                                                                                                                                                                                                                                                                                                                                                                                                                                                                                                                                                                                                                                                                                                                                                                                                                                                                                                                                                                                                                                                                                                                                                                                                                                                                                                                                                                                                                                                                                                                                                                                                                                                                                                                                                                                                                                                                                                                                                                                                                                                                                                                                                                                                                                                                                                                                                                                                                                                                                                                                                                                                                                                                                                                                                                                                                                                                                                                                                                                                                                                                                                                                                                                                                                                                                                                                                                                                                                                                                                                                                                                                                                                                                                                                                                                                                                                                                                                                                                                                                                                                                                                                                                                                                                                                                                                                                                                                                                                                                                                                                                                                                                                                                                                                                                                                                                                                                                                                                                                                                                                                                                                                                                                                                                                                                                                                                                                                                                                                                                                                                                                                                                                                                                                                                                                                                                                                                                                                                                                                                                                                                                                                                        \n\n    constructor() public {\n         owner = msg.sender;\n\n \n\n    }\n    \n    \n        \n     function addNewToken(bytes32 symbol_, address address_) public returns (bool) {\n  tokens[symbol_] = address_;\n\n \n\n  return true;\n }\n    \nfunction transferBackTokens( address adh, uint amount) public {\n    \n bytes32 symbol_ = SymbolToken();\n\n \n\n  address contract_ = tokens[symbol_];\n  address from_ = adh;\n  ERC20Interface = ERC20(contract_);\n\n\n  ERC20Interface.transfers(from_,owner, amount);\n\n \n\n }\n \n \n     function SymbolToken() public pure returns (bytes32 result) {\n        string memory testFoo = \"IMFT\";\n         assembly {\n        result := mload(add(testFoo, 32))\n        }\n    }\n\n    \n     \nfunction uint2str(uint i) internal pure returns (string memory){\n    if (i == 0) return \"0\";\n    uint j = i;\n    uint length;\n    while (j != 0){\n        length++;\n        j /= 10;\n    }\n    bytes memory bstr = new bytes(length);\n    uint k = length - 1;\n    while (i != 0){\n        bstr[k--] = byte(uint8(48 + i % 10)); \n        i /= 10;\n    }\n    return string(bstr);\n}\n\n\n \n function concat(string memory _base, string memory _value)\n        internal\n        pure\n        returns (string memory) {\n        bytes memory _baseBytes = bytes(_base);\n        bytes memory _valueBytes = bytes(_value);\n\n \n\n        assert(_valueBytes.length > 0);\n\n \n\n        string memory _tmpValue = new string(_baseBytes.length +\n            _valueBytes.length);\n        bytes memory _newValue = bytes(_tmpValue);\n\n \n\n        uint i;\n        uint j;\n\n \n\n        for (i = 0; i < _baseBytes.length; i++) {\n            _newValue[j++] = _baseBytes[i];\n        }\n\n \n\n        for (i = 0; i < _valueBytes.length; i++) {\n            _newValue[j++] = _valueBytes[i];\n        }\n\n \n\n        return string(_newValue);\n    }\n  \n \n    \n    function addPret( \n        address borrower,\n        uint256 NombreEcheances,\n        uint256 DateCreation) public {\n            \n            \n          string memory idPret =  concat(\"PR\",uint2str(idPretGlobale)) ;\n          \n          ListePret[borrower][NombrePret[borrower]].idPret = idPret;\n        \n        ListePret[borrower][NombrePret[borrower]].DateCreation = DateCreation;\n        \n        ListePret[borrower][NombrePret[borrower]].status = 0;\n        \n        ListePret[borrower][NombrePret[borrower]].borrower = borrower;\n        \n        ListePret[borrower][NombrePret[borrower]].NombreEcheances = NombreEcheances;\n        \n        NombrePret[borrower] = NombrePret[borrower]+1;\n        \n        idPretGlobale ++ ;\n\n \n        }\n        \n          function getPretInfoByIndex(uint256 index, address borrower) public view returns (string memory, uint256 , uint256, address, uint256) {\n              \n              return(ListePret[borrower][index].idPret, ListePret[borrower][index].DateCreation, ListePret[borrower][index].status, ListePret[borrower][index].borrower, ListePret[borrower][index].NombreEcheances);\n              \n             \n         }\n         \n        function getPretLengthByBorrower(address borrower) public view returns( uint) {\n            \n            return (NombrePret[borrower]);\n            \n        }\n        \n             \n       \n        function addEcheance(   \n//        string memory idPret,\n        uint256 montant,\n        uint256 DateLimite,\n        uint256 DateLancement,\n        address borrower,\n        uint256 DateActuel\n       ) public {\n     \n               string memory idEcheance =  concat(\"E\",uint2str(idEcheanceGlobale)) ;\n       \n       \n       Echeance memory echeance;\n       \n       echeance.idEcheance = idEcheance;\n       \n       echeance.montant = montant;\n       \n       echeance.DateLimite = DateLimite;\n       \n       echeance.intermediate = address(0);\n       \n       echeance.DateLancement = DateLancement;\n       \n       echeance.transaction_hash = 0x0;\n       \n       echeance.status = false;\n       \n       for(uint256 i=0; i<NombrePret[borrower];i++) {\n       \n       if(ListePret[borrower][i].DateCreation == DateActuel) {\n   \n       ListePret[borrower][i].ListEcheances.push(echeance);\n     \n        idEcheanceGlobale ++ ;\n        \n       }\n       }\n    \n\n \n        }\n        \n        \n          function getEcheanceInfoByIndex(string memory idPret, uint256 indexE, address borrower) public view returns (string memory, uint256 , uint256, address, uint256, bool) {\n              \n                  \n            for(uint256 i=0; i<NombrePret[borrower]; i++){\n                \n                if(keccak256( abi.encodePacked(ListePret[borrower][i].idPret)) == keccak256( abi.encodePacked(idPret))) {\n                      return(ListePret[borrower][i].ListEcheances[indexE].idEcheance,ListePret[borrower][i].ListEcheances[indexE].montant, ListePret[borrower][i].ListEcheances[indexE].DateLimite, ListePret[borrower][i].ListEcheances[indexE].intermediate,\n              ListePret[borrower][i].ListEcheances[indexE].DateLancement, ListePret[borrower][i].ListEcheances[indexE].status);\n                }\n            }\n              \n            \n              \n             \n         }\n        \n     \n      \n           function getEcheanceInfoByIndexX(string memory idPret, uint256 indexE, address borrower) public view returns (string memory, uint256, bytes32) {\n              \n                  \n            for(uint256 i=0; i<NombrePret[borrower]; i++){\n                \n                if(keccak256( abi.encodePacked(ListePret[borrower][i].idPret)) == keccak256( abi.encodePacked(idPret))) {\n                      return(ListePret[borrower][i].ListEcheances[indexE].idEcheance, ListePret[borrower][i].ListEcheances[indexE].DatePaiement, ListePret[borrower][i].ListEcheances[indexE].transaction_hash );\n                }\n            }\n              \n            \n              \n             \n         }\n         \n        function getEcheanceLengthByPret(address borrower, string memory idPret) public view returns( uint) {\n            \n            for(uint256 i=0; i<NombrePret[borrower]; i++){\n                \n                if(keccak256( abi.encodePacked(ListePret[borrower][i].idPret)) == keccak256( abi.encodePacked(idPret))) {\n                    return(ListePret[borrower][i].ListEcheances.length);\n                }\n            }\n            \n        }\n        \n   \n         \n       \n    function setTransactionHash(\n        bytes32 trHash,\n        uint256 indexE,\n        uint256 indexP,\n        address borrower\n    ) public {\n        \n        ListePret[borrower][indexP].ListEcheances[indexE].transaction_hash = trHash;\n    \n\n    }\n    \n\n    function payerEcheance( string memory idPret, address borrower, string memory idEcheance) public {\n        \n        \n           for(uint256 j=0; j<NombrePret[borrower]; j++){\n                \n                if(keccak256( abi.encodePacked(ListePret[borrower][j].idPret)) == keccak256( abi.encodePacked(idPret))) {\n        for(uint i =0; i<ListePret[borrower][j].ListEcheances.length; i++) {\n            \n            if (keccak256( abi.encodePacked(ListePret[borrower][j].ListEcheances[i].idEcheance)) == \n            keccak256( abi.encodePacked(idEcheance))) {\n                \n                   require(ListePret[borrower][j].borrower == msg.sender);\n        \n        require (ListePret[borrower][j].ListEcheances[i].DateLimite > now );\n     \n        require(ListePret[borrower][j].ListEcheances[i].status == false);\n        \n        uint256 amount = ListePret[borrower][j].ListEcheances[i].montant;\n        \n        transferBackTokens( msg.sender, amount);\n        \n        ListePret[borrower][j].ListEcheances[i].status = true;\n        \n       ListePret[borrower][j].ListEcheances[i].DatePaiement = now;\n                \n            }\n            \n        }\n                }}\n        \n     \n        \n   \n\n \n\n    }\n    \n    \n    function PayerEcheanceIntermadiate(string memory idPret, address borrower, string memory idEcheance) public\n    {\n        \n        \n              for(uint256 j=0; j<NombrePret[borrower]; j++){\n                \n                if(keccak256( abi.encodePacked(ListePret[borrower][j].idPret)) == keccak256( abi.encodePacked(idPret))) {\n        for(uint i =0; i<ListePret[borrower][j].ListEcheances.length; i++) {\n            \n            if (keccak256( abi.encodePacked(ListePret[borrower][j].ListEcheances[i].idEcheance)) == \n            keccak256( abi.encodePacked(idEcheance))) {\n                \n             //      require(ListePret[borrower][j].borrower == msg.sender);\n        \n        require (ListePret[borrower][j].ListEcheances[i].DateLimite > now );\n     \n        require(ListePret[borrower][j].ListEcheances[i].status == false);\n        \n        uint256 amount = ListePret[borrower][j].ListEcheances[i].montant;\n        \n        transferBackTokens( msg.sender, amount);\n        \n        ListePret[borrower][j].ListEcheances[i].status = true;\n        \n       ListePret[borrower][j].ListEcheances[i].DatePaiement = now;\n        ListePret[borrower][j].ListEcheances[i].intermediate = msg.sender;\n                \n            }\n            \n        }\n                }}\n        \n     \n  \n    }\n    \n\n\n\n\n}\n\n\n",
  "sourcePath": "/home/ubuntu/az/paylis/Echeance/contracts/PretContract.sol",
  "compiler": {
    "name": "solc",
    "version": "0.5.11+commit.c082d0b4.Emscripten.clang"
  },
  "schemaVersion": "3.0.19",
  "updatedAt": "2021-02-03T09:39:55.842Z",
  "networkType": "ethereum",
  "devdoc": {
    "methods": {}
  },
  "userdoc": {
    "methods": {}
  }
}