{
  "contractName": "test",
  "abi": [
    {
      "constant": true,
      "inputs": [],
      "name": "val",
      "outputs": [
        {
          "internalType": "uint256",
          "name": "",
          "type": "uint256"
        }
      ],
      "payable": false,
      "stateMutability": "view",
      "type": "function"
    },
    {
      "constant": false,
      "inputs": [
        {
          "internalType": "uint256",
          "name": "value",
          "type": "uint256"
        }
      ],
      "name": "set",
      "outputs": [
        {
          "internalType": "string",
          "name": "",
          "type": "string"
        }
      ],
      "payable": false,
      "stateMutability": "nonpayable",
      "type": "function"
    },
    {
      "constant": true,
      "inputs": [],
      "name": "get",
      "outputs": [
        {
          "internalType": "uint256",
          "name": "",
          "type": "uint256"
        }
      ],
      "payable": false,
      "stateMutability": "view",
      "type": "function"
    }
  ],
  "bytecode": "0x608060405234801561001057600080fd5b506101b9806100206000396000f3fe608060405234801561001057600080fd5b50600436106100415760003560e01c80633c6bb4361461004657806360fe47b1146100645780636d4ce63c1461010b575b600080fd5b61004e610129565b6040518082815260200191505060405180910390f35b6100906004803603602081101561007a57600080fd5b810190808035906020019092919050505061012f565b6040518080602001828103825283818151815260200191508051906020019080838360005b838110156100d05780820151818401526020810190506100b5565b50505050905090810190601f1680156100fd5780820380516001836020036101000a031916815260200191505b509250505060405180910390f35b61011361017b565b6040518082815260200191505060405180910390f35b60005481565b60608160008190555060606040518060400160405280600581526020017f68656c6c6f000000000000000000000000000000000000000000000000000000815250905080915050919050565b6000805490509056fea265627a7a7231582021f6c664b45466e3685597c0ed9b80a24eb3829576a06e67b770e2cd5970b3cb64736f6c634300050b0032",
  "source": "pragma solidity 0.5.11;\n\ncontract test {\n    \n    \n     uint256 public val;\n     \n     function set(uint256 value) public returns(string memory){\n        val = value;\n        string memory tt = 'hello';\n        return tt;  \n    }\n \n \n    function get() public view returns (uint256){\n        return val;\n    }\n    \n}\n",
  "sourcePath": "/home/ubuntu/az/paylis/Echeance/contracts/test.sol",
  "compiler": {
    "name": "solc",
    "version": "0.5.11+commit.c082d0b4.Emscripten.clang"
  },
  "schemaVersion": "3.0.19",
  "updatedAt": "2021-02-03T09:39:59.489Z",
  "networkType": "ethereum",
  "devdoc": {
    "methods": {}
  },
  "userdoc": {
    "methods": {}
  }
}